{
  "contracts/staking/DeltaTimeStaking2021.sol": {
    "DeltaTimeStaking2021": {
      "abi": [
        {
          "inputs": [
            {
              "internalType": "uint32",
              "name": "cycleLengthInSeconds_",
              "type": "uint32"
            },
            {
              "internalType": "uint16",
              "name": "periodLengthInCycles_",
              "type": "uint16"
            },
            {
              "internalType": "contract IWhitelistedNftContract",
              "name": "whitelistedNftContract_",
              "type": "address"
            },
            {
              "internalType": "contract IWrappedERC20",
              "name": "rewardsTokenContract_",
              "type": "address"
            },
            {
              "internalType": "uint256[]",
              "name": "rarities",
              "type": "uint256[]"
            },
            {
              "internalType": "uint64[]",
              "name": "weights",
              "type": "uint64[]"
            }
          ],
          "stateMutability": "nonpayable",
          "type": "constructor"
        },
        {
          "anonymous": false,
          "inputs": [],
          "name": "Disabled",
          "type": "event"
        },
        {
          "anonymous": false,
          "inputs": [
            {
              "indexed": false,
              "internalType": "address",
              "name": "staker",
              "type": "address"
            },
            {
              "indexed": false,
              "internalType": "uint256",
              "name": "startCycle",
              "type": "uint256"
            },
            {
              "indexed": false,
              "internalType": "uint256",
              "name": "stakerStake",
              "type": "uint256"
            },
            {
              "indexed": false,
              "internalType": "uint256",
              "name": "globalStake",
              "type": "uint256"
            }
          ],
          "name": "HistoriesUpdated",
          "type": "event"
        },
        {
          "anonymous": false,
          "inputs": [
            {
              "indexed": false,
              "internalType": "address",
              "name": "staker",
              "type": "address"
            },
            {
              "indexed": false,
              "internalType": "uint256",
              "name": "cycle",
              "type": "uint256"
            },
            {
              "indexed": false,
              "internalType": "uint256",
              "name": "tokenId",
              "type": "uint256"
            },
            {
              "indexed": false,
              "internalType": "uint256",
              "name": "weight",
              "type": "uint256"
            }
          ],
          "name": "NftStaked",
          "type": "event"
        },
        {
          "anonymous": false,
          "inputs": [
            {
              "indexed": false,
              "internalType": "address",
              "name": "staker",
              "type": "address"
            },
            {
              "indexed": false,
              "internalType": "uint256",
              "name": "cycle",
              "type": "uint256"
            },
            {
              "indexed": false,
              "internalType": "uint256",
              "name": "tokenId",
              "type": "uint256"
            },
            {
              "indexed": false,
              "internalType": "uint256",
              "name": "weight",
              "type": "uint256"
            }
          ],
          "name": "NftUnstaked",
          "type": "event"
        },
        {
          "anonymous": false,
          "inputs": [
            {
              "indexed": true,
              "internalType": "address",
              "name": "previousOwner",
              "type": "address"
            },
            {
              "indexed": true,
              "internalType": "address",
              "name": "newOwner",
              "type": "address"
            }
          ],
          "name": "OwnershipTransferred",
          "type": "event"
        },
        {
          "anonymous": false,
          "inputs": [
            {
              "indexed": false,
              "internalType": "uint256",
              "name": "startPeriod",
              "type": "uint256"
            },
            {
              "indexed": false,
              "internalType": "uint256",
              "name": "endPeriod",
              "type": "uint256"
            },
            {
              "indexed": false,
              "internalType": "uint256",
              "name": "rewardsPerCycle",
              "type": "uint256"
            }
          ],
          "name": "RewardsAdded",
          "type": "event"
        },
        {
          "anonymous": false,
          "inputs": [
            {
              "indexed": false,
              "internalType": "address",
              "name": "staker",
              "type": "address"
            },
            {
              "indexed": false,
              "internalType": "uint256",
              "name": "cycle",
              "type": "uint256"
            },
            {
              "indexed": false,
              "internalType": "uint256",
              "name": "startPeriod",
              "type": "uint256"
            },
            {
              "indexed": false,
              "internalType": "uint256",
              "name": "periods",
              "type": "uint256"
            },
            {
              "indexed": false,
              "internalType": "uint256",
              "name": "amount",
              "type": "uint256"
            }
          ],
          "name": "RewardsClaimed",
          "type": "event"
        },
        {
          "anonymous": false,
          "inputs": [],
          "name": "Started",
          "type": "event"
        },
        {
          "inputs": [
            {
              "internalType": "uint16",
              "name": "startPeriod",
              "type": "uint16"
            },
            {
              "internalType": "uint16",
              "name": "endPeriod",
              "type": "uint16"
            },
            {
              "internalType": "uint256",
              "name": "rewardsPerCycle",
              "type": "uint256"
            }
          ],
          "name": "addRewardsForPeriods",
          "outputs": [],
          "stateMutability": "nonpayable",
          "type": "function"
        },
        {
          "inputs": [
            {
              "internalType": "uint16",
              "name": "maxPeriods",
              "type": "uint16"
            }
          ],
          "name": "claimRewards",
          "outputs": [],
          "stateMutability": "nonpayable",
          "type": "function"
        },
        {
          "inputs": [],
          "name": "cycleLengthInSeconds",
          "outputs": [
            {
              "internalType": "uint32",
              "name": "",
              "type": "uint32"
            }
          ],
          "stateMutability": "view",
          "type": "function"
        },
        {
          "inputs": [],
          "name": "disable",
          "outputs": [],
          "stateMutability": "nonpayable",
          "type": "function"
        },
        {
          "inputs": [],
          "name": "enabled",
          "outputs": [
            {
              "internalType": "bool",
              "name": "",
              "type": "bool"
            }
          ],
          "stateMutability": "view",
          "type": "function"
        },
        {
          "inputs": [
            {
              "internalType": "uint16",
              "name": "maxPeriods",
              "type": "uint16"
            }
          ],
          "name": "estimateRewards",
          "outputs": [
            {
              "internalType": "uint16",
              "name": "startPeriod",
              "type": "uint16"
            },
            {
              "internalType": "uint16",
              "name": "periods",
              "type": "uint16"
            },
            {
              "internalType": "uint256",
              "name": "amount",
              "type": "uint256"
            }
          ],
          "stateMutability": "view",
          "type": "function"
        },
        {
          "inputs": [],
          "name": "getCurrentCycle",
          "outputs": [
            {
              "internalType": "uint16",
              "name": "",
              "type": "uint16"
            }
          ],
          "stateMutability": "view",
          "type": "function"
        },
        {
          "inputs": [],
          "name": "getCurrentPeriod",
          "outputs": [
            {
              "internalType": "uint16",
              "name": "",
              "type": "uint16"
            }
          ],
          "stateMutability": "view",
          "type": "function"
        },
        {
          "inputs": [
            {
              "internalType": "uint256",
              "name": "",
              "type": "uint256"
            }
          ],
          "name": "globalHistory",
          "outputs": [
            {
              "internalType": "uint128",
              "name": "stake",
              "type": "uint128"
            },
            {
              "internalType": "uint128",
              "name": "startCycle",
              "type": "uint128"
            }
          ],
          "stateMutability": "view",
          "type": "function"
        },
        {
          "inputs": [],
          "name": "lastGlobalSnapshotIndex",
          "outputs": [
            {
              "internalType": "uint256",
              "name": "",
              "type": "uint256"
            }
          ],
          "stateMutability": "view",
          "type": "function"
        },
        {
          "inputs": [
            {
              "internalType": "address",
              "name": "staker",
              "type": "address"
            }
          ],
          "name": "lastStakerSnapshotIndex",
          "outputs": [
            {
              "internalType": "uint256",
              "name": "",
              "type": "uint256"
            }
          ],
          "stateMutability": "view",
          "type": "function"
        },
        {
          "inputs": [
            {
              "internalType": "address",
              "name": "",
              "type": "address"
            }
          ],
          "name": "nextClaims",
          "outputs": [
            {
              "internalType": "uint16",
              "name": "period",
              "type": "uint16"
            },
            {
              "internalType": "uint64",
              "name": "globalSnapshotIndex",
              "type": "uint64"
            },
            {
              "internalType": "uint64",
              "name": "stakerSnapshotIndex",
              "type": "uint64"
            }
          ],
          "stateMutability": "view",
          "type": "function"
        },
        {
          "inputs": [
            {
              "internalType": "address",
              "name": "",
              "type": "address"
            },
            {
              "internalType": "address",
              "name": "from",
              "type": "address"
            },
            {
              "internalType": "uint256[]",
              "name": "ids",
              "type": "uint256[]"
            },
            {
              "internalType": "uint256[]",
              "name": "",
              "type": "uint256[]"
            },
            {
              "internalType": "bytes",
              "name": "",
              "type": "bytes"
            }
          ],
          "name": "onERC1155BatchReceived",
          "outputs": [
            {
              "internalType": "bytes4",
              "name": "",
              "type": "bytes4"
            }
          ],
          "stateMutability": "nonpayable",
          "type": "function"
        },
        {
          "inputs": [
            {
              "internalType": "address",
              "name": "",
              "type": "address"
            },
            {
              "internalType": "address",
              "name": "from",
              "type": "address"
            },
            {
              "internalType": "uint256",
              "name": "id",
              "type": "uint256"
            },
            {
              "internalType": "uint256",
              "name": "",
              "type": "uint256"
            },
            {
              "internalType": "bytes",
              "name": "",
              "type": "bytes"
            }
          ],
          "name": "onERC1155Received",
          "outputs": [
            {
              "internalType": "bytes4",
              "name": "",
              "type": "bytes4"
            }
          ],
          "stateMutability": "nonpayable",
          "type": "function"
        },
        {
          "inputs": [],
          "name": "owner",
          "outputs": [
            {
              "internalType": "address",
              "name": "",
              "type": "address"
            }
          ],
          "stateMutability": "view",
          "type": "function"
        },
        {
          "inputs": [],
          "name": "periodLengthInCycles",
          "outputs": [
            {
              "internalType": "uint16",
              "name": "",
              "type": "uint16"
            }
          ],
          "stateMutability": "view",
          "type": "function"
        },
        {
          "inputs": [
            {
              "internalType": "uint256",
              "name": "",
              "type": "uint256"
            }
          ],
          "name": "rewardsSchedule",
          "outputs": [
            {
              "internalType": "uint256",
              "name": "",
              "type": "uint256"
            }
          ],
          "stateMutability": "view",
          "type": "function"
        },
        {
          "inputs": [],
          "name": "rewardsTokenContract",
          "outputs": [
            {
              "internalType": "contract IWrappedERC20",
              "name": "",
              "type": "address"
            }
          ],
          "stateMutability": "view",
          "type": "function"
        },
        {
          "inputs": [
            {
              "internalType": "address",
              "name": "",
              "type": "address"
            },
            {
              "internalType": "uint256",
              "name": "",
              "type": "uint256"
            }
          ],
          "name": "stakerHistories",
          "outputs": [
            {
              "internalType": "uint128",
              "name": "stake",
              "type": "uint128"
            },
            {
              "internalType": "uint128",
              "name": "startCycle",
              "type": "uint128"
            }
          ],
          "stateMutability": "view",
          "type": "function"
        },
        {
          "inputs": [],
          "name": "start",
          "outputs": [],
          "stateMutability": "nonpayable",
          "type": "function"
        },
        {
          "inputs": [],
          "name": "startTimestamp",
          "outputs": [
            {
              "internalType": "uint256",
              "name": "",
              "type": "uint256"
            }
          ],
          "stateMutability": "view",
          "type": "function"
        },
        {
          "inputs": [
            {
              "internalType": "bytes4",
              "name": "interfaceId",
              "type": "bytes4"
            }
          ],
          "name": "supportsInterface",
          "outputs": [
            {
              "internalType": "bool",
              "name": "",
              "type": "bool"
            }
          ],
          "stateMutability": "view",
          "type": "function"
        },
        {
          "inputs": [
            {
              "internalType": "uint256",
              "name": "",
              "type": "uint256"
            }
          ],
          "name": "tokenInfos",
          "outputs": [
            {
              "internalType": "address",
              "name": "owner",
              "type": "address"
            },
            {
              "internalType": "uint64",
              "name": "weight",
              "type": "uint64"
            },
            {
              "internalType": "uint16",
              "name": "depositCycle",
              "type": "uint16"
            },
            {
              "internalType": "uint16",
              "name": "withdrawCycle",
              "type": "uint16"
            }
          ],
          "stateMutability": "view",
          "type": "function"
        },
        {
          "inputs": [],
          "name": "totalRewardsPool",
          "outputs": [
            {
              "internalType": "uint256",
              "name": "",
              "type": "uint256"
            }
          ],
          "stateMutability": "view",
          "type": "function"
        },
        {
          "inputs": [
            {
              "internalType": "address",
              "name": "newOwner",
              "type": "address"
            }
          ],
          "name": "transferOwnership",
          "outputs": [],
          "stateMutability": "nonpayable",
          "type": "function"
        },
        {
          "inputs": [
            {
              "internalType": "uint256",
              "name": "tokenId",
              "type": "uint256"
            }
          ],
          "name": "unstakeNft",
          "outputs": [],
          "stateMutability": "nonpayable",
          "type": "function"
        },
        {
          "inputs": [
            {
              "internalType": "uint256",
              "name": "",
              "type": "uint256"
            }
          ],
          "name": "weightsByRarity",
          "outputs": [
            {
              "internalType": "uint64",
              "name": "",
              "type": "uint64"
            }
          ],
          "stateMutability": "view",
          "type": "function"
        },
        {
          "inputs": [],
          "name": "whitelistedNftContract",
          "outputs": [
            {
              "internalType": "contract IWhitelistedNftContract",
              "name": "",
              "type": "address"
            }
          ],
          "stateMutability": "view",
          "type": "function"
        },
        {
          "inputs": [
            {
              "internalType": "uint256",
              "name": "amount",
              "type": "uint256"
            }
          ],
          "name": "withdrawRewardsPool",
          "outputs": [],
          "stateMutability": "nonpayable",
          "type": "function"
        }
      ],
      "evm": {
        "bytecode": {
          "linkReferences": {},
          "object": "6101006040526000805460ff60a01b1916600160a01b1790553480156200002557600080fd5b5060405162002fee38038062002fee833981810160405260c08110156200004b57600080fd5b81516020830151604080850151606086015160808701805193519597949692959194919392820192846401000000008211156200008757600080fd5b9083019060208201858111156200009d57600080fd5b8251866020820283011164010000000082111715620000bb57600080fd5b82525081516020918201928201910280838360005b83811015620000ea578181015183820152602001620000d0565b50505050905001604052602001805160405193929190846401000000008211156200011457600080fd5b9083019060208201858111156200012a57600080fd5b82518660208202830111640100000000821117156200014857600080fd5b82525081516020918201928201910280838360005b83811015620001775781810151838201526020016200015d565b50505050919091016040819052600080546001600160a01b031916339081178255955085945092507f8be0079c531659141344cd1fd0a4f28419497f9722a3daafe3b4186f6b6457e091508290a35080518251146200021d576040805162461bcd60e51b815260206004820152601b60248201527f4e66745374616b696e673a2077726f6e6720617267756d656e74730000000000604482015290519081900360640190fd5b603c8663ffffffff1610156200027a576040805162461bcd60e51b815260206004820181905260248201527f4e66745374616b696e673a20696e76616c6964206379636c65206c656e677468604482015290519081900360640190fd5b60028561ffff161015620002c05760405162461bcd60e51b815260040180806020018281038252602181526020018062002fcd6021913960400191505060405180910390fd5b60e086811b6001600160e01b03191660c05260f086901b6001600160f01b0319169052606084811b6001600160601b031990811660a0529084901b1660805260005b825181101562000378578181815181106200031957fe5b6020026020010151600460008584815181106200033257fe5b6020026020010151815260200190815260200160002060006101000a8154816001600160401b0302191690836001600160401b0316021790555080600101905062000302565b5050505050505060805160601c60a05160601c60c05160e01c60e05160f01c612bd5620003f86000398061081e5280610863528061118852806115f752806118dd52806120bb5250806108d15280611de6525080610d285280610f615280612047525080610e5d5280610f3d52806112ac52806116f95250612bd56000f3fe608060405234801561001057600080fd5b50600436106101cf5760003560e01c806373a3234611610104578063bc197c81116100a2578063e6fd48bc11610071578063e6fd48bc1461068d578063f23a6e6114610695578063f2fde38b1461072a578063f81649b414610750576101cf565b8063bc197c81146104f5578063be26ed7f14610657578063be9a65551461065f578063cc60fbf114610667576101cf565b80638da5cb5b116100de5780638da5cb5b146104a05780639de2e1cb146104c45780639e7cfd49146104cc578063a522bbaa146104d4576101cf565b806373a32346146104215780637b62e0401461043e5780637c13774b14610446576101cf565b8063238dafe0116101715780634fc5b8491161014b5780634fc5b8491461034d5780635a32502d1461036a57806369628952146103b05780636b42600014610404576101cf565b8063238dafe0146103335780632ef3ff6f1461033b5780632f2770db14610343576101cf565b8063086146d2116101ad578063086146d2146102805780630bc2b269146102885780630d2cb02a146102e35780632217f16514610304576101cf565b806301ffc9a7146101d45780630320d053146102275780630503c9bb14610246575b600080fd5b610213600480360360208110156101ea57600080fd5b50357fffffffff0000000000000000000000000000000000000000000000000000000016610781565b604080519115158252519081900360200190f35b61022f61081c565b6040805161ffff9092168252519081900360200190f35b6102636004803603602081101561025c57600080fd5b5035610840565b6040805167ffffffffffffffff9092168252519081900360200190f35b61022f61085c565b6102b46004803603604081101561029e57600080fd5b506001600160a01b03813516906020013561088c565b60405180836001600160801b03168152602001826001600160801b031681526020019250505060405180910390f35b6102eb6108cf565b6040805163ffffffff9092168252519081900360200190f35b6103216004803603602081101561031a57600080fd5b50356108f3565b60408051918252519081900360200190f35b610213610905565b610321610915565b61034b61091b565b005b6102b46004803603602081101561036357600080fd5b5035610975565b61038b6004803603602081101561038057600080fd5b503561ffff166109aa565b6040805161ffff94851681529290931660208301528183015290519081900360600190f35b6103d6600480360360208110156103c657600080fd5b50356001600160a01b0316610a72565b6040805161ffff909416845267ffffffffffffffff9283166020850152911682820152519081900360600190f35b61034b6004803603602081101561041a57600080fd5b5035610aab565b61034b6004803603602081101561043757600080fd5b5035610de8565b610321610e87565b6104636004803603602081101561045c57600080fd5b5035610ee8565b604080516001600160a01b03909516855267ffffffffffffffff909316602085015261ffff91821684840152166060830152519081900360800190f35b6104a8610f2c565b604080516001600160a01b039092168252519081900360200190f35b6104a8610f3b565b6104a8610f5f565b61034b600480360360208110156104ea57600080fd5b503561ffff16610f83565b610622600480360360a081101561050b57600080fd5b6001600160a01b03823581169260208101359091169181019060608101604082013564010000000081111561053f57600080fd5b82018360208201111561055157600080fd5b8035906020019184602083028401116401000000008311171561057357600080fd5b91939092909160208101903564010000000081111561059157600080fd5b8201836020820111156105a357600080fd5b803590602001918460208302840111640100000000831117156105c557600080fd5b9193909290916020810190356401000000008111156105e357600080fd5b8201836020820111156105f557600080fd5b8035906020019184600183028401116401000000008311171561061757600080fd5b50909250905061135d565b604080517fffffffff000000000000000000000000000000000000000000000000000000009092168252519081900360200190f35b61022f6113bc565b61034b6113c7565b6103216004803603602081101561067d57600080fd5b50356001600160a01b0316611454565b6103216114c9565b610622600480360360a08110156106ab57600080fd5b6001600160a01b03823581169260208101359091169160408201359160608101359181019060a0810160808201356401000000008111156106eb57600080fd5b8201836020820111156106fd57600080fd5b8035906020019184600183028401116401000000008311171561071f57600080fd5b5090925090506114cf565b61034b6004803603602081101561074057600080fd5b50356001600160a01b0316611507565b61034b6004803603606081101561076657600080fd5b5061ffff81358116916020810135909116906040013561157d565b60007fffffffff0000000000000000000000000000000000000000000000000000000082167f01ffc9a700000000000000000000000000000000000000000000000000000000148061081457507fffffffff0000000000000000000000000000000000000000000000000000000082167f4e2312e000000000000000000000000000000000000000000000000000000000145b90505b919050565b7f000000000000000000000000000000000000000000000000000000000000000081565b60046020526000908152604090205467ffffffffffffffff1681565b60006108877f000000000000000000000000000000000000000000000000000000000000000061176d565b905090565b600560205281600052604060002081815481106108a857600080fd5b6000918252602090912001546001600160801b038082169350600160801b90910416905082565b7f000000000000000000000000000000000000000000000000000000000000000081565b60086020526000908152604090205481565b600054600160a01b900460ff1681565b60015481565b61092433611781565b600080547fffffffffffffffffffffff00ffffffffffffffffffffffffffffffffffffffff1681556040517f75884cdadc4a89e8b545db800057f06ec7f5338a08183c7ba515f2bfdd9fe1e19190a1565b6003818154811061098557600080fd5b6000918252602090912001546001600160801b038082169250600160801b9091041682565b6000805481908190600160a01b900460ff166109f75760405162461bcd60e51b8152600401808060200182810382526023815260200180612b5a6023913960400191505060405180910390fd5b600254610a4b576040805162461bcd60e51b815260206004820152601f60248201527f4e66745374616b696e673a207374616b696e67206e6f74207374617274656400604482015290519081900360640190fd5b6000610a573386611845565b50805160208201516040909201519097919650945092505050565b60066020526000908152604090205461ffff81169067ffffffffffffffff6201000082048116916a010000000000000000000090041683565b600081815260076020908152604091829020825160808101845290546001600160a01b03811680835267ffffffffffffffff600160a01b8304169383019390935261ffff600160e01b8204811694830194909452600160f01b900490921660608301523314610b4b5760405162461bcd60e51b8152600401808060200182810382526035815260200180612a6b6035913960400191505060405180910390fd5b6000610b5642611dcc565b600054909150600160a01b900460ff1615610ce25760028260400151820361ffff161015610bcb576040805162461bcd60e51b815260206004820152601e60248201527f4e66745374616b696e673a20746f6b656e207374696c6c2066726f7a656e0000604482015290519081900360640190fd5b610be733836020015167ffffffffffffffff1660000383611e25565b600080835261ffff808316606085019081528583526007602090815260409384902086518154928801519588015193518516600160f01b027dffffffffffffffffffffffffffffffffffffffffffffffffffffffffffff94909516600160e01b027fffff0000ffffffffffffffffffffffffffffffffffffffffffffffffffffffff67ffffffffffffffff909716600160a01b027fffffffff0000000000000000ffffffffffffffffffffffffffffffffffffffff6001600160a01b03939093167fffffffffffffffffffffffff00000000000000000000000000000000000000009095169490941791909116929092179490941617161790555b604080517f23b872dd0000000000000000000000000000000000000000000000000000000081523060048201523360248201526044810185905290516001600160a01b037f000000000000000000000000000000000000000000000000000000000000000016916323b872dd91606480830192600092919082900301818387803b158015610d6f57600080fd5b505af1158015610d83573d6000803e3d6000fd5b5050506020808401516040805133815261ffff86169381019390935282810187905267ffffffffffffffff9091166060830152517fa809c38c1b1d8f31236741c657ba4d5b0c25cefab4c1cbc9a0ca5f96a774a15d92509081900360800190a1505050565b600054600160a01b900460ff1615610e47576040805162461bcd60e51b815260206004820152601f60248201527f4e66745374616b696e673a20636f6e747261637420697320656e61626c656400604482015290519081900360640190fd5b610e5033611781565b610e846001600160a01b037f0000000000000000000000000000000000000000000000000000000000000000163383611f24565b50565b60035460009080610edf576040805162461bcd60e51b815260206004820181905260248201527f4e66745374616b696e673a20656d70747920676c6f62616c20686973746f7279604482015290519081900360640190fd5b60001901905090565b6007602052600090815260409020546001600160a01b0381169067ffffffffffffffff600160a01b8204169061ffff600160e01b8204811691600160f01b90041684565b6000546001600160a01b031690565b7f000000000000000000000000000000000000000000000000000000000000000081565b7f000000000000000000000000000000000000000000000000000000000000000081565b600054600160a01b900460ff16610fcb5760405162461bcd60e51b8152600401808060200182810382526023815260200180612b5a6023913960400191505060405180910390fd5b60025461101f576040805162461bcd60e51b815260206004820152601f60248201527f4e66745374616b696e673a207374616b696e67206e6f74207374617274656400604482015290519081900360640190fd5b3360008181526006602090815260408083208151606081018352905461ffff8116825267ffffffffffffffff6201000082048116948301949094526a010000000000000000000090049092169082015291819061107c9085611845565b33600090815260056020526040902091935091505b816040015167ffffffffffffffff16846040015167ffffffffffffffff1610156110fd578084604001805180919060010167ffffffffffffffff1667ffffffffffffffff1681525067ffffffffffffffff16815481106110ed57fe5b6000918252602082200155611091565b602083015161ffff166111135750505050610e84565b3360009081526006602052604090205461ffff166111345750505050610e84565b80546000908290600019810190811061114957fe5b6000918252602091829020604080518082019091529101546001600160801b038082168352600160801b909104168183018190529186015186519193507f00000000000000000000000000000000000000000000000000000000000000009101600019010261ffff169081108015906111ca575081516001600160801b0316155b156112095733600090815260066020526040902080547fffffffffffffffffffffffffffff00000000000000000000000000000000000016905561128f565b3360009081526006602090815260409182902086518154928801519388015161ffff1990931661ffff9091161769ffffffffffffffff000019166201000067ffffffffffffffff94851602177fffffffffffffffffffffffffffff0000000000000000ffffffffffffffffffff166a010000000000000000000093909216929092021790555b6040850151156112d45760408501516112d4906001600160a01b037f000000000000000000000000000000000000000000000000000000000000000016903390611f24565b7f5619b8583bbbb0760d27ac9ff844cec866b333bf7ad0262c2d809ff42f22e5fc336112ff42611dcc565b87600001518860200151896040015160405180866001600160a01b031681526020018561ffff1681526020018461ffff1681526020018361ffff1681526020018281526020019550505050505060405180910390a150505050505050565b6000805b8681101561138d5761138588888381811061137857fe5b905060200201358a611fa9565b600101611361565b507fbc197c81000000000000000000000000000000000000000000000000000000009998505050505050505050565b600061088742611dcc565b6002541561141c576040805162461bcd60e51b815260206004820152601f60248201527f4e66745374616b696e673a207374616b696e6720686173207374617274656400604482015290519081900360640190fd5b61142533611781565b426002556040517fd8cea0ecd56872ff072e771658b5682ffe4de16d752947f79597d600ea56f7a990600090a1565b6001600160a01b038116600090815260056020526040812054806114bf576040805162461bcd60e51b815260206004820181905260248201527f4e66745374616b696e673a20656d707479207374616b657220686973746f7279604482015290519081900360640190fd5b6000190192915050565b60025481565b60006114db8587611fa9565b507ff23a6e61000000000000000000000000000000000000000000000000000000009695505050505050565b61151761151261239f565b611781565b600080547fffffffffffffffffffffffff0000000000000000000000000000000000000000166001600160a01b0383811691821780845560405192939116917f8be0079c531659141344cd1fd0a4f28419497f9722a3daafe3b4186f6b6457e09190a350565b61158633611781565b61ffff8316158015906115a157508161ffff168361ffff1611155b6115f2576040805162461bcd60e51b815260206004820152601e60248201527f4e66745374616b696e673a2077726f6e6720706572696f642072616e67650000604482015290519081900360640190fd5b6002547f0000000000000000000000000000000000000000000000000000000000000000901561166b576116258161176d565b61ffff168461ffff16101561166b5760405162461bcd60e51b815260040180806020018281038252602d815260200180612b2d602d913960400191505060405180910390fd5b61ffff84165b8361ffff1681116116ac5760008181526008602052604090205461169590846123a3565b600082815260086020526040902055600101611671565b5060006116d985850360010161ffff166116d38461ffff168661240690919063ffffffff16565b90612406565b6001549091506116e990826123a3565b6001556117216001600160a01b037f00000000000000000000000000000000000000000000000000000000000000001633308461245f565b6040805161ffff80881682528616602082015280820185905290517fbff8d5ced955e6f69a19ecc71d313996f6ddfed652cdb458859af89e2f0768359181900360600190a15050505050565b600061081461177b42611dcc565b836124ed565b306001600160a01b0316638da5cb5b6040518163ffffffff1660e01b815260040160206040518083038186803b1580156117ba57600080fd5b505afa1580156117ce573d6000803e3d6000fd5b505050506040513d60208110156117e457600080fd5b50516001600160a01b03828116911614610e84576040805162461bcd60e51b815260206004820152601660248201527f4f776e61626c653a206e6f7420746865206f776e657200000000000000000000604482015290519081900360640190fd5b61184d612a0d565b611855612a0d565b61ffff831661186357611dc5565b60035461186f57611dc5565b506001600160a01b0383166000908152600660209081526040918290208251606081018452905461ffff811680835267ffffffffffffffff6201000083048116948401949094526a0100000000000000000000909104909216928101929092528083526118db57611dc5565b7f000000000000000000000000000000000000000000000000000000000000000060006119078261176d565b90508061ffff16836000015161ffff161415611924575050611dc5565b6001600160a01b038616600090815260056020908152604080832080548251818502810185019093528083529192909190849084015b828210156119a357600084815260209081902060408051808201909152908401546001600160801b038082168352600160801b909104168183015282526001909201910161195a565b50505050905060006003856020015167ffffffffffffffff16815481106119c657fe5b6000918252602080832060408051808201825293909101546001600160801b038082168552600160801b90910416918301919091528701518451919350849167ffffffffffffffff909116908110611a1a57fe5b60200260200101519050611a2c612a2d565b611a34612a2d565b600354602089015167ffffffffffffffff1660001990910114611aa7576003886020015160010167ffffffffffffffff1681548110611a6f57fe5b6000918252602091829020604080518082019091529101546001600160801b038082168352600160801b909104169181019190915291505b6001855103886040015167ffffffffffffffff1614611ae85784886040015160010167ffffffffffffffff1681518110611add57fe5b602002602001015190505b875161ffff908703811660208b01819052908b161015611b0d5761ffff8a1660208a01525b602089015188510195505b8561ffff16886000015161ffff1614611dbd57875161ffff808216600090815260086020526040812054928a0260018181019493918c90030116905b8361ffff168114611da8578188602001516001600160801b03161115611b855787602001516001600160801b031691505b8187602001516001600160801b03161115611bab5786602001516001600160801b031691505b50602085015161ffff8416906001600160801b031615801590611bda57508086602001516001600160801b0316105b15611bef575060208501516001600160801b03165b87516001600160801b031615801590611c11575086516001600160801b031615155b8015611c1c57508215155b15611c76578651600090611c3f906001600160801b03166116d385850387612406565b89519091506001600160801b03168181611c5557fe5b049050611c6f818f604001516123a390919063ffffffff16565b60408f0152505b8086602001516001600160801b03161415611d245760208c01805160010167ffffffffffffffff169081905260035496985088966000190114611d0d5760038c6020015160010167ffffffffffffffff1681548110611cd157fe5b6000918252602091829020604080518082019091529101546001600160801b038082168352600160801b90910416918101919091529550611d24565b604080518082019091526000808252602082015295505b8085602001516001600160801b03161415611da35760408c01805160010167ffffffffffffffff1690819052895195975087956000190114611d8c57888c6040015160010167ffffffffffffffff1681518110611d7d57fe5b60200260200101519450611da3565b604080518082019091526000808252602082015294505b611b54565b5050895160010161ffff168a5250611b189050565b505050505050505b9250929050565b60025460009080611de1576000915050610817565b611e1e7f000000000000000000000000000000000000000000000000000000000000000063ffffffff1682850381611e1557fe5b04600101612520565b9392505050565b6001600160a01b0383166000908152600560205260408120611e48908484612567565b90506000611e5860038585612567565b90507f6b53edb1a2d26a789b4466210277239d9ab872345e93a9f6028058e71e64c186858460056000896001600160a01b03166001600160a01b031681526020019081526020016000208581548110611ead57fe5b600091825260209091200154600380546001600160801b039092169186908110611ed357fe5b60009182526020918290200154604080516001600160a01b03909616865261ffff909416918501919091526001600160801b0391821684840152166060830152519081900360800190a15050505050565b604080516001600160a01b038416602482015260448082018490528251808303909101815260649091019091526020810180517bffffffffffffffffffffffffffffffffffffffffffffffffffffffff167fa9059cbb00000000000000000000000000000000000000000000000000000000179052611fa490849061269f565b505050565b600054600160a01b900460ff16611ff15760405162461bcd60e51b8152600401808060200182810382526023815260200180612b5a6023913960400191505060405180910390fd5b600254612045576040805162461bcd60e51b815260206004820152601f60248201527f4e66745374616b696e673a207374616b696e67206e6f74207374617274656400604482015290519081900360640190fd5b7f00000000000000000000000000000000000000000000000000000000000000006001600160a01b031633146120ac5760405162461bcd60e51b8152600401808060200182810382526024815260200180612ae86024913960400191505060405180910390fd5b60006120b7836128a7565b90507f000000000000000000000000000000000000000000000000000000000000000060006120e542611dcc565b90506120fc848467ffffffffffffffff1683611e25565b6001600160a01b03841660009081526006602052604090205461ffff166121df57600061212982846124ed565b6040805160608101825261ffff92831681526003546000190167ffffffffffffffff908116602080840191825260008486018181526001600160a01b038d168252600690925294909420925183549151945161ffff1990921695169490941769ffffffffffffffff000019166201000093821693909302929092177fffffffffffffffffffffffffffff0000000000000000ffffffffffffffffffff166a01000000000000000000009390921692909202179055505b60008581526007602052604090205461ffff600160f01b909104811690821681141561223c5760405162461bcd60e51b8152600401808060200182810382526023815260200180612b7d6023913960400191505060405180910390fd5b6040518060800160405280866001600160a01b031681526020018567ffffffffffffffff1681526020018361ffff168152602001600061ffff168152506007600088815260200190815260200160002060008201518160000160006101000a8154816001600160a01b0302191690836001600160a01b0316021790555060208201518160000160146101000a81548167ffffffffffffffff021916908367ffffffffffffffff160217905550604082015181600001601c6101000a81548161ffff021916908361ffff160217905550606082015181600001601e6101000a81548161ffff021916908361ffff1602179055509050507f233fb303155fae76e94af13009e2c90416950cf561d3cd13f807618243feda4a8583888760405180856001600160a01b031681526020018461ffff1681526020018381526020018267ffffffffffffffff16815260200194505050505060405180910390a1505050505050565b3390565b6000828201838110156123fd576040805162461bcd60e51b815260206004820152601b60248201527f536166654d6174683a206164646974696f6e206f766572666c6f770000000000604482015290519081900360640190fd5b90505b92915050565b60008261241557506000612400565b8282028284828161242257fe5b04146123fd5760405162461bcd60e51b8152600401808060200182810382526021815260200180612b0c6021913960400191505060405180910390fd5b604080516001600160a01b0380861660248301528416604482015260648082018490528251808303909101815260849091019091526020810180517bffffffffffffffffffffffffffffffffffffffffffffffffffffffff167f23b872dd000000000000000000000000000000000000000000000000000000001790526124e790859061269f565b50505050565b600061ffff831661250057506000612400565b8161ffff166001840361ffff168161251457fe5b04600101905092915050565b60006201000082106125635760405162461bcd60e51b8152600401808060200182810382526026815260200180612a456026913960400191505060405180910390fd5b5090565b825460009081811561262057600182039250600086848154811061258757fe5b600091825260209091200180549091506125b7906125b2906001600160801b0316600f89900b61295e565b6129c3565b81549092506001600160801b03600160801b9091041661ffff861614156126145780547fffffffffffffffffffffffffffffffff00000000000000000000000000000000166001600160801b039290921691909117905550611e1e565b60018401935050612623565b50835b61262b612a2d565b6001600160801b03918216815261ffff851660208083019182528854600181018a5560008a81529190912092519201805491518416600160801b029284167fffffffffffffffffffffffffffffffff0000000000000000000000000000000090921691909117909216179055509392505050565b816126b26001600160a01b038216612a07565b612703576040805162461bcd60e51b815260206004820152601a60248201527f4552433230577261707065723a206e6f6e2d636f6e7472616374000000000000604482015290519081900360640190fd5b600080826001600160a01b0316846040518082805190602001908083835b6020831061275e57805182527fffffffffffffffffffffffffffffffffffffffffffffffffffffffffffffffe09092019160209182019101612721565b6001836020036101000a0380198251168184511680821785525050505050509050019150506000604051808303816000865af19150503d80600081146127c0576040519150601f19603f3d011682016040523d82523d6000602084013e6127c5565b606091505b509150915081156128445780511561283f578080602001905160208110156127ec57600080fd5b505161283f576040805162461bcd60e51b815260206004820152601e60248201527f4552433230577261707065723a206f7065726174696f6e206661696c65640000604482015290519081900360640190fd5b6128a0565b8051612897576040805162461bcd60e51b815260206004820152601e60248201527f4552433230577261707065723a206f7065726174696f6e206661696c65640000604482015290519081900360640190fd5b80518082602001fd5b5050505050565b600060ff82811c9060f084901c81169060e085901c81169060b086901c166001841480156128d55750826001145b80156128eb575081600214806128eb5750816003145b61293c576040805162461bcd60e51b815260206004820152601760248201527f4e66745374616b696e673a2077726f6e6720746f6b656e000000000000000000604482015290519081900360640190fd5b60009081526004602052604090205467ffffffffffffffff1695945050505050565b60008282018183128015906129735750838112155b80612988575060008312801561298857508381125b6123fd5760405162461bcd60e51b8152600401808060200182810382526021815260200180612ac76021913960400191505060405180910390fd5b6000600160801b82106125635760405162461bcd60e51b8152600401808060200182810382526027815260200180612aa06027913960400191505060405180910390fd5b3b151590565b604080516060810182526000808252602082018190529181019190915290565b60408051808201909152600080825260208201529056fe53616665436173743a2076616c756520646f65736e27742066697420696e20313620626974734e66745374616b696e673a20746f6b656e206e6f74207374616b6564206f7220696e636f727265637420746f6b656e206f776e657253616665436173743a2076616c756520646f65736e27742066697420696e2031323820626974735369676e6564536166654d6174683a206164646974696f6e206f766572666c6f774e66745374616b696e673a20636f6e7472616374206e6f742077686974656c6973746564536166654d6174683a206d756c7469706c69636174696f6e206f766572666c6f774e66745374616b696e673a20616c726561647920636f6d6d697474656420726577617264207363686564756c654e66745374616b696e673a20636f6e7472616374206973206e6f7420656e61626c65644e66745374616b696e673a20756e7374616b656420746f6b656e20636f6f6c646f776ea2646970667358221220b1c0a0e4ef3d5f96b1736b9b878652f2eea164408081893d8cf27a77db2926a264736f6c634300070600334e66745374616b696e673a20696e76616c696420706572696f64206c656e677468",
          "opcodes": "PUSH2 0x100 PUSH1 0x40 MSTORE PUSH1 0x0 DUP1 SLOAD PUSH1 0xFF PUSH1 0xA0 SHL NOT AND PUSH1 0x1 PUSH1 0xA0 SHL OR SWAP1 SSTORE CALLVALUE DUP1 ISZERO PUSH3 0x25 JUMPI PUSH1 0x0 DUP1 REVERT JUMPDEST POP PUSH1 0x40 MLOAD PUSH3 0x2FEE CODESIZE SUB DUP1 PUSH3 0x2FEE DUP4 CODECOPY DUP2 DUP2 ADD PUSH1 0x40 MSTORE PUSH1 0xC0 DUP2 LT ISZERO PUSH3 0x4B JUMPI PUSH1 0x0 DUP1 REVERT JUMPDEST DUP2 MLOAD PUSH1 0x20 DUP4 ADD MLOAD PUSH1 0x40 DUP1 DUP6 ADD MLOAD PUSH1 0x60 DUP7 ADD MLOAD PUSH1 0x80 DUP8 ADD DUP1 MLOAD SWAP4 MLOAD SWAP6 SWAP8 SWAP5 SWAP7 SWAP3 SWAP6 SWAP2 SWAP5 SWAP2 SWAP4 SWAP3 DUP3 ADD SWAP3 DUP5 PUSH5 0x100000000 DUP3 GT ISZERO PUSH3 0x87 JUMPI PUSH1 0x0 DUP1 REVERT JUMPDEST SWAP1 DUP4 ADD SWAP1 PUSH1 0x20 DUP3 ADD DUP6 DUP2 GT ISZERO PUSH3 0x9D JUMPI PUSH1 0x0 DUP1 REVERT JUMPDEST DUP3 MLOAD DUP7 PUSH1 0x20 DUP3 MUL DUP4 ADD GT PUSH5 0x100000000 DUP3 GT OR ISZERO PUSH3 0xBB JUMPI PUSH1 0x0 DUP1 REVERT JUMPDEST DUP3 MSTORE POP DUP2 MLOAD PUSH1 0x20 SWAP2 DUP3 ADD SWAP3 DUP3 ADD SWAP2 MUL DUP1 DUP4 DUP4 PUSH1 0x0 JUMPDEST DUP4 DUP2 LT ISZERO PUSH3 0xEA JUMPI DUP2 DUP2 ADD MLOAD DUP4 DUP3 ADD MSTORE PUSH1 0x20 ADD PUSH3 0xD0 JUMP JUMPDEST POP POP POP POP SWAP1 POP ADD PUSH1 0x40 MSTORE PUSH1 0x20 ADD DUP1 MLOAD PUSH1 0x40 MLOAD SWAP4 SWAP3 SWAP2 SWAP1 DUP5 PUSH5 0x100000000 DUP3 GT ISZERO PUSH3 0x114 JUMPI PUSH1 0x0 DUP1 REVERT JUMPDEST SWAP1 DUP4 ADD SWAP1 PUSH1 0x20 DUP3 ADD DUP6 DUP2 GT ISZERO PUSH3 0x12A JUMPI PUSH1 0x0 DUP1 REVERT JUMPDEST DUP3 MLOAD DUP7 PUSH1 0x20 DUP3 MUL DUP4 ADD GT PUSH5 0x100000000 DUP3 GT OR ISZERO PUSH3 0x148 JUMPI PUSH1 0x0 DUP1 REVERT JUMPDEST DUP3 MSTORE POP DUP2 MLOAD PUSH1 0x20 SWAP2 DUP3 ADD SWAP3 DUP3 ADD SWAP2 MUL DUP1 DUP4 DUP4 PUSH1 0x0 JUMPDEST DUP4 DUP2 LT ISZERO PUSH3 0x177 JUMPI DUP2 DUP2 ADD MLOAD DUP4 DUP3 ADD MSTORE PUSH1 0x20 ADD PUSH3 0x15D JUMP JUMPDEST POP POP POP POP SWAP2 SWAP1 SWAP2 ADD PUSH1 0x40 DUP2 SWAP1 MSTORE PUSH1 0x0 DUP1 SLOAD PUSH1 0x1 PUSH1 0x1 PUSH1 0xA0 SHL SUB NOT AND CALLER SWAP1 DUP2 OR DUP3 SSTORE SWAP6 POP DUP6 SWAP5 POP SWAP3 POP PUSH32 0x8BE0079C531659141344CD1FD0A4F28419497F9722A3DAAFE3B4186F6B6457E0 SWAP2 POP DUP3 SWAP1 LOG3 POP DUP1 MLOAD DUP3 MLOAD EQ PUSH3 0x21D JUMPI PUSH1 0x40 DUP1 MLOAD PUSH3 0x461BCD PUSH1 0xE5 SHL DUP2 MSTORE PUSH1 0x20 PUSH1 0x4 DUP3 ADD MSTORE PUSH1 0x1B PUSH1 0x24 DUP3 ADD MSTORE PUSH32 0x4E66745374616B696E673A2077726F6E6720617267756D656E74730000000000 PUSH1 0x44 DUP3 ADD MSTORE SWAP1 MLOAD SWAP1 DUP2 SWAP1 SUB PUSH1 0x64 ADD SWAP1 REVERT JUMPDEST PUSH1 0x3C DUP7 PUSH4 0xFFFFFFFF AND LT ISZERO PUSH3 0x27A JUMPI PUSH1 0x40 DUP1 MLOAD PUSH3 0x461BCD PUSH1 0xE5 SHL DUP2 MSTORE PUSH1 0x20 PUSH1 0x4 DUP3 ADD DUP2 SWAP1 MSTORE PUSH1 0x24 DUP3 ADD MSTORE PUSH32 0x4E66745374616B696E673A20696E76616C6964206379636C65206C656E677468 PUSH1 0x44 DUP3 ADD MSTORE SWAP1 MLOAD SWAP1 DUP2 SWAP1 SUB PUSH1 0x64 ADD SWAP1 REVERT JUMPDEST PUSH1 0x2 DUP6 PUSH2 0xFFFF AND LT ISZERO PUSH3 0x2C0 JUMPI PUSH1 0x40 MLOAD PUSH3 0x461BCD PUSH1 0xE5 SHL DUP2 MSTORE PUSH1 0x4 ADD DUP1 DUP1 PUSH1 0x20 ADD DUP3 DUP2 SUB DUP3 MSTORE PUSH1 0x21 DUP2 MSTORE PUSH1 0x20 ADD DUP1 PUSH3 0x2FCD PUSH1 0x21 SWAP2 CODECOPY PUSH1 0x40 ADD SWAP2 POP POP PUSH1 0x40 MLOAD DUP1 SWAP2 SUB SWAP1 REVERT JUMPDEST PUSH1 0xE0 DUP7 DUP2 SHL PUSH1 0x1 PUSH1 0x1 PUSH1 0xE0 SHL SUB NOT AND PUSH1 0xC0 MSTORE PUSH1 0xF0 DUP7 SWAP1 SHL PUSH1 0x1 PUSH1 0x1 PUSH1 0xF0 SHL SUB NOT AND SWAP1 MSTORE PUSH1 0x60 DUP5 DUP2 SHL PUSH1 0x1 PUSH1 0x1 PUSH1 0x60 SHL SUB NOT SWAP1 DUP2 AND PUSH1 0xA0 MSTORE SWAP1 DUP5 SWAP1 SHL AND PUSH1 0x80 MSTORE PUSH1 0x0 JUMPDEST DUP3 MLOAD DUP2 LT ISZERO PUSH3 0x378 JUMPI DUP2 DUP2 DUP2 MLOAD DUP2 LT PUSH3 0x319 JUMPI INVALID JUMPDEST PUSH1 0x20 MUL PUSH1 0x20 ADD ADD MLOAD PUSH1 0x4 PUSH1 0x0 DUP6 DUP5 DUP2 MLOAD DUP2 LT PUSH3 0x332 JUMPI INVALID JUMPDEST PUSH1 0x20 MUL PUSH1 0x20 ADD ADD MLOAD DUP2 MSTORE PUSH1 0x20 ADD SWAP1 DUP2 MSTORE PUSH1 0x20 ADD PUSH1 0x0 KECCAK256 PUSH1 0x0 PUSH2 0x100 EXP DUP2 SLOAD DUP2 PUSH1 0x1 PUSH1 0x1 PUSH1 0x40 SHL SUB MUL NOT AND SWAP1 DUP4 PUSH1 0x1 PUSH1 0x1 PUSH1 0x40 SHL SUB AND MUL OR SWAP1 SSTORE POP DUP1 PUSH1 0x1 ADD SWAP1 POP PUSH3 0x302 JUMP JUMPDEST POP POP POP POP POP POP POP PUSH1 0x80 MLOAD PUSH1 0x60 SHR PUSH1 0xA0 MLOAD PUSH1 0x60 SHR PUSH1 0xC0 MLOAD PUSH1 0xE0 SHR PUSH1 0xE0 MLOAD PUSH1 0xF0 SHR PUSH2 0x2BD5 PUSH3 0x3F8 PUSH1 0x0 CODECOPY DUP1 PUSH2 0x81E MSTORE DUP1 PUSH2 0x863 MSTORE DUP1 PUSH2 0x1188 MSTORE DUP1 PUSH2 0x15F7 MSTORE DUP1 PUSH2 0x18DD MSTORE DUP1 PUSH2 0x20BB MSTORE POP DUP1 PUSH2 0x8D1 MSTORE DUP1 PUSH2 0x1DE6 MSTORE POP DUP1 PUSH2 0xD28 MSTORE DUP1 PUSH2 0xF61 MSTORE DUP1 PUSH2 0x2047 MSTORE POP DUP1 PUSH2 0xE5D MSTORE DUP1 PUSH2 0xF3D MSTORE DUP1 PUSH2 0x12AC MSTORE DUP1 PUSH2 0x16F9 MSTORE POP PUSH2 0x2BD5 PUSH1 0x0 RETURN INVALID PUSH1 0x80 PUSH1 0x40 MSTORE CALLVALUE DUP1 ISZERO PUSH2 0x10 JUMPI PUSH1 0x0 DUP1 REVERT JUMPDEST POP PUSH1 0x4 CALLDATASIZE LT PUSH2 0x1CF JUMPI PUSH1 0x0 CALLDATALOAD PUSH1 0xE0 SHR DUP1 PUSH4 0x73A32346 GT PUSH2 0x104 JUMPI DUP1 PUSH4 0xBC197C81 GT PUSH2 0xA2 JUMPI DUP1 PUSH4 0xE6FD48BC GT PUSH2 0x71 JUMPI DUP1 PUSH4 0xE6FD48BC EQ PUSH2 0x68D JUMPI DUP1 PUSH4 0xF23A6E61 EQ PUSH2 0x695 JUMPI DUP1 PUSH4 0xF2FDE38B EQ PUSH2 0x72A JUMPI DUP1 PUSH4 0xF81649B4 EQ PUSH2 0x750 JUMPI PUSH2 0x1CF JUMP JUMPDEST DUP1 PUSH4 0xBC197C81 EQ PUSH2 0x4F5 JUMPI DUP1 PUSH4 0xBE26ED7F EQ PUSH2 0x657 JUMPI DUP1 PUSH4 0xBE9A6555 EQ PUSH2 0x65F JUMPI DUP1 PUSH4 0xCC60FBF1 EQ PUSH2 0x667 JUMPI PUSH2 0x1CF JUMP JUMPDEST DUP1 PUSH4 0x8DA5CB5B GT PUSH2 0xDE JUMPI DUP1 PUSH4 0x8DA5CB5B EQ PUSH2 0x4A0 JUMPI DUP1 PUSH4 0x9DE2E1CB EQ PUSH2 0x4C4 JUMPI DUP1 PUSH4 0x9E7CFD49 EQ PUSH2 0x4CC JUMPI DUP1 PUSH4 0xA522BBAA EQ PUSH2 0x4D4 JUMPI PUSH2 0x1CF JUMP JUMPDEST DUP1 PUSH4 0x73A32346 EQ PUSH2 0x421 JUMPI DUP1 PUSH4 0x7B62E040 EQ PUSH2 0x43E JUMPI DUP1 PUSH4 0x7C13774B EQ PUSH2 0x446 JUMPI PUSH2 0x1CF JUMP JUMPDEST DUP1 PUSH4 0x238DAFE0 GT PUSH2 0x171 JUMPI DUP1 PUSH4 0x4FC5B849 GT PUSH2 0x14B JUMPI DUP1 PUSH4 0x4FC5B849 EQ PUSH2 0x34D JUMPI DUP1 PUSH4 0x5A32502D EQ PUSH2 0x36A JUMPI DUP1 PUSH4 0x69628952 EQ PUSH2 0x3B0 JUMPI DUP1 PUSH4 0x6B426000 EQ PUSH2 0x404 JUMPI PUSH2 0x1CF JUMP JUMPDEST DUP1 PUSH4 0x238DAFE0 EQ PUSH2 0x333 JUMPI DUP1 PUSH4 0x2EF3FF6F EQ PUSH2 0x33B JUMPI DUP1 PUSH4 0x2F2770DB EQ PUSH2 0x343 JUMPI PUSH2 0x1CF JUMP JUMPDEST DUP1 PUSH4 0x86146D2 GT PUSH2 0x1AD JUMPI DUP1 PUSH4 0x86146D2 EQ PUSH2 0x280 JUMPI DUP1 PUSH4 0xBC2B269 EQ PUSH2 0x288 JUMPI DUP1 PUSH4 0xD2CB02A EQ PUSH2 0x2E3 JUMPI DUP1 PUSH4 0x2217F165 EQ PUSH2 0x304 JUMPI PUSH2 0x1CF JUMP JUMPDEST DUP1 PUSH4 0x1FFC9A7 EQ PUSH2 0x1D4 JUMPI DUP1 PUSH4 0x320D053 EQ PUSH2 0x227 JUMPI DUP1 PUSH4 0x503C9BB EQ PUSH2 0x246 JUMPI JUMPDEST PUSH1 0x0 DUP1 REVERT JUMPDEST PUSH2 0x213 PUSH1 0x4 DUP1 CALLDATASIZE SUB PUSH1 0x20 DUP2 LT ISZERO PUSH2 0x1EA JUMPI PUSH1 0x0 DUP1 REVERT JUMPDEST POP CALLDATALOAD PUSH32 0xFFFFFFFF00000000000000000000000000000000000000000000000000000000 AND PUSH2 0x781 JUMP JUMPDEST PUSH1 0x40 DUP1 MLOAD SWAP2 ISZERO ISZERO DUP3 MSTORE MLOAD SWAP1 DUP2 SWAP1 SUB PUSH1 0x20 ADD SWAP1 RETURN JUMPDEST PUSH2 0x22F PUSH2 0x81C JUMP JUMPDEST PUSH1 0x40 DUP1 MLOAD PUSH2 0xFFFF SWAP1 SWAP3 AND DUP3 MSTORE MLOAD SWAP1 DUP2 SWAP1 SUB PUSH1 0x20 ADD SWAP1 RETURN JUMPDEST PUSH2 0x263 PUSH1 0x4 DUP1 CALLDATASIZE SUB PUSH1 0x20 DUP2 LT ISZERO PUSH2 0x25C JUMPI PUSH1 0x0 DUP1 REVERT JUMPDEST POP CALLDATALOAD PUSH2 0x840 JUMP JUMPDEST PUSH1 0x40 DUP1 MLOAD PUSH8 0xFFFFFFFFFFFFFFFF SWAP1 SWAP3 AND DUP3 MSTORE MLOAD SWAP1 DUP2 SWAP1 SUB PUSH1 0x20 ADD SWAP1 RETURN JUMPDEST PUSH2 0x22F PUSH2 0x85C JUMP JUMPDEST PUSH2 0x2B4 PUSH1 0x4 DUP1 CALLDATASIZE SUB PUSH1 0x40 DUP2 LT ISZERO PUSH2 0x29E JUMPI PUSH1 0x0 DUP1 REVERT JUMPDEST POP PUSH1 0x1 PUSH1 0x1 PUSH1 0xA0 SHL SUB DUP2 CALLDATALOAD AND SWAP1 PUSH1 0x20 ADD CALLDATALOAD PUSH2 0x88C JUMP JUMPDEST PUSH1 0x40 MLOAD DUP1 DUP4 PUSH1 0x1 PUSH1 0x1 PUSH1 0x80 SHL SUB AND DUP2 MSTORE PUSH1 0x20 ADD DUP3 PUSH1 0x1 PUSH1 0x1 PUSH1 0x80 SHL SUB AND DUP2 MSTORE PUSH1 0x20 ADD SWAP3 POP POP POP PUSH1 0x40 MLOAD DUP1 SWAP2 SUB SWAP1 RETURN JUMPDEST PUSH2 0x2EB PUSH2 0x8CF JUMP JUMPDEST PUSH1 0x40 DUP1 MLOAD PUSH4 0xFFFFFFFF SWAP1 SWAP3 AND DUP3 MSTORE MLOAD SWAP1 DUP2 SWAP1 SUB PUSH1 0x20 ADD SWAP1 RETURN JUMPDEST PUSH2 0x321 PUSH1 0x4 DUP1 CALLDATASIZE SUB PUSH1 0x20 DUP2 LT ISZERO PUSH2 0x31A JUMPI PUSH1 0x0 DUP1 REVERT JUMPDEST POP CALLDATALOAD PUSH2 0x8F3 JUMP JUMPDEST PUSH1 0x40 DUP1 MLOAD SWAP2 DUP3 MSTORE MLOAD SWAP1 DUP2 SWAP1 SUB PUSH1 0x20 ADD SWAP1 RETURN JUMPDEST PUSH2 0x213 PUSH2 0x905 JUMP JUMPDEST PUSH2 0x321 PUSH2 0x915 JUMP JUMPDEST PUSH2 0x34B PUSH2 0x91B JUMP JUMPDEST STOP JUMPDEST PUSH2 0x2B4 PUSH1 0x4 DUP1 CALLDATASIZE SUB PUSH1 0x20 DUP2 LT ISZERO PUSH2 0x363 JUMPI PUSH1 0x0 DUP1 REVERT JUMPDEST POP CALLDATALOAD PUSH2 0x975 JUMP JUMPDEST PUSH2 0x38B PUSH1 0x4 DUP1 CALLDATASIZE SUB PUSH1 0x20 DUP2 LT ISZERO PUSH2 0x380 JUMPI PUSH1 0x0 DUP1 REVERT JUMPDEST POP CALLDATALOAD PUSH2 0xFFFF AND PUSH2 0x9AA JUMP JUMPDEST PUSH1 0x40 DUP1 MLOAD PUSH2 0xFFFF SWAP5 DUP6 AND DUP2 MSTORE SWAP3 SWAP1 SWAP4 AND PUSH1 0x20 DUP4 ADD MSTORE DUP2 DUP4 ADD MSTORE SWAP1 MLOAD SWAP1 DUP2 SWAP1 SUB PUSH1 0x60 ADD SWAP1 RETURN JUMPDEST PUSH2 0x3D6 PUSH1 0x4 DUP1 CALLDATASIZE SUB PUSH1 0x20 DUP2 LT ISZERO PUSH2 0x3C6 JUMPI PUSH1 0x0 DUP1 REVERT JUMPDEST POP CALLDATALOAD PUSH1 0x1 PUSH1 0x1 PUSH1 0xA0 SHL SUB AND PUSH2 0xA72 JUMP JUMPDEST PUSH1 0x40 DUP1 MLOAD PUSH2 0xFFFF SWAP1 SWAP5 AND DUP5 MSTORE PUSH8 0xFFFFFFFFFFFFFFFF SWAP3 DUP4 AND PUSH1 0x20 DUP6 ADD MSTORE SWAP2 AND DUP3 DUP3 ADD MSTORE MLOAD SWAP1 DUP2 SWAP1 SUB PUSH1 0x60 ADD SWAP1 RETURN JUMPDEST PUSH2 0x34B PUSH1 0x4 DUP1 CALLDATASIZE SUB PUSH1 0x20 DUP2 LT ISZERO PUSH2 0x41A JUMPI PUSH1 0x0 DUP1 REVERT JUMPDEST POP CALLDATALOAD PUSH2 0xAAB JUMP JUMPDEST PUSH2 0x34B PUSH1 0x4 DUP1 CALLDATASIZE SUB PUSH1 0x20 DUP2 LT ISZERO PUSH2 0x437 JUMPI PUSH1 0x0 DUP1 REVERT JUMPDEST POP CALLDATALOAD PUSH2 0xDE8 JUMP JUMPDEST PUSH2 0x321 PUSH2 0xE87 JUMP JUMPDEST PUSH2 0x463 PUSH1 0x4 DUP1 CALLDATASIZE SUB PUSH1 0x20 DUP2 LT ISZERO PUSH2 0x45C JUMPI PUSH1 0x0 DUP1 REVERT JUMPDEST POP CALLDATALOAD PUSH2 0xEE8 JUMP JUMPDEST PUSH1 0x40 DUP1 MLOAD PUSH1 0x1 PUSH1 0x1 PUSH1 0xA0 SHL SUB SWAP1 SWAP6 AND DUP6 MSTORE PUSH8 0xFFFFFFFFFFFFFFFF SWAP1 SWAP4 AND PUSH1 0x20 DUP6 ADD MSTORE PUSH2 0xFFFF SWAP2 DUP3 AND DUP5 DUP5 ADD MSTORE AND PUSH1 0x60 DUP4 ADD MSTORE MLOAD SWAP1 DUP2 SWAP1 SUB PUSH1 0x80 ADD SWAP1 RETURN JUMPDEST PUSH2 0x4A8 PUSH2 0xF2C JUMP JUMPDEST PUSH1 0x40 DUP1 MLOAD PUSH1 0x1 PUSH1 0x1 PUSH1 0xA0 SHL SUB SWAP1 SWAP3 AND DUP3 MSTORE MLOAD SWAP1 DUP2 SWAP1 SUB PUSH1 0x20 ADD SWAP1 RETURN JUMPDEST PUSH2 0x4A8 PUSH2 0xF3B JUMP JUMPDEST PUSH2 0x4A8 PUSH2 0xF5F JUMP JUMPDEST PUSH2 0x34B PUSH1 0x4 DUP1 CALLDATASIZE SUB PUSH1 0x20 DUP2 LT ISZERO PUSH2 0x4EA JUMPI PUSH1 0x0 DUP1 REVERT JUMPDEST POP CALLDATALOAD PUSH2 0xFFFF AND PUSH2 0xF83 JUMP JUMPDEST PUSH2 0x622 PUSH1 0x4 DUP1 CALLDATASIZE SUB PUSH1 0xA0 DUP2 LT ISZERO PUSH2 0x50B JUMPI PUSH1 0x0 DUP1 REVERT JUMPDEST PUSH1 0x1 PUSH1 0x1 PUSH1 0xA0 SHL SUB DUP3 CALLDATALOAD DUP2 AND SWAP3 PUSH1 0x20 DUP2 ADD CALLDATALOAD SWAP1 SWAP2 AND SWAP2 DUP2 ADD SWAP1 PUSH1 0x60 DUP2 ADD PUSH1 0x40 DUP3 ADD CALLDATALOAD PUSH5 0x100000000 DUP2 GT ISZERO PUSH2 0x53F JUMPI PUSH1 0x0 DUP1 REVERT JUMPDEST DUP3 ADD DUP4 PUSH1 0x20 DUP3 ADD GT ISZERO PUSH2 0x551 JUMPI PUSH1 0x0 DUP1 REVERT JUMPDEST DUP1 CALLDATALOAD SWAP1 PUSH1 0x20 ADD SWAP2 DUP5 PUSH1 0x20 DUP4 MUL DUP5 ADD GT PUSH5 0x100000000 DUP4 GT OR ISZERO PUSH2 0x573 JUMPI PUSH1 0x0 DUP1 REVERT JUMPDEST SWAP2 SWAP4 SWAP1 SWAP3 SWAP1 SWAP2 PUSH1 0x20 DUP2 ADD SWAP1 CALLDATALOAD PUSH5 0x100000000 DUP2 GT ISZERO PUSH2 0x591 JUMPI PUSH1 0x0 DUP1 REVERT JUMPDEST DUP3 ADD DUP4 PUSH1 0x20 DUP3 ADD GT ISZERO PUSH2 0x5A3 JUMPI PUSH1 0x0 DUP1 REVERT JUMPDEST DUP1 CALLDATALOAD SWAP1 PUSH1 0x20 ADD SWAP2 DUP5 PUSH1 0x20 DUP4 MUL DUP5 ADD GT PUSH5 0x100000000 DUP4 GT OR ISZERO PUSH2 0x5C5 JUMPI PUSH1 0x0 DUP1 REVERT JUMPDEST SWAP2 SWAP4 SWAP1 SWAP3 SWAP1 SWAP2 PUSH1 0x20 DUP2 ADD SWAP1 CALLDATALOAD PUSH5 0x100000000 DUP2 GT ISZERO PUSH2 0x5E3 JUMPI PUSH1 0x0 DUP1 REVERT JUMPDEST DUP3 ADD DUP4 PUSH1 0x20 DUP3 ADD GT ISZERO PUSH2 0x5F5 JUMPI PUSH1 0x0 DUP1 REVERT JUMPDEST DUP1 CALLDATALOAD SWAP1 PUSH1 0x20 ADD SWAP2 DUP5 PUSH1 0x1 DUP4 MUL DUP5 ADD GT PUSH5 0x100000000 DUP4 GT OR ISZERO PUSH2 0x617 JUMPI PUSH1 0x0 DUP1 REVERT JUMPDEST POP SWAP1 SWAP3 POP SWAP1 POP PUSH2 0x135D JUMP JUMPDEST PUSH1 0x40 DUP1 MLOAD PUSH32 0xFFFFFFFF00000000000000000000000000000000000000000000000000000000 SWAP1 SWAP3 AND DUP3 MSTORE MLOAD SWAP1 DUP2 SWAP1 SUB PUSH1 0x20 ADD SWAP1 RETURN JUMPDEST PUSH2 0x22F PUSH2 0x13BC JUMP JUMPDEST PUSH2 0x34B PUSH2 0x13C7 JUMP JUMPDEST PUSH2 0x321 PUSH1 0x4 DUP1 CALLDATASIZE SUB PUSH1 0x20 DUP2 LT ISZERO PUSH2 0x67D JUMPI PUSH1 0x0 DUP1 REVERT JUMPDEST POP CALLDATALOAD PUSH1 0x1 PUSH1 0x1 PUSH1 0xA0 SHL SUB AND PUSH2 0x1454 JUMP JUMPDEST PUSH2 0x321 PUSH2 0x14C9 JUMP JUMPDEST PUSH2 0x622 PUSH1 0x4 DUP1 CALLDATASIZE SUB PUSH1 0xA0 DUP2 LT ISZERO PUSH2 0x6AB JUMPI PUSH1 0x0 DUP1 REVERT JUMPDEST PUSH1 0x1 PUSH1 0x1 PUSH1 0xA0 SHL SUB DUP3 CALLDATALOAD DUP2 AND SWAP3 PUSH1 0x20 DUP2 ADD CALLDATALOAD SWAP1 SWAP2 AND SWAP2 PUSH1 0x40 DUP3 ADD CALLDATALOAD SWAP2 PUSH1 0x60 DUP2 ADD CALLDATALOAD SWAP2 DUP2 ADD SWAP1 PUSH1 0xA0 DUP2 ADD PUSH1 0x80 DUP3 ADD CALLDATALOAD PUSH5 0x100000000 DUP2 GT ISZERO PUSH2 0x6EB JUMPI PUSH1 0x0 DUP1 REVERT JUMPDEST DUP3 ADD DUP4 PUSH1 0x20 DUP3 ADD GT ISZERO PUSH2 0x6FD JUMPI PUSH1 0x0 DUP1 REVERT JUMPDEST DUP1 CALLDATALOAD SWAP1 PUSH1 0x20 ADD SWAP2 DUP5 PUSH1 0x1 DUP4 MUL DUP5 ADD GT PUSH5 0x100000000 DUP4 GT OR ISZERO PUSH2 0x71F JUMPI PUSH1 0x0 DUP1 REVERT JUMPDEST POP SWAP1 SWAP3 POP SWAP1 POP PUSH2 0x14CF JUMP JUMPDEST PUSH2 0x34B PUSH1 0x4 DUP1 CALLDATASIZE SUB PUSH1 0x20 DUP2 LT ISZERO PUSH2 0x740 JUMPI PUSH1 0x0 DUP1 REVERT JUMPDEST POP CALLDATALOAD PUSH1 0x1 PUSH1 0x1 PUSH1 0xA0 SHL SUB AND PUSH2 0x1507 JUMP JUMPDEST PUSH2 0x34B PUSH1 0x4 DUP1 CALLDATASIZE SUB PUSH1 0x60 DUP2 LT ISZERO PUSH2 0x766 JUMPI PUSH1 0x0 DUP1 REVERT JUMPDEST POP PUSH2 0xFFFF DUP2 CALLDATALOAD DUP2 AND SWAP2 PUSH1 0x20 DUP2 ADD CALLDATALOAD SWAP1 SWAP2 AND SWAP1 PUSH1 0x40 ADD CALLDATALOAD PUSH2 0x157D JUMP JUMPDEST PUSH1 0x0 PUSH32 0xFFFFFFFF00000000000000000000000000000000000000000000000000000000 DUP3 AND PUSH32 0x1FFC9A700000000000000000000000000000000000000000000000000000000 EQ DUP1 PUSH2 0x814 JUMPI POP PUSH32 0xFFFFFFFF00000000000000000000000000000000000000000000000000000000 DUP3 AND PUSH32 0x4E2312E000000000000000000000000000000000000000000000000000000000 EQ JUMPDEST SWAP1 POP JUMPDEST SWAP2 SWAP1 POP JUMP JUMPDEST PUSH32 0x0 DUP2 JUMP JUMPDEST PUSH1 0x4 PUSH1 0x20 MSTORE PUSH1 0x0 SWAP1 DUP2 MSTORE PUSH1 0x40 SWAP1 KECCAK256 SLOAD PUSH8 0xFFFFFFFFFFFFFFFF AND DUP2 JUMP JUMPDEST PUSH1 0x0 PUSH2 0x887 PUSH32 0x0 PUSH2 0x176D JUMP JUMPDEST SWAP1 POP SWAP1 JUMP JUMPDEST PUSH1 0x5 PUSH1 0x20 MSTORE DUP2 PUSH1 0x0 MSTORE PUSH1 0x40 PUSH1 0x0 KECCAK256 DUP2 DUP2 SLOAD DUP2 LT PUSH2 0x8A8 JUMPI PUSH1 0x0 DUP1 REVERT JUMPDEST PUSH1 0x0 SWAP2 DUP3 MSTORE PUSH1 0x20 SWAP1 SWAP2 KECCAK256 ADD SLOAD PUSH1 0x1 PUSH1 0x1 PUSH1 0x80 SHL SUB DUP1 DUP3 AND SWAP4 POP PUSH1 0x1 PUSH1 0x80 SHL SWAP1 SWAP2 DIV AND SWAP1 POP DUP3 JUMP JUMPDEST PUSH32 0x0 DUP2 JUMP JUMPDEST PUSH1 0x8 PUSH1 0x20 MSTORE PUSH1 0x0 SWAP1 DUP2 MSTORE PUSH1 0x40 SWAP1 KECCAK256 SLOAD DUP2 JUMP JUMPDEST PUSH1 0x0 SLOAD PUSH1 0x1 PUSH1 0xA0 SHL SWAP1 DIV PUSH1 0xFF AND DUP2 JUMP JUMPDEST PUSH1 0x1 SLOAD DUP2 JUMP JUMPDEST PUSH2 0x924 CALLER PUSH2 0x1781 JUMP JUMPDEST PUSH1 0x0 DUP1 SLOAD PUSH32 0xFFFFFFFFFFFFFFFFFFFFFF00FFFFFFFFFFFFFFFFFFFFFFFFFFFFFFFFFFFFFFFF AND DUP2 SSTORE PUSH1 0x40 MLOAD PUSH32 0x75884CDADC4A89E8B545DB800057F06EC7F5338A08183C7BA515F2BFDD9FE1E1 SWAP2 SWAP1 LOG1 JUMP JUMPDEST PUSH1 0x3 DUP2 DUP2 SLOAD DUP2 LT PUSH2 0x985 JUMPI PUSH1 0x0 DUP1 REVERT JUMPDEST PUSH1 0x0 SWAP2 DUP3 MSTORE PUSH1 0x20 SWAP1 SWAP2 KECCAK256 ADD SLOAD PUSH1 0x1 PUSH1 0x1 PUSH1 0x80 SHL SUB DUP1 DUP3 AND SWAP3 POP PUSH1 0x1 PUSH1 0x80 SHL SWAP1 SWAP2 DIV AND DUP3 JUMP JUMPDEST PUSH1 0x0 DUP1 SLOAD DUP2 SWAP1 DUP2 SWAP1 PUSH1 0x1 PUSH1 0xA0 SHL SWAP1 DIV PUSH1 0xFF AND PUSH2 0x9F7 JUMPI PUSH1 0x40 MLOAD PUSH3 0x461BCD PUSH1 0xE5 SHL DUP2 MSTORE PUSH1 0x4 ADD DUP1 DUP1 PUSH1 0x20 ADD DUP3 DUP2 SUB DUP3 MSTORE PUSH1 0x23 DUP2 MSTORE PUSH1 0x20 ADD DUP1 PUSH2 0x2B5A PUSH1 0x23 SWAP2 CODECOPY PUSH1 0x40 ADD SWAP2 POP POP PUSH1 0x40 MLOAD DUP1 SWAP2 SUB SWAP1 REVERT JUMPDEST PUSH1 0x2 SLOAD PUSH2 0xA4B JUMPI PUSH1 0x40 DUP1 MLOAD PUSH3 0x461BCD PUSH1 0xE5 SHL DUP2 MSTORE PUSH1 0x20 PUSH1 0x4 DUP3 ADD MSTORE PUSH1 0x1F PUSH1 0x24 DUP3 ADD MSTORE PUSH32 0x4E66745374616B696E673A207374616B696E67206E6F74207374617274656400 PUSH1 0x44 DUP3 ADD MSTORE SWAP1 MLOAD SWAP1 DUP2 SWAP1 SUB PUSH1 0x64 ADD SWAP1 REVERT JUMPDEST PUSH1 0x0 PUSH2 0xA57 CALLER DUP7 PUSH2 0x1845 JUMP JUMPDEST POP DUP1 MLOAD PUSH1 0x20 DUP3 ADD MLOAD PUSH1 0x40 SWAP1 SWAP3 ADD MLOAD SWAP1 SWAP8 SWAP2 SWAP7 POP SWAP5 POP SWAP3 POP POP POP JUMP JUMPDEST PUSH1 0x6 PUSH1 0x20 MSTORE PUSH1 0x0 SWAP1 DUP2 MSTORE PUSH1 0x40 SWAP1 KECCAK256 SLOAD PUSH2 0xFFFF DUP2 AND SWAP1 PUSH8 0xFFFFFFFFFFFFFFFF PUSH3 0x10000 DUP3 DIV DUP2 AND SWAP2 PUSH11 0x100000000000000000000 SWAP1 DIV AND DUP4 JUMP JUMPDEST PUSH1 0x0 DUP2 DUP2 MSTORE PUSH1 0x7 PUSH1 0x20 SWAP1 DUP2 MSTORE PUSH1 0x40 SWAP2 DUP3 SWAP1 KECCAK256 DUP3 MLOAD PUSH1 0x80 DUP2 ADD DUP5 MSTORE SWAP1 SLOAD PUSH1 0x1 PUSH1 0x1 PUSH1 0xA0 SHL SUB DUP2 AND DUP1 DUP4 MSTORE PUSH8 0xFFFFFFFFFFFFFFFF PUSH1 0x1 PUSH1 0xA0 SHL DUP4 DIV AND SWAP4 DUP4 ADD SWAP4 SWAP1 SWAP4 MSTORE PUSH2 0xFFFF PUSH1 0x1 PUSH1 0xE0 SHL DUP3 DIV DUP2 AND SWAP5 DUP4 ADD SWAP5 SWAP1 SWAP5 MSTORE PUSH1 0x1 PUSH1 0xF0 SHL SWAP1 DIV SWAP1 SWAP3 AND PUSH1 0x60 DUP4 ADD MSTORE CALLER EQ PUSH2 0xB4B JUMPI PUSH1 0x40 MLOAD PUSH3 0x461BCD PUSH1 0xE5 SHL DUP2 MSTORE PUSH1 0x4 ADD DUP1 DUP1 PUSH1 0x20 ADD DUP3 DUP2 SUB DUP3 MSTORE PUSH1 0x35 DUP2 MSTORE PUSH1 0x20 ADD DUP1 PUSH2 0x2A6B PUSH1 0x35 SWAP2 CODECOPY PUSH1 0x40 ADD SWAP2 POP POP PUSH1 0x40 MLOAD DUP1 SWAP2 SUB SWAP1 REVERT JUMPDEST PUSH1 0x0 PUSH2 0xB56 TIMESTAMP PUSH2 0x1DCC JUMP JUMPDEST PUSH1 0x0 SLOAD SWAP1 SWAP2 POP PUSH1 0x1 PUSH1 0xA0 SHL SWAP1 DIV PUSH1 0xFF AND ISZERO PUSH2 0xCE2 JUMPI PUSH1 0x2 DUP3 PUSH1 0x40 ADD MLOAD DUP3 SUB PUSH2 0xFFFF AND LT ISZERO PUSH2 0xBCB JUMPI PUSH1 0x40 DUP1 MLOAD PUSH3 0x461BCD PUSH1 0xE5 SHL DUP2 MSTORE PUSH1 0x20 PUSH1 0x4 DUP3 ADD MSTORE PUSH1 0x1E PUSH1 0x24 DUP3 ADD MSTORE PUSH32 0x4E66745374616B696E673A20746F6B656E207374696C6C2066726F7A656E0000 PUSH1 0x44 DUP3 ADD MSTORE SWAP1 MLOAD SWAP1 DUP2 SWAP1 SUB PUSH1 0x64 ADD SWAP1 REVERT JUMPDEST PUSH2 0xBE7 CALLER DUP4 PUSH1 0x20 ADD MLOAD PUSH8 0xFFFFFFFFFFFFFFFF AND PUSH1 0x0 SUB DUP4 PUSH2 0x1E25 JUMP JUMPDEST PUSH1 0x0 DUP1 DUP4 MSTORE PUSH2 0xFFFF DUP1 DUP4 AND PUSH1 0x60 DUP6 ADD SWAP1 DUP2 MSTORE DUP6 DUP4 MSTORE PUSH1 0x7 PUSH1 0x20 SWAP1 DUP2 MSTORE PUSH1 0x40 SWAP4 DUP5 SWAP1 KECCAK256 DUP7 MLOAD DUP2 SLOAD SWAP3 DUP9 ADD MLOAD SWAP6 DUP9 ADD MLOAD SWAP4 MLOAD DUP6 AND PUSH1 0x1 PUSH1 0xF0 SHL MUL PUSH30 0xFFFFFFFFFFFFFFFFFFFFFFFFFFFFFFFFFFFFFFFFFFFFFFFFFFFFFFFFFFFF SWAP5 SWAP1 SWAP6 AND PUSH1 0x1 PUSH1 0xE0 SHL MUL PUSH32 0xFFFF0000FFFFFFFFFFFFFFFFFFFFFFFFFFFFFFFFFFFFFFFFFFFFFFFFFFFFFFFF PUSH8 0xFFFFFFFFFFFFFFFF SWAP1 SWAP8 AND PUSH1 0x1 PUSH1 0xA0 SHL MUL PUSH32 0xFFFFFFFF0000000000000000FFFFFFFFFFFFFFFFFFFFFFFFFFFFFFFFFFFFFFFF PUSH1 0x1 PUSH1 0x1 PUSH1 0xA0 SHL SUB SWAP4 SWAP1 SWAP4 AND PUSH32 0xFFFFFFFFFFFFFFFFFFFFFFFF0000000000000000000000000000000000000000 SWAP1 SWAP6 AND SWAP5 SWAP1 SWAP5 OR SWAP2 SWAP1 SWAP2 AND SWAP3 SWAP1 SWAP3 OR SWAP5 SWAP1 SWAP5 AND OR AND OR SWAP1 SSTORE JUMPDEST PUSH1 0x40 DUP1 MLOAD PUSH32 0x23B872DD00000000000000000000000000000000000000000000000000000000 DUP2 MSTORE ADDRESS PUSH1 0x4 DUP3 ADD MSTORE CALLER PUSH1 0x24 DUP3 ADD MSTORE PUSH1 0x44 DUP2 ADD DUP6 SWAP1 MSTORE SWAP1 MLOAD PUSH1 0x1 PUSH1 0x1 PUSH1 0xA0 SHL SUB PUSH32 0x0 AND SWAP2 PUSH4 0x23B872DD SWAP2 PUSH1 0x64 DUP1 DUP4 ADD SWAP3 PUSH1 0x0 SWAP3 SWAP2 SWAP1 DUP3 SWAP1 SUB ADD DUP2 DUP4 DUP8 DUP1 EXTCODESIZE ISZERO DUP1 ISZERO PUSH2 0xD6F JUMPI PUSH1 0x0 DUP1 REVERT JUMPDEST POP GAS CALL ISZERO DUP1 ISZERO PUSH2 0xD83 JUMPI RETURNDATASIZE PUSH1 0x0 DUP1 RETURNDATACOPY RETURNDATASIZE PUSH1 0x0 REVERT JUMPDEST POP POP POP PUSH1 0x20 DUP1 DUP5 ADD MLOAD PUSH1 0x40 DUP1 MLOAD CALLER DUP2 MSTORE PUSH2 0xFFFF DUP7 AND SWAP4 DUP2 ADD SWAP4 SWAP1 SWAP4 MSTORE DUP3 DUP2 ADD DUP8 SWAP1 MSTORE PUSH8 0xFFFFFFFFFFFFFFFF SWAP1 SWAP2 AND PUSH1 0x60 DUP4 ADD MSTORE MLOAD PUSH32 0xA809C38C1B1D8F31236741C657BA4D5B0C25CEFAB4C1CBC9A0CA5F96A774A15D SWAP3 POP SWAP1 DUP2 SWAP1 SUB PUSH1 0x80 ADD SWAP1 LOG1 POP POP POP JUMP JUMPDEST PUSH1 0x0 SLOAD PUSH1 0x1 PUSH1 0xA0 SHL SWAP1 DIV PUSH1 0xFF AND ISZERO PUSH2 0xE47 JUMPI PUSH1 0x40 DUP1 MLOAD PUSH3 0x461BCD PUSH1 0xE5 SHL DUP2 MSTORE PUSH1 0x20 PUSH1 0x4 DUP3 ADD MSTORE PUSH1 0x1F PUSH1 0x24 DUP3 ADD MSTORE PUSH32 0x4E66745374616B696E673A20636F6E747261637420697320656E61626C656400 PUSH1 0x44 DUP3 ADD MSTORE SWAP1 MLOAD SWAP1 DUP2 SWAP1 SUB PUSH1 0x64 ADD SWAP1 REVERT JUMPDEST PUSH2 0xE50 CALLER PUSH2 0x1781 JUMP JUMPDEST PUSH2 0xE84 PUSH1 0x1 PUSH1 0x1 PUSH1 0xA0 SHL SUB PUSH32 0x0 AND CALLER DUP4 PUSH2 0x1F24 JUMP JUMPDEST POP JUMP JUMPDEST PUSH1 0x3 SLOAD PUSH1 0x0 SWAP1 DUP1 PUSH2 0xEDF JUMPI PUSH1 0x40 DUP1 MLOAD PUSH3 0x461BCD PUSH1 0xE5 SHL DUP2 MSTORE PUSH1 0x20 PUSH1 0x4 DUP3 ADD DUP2 SWAP1 MSTORE PUSH1 0x24 DUP3 ADD MSTORE PUSH32 0x4E66745374616B696E673A20656D70747920676C6F62616C20686973746F7279 PUSH1 0x44 DUP3 ADD MSTORE SWAP1 MLOAD SWAP1 DUP2 SWAP1 SUB PUSH1 0x64 ADD SWAP1 REVERT JUMPDEST PUSH1 0x0 NOT ADD SWAP1 POP SWAP1 JUMP JUMPDEST PUSH1 0x7 PUSH1 0x20 MSTORE PUSH1 0x0 SWAP1 DUP2 MSTORE PUSH1 0x40 SWAP1 KECCAK256 SLOAD PUSH1 0x1 PUSH1 0x1 PUSH1 0xA0 SHL SUB DUP2 AND SWAP1 PUSH8 0xFFFFFFFFFFFFFFFF PUSH1 0x1 PUSH1 0xA0 SHL DUP3 DIV AND SWAP1 PUSH2 0xFFFF PUSH1 0x1 PUSH1 0xE0 SHL DUP3 DIV DUP2 AND SWAP2 PUSH1 0x1 PUSH1 0xF0 SHL SWAP1 DIV AND DUP5 JUMP JUMPDEST PUSH1 0x0 SLOAD PUSH1 0x1 PUSH1 0x1 PUSH1 0xA0 SHL SUB AND SWAP1 JUMP JUMPDEST PUSH32 0x0 DUP2 JUMP JUMPDEST PUSH32 0x0 DUP2 JUMP JUMPDEST PUSH1 0x0 SLOAD PUSH1 0x1 PUSH1 0xA0 SHL SWAP1 DIV PUSH1 0xFF AND PUSH2 0xFCB JUMPI PUSH1 0x40 MLOAD PUSH3 0x461BCD PUSH1 0xE5 SHL DUP2 MSTORE PUSH1 0x4 ADD DUP1 DUP1 PUSH1 0x20 ADD DUP3 DUP2 SUB DUP3 MSTORE PUSH1 0x23 DUP2 MSTORE PUSH1 0x20 ADD DUP1 PUSH2 0x2B5A PUSH1 0x23 SWAP2 CODECOPY PUSH1 0x40 ADD SWAP2 POP POP PUSH1 0x40 MLOAD DUP1 SWAP2 SUB SWAP1 REVERT JUMPDEST PUSH1 0x2 SLOAD PUSH2 0x101F JUMPI PUSH1 0x40 DUP1 MLOAD PUSH3 0x461BCD PUSH1 0xE5 SHL DUP2 MSTORE PUSH1 0x20 PUSH1 0x4 DUP3 ADD MSTORE PUSH1 0x1F PUSH1 0x24 DUP3 ADD MSTORE PUSH32 0x4E66745374616B696E673A207374616B696E67206E6F74207374617274656400 PUSH1 0x44 DUP3 ADD MSTORE SWAP1 MLOAD SWAP1 DUP2 SWAP1 SUB PUSH1 0x64 ADD SWAP1 REVERT JUMPDEST CALLER PUSH1 0x0 DUP2 DUP2 MSTORE PUSH1 0x6 PUSH1 0x20 SWAP1 DUP2 MSTORE PUSH1 0x40 DUP1 DUP4 KECCAK256 DUP2 MLOAD PUSH1 0x60 DUP2 ADD DUP4 MSTORE SWAP1 SLOAD PUSH2 0xFFFF DUP2 AND DUP3 MSTORE PUSH8 0xFFFFFFFFFFFFFFFF PUSH3 0x10000 DUP3 DIV DUP2 AND SWAP5 DUP4 ADD SWAP5 SWAP1 SWAP5 MSTORE PUSH11 0x100000000000000000000 SWAP1 DIV SWAP1 SWAP3 AND SWAP1 DUP3 ADD MSTORE SWAP2 DUP2 SWAP1 PUSH2 0x107C SWAP1 DUP6 PUSH2 0x1845 JUMP JUMPDEST CALLER PUSH1 0x0 SWAP1 DUP2 MSTORE PUSH1 0x5 PUSH1 0x20 MSTORE PUSH1 0x40 SWAP1 KECCAK256 SWAP2 SWAP4 POP SWAP2 POP JUMPDEST DUP2 PUSH1 0x40 ADD MLOAD PUSH8 0xFFFFFFFFFFFFFFFF AND DUP5 PUSH1 0x40 ADD MLOAD PUSH8 0xFFFFFFFFFFFFFFFF AND LT ISZERO PUSH2 0x10FD JUMPI DUP1 DUP5 PUSH1 0x40 ADD DUP1 MLOAD DUP1 SWAP2 SWAP1 PUSH1 0x1 ADD PUSH8 0xFFFFFFFFFFFFFFFF AND PUSH8 0xFFFFFFFFFFFFFFFF AND DUP2 MSTORE POP PUSH8 0xFFFFFFFFFFFFFFFF AND DUP2 SLOAD DUP2 LT PUSH2 0x10ED JUMPI INVALID JUMPDEST PUSH1 0x0 SWAP2 DUP3 MSTORE PUSH1 0x20 DUP3 KECCAK256 ADD SSTORE PUSH2 0x1091 JUMP JUMPDEST PUSH1 0x20 DUP4 ADD MLOAD PUSH2 0xFFFF AND PUSH2 0x1113 JUMPI POP POP POP POP PUSH2 0xE84 JUMP JUMPDEST CALLER PUSH1 0x0 SWAP1 DUP2 MSTORE PUSH1 0x6 PUSH1 0x20 MSTORE PUSH1 0x40 SWAP1 KECCAK256 SLOAD PUSH2 0xFFFF AND PUSH2 0x1134 JUMPI POP POP POP POP PUSH2 0xE84 JUMP JUMPDEST DUP1 SLOAD PUSH1 0x0 SWAP1 DUP3 SWAP1 PUSH1 0x0 NOT DUP2 ADD SWAP1 DUP2 LT PUSH2 0x1149 JUMPI INVALID JUMPDEST PUSH1 0x0 SWAP2 DUP3 MSTORE PUSH1 0x20 SWAP2 DUP3 SWAP1 KECCAK256 PUSH1 0x40 DUP1 MLOAD DUP1 DUP3 ADD SWAP1 SWAP2 MSTORE SWAP2 ADD SLOAD PUSH1 0x1 PUSH1 0x1 PUSH1 0x80 SHL SUB DUP1 DUP3 AND DUP4 MSTORE PUSH1 0x1 PUSH1 0x80 SHL SWAP1 SWAP2 DIV AND DUP2 DUP4 ADD DUP2 SWAP1 MSTORE SWAP2 DUP7 ADD MLOAD DUP7 MLOAD SWAP2 SWAP4 POP PUSH32 0x0 SWAP2 ADD PUSH1 0x0 NOT ADD MUL PUSH2 0xFFFF AND SWAP1 DUP2 LT DUP1 ISZERO SWAP1 PUSH2 0x11CA JUMPI POP DUP2 MLOAD PUSH1 0x1 PUSH1 0x1 PUSH1 0x80 SHL SUB AND ISZERO JUMPDEST ISZERO PUSH2 0x1209 JUMPI CALLER PUSH1 0x0 SWAP1 DUP2 MSTORE PUSH1 0x6 PUSH1 0x20 MSTORE PUSH1 0x40 SWAP1 KECCAK256 DUP1 SLOAD PUSH32 0xFFFFFFFFFFFFFFFFFFFFFFFFFFFF000000000000000000000000000000000000 AND SWAP1 SSTORE PUSH2 0x128F JUMP JUMPDEST CALLER PUSH1 0x0 SWAP1 DUP2 MSTORE PUSH1 0x6 PUSH1 0x20 SWAP1 DUP2 MSTORE PUSH1 0x40 SWAP2 DUP3 SWAP1 KECCAK256 DUP7 MLOAD DUP2 SLOAD SWAP3 DUP9 ADD MLOAD SWAP4 DUP9 ADD MLOAD PUSH2 0xFFFF NOT SWAP1 SWAP4 AND PUSH2 0xFFFF SWAP1 SWAP2 AND OR PUSH10 0xFFFFFFFFFFFFFFFF0000 NOT AND PUSH3 0x10000 PUSH8 0xFFFFFFFFFFFFFFFF SWAP5 DUP6 AND MUL OR PUSH32 0xFFFFFFFFFFFFFFFFFFFFFFFFFFFF0000000000000000FFFFFFFFFFFFFFFFFFFF AND PUSH11 0x100000000000000000000 SWAP4 SWAP1 SWAP3 AND SWAP3 SWAP1 SWAP3 MUL OR SWAP1 SSTORE JUMPDEST PUSH1 0x40 DUP6 ADD MLOAD ISZERO PUSH2 0x12D4 JUMPI PUSH1 0x40 DUP6 ADD MLOAD PUSH2 0x12D4 SWAP1 PUSH1 0x1 PUSH1 0x1 PUSH1 0xA0 SHL SUB PUSH32 0x0 AND SWAP1 CALLER SWAP1 PUSH2 0x1F24 JUMP JUMPDEST PUSH32 0x5619B8583BBBB0760D27AC9FF844CEC866B333BF7AD0262C2D809FF42F22E5FC CALLER PUSH2 0x12FF TIMESTAMP PUSH2 0x1DCC JUMP JUMPDEST DUP8 PUSH1 0x0 ADD MLOAD DUP9 PUSH1 0x20 ADD MLOAD DUP10 PUSH1 0x40 ADD MLOAD PUSH1 0x40 MLOAD DUP1 DUP7 PUSH1 0x1 PUSH1 0x1 PUSH1 0xA0 SHL SUB AND DUP2 MSTORE PUSH1 0x20 ADD DUP6 PUSH2 0xFFFF AND DUP2 MSTORE PUSH1 0x20 ADD DUP5 PUSH2 0xFFFF AND DUP2 MSTORE PUSH1 0x20 ADD DUP4 PUSH2 0xFFFF AND DUP2 MSTORE PUSH1 0x20 ADD DUP3 DUP2 MSTORE PUSH1 0x20 ADD SWAP6 POP POP POP POP POP POP PUSH1 0x40 MLOAD DUP1 SWAP2 SUB SWAP1 LOG1 POP POP POP POP POP POP POP JUMP JUMPDEST PUSH1 0x0 DUP1 JUMPDEST DUP7 DUP2 LT ISZERO PUSH2 0x138D JUMPI PUSH2 0x1385 DUP9 DUP9 DUP4 DUP2 DUP2 LT PUSH2 0x1378 JUMPI INVALID JUMPDEST SWAP1 POP PUSH1 0x20 MUL ADD CALLDATALOAD DUP11 PUSH2 0x1FA9 JUMP JUMPDEST PUSH1 0x1 ADD PUSH2 0x1361 JUMP JUMPDEST POP PUSH32 0xBC197C8100000000000000000000000000000000000000000000000000000000 SWAP10 SWAP9 POP POP POP POP POP POP POP POP POP JUMP JUMPDEST PUSH1 0x0 PUSH2 0x887 TIMESTAMP PUSH2 0x1DCC JUMP JUMPDEST PUSH1 0x2 SLOAD ISZERO PUSH2 0x141C JUMPI PUSH1 0x40 DUP1 MLOAD PUSH3 0x461BCD PUSH1 0xE5 SHL DUP2 MSTORE PUSH1 0x20 PUSH1 0x4 DUP3 ADD MSTORE PUSH1 0x1F PUSH1 0x24 DUP3 ADD MSTORE PUSH32 0x4E66745374616B696E673A207374616B696E6720686173207374617274656400 PUSH1 0x44 DUP3 ADD MSTORE SWAP1 MLOAD SWAP1 DUP2 SWAP1 SUB PUSH1 0x64 ADD SWAP1 REVERT JUMPDEST PUSH2 0x1425 CALLER PUSH2 0x1781 JUMP JUMPDEST TIMESTAMP PUSH1 0x2 SSTORE PUSH1 0x40 MLOAD PUSH32 0xD8CEA0ECD56872FF072E771658B5682FFE4DE16D752947F79597D600EA56F7A9 SWAP1 PUSH1 0x0 SWAP1 LOG1 JUMP JUMPDEST PUSH1 0x1 PUSH1 0x1 PUSH1 0xA0 SHL SUB DUP2 AND PUSH1 0x0 SWAP1 DUP2 MSTORE PUSH1 0x5 PUSH1 0x20 MSTORE PUSH1 0x40 DUP2 KECCAK256 SLOAD DUP1 PUSH2 0x14BF JUMPI PUSH1 0x40 DUP1 MLOAD PUSH3 0x461BCD PUSH1 0xE5 SHL DUP2 MSTORE PUSH1 0x20 PUSH1 0x4 DUP3 ADD DUP2 SWAP1 MSTORE PUSH1 0x24 DUP3 ADD MSTORE PUSH32 0x4E66745374616B696E673A20656D707479207374616B657220686973746F7279 PUSH1 0x44 DUP3 ADD MSTORE SWAP1 MLOAD SWAP1 DUP2 SWAP1 SUB PUSH1 0x64 ADD SWAP1 REVERT JUMPDEST PUSH1 0x0 NOT ADD SWAP3 SWAP2 POP POP JUMP JUMPDEST PUSH1 0x2 SLOAD DUP2 JUMP JUMPDEST PUSH1 0x0 PUSH2 0x14DB DUP6 DUP8 PUSH2 0x1FA9 JUMP JUMPDEST POP PUSH32 0xF23A6E6100000000000000000000000000000000000000000000000000000000 SWAP7 SWAP6 POP POP POP POP POP POP JUMP JUMPDEST PUSH2 0x1517 PUSH2 0x1512 PUSH2 0x239F JUMP JUMPDEST PUSH2 0x1781 JUMP JUMPDEST PUSH1 0x0 DUP1 SLOAD PUSH32 0xFFFFFFFFFFFFFFFFFFFFFFFF0000000000000000000000000000000000000000 AND PUSH1 0x1 PUSH1 0x1 PUSH1 0xA0 SHL SUB DUP4 DUP2 AND SWAP2 DUP3 OR DUP1 DUP5 SSTORE PUSH1 0x40 MLOAD SWAP3 SWAP4 SWAP2 AND SWAP2 PUSH32 0x8BE0079C531659141344CD1FD0A4F28419497F9722A3DAAFE3B4186F6B6457E0 SWAP2 SWAP1 LOG3 POP JUMP JUMPDEST PUSH2 0x1586 CALLER PUSH2 0x1781 JUMP JUMPDEST PUSH2 0xFFFF DUP4 AND ISZERO DUP1 ISZERO SWAP1 PUSH2 0x15A1 JUMPI POP DUP2 PUSH2 0xFFFF AND DUP4 PUSH2 0xFFFF AND GT ISZERO JUMPDEST PUSH2 0x15F2 JUMPI PUSH1 0x40 DUP1 MLOAD PUSH3 0x461BCD PUSH1 0xE5 SHL DUP2 MSTORE PUSH1 0x20 PUSH1 0x4 DUP3 ADD MSTORE PUSH1 0x1E PUSH1 0x24 DUP3 ADD MSTORE PUSH32 0x4E66745374616B696E673A2077726F6E6720706572696F642072616E67650000 PUSH1 0x44 DUP3 ADD MSTORE SWAP1 MLOAD SWAP1 DUP2 SWAP1 SUB PUSH1 0x64 ADD SWAP1 REVERT JUMPDEST PUSH1 0x2 SLOAD PUSH32 0x0 SWAP1 ISZERO PUSH2 0x166B JUMPI PUSH2 0x1625 DUP2 PUSH2 0x176D JUMP JUMPDEST PUSH2 0xFFFF AND DUP5 PUSH2 0xFFFF AND LT ISZERO PUSH2 0x166B JUMPI PUSH1 0x40 MLOAD PUSH3 0x461BCD PUSH1 0xE5 SHL DUP2 MSTORE PUSH1 0x4 ADD DUP1 DUP1 PUSH1 0x20 ADD DUP3 DUP2 SUB DUP3 MSTORE PUSH1 0x2D DUP2 MSTORE PUSH1 0x20 ADD DUP1 PUSH2 0x2B2D PUSH1 0x2D SWAP2 CODECOPY PUSH1 0x40 ADD SWAP2 POP POP PUSH1 0x40 MLOAD DUP1 SWAP2 SUB SWAP1 REVERT JUMPDEST PUSH2 0xFFFF DUP5 AND JUMPDEST DUP4 PUSH2 0xFFFF AND DUP2 GT PUSH2 0x16AC JUMPI PUSH1 0x0 DUP2 DUP2 MSTORE PUSH1 0x8 PUSH1 0x20 MSTORE PUSH1 0x40 SWAP1 KECCAK256 SLOAD PUSH2 0x1695 SWAP1 DUP5 PUSH2 0x23A3 JUMP JUMPDEST PUSH1 0x0 DUP3 DUP2 MSTORE PUSH1 0x8 PUSH1 0x20 MSTORE PUSH1 0x40 SWAP1 KECCAK256 SSTORE PUSH1 0x1 ADD PUSH2 0x1671 JUMP JUMPDEST POP PUSH1 0x0 PUSH2 0x16D9 DUP6 DUP6 SUB PUSH1 0x1 ADD PUSH2 0xFFFF AND PUSH2 0x16D3 DUP5 PUSH2 0xFFFF AND DUP7 PUSH2 0x2406 SWAP1 SWAP2 SWAP1 PUSH4 0xFFFFFFFF AND JUMP JUMPDEST SWAP1 PUSH2 0x2406 JUMP JUMPDEST PUSH1 0x1 SLOAD SWAP1 SWAP2 POP PUSH2 0x16E9 SWAP1 DUP3 PUSH2 0x23A3 JUMP JUMPDEST PUSH1 0x1 SSTORE PUSH2 0x1721 PUSH1 0x1 PUSH1 0x1 PUSH1 0xA0 SHL SUB PUSH32 0x0 AND CALLER ADDRESS DUP5 PUSH2 0x245F JUMP JUMPDEST PUSH1 0x40 DUP1 MLOAD PUSH2 0xFFFF DUP1 DUP9 AND DUP3 MSTORE DUP7 AND PUSH1 0x20 DUP3 ADD MSTORE DUP1 DUP3 ADD DUP6 SWAP1 MSTORE SWAP1 MLOAD PUSH32 0xBFF8D5CED955E6F69A19ECC71D313996F6DDFED652CDB458859AF89E2F076835 SWAP2 DUP2 SWAP1 SUB PUSH1 0x60 ADD SWAP1 LOG1 POP POP POP POP POP JUMP JUMPDEST PUSH1 0x0 PUSH2 0x814 PUSH2 0x177B TIMESTAMP PUSH2 0x1DCC JUMP JUMPDEST DUP4 PUSH2 0x24ED JUMP JUMPDEST ADDRESS PUSH1 0x1 PUSH1 0x1 PUSH1 0xA0 SHL SUB AND PUSH4 0x8DA5CB5B PUSH1 0x40 MLOAD DUP2 PUSH4 0xFFFFFFFF AND PUSH1 0xE0 SHL DUP2 MSTORE PUSH1 0x4 ADD PUSH1 0x20 PUSH1 0x40 MLOAD DUP1 DUP4 SUB DUP2 DUP7 DUP1 EXTCODESIZE ISZERO DUP1 ISZERO PUSH2 0x17BA JUMPI PUSH1 0x0 DUP1 REVERT JUMPDEST POP GAS STATICCALL ISZERO DUP1 ISZERO PUSH2 0x17CE JUMPI RETURNDATASIZE PUSH1 0x0 DUP1 RETURNDATACOPY RETURNDATASIZE PUSH1 0x0 REVERT JUMPDEST POP POP POP POP PUSH1 0x40 MLOAD RETURNDATASIZE PUSH1 0x20 DUP2 LT ISZERO PUSH2 0x17E4 JUMPI PUSH1 0x0 DUP1 REVERT JUMPDEST POP MLOAD PUSH1 0x1 PUSH1 0x1 PUSH1 0xA0 SHL SUB DUP3 DUP2 AND SWAP2 AND EQ PUSH2 0xE84 JUMPI PUSH1 0x40 DUP1 MLOAD PUSH3 0x461BCD PUSH1 0xE5 SHL DUP2 MSTORE PUSH1 0x20 PUSH1 0x4 DUP3 ADD MSTORE PUSH1 0x16 PUSH1 0x24 DUP3 ADD MSTORE PUSH32 0x4F776E61626C653A206E6F7420746865206F776E657200000000000000000000 PUSH1 0x44 DUP3 ADD MSTORE SWAP1 MLOAD SWAP1 DUP2 SWAP1 SUB PUSH1 0x64 ADD SWAP1 REVERT JUMPDEST PUSH2 0x184D PUSH2 0x2A0D JUMP JUMPDEST PUSH2 0x1855 PUSH2 0x2A0D JUMP JUMPDEST PUSH2 0xFFFF DUP4 AND PUSH2 0x1863 JUMPI PUSH2 0x1DC5 JUMP JUMPDEST PUSH1 0x3 SLOAD PUSH2 0x186F JUMPI PUSH2 0x1DC5 JUMP JUMPDEST POP PUSH1 0x1 PUSH1 0x1 PUSH1 0xA0 SHL SUB DUP4 AND PUSH1 0x0 SWAP1 DUP2 MSTORE PUSH1 0x6 PUSH1 0x20 SWAP1 DUP2 MSTORE PUSH1 0x40 SWAP2 DUP3 SWAP1 KECCAK256 DUP3 MLOAD PUSH1 0x60 DUP2 ADD DUP5 MSTORE SWAP1 SLOAD PUSH2 0xFFFF DUP2 AND DUP1 DUP4 MSTORE PUSH8 0xFFFFFFFFFFFFFFFF PUSH3 0x10000 DUP4 DIV DUP2 AND SWAP5 DUP5 ADD SWAP5 SWAP1 SWAP5 MSTORE PUSH11 0x100000000000000000000 SWAP1 SWAP2 DIV SWAP1 SWAP3 AND SWAP3 DUP2 ADD SWAP3 SWAP1 SWAP3 MSTORE DUP1 DUP4 MSTORE PUSH2 0x18DB JUMPI PUSH2 0x1DC5 JUMP JUMPDEST PUSH32 0x0 PUSH1 0x0 PUSH2 0x1907 DUP3 PUSH2 0x176D JUMP JUMPDEST SWAP1 POP DUP1 PUSH2 0xFFFF AND DUP4 PUSH1 0x0 ADD MLOAD PUSH2 0xFFFF AND EQ ISZERO PUSH2 0x1924 JUMPI POP POP PUSH2 0x1DC5 JUMP JUMPDEST PUSH1 0x1 PUSH1 0x1 PUSH1 0xA0 SHL SUB DUP7 AND PUSH1 0x0 SWAP1 DUP2 MSTORE PUSH1 0x5 PUSH1 0x20 SWAP1 DUP2 MSTORE PUSH1 0x40 DUP1 DUP4 KECCAK256 DUP1 SLOAD DUP3 MLOAD DUP2 DUP6 MUL DUP2 ADD DUP6 ADD SWAP1 SWAP4 MSTORE DUP1 DUP4 MSTORE SWAP2 SWAP3 SWAP1 SWAP2 SWAP1 DUP5 SWAP1 DUP5 ADD JUMPDEST DUP3 DUP3 LT ISZERO PUSH2 0x19A3 JUMPI PUSH1 0x0 DUP5 DUP2 MSTORE PUSH1 0x20 SWAP1 DUP2 SWAP1 KECCAK256 PUSH1 0x40 DUP1 MLOAD DUP1 DUP3 ADD SWAP1 SWAP2 MSTORE SWAP1 DUP5 ADD SLOAD PUSH1 0x1 PUSH1 0x1 PUSH1 0x80 SHL SUB DUP1 DUP3 AND DUP4 MSTORE PUSH1 0x1 PUSH1 0x80 SHL SWAP1 SWAP2 DIV AND DUP2 DUP4 ADD MSTORE DUP3 MSTORE PUSH1 0x1 SWAP1 SWAP3 ADD SWAP2 ADD PUSH2 0x195A JUMP JUMPDEST POP POP POP POP SWAP1 POP PUSH1 0x0 PUSH1 0x3 DUP6 PUSH1 0x20 ADD MLOAD PUSH8 0xFFFFFFFFFFFFFFFF AND DUP2 SLOAD DUP2 LT PUSH2 0x19C6 JUMPI INVALID JUMPDEST PUSH1 0x0 SWAP2 DUP3 MSTORE PUSH1 0x20 DUP1 DUP4 KECCAK256 PUSH1 0x40 DUP1 MLOAD DUP1 DUP3 ADD DUP3 MSTORE SWAP4 SWAP1 SWAP2 ADD SLOAD PUSH1 0x1 PUSH1 0x1 PUSH1 0x80 SHL SUB DUP1 DUP3 AND DUP6 MSTORE PUSH1 0x1 PUSH1 0x80 SHL SWAP1 SWAP2 DIV AND SWAP2 DUP4 ADD SWAP2 SWAP1 SWAP2 MSTORE DUP8 ADD MLOAD DUP5 MLOAD SWAP2 SWAP4 POP DUP5 SWAP2 PUSH8 0xFFFFFFFFFFFFFFFF SWAP1 SWAP2 AND SWAP1 DUP2 LT PUSH2 0x1A1A JUMPI INVALID JUMPDEST PUSH1 0x20 MUL PUSH1 0x20 ADD ADD MLOAD SWAP1 POP PUSH2 0x1A2C PUSH2 0x2A2D JUMP JUMPDEST PUSH2 0x1A34 PUSH2 0x2A2D JUMP JUMPDEST PUSH1 0x3 SLOAD PUSH1 0x20 DUP10 ADD MLOAD PUSH8 0xFFFFFFFFFFFFFFFF AND PUSH1 0x0 NOT SWAP1 SWAP2 ADD EQ PUSH2 0x1AA7 JUMPI PUSH1 0x3 DUP9 PUSH1 0x20 ADD MLOAD PUSH1 0x1 ADD PUSH8 0xFFFFFFFFFFFFFFFF AND DUP2 SLOAD DUP2 LT PUSH2 0x1A6F JUMPI INVALID JUMPDEST PUSH1 0x0 SWAP2 DUP3 MSTORE PUSH1 0x20 SWAP2 DUP3 SWAP1 KECCAK256 PUSH1 0x40 DUP1 MLOAD DUP1 DUP3 ADD SWAP1 SWAP2 MSTORE SWAP2 ADD SLOAD PUSH1 0x1 PUSH1 0x1 PUSH1 0x80 SHL SUB DUP1 DUP3 AND DUP4 MSTORE PUSH1 0x1 PUSH1 0x80 SHL SWAP1 SWAP2 DIV AND SWAP2 DUP2 ADD SWAP2 SWAP1 SWAP2 MSTORE SWAP2 POP JUMPDEST PUSH1 0x1 DUP6 MLOAD SUB DUP9 PUSH1 0x40 ADD MLOAD PUSH8 0xFFFFFFFFFFFFFFFF AND EQ PUSH2 0x1AE8 JUMPI DUP5 DUP9 PUSH1 0x40 ADD MLOAD PUSH1 0x1 ADD PUSH8 0xFFFFFFFFFFFFFFFF AND DUP2 MLOAD DUP2 LT PUSH2 0x1ADD JUMPI INVALID JUMPDEST PUSH1 0x20 MUL PUSH1 0x20 ADD ADD MLOAD SWAP1 POP JUMPDEST DUP8 MLOAD PUSH2 0xFFFF SWAP1 DUP8 SUB DUP2 AND PUSH1 0x20 DUP12 ADD DUP2 SWAP1 MSTORE SWAP1 DUP12 AND LT ISZERO PUSH2 0x1B0D JUMPI PUSH2 0xFFFF DUP11 AND PUSH1 0x20 DUP11 ADD MSTORE JUMPDEST PUSH1 0x20 DUP10 ADD MLOAD DUP9 MLOAD ADD SWAP6 POP JUMPDEST DUP6 PUSH2 0xFFFF AND DUP9 PUSH1 0x0 ADD MLOAD PUSH2 0xFFFF AND EQ PUSH2 0x1DBD JUMPI DUP8 MLOAD PUSH2 0xFFFF DUP1 DUP3 AND PUSH1 0x0 SWAP1 DUP2 MSTORE PUSH1 0x8 PUSH1 0x20 MSTORE PUSH1 0x40 DUP2 KECCAK256 SLOAD SWAP3 DUP11 MUL PUSH1 0x1 DUP2 DUP2 ADD SWAP5 SWAP4 SWAP2 DUP13 SWAP1 SUB ADD AND SWAP1 JUMPDEST DUP4 PUSH2 0xFFFF AND DUP2 EQ PUSH2 0x1DA8 JUMPI DUP2 DUP9 PUSH1 0x20 ADD MLOAD PUSH1 0x1 PUSH1 0x1 PUSH1 0x80 SHL SUB AND GT ISZERO PUSH2 0x1B85 JUMPI DUP8 PUSH1 0x20 ADD MLOAD PUSH1 0x1 PUSH1 0x1 PUSH1 0x80 SHL SUB AND SWAP2 POP JUMPDEST DUP2 DUP8 PUSH1 0x20 ADD MLOAD PUSH1 0x1 PUSH1 0x1 PUSH1 0x80 SHL SUB AND GT ISZERO PUSH2 0x1BAB JUMPI DUP7 PUSH1 0x20 ADD MLOAD PUSH1 0x1 PUSH1 0x1 PUSH1 0x80 SHL SUB AND SWAP2 POP JUMPDEST POP PUSH1 0x20 DUP6 ADD MLOAD PUSH2 0xFFFF DUP5 AND SWAP1 PUSH1 0x1 PUSH1 0x1 PUSH1 0x80 SHL SUB AND ISZERO DUP1 ISZERO SWAP1 PUSH2 0x1BDA JUMPI POP DUP1 DUP7 PUSH1 0x20 ADD MLOAD PUSH1 0x1 PUSH1 0x1 PUSH1 0x80 SHL SUB AND LT JUMPDEST ISZERO PUSH2 0x1BEF JUMPI POP PUSH1 0x20 DUP6 ADD MLOAD PUSH1 0x1 PUSH1 0x1 PUSH1 0x80 SHL SUB AND JUMPDEST DUP8 MLOAD PUSH1 0x1 PUSH1 0x1 PUSH1 0x80 SHL SUB AND ISZERO DUP1 ISZERO SWAP1 PUSH2 0x1C11 JUMPI POP DUP7 MLOAD PUSH1 0x1 PUSH1 0x1 PUSH1 0x80 SHL SUB AND ISZERO ISZERO JUMPDEST DUP1 ISZERO PUSH2 0x1C1C JUMPI POP DUP3 ISZERO ISZERO JUMPDEST ISZERO PUSH2 0x1C76 JUMPI DUP7 MLOAD PUSH1 0x0 SWAP1 PUSH2 0x1C3F SWAP1 PUSH1 0x1 PUSH1 0x1 PUSH1 0x80 SHL SUB AND PUSH2 0x16D3 DUP6 DUP6 SUB DUP8 PUSH2 0x2406 JUMP JUMPDEST DUP10 MLOAD SWAP1 SWAP2 POP PUSH1 0x1 PUSH1 0x1 PUSH1 0x80 SHL SUB AND DUP2 DUP2 PUSH2 0x1C55 JUMPI INVALID JUMPDEST DIV SWAP1 POP PUSH2 0x1C6F DUP2 DUP16 PUSH1 0x40 ADD MLOAD PUSH2 0x23A3 SWAP1 SWAP2 SWAP1 PUSH4 0xFFFFFFFF AND JUMP JUMPDEST PUSH1 0x40 DUP16 ADD MSTORE POP JUMPDEST DUP1 DUP7 PUSH1 0x20 ADD MLOAD PUSH1 0x1 PUSH1 0x1 PUSH1 0x80 SHL SUB AND EQ ISZERO PUSH2 0x1D24 JUMPI PUSH1 0x20 DUP13 ADD DUP1 MLOAD PUSH1 0x1 ADD PUSH8 0xFFFFFFFFFFFFFFFF AND SWAP1 DUP2 SWAP1 MSTORE PUSH1 0x3 SLOAD SWAP7 SWAP9 POP DUP9 SWAP7 PUSH1 0x0 NOT ADD EQ PUSH2 0x1D0D JUMPI PUSH1 0x3 DUP13 PUSH1 0x20 ADD MLOAD PUSH1 0x1 ADD PUSH8 0xFFFFFFFFFFFFFFFF AND DUP2 SLOAD DUP2 LT PUSH2 0x1CD1 JUMPI INVALID JUMPDEST PUSH1 0x0 SWAP2 DUP3 MSTORE PUSH1 0x20 SWAP2 DUP3 SWAP1 KECCAK256 PUSH1 0x40 DUP1 MLOAD DUP1 DUP3 ADD SWAP1 SWAP2 MSTORE SWAP2 ADD SLOAD PUSH1 0x1 PUSH1 0x1 PUSH1 0x80 SHL SUB DUP1 DUP3 AND DUP4 MSTORE PUSH1 0x1 PUSH1 0x80 SHL SWAP1 SWAP2 DIV AND SWAP2 DUP2 ADD SWAP2 SWAP1 SWAP2 MSTORE SWAP6 POP PUSH2 0x1D24 JUMP JUMPDEST PUSH1 0x40 DUP1 MLOAD DUP1 DUP3 ADD SWAP1 SWAP2 MSTORE PUSH1 0x0 DUP1 DUP3 MSTORE PUSH1 0x20 DUP3 ADD MSTORE SWAP6 POP JUMPDEST DUP1 DUP6 PUSH1 0x20 ADD MLOAD PUSH1 0x1 PUSH1 0x1 PUSH1 0x80 SHL SUB AND EQ ISZERO PUSH2 0x1DA3 JUMPI PUSH1 0x40 DUP13 ADD DUP1 MLOAD PUSH1 0x1 ADD PUSH8 0xFFFFFFFFFFFFFFFF AND SWAP1 DUP2 SWAP1 MSTORE DUP10 MLOAD SWAP6 SWAP8 POP DUP8 SWAP6 PUSH1 0x0 NOT ADD EQ PUSH2 0x1D8C JUMPI DUP9 DUP13 PUSH1 0x40 ADD MLOAD PUSH1 0x1 ADD PUSH8 0xFFFFFFFFFFFFFFFF AND DUP2 MLOAD DUP2 LT PUSH2 0x1D7D JUMPI INVALID JUMPDEST PUSH1 0x20 MUL PUSH1 0x20 ADD ADD MLOAD SWAP5 POP PUSH2 0x1DA3 JUMP JUMPDEST PUSH1 0x40 DUP1 MLOAD DUP1 DUP3 ADD SWAP1 SWAP2 MSTORE PUSH1 0x0 DUP1 DUP3 MSTORE PUSH1 0x20 DUP3 ADD MSTORE SWAP5 POP JUMPDEST PUSH2 0x1B54 JUMP JUMPDEST POP POP DUP10 MLOAD PUSH1 0x1 ADD PUSH2 0xFFFF AND DUP11 MSTORE POP PUSH2 0x1B18 SWAP1 POP JUMP JUMPDEST POP POP POP POP POP POP POP JUMPDEST SWAP3 POP SWAP3 SWAP1 POP JUMP JUMPDEST PUSH1 0x2 SLOAD PUSH1 0x0 SWAP1 DUP1 PUSH2 0x1DE1 JUMPI PUSH1 0x0 SWAP2 POP POP PUSH2 0x817 JUMP JUMPDEST PUSH2 0x1E1E PUSH32 0x0 PUSH4 0xFFFFFFFF AND DUP3 DUP6 SUB DUP2 PUSH2 0x1E15 JUMPI INVALID JUMPDEST DIV PUSH1 0x1 ADD PUSH2 0x2520 JUMP JUMPDEST SWAP4 SWAP3 POP POP POP JUMP JUMPDEST PUSH1 0x1 PUSH1 0x1 PUSH1 0xA0 SHL SUB DUP4 AND PUSH1 0x0 SWAP1 DUP2 MSTORE PUSH1 0x5 PUSH1 0x20 MSTORE PUSH1 0x40 DUP2 KECCAK256 PUSH2 0x1E48 SWAP1 DUP5 DUP5 PUSH2 0x2567 JUMP JUMPDEST SWAP1 POP PUSH1 0x0 PUSH2 0x1E58 PUSH1 0x3 DUP6 DUP6 PUSH2 0x2567 JUMP JUMPDEST SWAP1 POP PUSH32 0x6B53EDB1A2D26A789B4466210277239D9AB872345E93A9F6028058E71E64C186 DUP6 DUP5 PUSH1 0x5 PUSH1 0x0 DUP10 PUSH1 0x1 PUSH1 0x1 PUSH1 0xA0 SHL SUB AND PUSH1 0x1 PUSH1 0x1 PUSH1 0xA0 SHL SUB AND DUP2 MSTORE PUSH1 0x20 ADD SWAP1 DUP2 MSTORE PUSH1 0x20 ADD PUSH1 0x0 KECCAK256 DUP6 DUP2 SLOAD DUP2 LT PUSH2 0x1EAD JUMPI INVALID JUMPDEST PUSH1 0x0 SWAP2 DUP3 MSTORE PUSH1 0x20 SWAP1 SWAP2 KECCAK256 ADD SLOAD PUSH1 0x3 DUP1 SLOAD PUSH1 0x1 PUSH1 0x1 PUSH1 0x80 SHL SUB SWAP1 SWAP3 AND SWAP2 DUP7 SWAP1 DUP2 LT PUSH2 0x1ED3 JUMPI INVALID JUMPDEST PUSH1 0x0 SWAP2 DUP3 MSTORE PUSH1 0x20 SWAP2 DUP3 SWAP1 KECCAK256 ADD SLOAD PUSH1 0x40 DUP1 MLOAD PUSH1 0x1 PUSH1 0x1 PUSH1 0xA0 SHL SUB SWAP1 SWAP7 AND DUP7 MSTORE PUSH2 0xFFFF SWAP1 SWAP5 AND SWAP2 DUP6 ADD SWAP2 SWAP1 SWAP2 MSTORE PUSH1 0x1 PUSH1 0x1 PUSH1 0x80 SHL SUB SWAP2 DUP3 AND DUP5 DUP5 ADD MSTORE AND PUSH1 0x60 DUP4 ADD MSTORE MLOAD SWAP1 DUP2 SWAP1 SUB PUSH1 0x80 ADD SWAP1 LOG1 POP POP POP POP POP JUMP JUMPDEST PUSH1 0x40 DUP1 MLOAD PUSH1 0x1 PUSH1 0x1 PUSH1 0xA0 SHL SUB DUP5 AND PUSH1 0x24 DUP3 ADD MSTORE PUSH1 0x44 DUP1 DUP3 ADD DUP5 SWAP1 MSTORE DUP3 MLOAD DUP1 DUP4 SUB SWAP1 SWAP2 ADD DUP2 MSTORE PUSH1 0x64 SWAP1 SWAP2 ADD SWAP1 SWAP2 MSTORE PUSH1 0x20 DUP2 ADD DUP1 MLOAD PUSH28 0xFFFFFFFFFFFFFFFFFFFFFFFFFFFFFFFFFFFFFFFFFFFFFFFFFFFFFFFF AND PUSH32 0xA9059CBB00000000000000000000000000000000000000000000000000000000 OR SWAP1 MSTORE PUSH2 0x1FA4 SWAP1 DUP5 SWAP1 PUSH2 0x269F JUMP JUMPDEST POP POP POP JUMP JUMPDEST PUSH1 0x0 SLOAD PUSH1 0x1 PUSH1 0xA0 SHL SWAP1 DIV PUSH1 0xFF AND PUSH2 0x1FF1 JUMPI PUSH1 0x40 MLOAD PUSH3 0x461BCD PUSH1 0xE5 SHL DUP2 MSTORE PUSH1 0x4 ADD DUP1 DUP1 PUSH1 0x20 ADD DUP3 DUP2 SUB DUP3 MSTORE PUSH1 0x23 DUP2 MSTORE PUSH1 0x20 ADD DUP1 PUSH2 0x2B5A PUSH1 0x23 SWAP2 CODECOPY PUSH1 0x40 ADD SWAP2 POP POP PUSH1 0x40 MLOAD DUP1 SWAP2 SUB SWAP1 REVERT JUMPDEST PUSH1 0x2 SLOAD PUSH2 0x2045 JUMPI PUSH1 0x40 DUP1 MLOAD PUSH3 0x461BCD PUSH1 0xE5 SHL DUP2 MSTORE PUSH1 0x20 PUSH1 0x4 DUP3 ADD MSTORE PUSH1 0x1F PUSH1 0x24 DUP3 ADD MSTORE PUSH32 0x4E66745374616B696E673A207374616B696E67206E6F74207374617274656400 PUSH1 0x44 DUP3 ADD MSTORE SWAP1 MLOAD SWAP1 DUP2 SWAP1 SUB PUSH1 0x64 ADD SWAP1 REVERT JUMPDEST PUSH32 0x0 PUSH1 0x1 PUSH1 0x1 PUSH1 0xA0 SHL SUB AND CALLER EQ PUSH2 0x20AC JUMPI PUSH1 0x40 MLOAD PUSH3 0x461BCD PUSH1 0xE5 SHL DUP2 MSTORE PUSH1 0x4 ADD DUP1 DUP1 PUSH1 0x20 ADD DUP3 DUP2 SUB DUP3 MSTORE PUSH1 0x24 DUP2 MSTORE PUSH1 0x20 ADD DUP1 PUSH2 0x2AE8 PUSH1 0x24 SWAP2 CODECOPY PUSH1 0x40 ADD SWAP2 POP POP PUSH1 0x40 MLOAD DUP1 SWAP2 SUB SWAP1 REVERT JUMPDEST PUSH1 0x0 PUSH2 0x20B7 DUP4 PUSH2 0x28A7 JUMP JUMPDEST SWAP1 POP PUSH32 0x0 PUSH1 0x0 PUSH2 0x20E5 TIMESTAMP PUSH2 0x1DCC JUMP JUMPDEST SWAP1 POP PUSH2 0x20FC DUP5 DUP5 PUSH8 0xFFFFFFFFFFFFFFFF AND DUP4 PUSH2 0x1E25 JUMP JUMPDEST PUSH1 0x1 PUSH1 0x1 PUSH1 0xA0 SHL SUB DUP5 AND PUSH1 0x0 SWAP1 DUP2 MSTORE PUSH1 0x6 PUSH1 0x20 MSTORE PUSH1 0x40 SWAP1 KECCAK256 SLOAD PUSH2 0xFFFF AND PUSH2 0x21DF JUMPI PUSH1 0x0 PUSH2 0x2129 DUP3 DUP5 PUSH2 0x24ED JUMP JUMPDEST PUSH1 0x40 DUP1 MLOAD PUSH1 0x60 DUP2 ADD DUP3 MSTORE PUSH2 0xFFFF SWAP3 DUP4 AND DUP2 MSTORE PUSH1 0x3 SLOAD PUSH1 0x0 NOT ADD PUSH8 0xFFFFFFFFFFFFFFFF SWAP1 DUP2 AND PUSH1 0x20 DUP1 DUP5 ADD SWAP2 DUP3 MSTORE PUSH1 0x0 DUP5 DUP7 ADD DUP2 DUP2 MSTORE PUSH1 0x1 PUSH1 0x1 PUSH1 0xA0 SHL SUB DUP14 AND DUP3 MSTORE PUSH1 0x6 SWAP1 SWAP3 MSTORE SWAP5 SWAP1 SWAP5 KECCAK256 SWAP3 MLOAD DUP4 SLOAD SWAP2 MLOAD SWAP5 MLOAD PUSH2 0xFFFF NOT SWAP1 SWAP3 AND SWAP6 AND SWAP5 SWAP1 SWAP5 OR PUSH10 0xFFFFFFFFFFFFFFFF0000 NOT AND PUSH3 0x10000 SWAP4 DUP3 AND SWAP4 SWAP1 SWAP4 MUL SWAP3 SWAP1 SWAP3 OR PUSH32 0xFFFFFFFFFFFFFFFFFFFFFFFFFFFF0000000000000000FFFFFFFFFFFFFFFFFFFF AND PUSH11 0x100000000000000000000 SWAP4 SWAP1 SWAP3 AND SWAP3 SWAP1 SWAP3 MUL OR SWAP1 SSTORE POP JUMPDEST PUSH1 0x0 DUP6 DUP2 MSTORE PUSH1 0x7 PUSH1 0x20 MSTORE PUSH1 0x40 SWAP1 KECCAK256 SLOAD PUSH2 0xFFFF PUSH1 0x1 PUSH1 0xF0 SHL SWAP1 SWAP2 DIV DUP2 AND SWAP1 DUP3 AND DUP2 EQ ISZERO PUSH2 0x223C JUMPI PUSH1 0x40 MLOAD PUSH3 0x461BCD PUSH1 0xE5 SHL DUP2 MSTORE PUSH1 0x4 ADD DUP1 DUP1 PUSH1 0x20 ADD DUP3 DUP2 SUB DUP3 MSTORE PUSH1 0x23 DUP2 MSTORE PUSH1 0x20 ADD DUP1 PUSH2 0x2B7D PUSH1 0x23 SWAP2 CODECOPY PUSH1 0x40 ADD SWAP2 POP POP PUSH1 0x40 MLOAD DUP1 SWAP2 SUB SWAP1 REVERT JUMPDEST PUSH1 0x40 MLOAD DUP1 PUSH1 0x80 ADD PUSH1 0x40 MSTORE DUP1 DUP7 PUSH1 0x1 PUSH1 0x1 PUSH1 0xA0 SHL SUB AND DUP2 MSTORE PUSH1 0x20 ADD DUP6 PUSH8 0xFFFFFFFFFFFFFFFF AND DUP2 MSTORE PUSH1 0x20 ADD DUP4 PUSH2 0xFFFF AND DUP2 MSTORE PUSH1 0x20 ADD PUSH1 0x0 PUSH2 0xFFFF AND DUP2 MSTORE POP PUSH1 0x7 PUSH1 0x0 DUP9 DUP2 MSTORE PUSH1 0x20 ADD SWAP1 DUP2 MSTORE PUSH1 0x20 ADD PUSH1 0x0 KECCAK256 PUSH1 0x0 DUP3 ADD MLOAD DUP2 PUSH1 0x0 ADD PUSH1 0x0 PUSH2 0x100 EXP DUP2 SLOAD DUP2 PUSH1 0x1 PUSH1 0x1 PUSH1 0xA0 SHL SUB MUL NOT AND SWAP1 DUP4 PUSH1 0x1 PUSH1 0x1 PUSH1 0xA0 SHL SUB AND MUL OR SWAP1 SSTORE POP PUSH1 0x20 DUP3 ADD MLOAD DUP2 PUSH1 0x0 ADD PUSH1 0x14 PUSH2 0x100 EXP DUP2 SLOAD DUP2 PUSH8 0xFFFFFFFFFFFFFFFF MUL NOT AND SWAP1 DUP4 PUSH8 0xFFFFFFFFFFFFFFFF AND MUL OR SWAP1 SSTORE POP PUSH1 0x40 DUP3 ADD MLOAD DUP2 PUSH1 0x0 ADD PUSH1 0x1C PUSH2 0x100 EXP DUP2 SLOAD DUP2 PUSH2 0xFFFF MUL NOT AND SWAP1 DUP4 PUSH2 0xFFFF AND MUL OR SWAP1 SSTORE POP PUSH1 0x60 DUP3 ADD MLOAD DUP2 PUSH1 0x0 ADD PUSH1 0x1E PUSH2 0x100 EXP DUP2 SLOAD DUP2 PUSH2 0xFFFF MUL NOT AND SWAP1 DUP4 PUSH2 0xFFFF AND MUL OR SWAP1 SSTORE POP SWAP1 POP POP PUSH32 0x233FB303155FAE76E94AF13009E2C90416950CF561D3CD13F807618243FEDA4A DUP6 DUP4 DUP9 DUP8 PUSH1 0x40 MLOAD DUP1 DUP6 PUSH1 0x1 PUSH1 0x1 PUSH1 0xA0 SHL SUB AND DUP2 MSTORE PUSH1 0x20 ADD DUP5 PUSH2 0xFFFF AND DUP2 MSTORE PUSH1 0x20 ADD DUP4 DUP2 MSTORE PUSH1 0x20 ADD DUP3 PUSH8 0xFFFFFFFFFFFFFFFF AND DUP2 MSTORE PUSH1 0x20 ADD SWAP5 POP POP POP POP POP PUSH1 0x40 MLOAD DUP1 SWAP2 SUB SWAP1 LOG1 POP POP POP POP POP POP JUMP JUMPDEST CALLER SWAP1 JUMP JUMPDEST PUSH1 0x0 DUP3 DUP3 ADD DUP4 DUP2 LT ISZERO PUSH2 0x23FD JUMPI PUSH1 0x40 DUP1 MLOAD PUSH3 0x461BCD PUSH1 0xE5 SHL DUP2 MSTORE PUSH1 0x20 PUSH1 0x4 DUP3 ADD MSTORE PUSH1 0x1B PUSH1 0x24 DUP3 ADD MSTORE PUSH32 0x536166654D6174683A206164646974696F6E206F766572666C6F770000000000 PUSH1 0x44 DUP3 ADD MSTORE SWAP1 MLOAD SWAP1 DUP2 SWAP1 SUB PUSH1 0x64 ADD SWAP1 REVERT JUMPDEST SWAP1 POP JUMPDEST SWAP3 SWAP2 POP POP JUMP JUMPDEST PUSH1 0x0 DUP3 PUSH2 0x2415 JUMPI POP PUSH1 0x0 PUSH2 0x2400 JUMP JUMPDEST DUP3 DUP3 MUL DUP3 DUP5 DUP3 DUP2 PUSH2 0x2422 JUMPI INVALID JUMPDEST DIV EQ PUSH2 0x23FD JUMPI PUSH1 0x40 MLOAD PUSH3 0x461BCD PUSH1 0xE5 SHL DUP2 MSTORE PUSH1 0x4 ADD DUP1 DUP1 PUSH1 0x20 ADD DUP3 DUP2 SUB DUP3 MSTORE PUSH1 0x21 DUP2 MSTORE PUSH1 0x20 ADD DUP1 PUSH2 0x2B0C PUSH1 0x21 SWAP2 CODECOPY PUSH1 0x40 ADD SWAP2 POP POP PUSH1 0x40 MLOAD DUP1 SWAP2 SUB SWAP1 REVERT JUMPDEST PUSH1 0x40 DUP1 MLOAD PUSH1 0x1 PUSH1 0x1 PUSH1 0xA0 SHL SUB DUP1 DUP7 AND PUSH1 0x24 DUP4 ADD MSTORE DUP5 AND PUSH1 0x44 DUP3 ADD MSTORE PUSH1 0x64 DUP1 DUP3 ADD DUP5 SWAP1 MSTORE DUP3 MLOAD DUP1 DUP4 SUB SWAP1 SWAP2 ADD DUP2 MSTORE PUSH1 0x84 SWAP1 SWAP2 ADD SWAP1 SWAP2 MSTORE PUSH1 0x20 DUP2 ADD DUP1 MLOAD PUSH28 0xFFFFFFFFFFFFFFFFFFFFFFFFFFFFFFFFFFFFFFFFFFFFFFFFFFFFFFFF AND PUSH32 0x23B872DD00000000000000000000000000000000000000000000000000000000 OR SWAP1 MSTORE PUSH2 0x24E7 SWAP1 DUP6 SWAP1 PUSH2 0x269F JUMP JUMPDEST POP POP POP POP JUMP JUMPDEST PUSH1 0x0 PUSH2 0xFFFF DUP4 AND PUSH2 0x2500 JUMPI POP PUSH1 0x0 PUSH2 0x2400 JUMP JUMPDEST DUP2 PUSH2 0xFFFF AND PUSH1 0x1 DUP5 SUB PUSH2 0xFFFF AND DUP2 PUSH2 0x2514 JUMPI INVALID JUMPDEST DIV PUSH1 0x1 ADD SWAP1 POP SWAP3 SWAP2 POP POP JUMP JUMPDEST PUSH1 0x0 PUSH3 0x10000 DUP3 LT PUSH2 0x2563 JUMPI PUSH1 0x40 MLOAD PUSH3 0x461BCD PUSH1 0xE5 SHL DUP2 MSTORE PUSH1 0x4 ADD DUP1 DUP1 PUSH1 0x20 ADD DUP3 DUP2 SUB DUP3 MSTORE PUSH1 0x26 DUP2 MSTORE PUSH1 0x20 ADD DUP1 PUSH2 0x2A45 PUSH1 0x26 SWAP2 CODECOPY PUSH1 0x40 ADD SWAP2 POP POP PUSH1 0x40 MLOAD DUP1 SWAP2 SUB SWAP1 REVERT JUMPDEST POP SWAP1 JUMP JUMPDEST DUP3 SLOAD PUSH1 0x0 SWAP1 DUP2 DUP2 ISZERO PUSH2 0x2620 JUMPI PUSH1 0x1 DUP3 SUB SWAP3 POP PUSH1 0x0 DUP7 DUP5 DUP2 SLOAD DUP2 LT PUSH2 0x2587 JUMPI INVALID JUMPDEST PUSH1 0x0 SWAP2 DUP3 MSTORE PUSH1 0x20 SWAP1 SWAP2 KECCAK256 ADD DUP1 SLOAD SWAP1 SWAP2 POP PUSH2 0x25B7 SWAP1 PUSH2 0x25B2 SWAP1 PUSH1 0x1 PUSH1 0x1 PUSH1 0x80 SHL SUB AND PUSH1 0xF DUP10 SWAP1 SIGNEXTEND PUSH2 0x295E JUMP JUMPDEST PUSH2 0x29C3 JUMP JUMPDEST DUP2 SLOAD SWAP1 SWAP3 POP PUSH1 0x1 PUSH1 0x1 PUSH1 0x80 SHL SUB PUSH1 0x1 PUSH1 0x80 SHL SWAP1 SWAP2 DIV AND PUSH2 0xFFFF DUP7 AND EQ ISZERO PUSH2 0x2614 JUMPI DUP1 SLOAD PUSH32 0xFFFFFFFFFFFFFFFFFFFFFFFFFFFFFFFF00000000000000000000000000000000 AND PUSH1 0x1 PUSH1 0x1 PUSH1 0x80 SHL SUB SWAP3 SWAP1 SWAP3 AND SWAP2 SWAP1 SWAP2 OR SWAP1 SSTORE POP PUSH2 0x1E1E JUMP JUMPDEST PUSH1 0x1 DUP5 ADD SWAP4 POP POP PUSH2 0x2623 JUMP JUMPDEST POP DUP4 JUMPDEST PUSH2 0x262B PUSH2 0x2A2D JUMP JUMPDEST PUSH1 0x1 PUSH1 0x1 PUSH1 0x80 SHL SUB SWAP2 DUP3 AND DUP2 MSTORE PUSH2 0xFFFF DUP6 AND PUSH1 0x20 DUP1 DUP4 ADD SWAP2 DUP3 MSTORE DUP9 SLOAD PUSH1 0x1 DUP2 ADD DUP11 SSTORE PUSH1 0x0 DUP11 DUP2 MSTORE SWAP2 SWAP1 SWAP2 KECCAK256 SWAP3 MLOAD SWAP3 ADD DUP1 SLOAD SWAP2 MLOAD DUP5 AND PUSH1 0x1 PUSH1 0x80 SHL MUL SWAP3 DUP5 AND PUSH32 0xFFFFFFFFFFFFFFFFFFFFFFFFFFFFFFFF00000000000000000000000000000000 SWAP1 SWAP3 AND SWAP2 SWAP1 SWAP2 OR SWAP1 SWAP3 AND OR SWAP1 SSTORE POP SWAP4 SWAP3 POP POP POP JUMP JUMPDEST DUP2 PUSH2 0x26B2 PUSH1 0x1 PUSH1 0x1 PUSH1 0xA0 SHL SUB DUP3 AND PUSH2 0x2A07 JUMP JUMPDEST PUSH2 0x2703 JUMPI PUSH1 0x40 DUP1 MLOAD PUSH3 0x461BCD PUSH1 0xE5 SHL DUP2 MSTORE PUSH1 0x20 PUSH1 0x4 DUP3 ADD MSTORE PUSH1 0x1A PUSH1 0x24 DUP3 ADD MSTORE PUSH32 0x4552433230577261707065723A206E6F6E2D636F6E7472616374000000000000 PUSH1 0x44 DUP3 ADD MSTORE SWAP1 MLOAD SWAP1 DUP2 SWAP1 SUB PUSH1 0x64 ADD SWAP1 REVERT JUMPDEST PUSH1 0x0 DUP1 DUP3 PUSH1 0x1 PUSH1 0x1 PUSH1 0xA0 SHL SUB AND DUP5 PUSH1 0x40 MLOAD DUP1 DUP3 DUP1 MLOAD SWAP1 PUSH1 0x20 ADD SWAP1 DUP1 DUP4 DUP4 JUMPDEST PUSH1 0x20 DUP4 LT PUSH2 0x275E JUMPI DUP1 MLOAD DUP3 MSTORE PUSH32 0xFFFFFFFFFFFFFFFFFFFFFFFFFFFFFFFFFFFFFFFFFFFFFFFFFFFFFFFFFFFFFFE0 SWAP1 SWAP3 ADD SWAP2 PUSH1 0x20 SWAP2 DUP3 ADD SWAP2 ADD PUSH2 0x2721 JUMP JUMPDEST PUSH1 0x1 DUP4 PUSH1 0x20 SUB PUSH2 0x100 EXP SUB DUP1 NOT DUP3 MLOAD AND DUP2 DUP5 MLOAD AND DUP1 DUP3 OR DUP6 MSTORE POP POP POP POP POP POP SWAP1 POP ADD SWAP2 POP POP PUSH1 0x0 PUSH1 0x40 MLOAD DUP1 DUP4 SUB DUP2 PUSH1 0x0 DUP7 GAS CALL SWAP2 POP POP RETURNDATASIZE DUP1 PUSH1 0x0 DUP2 EQ PUSH2 0x27C0 JUMPI PUSH1 0x40 MLOAD SWAP2 POP PUSH1 0x1F NOT PUSH1 0x3F RETURNDATASIZE ADD AND DUP3 ADD PUSH1 0x40 MSTORE RETURNDATASIZE DUP3 MSTORE RETURNDATASIZE PUSH1 0x0 PUSH1 0x20 DUP5 ADD RETURNDATACOPY PUSH2 0x27C5 JUMP JUMPDEST PUSH1 0x60 SWAP2 POP JUMPDEST POP SWAP2 POP SWAP2 POP DUP2 ISZERO PUSH2 0x2844 JUMPI DUP1 MLOAD ISZERO PUSH2 0x283F JUMPI DUP1 DUP1 PUSH1 0x20 ADD SWAP1 MLOAD PUSH1 0x20 DUP2 LT ISZERO PUSH2 0x27EC JUMPI PUSH1 0x0 DUP1 REVERT JUMPDEST POP MLOAD PUSH2 0x283F JUMPI PUSH1 0x40 DUP1 MLOAD PUSH3 0x461BCD PUSH1 0xE5 SHL DUP2 MSTORE PUSH1 0x20 PUSH1 0x4 DUP3 ADD MSTORE PUSH1 0x1E PUSH1 0x24 DUP3 ADD MSTORE PUSH32 0x4552433230577261707065723A206F7065726174696F6E206661696C65640000 PUSH1 0x44 DUP3 ADD MSTORE SWAP1 MLOAD SWAP1 DUP2 SWAP1 SUB PUSH1 0x64 ADD SWAP1 REVERT JUMPDEST PUSH2 0x28A0 JUMP JUMPDEST DUP1 MLOAD PUSH2 0x2897 JUMPI PUSH1 0x40 DUP1 MLOAD PUSH3 0x461BCD PUSH1 0xE5 SHL DUP2 MSTORE PUSH1 0x20 PUSH1 0x4 DUP3 ADD MSTORE PUSH1 0x1E PUSH1 0x24 DUP3 ADD MSTORE PUSH32 0x4552433230577261707065723A206F7065726174696F6E206661696C65640000 PUSH1 0x44 DUP3 ADD MSTORE SWAP1 MLOAD SWAP1 DUP2 SWAP1 SUB PUSH1 0x64 ADD SWAP1 REVERT JUMPDEST DUP1 MLOAD DUP1 DUP3 PUSH1 0x20 ADD REVERT JUMPDEST POP POP POP POP POP JUMP JUMPDEST PUSH1 0x0 PUSH1 0xFF DUP3 DUP2 SHR SWAP1 PUSH1 0xF0 DUP5 SWAP1 SHR DUP2 AND SWAP1 PUSH1 0xE0 DUP6 SWAP1 SHR DUP2 AND SWAP1 PUSH1 0xB0 DUP7 SWAP1 SHR AND PUSH1 0x1 DUP5 EQ DUP1 ISZERO PUSH2 0x28D5 JUMPI POP DUP3 PUSH1 0x1 EQ JUMPDEST DUP1 ISZERO PUSH2 0x28EB JUMPI POP DUP2 PUSH1 0x2 EQ DUP1 PUSH2 0x28EB JUMPI POP DUP2 PUSH1 0x3 EQ JUMPDEST PUSH2 0x293C JUMPI PUSH1 0x40 DUP1 MLOAD PUSH3 0x461BCD PUSH1 0xE5 SHL DUP2 MSTORE PUSH1 0x20 PUSH1 0x4 DUP3 ADD MSTORE PUSH1 0x17 PUSH1 0x24 DUP3 ADD MSTORE PUSH32 0x4E66745374616B696E673A2077726F6E6720746F6B656E000000000000000000 PUSH1 0x44 DUP3 ADD MSTORE SWAP1 MLOAD SWAP1 DUP2 SWAP1 SUB PUSH1 0x64 ADD SWAP1 REVERT JUMPDEST PUSH1 0x0 SWAP1 DUP2 MSTORE PUSH1 0x4 PUSH1 0x20 MSTORE PUSH1 0x40 SWAP1 KECCAK256 SLOAD PUSH8 0xFFFFFFFFFFFFFFFF AND SWAP6 SWAP5 POP POP POP POP POP JUMP JUMPDEST PUSH1 0x0 DUP3 DUP3 ADD DUP2 DUP4 SLT DUP1 ISZERO SWAP1 PUSH2 0x2973 JUMPI POP DUP4 DUP2 SLT ISZERO JUMPDEST DUP1 PUSH2 0x2988 JUMPI POP PUSH1 0x0 DUP4 SLT DUP1 ISZERO PUSH2 0x2988 JUMPI POP DUP4 DUP2 SLT JUMPDEST PUSH2 0x23FD JUMPI PUSH1 0x40 MLOAD PUSH3 0x461BCD PUSH1 0xE5 SHL DUP2 MSTORE PUSH1 0x4 ADD DUP1 DUP1 PUSH1 0x20 ADD DUP3 DUP2 SUB DUP3 MSTORE PUSH1 0x21 DUP2 MSTORE PUSH1 0x20 ADD DUP1 PUSH2 0x2AC7 PUSH1 0x21 SWAP2 CODECOPY PUSH1 0x40 ADD SWAP2 POP POP PUSH1 0x40 MLOAD DUP1 SWAP2 SUB SWAP1 REVERT JUMPDEST PUSH1 0x0 PUSH1 0x1 PUSH1 0x80 SHL DUP3 LT PUSH2 0x2563 JUMPI PUSH1 0x40 MLOAD PUSH3 0x461BCD PUSH1 0xE5 SHL DUP2 MSTORE PUSH1 0x4 ADD DUP1 DUP1 PUSH1 0x20 ADD DUP3 DUP2 SUB DUP3 MSTORE PUSH1 0x27 DUP2 MSTORE PUSH1 0x20 ADD DUP1 PUSH2 0x2AA0 PUSH1 0x27 SWAP2 CODECOPY PUSH1 0x40 ADD SWAP2 POP POP PUSH1 0x40 MLOAD DUP1 SWAP2 SUB SWAP1 REVERT JUMPDEST EXTCODESIZE ISZERO ISZERO SWAP1 JUMP JUMPDEST PUSH1 0x40 DUP1 MLOAD PUSH1 0x60 DUP2 ADD DUP3 MSTORE PUSH1 0x0 DUP1 DUP3 MSTORE PUSH1 0x20 DUP3 ADD DUP2 SWAP1 MSTORE SWAP2 DUP2 ADD SWAP2 SWAP1 SWAP2 MSTORE SWAP1 JUMP JUMPDEST PUSH1 0x40 DUP1 MLOAD DUP1 DUP3 ADD SWAP1 SWAP2 MSTORE PUSH1 0x0 DUP1 DUP3 MSTORE PUSH1 0x20 DUP3 ADD MSTORE SWAP1 JUMP INVALID MSTORE8 PUSH2 0x6665 NUMBER PUSH2 0x7374 GASPRICE KECCAK256 PUSH23 0x616C756520646F65736E27742066697420696E20313620 PUSH3 0x697473 0x4E PUSH7 0x745374616B696E PUSH8 0x3A20746F6B656E20 PUSH15 0x6F74207374616B6564206F7220696E PUSH4 0x6F727265 PUSH4 0x7420746F PUSH12 0x656E206F776E657253616665 NUMBER PUSH2 0x7374 GASPRICE KECCAK256 PUSH23 0x616C756520646F65736E27742066697420696E20313238 KECCAK256 PUSH3 0x697473 MSTORE8 PUSH10 0x676E6564536166654D61 PUSH21 0x683A206164646974696F6E206F766572666C6F774E PUSH7 0x745374616B696E PUSH8 0x3A20636F6E747261 PUSH4 0x74206E6F PUSH21 0x2077686974656C6973746564536166654D6174683A KECCAK256 PUSH14 0x756C7469706C69636174696F6E20 PUSH16 0x766572666C6F774E66745374616B696E PUSH8 0x3A20616C72656164 PUSH26 0x20636F6D6D697474656420726577617264207363686564756C65 0x4E PUSH7 0x745374616B696E PUSH8 0x3A20636F6E747261 PUSH4 0x74206973 KECCAK256 PUSH15 0x6F7420656E61626C65644E66745374 PUSH2 0x6B69 PUSH15 0x673A20756E7374616B656420746F6B PUSH6 0x6E20636F6F6C PUSH5 0x6F776EA264 PUSH10 0x70667358221220B1C0A0 0xE4 0xEF RETURNDATASIZE 0x5F SWAP7 0xB1 PUSH20 0x6B9B878652F2EEA164408081893D8CF27A77DB29 0x26 LOG2 PUSH5 0x736F6C6343 STOP SMOD MOD STOP CALLER 0x4E PUSH7 0x745374616B696E PUSH8 0x3A20696E76616C69 PUSH5 0x2070657269 PUSH16 0x64206C656E6774680000000000000000 "
        },
        "methodIdentifiers": {
          "addRewardsForPeriods(uint16,uint16,uint256)": "f81649b4",
          "claimRewards(uint16)": "a522bbaa",
          "cycleLengthInSeconds()": "0d2cb02a",
          "disable()": "2f2770db",
          "enabled()": "238dafe0",
          "estimateRewards(uint16)": "5a32502d",
          "getCurrentCycle()": "be26ed7f",
          "getCurrentPeriod()": "086146d2",
          "globalHistory(uint256)": "4fc5b849",
          "lastGlobalSnapshotIndex()": "7b62e040",
          "lastStakerSnapshotIndex(address)": "cc60fbf1",
          "nextClaims(address)": "69628952",
          "onERC1155BatchReceived(address,address,uint256[],uint256[],bytes)": "bc197c81",
          "onERC1155Received(address,address,uint256,uint256,bytes)": "f23a6e61",
          "owner()": "8da5cb5b",
          "periodLengthInCycles()": "0320d053",
          "rewardsSchedule(uint256)": "2217f165",
          "rewardsTokenContract()": "9de2e1cb",
          "stakerHistories(address,uint256)": "0bc2b269",
          "start()": "be9a6555",
          "startTimestamp()": "e6fd48bc",
          "supportsInterface(bytes4)": "01ffc9a7",
          "tokenInfos(uint256)": "7c13774b",
          "totalRewardsPool()": "2ef3ff6f",
          "transferOwnership(address)": "f2fde38b",
          "unstakeNft(uint256)": "6b426000",
          "weightsByRarity(uint256)": "0503c9bb",
          "whitelistedNftContract()": "9e7cfd49",
          "withdrawRewardsPool(uint256)": "73a32346"
        }
      }
    }
  }
}