{
  "contracts/staking/DeltaTimeStaking.sol": {
    "DeltaTimeStaking": {
      "abi": [
        {
          "inputs": [
            {
              "internalType": "uint32",
              "name": "cycleLengthInSeconds_",
              "type": "uint32"
            },
            {
              "internalType": "uint16",
              "name": "periodLengthInCycles_",
              "type": "uint16"
            },
            {
              "internalType": "contract IERC1155721Transferrable",
              "name": "inventoryContract",
              "type": "address"
            },
            {
              "internalType": "contract IERC20",
              "name": "revvContract",
              "type": "address"
            },
            {
              "internalType": "uint256[]",
              "name": "rarities",
              "type": "uint256[]"
            },
            {
              "internalType": "uint64[]",
              "name": "weights",
              "type": "uint64[]"
            },
            {
              "internalType": "uint256",
              "name": "revvEscrowingWeightCoefficient_",
              "type": "uint256"
            }
          ],
          "stateMutability": "nonpayable",
          "type": "constructor"
        },
        {
          "anonymous": false,
          "inputs": [],
          "name": "Disabled",
          "type": "event"
        },
        {
          "anonymous": false,
          "inputs": [
            {
              "indexed": false,
              "internalType": "address",
              "name": "staker",
              "type": "address"
            },
            {
              "indexed": false,
              "internalType": "uint256",
              "name": "startCycle",
              "type": "uint256"
            },
            {
              "indexed": false,
              "internalType": "uint256",
              "name": "stakerStake",
              "type": "uint256"
            },
            {
              "indexed": false,
              "internalType": "uint256",
              "name": "globalStake",
              "type": "uint256"
            }
          ],
          "name": "HistoriesUpdated",
          "type": "event"
        },
        {
          "anonymous": false,
          "inputs": [
            {
              "indexed": false,
              "internalType": "address",
              "name": "staker",
              "type": "address"
            },
            {
              "indexed": false,
              "internalType": "uint256",
              "name": "cycle",
              "type": "uint256"
            },
            {
              "indexed": false,
              "internalType": "uint256",
              "name": "tokenId",
              "type": "uint256"
            },
            {
              "indexed": false,
              "internalType": "uint256",
              "name": "weight",
              "type": "uint256"
            }
          ],
          "name": "NftStaked",
          "type": "event"
        },
        {
          "anonymous": false,
          "inputs": [
            {
              "indexed": false,
              "internalType": "address",
              "name": "staker",
              "type": "address"
            },
            {
              "indexed": false,
              "internalType": "uint256",
              "name": "cycle",
              "type": "uint256"
            },
            {
              "indexed": false,
              "internalType": "uint256",
              "name": "tokenId",
              "type": "uint256"
            },
            {
              "indexed": false,
              "internalType": "uint256",
              "name": "weight",
              "type": "uint256"
            }
          ],
          "name": "NftUnstaked",
          "type": "event"
        },
        {
          "anonymous": false,
          "inputs": [
            {
              "indexed": false,
              "internalType": "address",
              "name": "staker",
              "type": "address"
            },
            {
              "indexed": false,
              "internalType": "uint256",
              "name": "cycle",
              "type": "uint256"
            },
            {
              "indexed": false,
              "internalType": "uint256[]",
              "name": "tokenIds",
              "type": "uint256[]"
            },
            {
              "indexed": false,
              "internalType": "uint256[]",
              "name": "weights",
              "type": "uint256[]"
            }
          ],
          "name": "NftsBatchStaked",
          "type": "event"
        },
        {
          "anonymous": false,
          "inputs": [
            {
              "indexed": false,
              "internalType": "address",
              "name": "staker",
              "type": "address"
            },
            {
              "indexed": false,
              "internalType": "uint256",
              "name": "cycle",
              "type": "uint256"
            },
            {
              "indexed": false,
              "internalType": "uint256[]",
              "name": "tokenIds",
              "type": "uint256[]"
            },
            {
              "indexed": false,
              "internalType": "uint256[]",
              "name": "weights",
              "type": "uint256[]"
            }
          ],
          "name": "NftsBatchUnstaked",
          "type": "event"
        },
        {
          "anonymous": false,
          "inputs": [
            {
              "indexed": true,
              "internalType": "address",
              "name": "previousOwner",
              "type": "address"
            },
            {
              "indexed": true,
              "internalType": "address",
              "name": "newOwner",
              "type": "address"
            }
          ],
          "name": "OwnershipTransferred",
          "type": "event"
        },
        {
          "anonymous": false,
          "inputs": [
            {
              "indexed": false,
              "internalType": "uint256",
              "name": "startPeriod",
              "type": "uint256"
            },
            {
              "indexed": false,
              "internalType": "uint256",
              "name": "endPeriod",
              "type": "uint256"
            },
            {
              "indexed": false,
              "internalType": "uint256",
              "name": "rewardsPerCycle",
              "type": "uint256"
            }
          ],
          "name": "RewardsAdded",
          "type": "event"
        },
        {
          "anonymous": false,
          "inputs": [
            {
              "indexed": false,
              "internalType": "address",
              "name": "staker",
              "type": "address"
            },
            {
              "indexed": false,
              "internalType": "uint256",
              "name": "cycle",
              "type": "uint256"
            },
            {
              "indexed": false,
              "internalType": "uint256",
              "name": "startPeriod",
              "type": "uint256"
            },
            {
              "indexed": false,
              "internalType": "uint256",
              "name": "periods",
              "type": "uint256"
            },
            {
              "indexed": false,
              "internalType": "uint256",
              "name": "amount",
              "type": "uint256"
            }
          ],
          "name": "RewardsClaimed",
          "type": "event"
        },
        {
          "anonymous": false,
          "inputs": [],
          "name": "Started",
          "type": "event"
        },
        {
          "inputs": [
            {
              "internalType": "uint16",
              "name": "startPeriod",
              "type": "uint16"
            },
            {
              "internalType": "uint16",
              "name": "endPeriod",
              "type": "uint16"
            },
            {
              "internalType": "uint256",
              "name": "rewardsPerCycle",
              "type": "uint256"
            }
          ],
          "name": "addRewardsForPeriods",
          "outputs": [],
          "stateMutability": "nonpayable",
          "type": "function"
        },
        {
          "inputs": [
            {
              "internalType": "uint256[]",
              "name": "tokenIds",
              "type": "uint256[]"
            }
          ],
          "name": "batchUnstakeNfts",
          "outputs": [],
          "stateMutability": "nonpayable",
          "type": "function"
        },
        {
          "inputs": [
            {
              "internalType": "uint16",
              "name": "maxPeriods",
              "type": "uint16"
            }
          ],
          "name": "claimRewards",
          "outputs": [],
          "stateMutability": "nonpayable",
          "type": "function"
        },
        {
          "inputs": [],
          "name": "cycleLengthInSeconds",
          "outputs": [
            {
              "internalType": "uint32",
              "name": "",
              "type": "uint32"
            }
          ],
          "stateMutability": "view",
          "type": "function"
        },
        {
          "inputs": [],
          "name": "disable",
          "outputs": [],
          "stateMutability": "nonpayable",
          "type": "function"
        },
        {
          "inputs": [],
          "name": "enabled",
          "outputs": [
            {
              "internalType": "bool",
              "name": "",
              "type": "bool"
            }
          ],
          "stateMutability": "view",
          "type": "function"
        },
        {
          "inputs": [
            {
              "internalType": "uint16",
              "name": "maxPeriods",
              "type": "uint16"
            }
          ],
          "name": "estimateRewards",
          "outputs": [
            {
              "internalType": "uint16",
              "name": "startPeriod",
              "type": "uint16"
            },
            {
              "internalType": "uint16",
              "name": "periods",
              "type": "uint16"
            },
            {
              "internalType": "uint256",
              "name": "amount",
              "type": "uint256"
            }
          ],
          "stateMutability": "view",
          "type": "function"
        },
        {
          "inputs": [],
          "name": "getCurrentCycle",
          "outputs": [
            {
              "internalType": "uint16",
              "name": "",
              "type": "uint16"
            }
          ],
          "stateMutability": "view",
          "type": "function"
        },
        {
          "inputs": [],
          "name": "getCurrentPeriod",
          "outputs": [
            {
              "internalType": "uint16",
              "name": "",
              "type": "uint16"
            }
          ],
          "stateMutability": "view",
          "type": "function"
        },
        {
          "inputs": [
            {
              "internalType": "uint256",
              "name": "",
              "type": "uint256"
            }
          ],
          "name": "globalHistory",
          "outputs": [
            {
              "internalType": "uint128",
              "name": "stake",
              "type": "uint128"
            },
            {
              "internalType": "uint128",
              "name": "startCycle",
              "type": "uint128"
            }
          ],
          "stateMutability": "view",
          "type": "function"
        },
        {
          "inputs": [],
          "name": "lastGlobalSnapshotIndex",
          "outputs": [
            {
              "internalType": "uint256",
              "name": "",
              "type": "uint256"
            }
          ],
          "stateMutability": "view",
          "type": "function"
        },
        {
          "inputs": [
            {
              "internalType": "address",
              "name": "staker",
              "type": "address"
            }
          ],
          "name": "lastStakerSnapshotIndex",
          "outputs": [
            {
              "internalType": "uint256",
              "name": "",
              "type": "uint256"
            }
          ],
          "stateMutability": "view",
          "type": "function"
        },
        {
          "inputs": [
            {
              "internalType": "address",
              "name": "",
              "type": "address"
            }
          ],
          "name": "nextClaims",
          "outputs": [
            {
              "internalType": "uint16",
              "name": "period",
              "type": "uint16"
            },
            {
              "internalType": "uint64",
              "name": "globalSnapshotIndex",
              "type": "uint64"
            },
            {
              "internalType": "uint64",
              "name": "stakerSnapshotIndex",
              "type": "uint64"
            }
          ],
          "stateMutability": "view",
          "type": "function"
        },
        {
          "inputs": [
            {
              "internalType": "address",
              "name": "",
              "type": "address"
            },
            {
              "internalType": "address",
              "name": "from",
              "type": "address"
            },
            {
              "internalType": "uint256[]",
              "name": "ids",
              "type": "uint256[]"
            },
            {
              "internalType": "uint256[]",
              "name": "",
              "type": "uint256[]"
            },
            {
              "internalType": "bytes",
              "name": "",
              "type": "bytes"
            }
          ],
          "name": "onERC1155BatchReceived",
          "outputs": [
            {
              "internalType": "bytes4",
              "name": "",
              "type": "bytes4"
            }
          ],
          "stateMutability": "nonpayable",
          "type": "function"
        },
        {
          "inputs": [
            {
              "internalType": "address",
              "name": "",
              "type": "address"
            },
            {
              "internalType": "address",
              "name": "from",
              "type": "address"
            },
            {
              "internalType": "uint256",
              "name": "id",
              "type": "uint256"
            },
            {
              "internalType": "uint256",
              "name": "",
              "type": "uint256"
            },
            {
              "internalType": "bytes",
              "name": "",
              "type": "bytes"
            }
          ],
          "name": "onERC1155Received",
          "outputs": [
            {
              "internalType": "bytes4",
              "name": "",
              "type": "bytes4"
            }
          ],
          "stateMutability": "nonpayable",
          "type": "function"
        },
        {
          "inputs": [],
          "name": "owner",
          "outputs": [
            {
              "internalType": "address",
              "name": "",
              "type": "address"
            }
          ],
          "stateMutability": "view",
          "type": "function"
        },
        {
          "inputs": [],
          "name": "periodLengthInCycles",
          "outputs": [
            {
              "internalType": "uint16",
              "name": "",
              "type": "uint16"
            }
          ],
          "stateMutability": "view",
          "type": "function"
        },
        {
          "inputs": [],
          "name": "renounceOwnership",
          "outputs": [],
          "stateMutability": "nonpayable",
          "type": "function"
        },
        {
          "inputs": [],
          "name": "revvEscrowingWeightCoefficient",
          "outputs": [
            {
              "internalType": "uint256",
              "name": "",
              "type": "uint256"
            }
          ],
          "stateMutability": "view",
          "type": "function"
        },
        {
          "inputs": [
            {
              "internalType": "uint256",
              "name": "",
              "type": "uint256"
            }
          ],
          "name": "rewardsSchedule",
          "outputs": [
            {
              "internalType": "uint256",
              "name": "",
              "type": "uint256"
            }
          ],
          "stateMutability": "view",
          "type": "function"
        },
        {
          "inputs": [],
          "name": "rewardsTokenContract",
          "outputs": [
            {
              "internalType": "contract IERC20",
              "name": "",
              "type": "address"
            }
          ],
          "stateMutability": "view",
          "type": "function"
        },
        {
          "inputs": [
            {
              "internalType": "address",
              "name": "",
              "type": "address"
            },
            {
              "internalType": "uint256",
              "name": "",
              "type": "uint256"
            }
          ],
          "name": "stakerHistories",
          "outputs": [
            {
              "internalType": "uint128",
              "name": "stake",
              "type": "uint128"
            },
            {
              "internalType": "uint128",
              "name": "startCycle",
              "type": "uint128"
            }
          ],
          "stateMutability": "view",
          "type": "function"
        },
        {
          "inputs": [],
          "name": "start",
          "outputs": [],
          "stateMutability": "nonpayable",
          "type": "function"
        },
        {
          "inputs": [],
          "name": "startTimestamp",
          "outputs": [
            {
              "internalType": "uint256",
              "name": "",
              "type": "uint256"
            }
          ],
          "stateMutability": "view",
          "type": "function"
        },
        {
          "inputs": [
            {
              "internalType": "bytes4",
              "name": "interfaceId",
              "type": "bytes4"
            }
          ],
          "name": "supportsInterface",
          "outputs": [
            {
              "internalType": "bool",
              "name": "",
              "type": "bool"
            }
          ],
          "stateMutability": "view",
          "type": "function"
        },
        {
          "inputs": [
            {
              "internalType": "uint256",
              "name": "",
              "type": "uint256"
            }
          ],
          "name": "tokenInfos",
          "outputs": [
            {
              "internalType": "address",
              "name": "owner",
              "type": "address"
            },
            {
              "internalType": "uint64",
              "name": "weight",
              "type": "uint64"
            },
            {
              "internalType": "uint16",
              "name": "depositCycle",
              "type": "uint16"
            },
            {
              "internalType": "uint16",
              "name": "withdrawCycle",
              "type": "uint16"
            }
          ],
          "stateMutability": "view",
          "type": "function"
        },
        {
          "inputs": [],
          "name": "totalRewardsPool",
          "outputs": [
            {
              "internalType": "uint256",
              "name": "",
              "type": "uint256"
            }
          ],
          "stateMutability": "view",
          "type": "function"
        },
        {
          "inputs": [
            {
              "internalType": "address",
              "name": "newOwner",
              "type": "address"
            }
          ],
          "name": "transferOwnership",
          "outputs": [],
          "stateMutability": "nonpayable",
          "type": "function"
        },
        {
          "inputs": [
            {
              "internalType": "uint256",
              "name": "tokenId",
              "type": "uint256"
            }
          ],
          "name": "unstakeNft",
          "outputs": [],
          "stateMutability": "nonpayable",
          "type": "function"
        },
        {
          "inputs": [
            {
              "internalType": "uint256",
              "name": "",
              "type": "uint256"
            }
          ],
          "name": "weightsByRarity",
          "outputs": [
            {
              "internalType": "uint64",
              "name": "",
              "type": "uint64"
            }
          ],
          "stateMutability": "view",
          "type": "function"
        },
        {
          "inputs": [],
          "name": "whitelistedNftContract",
          "outputs": [
            {
              "internalType": "contract IERC1155721Transferrable",
              "name": "",
              "type": "address"
            }
          ],
          "stateMutability": "view",
          "type": "function"
        },
        {
          "inputs": [
            {
              "internalType": "address",
              "name": "to",
              "type": "address"
            },
            {
              "internalType": "uint16",
              "name": "cycle",
              "type": "uint16"
            },
            {
              "internalType": "int256",
              "name": "globalSnapshotIndex",
              "type": "int256"
            }
          ],
          "name": "withdrawLostCycleRewards",
          "outputs": [],
          "stateMutability": "nonpayable",
          "type": "function"
        },
        {
          "inputs": [
            {
              "internalType": "uint256",
              "name": "amount",
              "type": "uint256"
            }
          ],
          "name": "withdrawRewardsPool",
          "outputs": [],
          "stateMutability": "nonpayable",
          "type": "function"
        },
        {
          "inputs": [
            {
              "internalType": "uint256",
              "name": "",
              "type": "uint256"
            }
          ],
          "name": "withdrawnLostCycles",
          "outputs": [
            {
              "internalType": "bool",
              "name": "",
              "type": "bool"
            }
          ],
          "stateMutability": "view",
          "type": "function"
        }
      ],
      "evm": {
        "bytecode": {
          "linkReferences": {},
          "object": "6101206040526000805460ff60a01b1916600160a01b1790553480156200002557600080fd5b5060405162004bb738038062004bb7833981810160405260e08110156200004b57600080fd5b81516020830151604080850151606086015160808701805193519597949692959194919392820192846401000000008211156200008757600080fd5b9083019060208201858111156200009d57600080fd5b8251866020820283011164010000000082111715620000bb57600080fd5b82525081516020918201928201910280838360005b83811015620000ea578181015183820152602001620000d0565b50505050905001604052602001805160405193929190846401000000008211156200011457600080fd5b9083019060208201858111156200012a57600080fd5b82518660208202830111640100000000821117156200014857600080fd5b82525081516020918201928201910280838360005b83811015620001775781810151838201526020016200015d565b5050505091909101604052506020015191508790508686866000620001a46001600160e01b036200049216565b600080546001600160a01b0319166001600160a01b0383169081178255604051929350917f8be0079c531659141344cd1fd0a4f28419497f9722a3daafe3b4186f6b6457e0908290a350603c8463ffffffff1610156200024b576040805162461bcd60e51b815260206004820181905260248201527f4e66745374616b696e673a20696e76616c6964206379636c65206c656e677468604482015290519081900360640190fd5b60028361ffff161015620002915760405162461bcd60e51b815260040180806020018281038252602181526020018062004b966021913960400191505060405180910390fd5b60e093841b6001600160e01b03191660c05260f09290921b6001600160f01b031916909252606091821b6001600160601b031990811660a052911b166080528062000323576040805162461bcd60e51b815260206004820152601f60248201527f4e66745374616b696e673a20696e76616c696420636f656666696369656e7400604482015290519081900360640190fd5b81518351146200037a576040805162461bcd60e51b815260206004820152601b60248201527f4e66745374616b696e673a2077726f6e6720617267756d656e74730000000000604482015290519081900360640190fd5b60016001603f1b0360005b84518110156200047f5760008482815181106200039e57fe5b602002602001015190506000816001600160401b0316118015620003d45750826001600160401b0316816001600160401b031611155b62000426576040805162461bcd60e51b815260206004820181905260248201527f4e66745374616b696e673a20696e76616c6964207765696768742076616c7565604482015290519081900360640190fd5b80600960008885815181106200043857fe5b6020026020010151815260200190815260200160002060006101000a8154816001600160401b0302191690836001600160401b031602179055505080600101905062000385565b5050610100525062000496945050505050565b3390565b60805160601c60a05160601c60c05160e01c60e05160f01c61010051614650620005466000398061266c528061333e528061427c52508061093f52806109845280610f185280611f8952806127695280612b7152806139c75280613c335250806109ef5280612a265250806114795280611ba95280611d1b528061224b52806124b952508061102452806116bd5280611cf752806120bf528061287a5280613312528061424f52506146506000f3fe608060405234801561001057600080fd5b50600436106102265760003560e01c80637b62e0401161012a578063be26ed7f116100bd578063e6fd48bc1161008c578063f2fde38b11610071578063f2fde38b14610843578063f651597114610869578063f81649b41461087157610226565b8063e6fd48bc146107a6578063f23a6e61146107ae57610226565b8063be26ed7f14610753578063be9a65551461075b578063cc60fbf114610763578063d8ebeb8a1461078957610226565b80639de2e1cb116100f95780639de2e1cb146105c05780639e7cfd49146105c8578063a522bbaa146105d0578063bc197c81146105f157610226565b80637b62e040146104ca5780637c13774b146104d257806385807fd91461052c5780638da5cb5b1461059c57610226565b80632ef3ff6f116101bd5780635a32502d1161018c5780636b426000116101715780636b42600014610488578063715018a6146104a557806373a32346146104ad57610226565b80635a32502d146103ee578063696289521461043457610226565b80632ef3ff6f146103895780632f2770db146103915780633af1f20c1461039b5780634fc5b849146103d157610226565b80630bc2b269116101f95780630bc2b269146102df5780630d2cb02a146103315780632217f16514610352578063238dafe01461038157610226565b806301ffc9a71461022b5780630320d0531461027e5780630503c9bb1461029d578063086146d2146102d7575b600080fd5b61026a6004803603602081101561024157600080fd5b50357fffffffff00000000000000000000000000000000000000000000000000000000166108a2565b604080519115158252519081900360200190f35b61028661093d565b6040805161ffff9092168252519081900360200190f35b6102ba600480360360208110156102b357600080fd5b5035610961565b6040805167ffffffffffffffff9092168252519081900360200190f35b61028661097d565b61030b600480360360408110156102f557600080fd5b506001600160a01b0381351690602001356109ad565b604080516001600160801b03938416815291909216602082015281519081900390910190f35b6103396109ed565b6040805163ffffffff9092168252519081900360200190f35b61036f6004803603602081101561036857600080fd5b5035610a11565b60408051918252519081900360200190f35b61026a610a23565b61036f610a33565b610399610a39565b005b610399600480360360608110156103b157600080fd5b506001600160a01b038135169061ffff6020820135169060400135610af4565b61030b600480360360208110156103e757600080fd5b50356110a2565b61040f6004803603602081101561040457600080fd5b503561ffff166110d4565b6040805161ffff94851681529290931660208301528183015290519081900360600190f35b61045a6004803603602081101561044a57600080fd5b50356001600160a01b03166111a9565b6040805161ffff909416845267ffffffffffffffff9283166020850152911682820152519081900360600190f35b6103996004803603602081101561049e57600080fd5b50356111e2565b610399611531565b610399600480360360208110156104c357600080fd5b50356115f2565b61036f6117ac565b6104ef600480360360208110156104e857600080fd5b503561180d565b604080516001600160a01b03909516855267ffffffffffffffff909316602085015261ffff91821684840152166060830152519081900360800190f35b6103996004803603602081101561054257600080fd5b81019060208101813564010000000081111561055d57600080fd5b82018360208201111561056f57600080fd5b8035906020019184602083028401116401000000008311171561059157600080fd5b509092509050611851565b6105a4611ce6565b604080516001600160a01b039092168252519081900360200190f35b6105a4611cf5565b6105a4611d19565b610399600480360360208110156105e657600080fd5b503561ffff16611d3d565b61071e600480360360a081101561060757600080fd5b6001600160a01b03823581169260208101359091169181019060608101604082013564010000000081111561063b57600080fd5b82018360208201111561064d57600080fd5b8035906020019184602083028401116401000000008311171561066f57600080fd5b91939092909160208101903564010000000081111561068d57600080fd5b82018360208201111561069f57600080fd5b803590602001918460208302840111640100000000831117156106c157600080fd5b9193909290916020810190356401000000008111156106df57600080fd5b8201836020820111156106f157600080fd5b8035906020019184600183028401116401000000008311171561071357600080fd5b509092509050612236565b604080517fffffffff000000000000000000000000000000000000000000000000000000009092168252519081900360200190f35b61028661231b565b610399612326565b61036f6004803603602081101561077957600080fd5b50356001600160a01b0316612414565b61026a6004803603602081101561079f57600080fd5b5035612489565b61036f61249e565b61071e600480360360a08110156107c457600080fd5b6001600160a01b03823581169260208101359091169160408201359160608101359181019060a08101608082013564010000000081111561080457600080fd5b82018360208201111561081657600080fd5b8035906020019184600183028401116401000000008311171561083857600080fd5b5090925090506124a4565b6103996004803603602081101561085957600080fd5b50356001600160a01b0316612553565b61036f61266a565b6103996004803603606081101561088757600080fd5b5061ffff81358116916020810135909116906040013561268e565b60007fffffffff0000000000000000000000000000000000000000000000000000000082167f01ffc9a700000000000000000000000000000000000000000000000000000000148061093557507fffffffff0000000000000000000000000000000000000000000000000000000082167f4e2312e000000000000000000000000000000000000000000000000000000000145b90505b919050565b7f000000000000000000000000000000000000000000000000000000000000000081565b60096020526000908152604090205467ffffffffffffffff1681565b60006109a87f00000000000000000000000000000000000000000000000000000000000000006129c6565b905090565b600460205281600052604060002081815481106109c657fe5b6000918252602090912001546001600160801b038082169350600160801b90910416905082565b7f000000000000000000000000000000000000000000000000000000000000000081565b60076020526000908152604090205481565b600054600160a01b900460ff1681565b60015481565b610a416129da565b6000546001600160a01b03908116911614610aa3576040805162461bcd60e51b815260206004820181905260248201527f4f776e61626c653a2063616c6c6572206973206e6f7420746865206f776e6572604482015290519081900360640190fd5b600080547fffffffffffffffffffffff00ffffffffffffffffffffffffffffffffffffffff1681556040517f75884cdadc4a89e8b545db800057f06ec7f5338a08183c7ba515f2bfdd9fe1e19190a1565b610afc6129da565b6000546001600160a01b03908116911614610b5e576040805162461bcd60e51b815260206004820181905260248201527f4f776e61626c653a2063616c6c6572206973206e6f7420746865206f776e6572604482015290519081900360640190fd5b6001600160a01b038316610bb9576040805162461bcd60e51b815260206004820152601860248201527f4e66745374616b696e673a207a65726f20616464726573730000000000000000604482015290519081900360640190fd5b610bc2426129de565b61ffff168261ffff1610610c1d576040805162461bcd60e51b815260206004820152601a60248201527f4e66745374616b696e673a206e6f6e2d70617374206379636c65000000000000604482015290519081900360640190fd5b61ffff821660009081526008602052604090205460ff1615610c86576040805162461bcd60e51b815260206004820152601d60248201527f4e66745374616b696e673a20616c72656164792077697468647261776e000000604482015290519081900360640190fd5b806000191415610d21576003541580610ccb57506003600081548110610ca857fe5b600091825260209091200154600160801b90046001600160801b031661ffff8316105b610d1c576040805162461bcd60e51b815260206004820152601e60248201527f4e66745374616b696e673a206379636c652068617320736e617073686f740000604482015290519081900360640190fd5b610f10565b60008112610ec35780610d326143b7565b60038281548110610d3f57fe5b6000918252602091829020604080518082019091529101546001600160801b038082168352600160801b90910416918101829052915061ffff85161015610dcd576040805162461bcd60e51b815260206004820152601c60248201527f4e66745374616b696e673a206379636c65203c20736e617073686f7400000000604482015290519081900360640190fd5b600354600183011480610e0e575060038260010181548110610deb57fe5b600091825260209091200154600160801b90046001600160801b031661ffff8516105b610e5f576040805162461bcd60e51b815260206004820152601c60248201527f4e66745374616b696e673a206379636c65203e20736e617073686f7400000000604482015290519081900360640190fd5b80516001600160801b031615610ebc576040805162461bcd60e51b815260206004820152601a60248201527f4e66745374616b696e673a206e6f6e2d6c6f7374206379636c65000000000000604482015290519081900360640190fd5b5050610f10565b6040805162461bcd60e51b815260206004820152601d60248201527f4e66745374616b696e673a2077726f6e6720696e6465782076616c7565000000604482015290519081900360640190fd5b6000610f3c837f0000000000000000000000000000000000000000000000000000000000000000612a60565b61ffff811660009081526007602052604090205490915080610fa5576040805162461bcd60e51b815260206004820152601c60248201527f4e66745374616b696e673a207265776172646c657373206379636c6500000000604482015290519081900360640190fd5b61ffff8416600090815260086020908152604080832080547fffffffffffffffffffffffffffffffffffffffffffffffffffffffffffffff0016600117905580517fa9059cbb0000000000000000000000000000000000000000000000000000000081526001600160a01b0389811660048301526024820186905291517f0000000000000000000000000000000000000000000000000000000000000000929092169363a9059cbb9360448084019491939192918390030190829087803b15801561106f57600080fd5b505af1158015611083573d6000803e3d6000fd5b505050506040513d602081101561109957600080fd5b50505050505050565b600381815481106110af57fe5b6000918252602090912001546001600160801b038082169250600160801b9091041682565b6000805481908190600160a01b900460ff166111215760405162461bcd60e51b81526004018080602001828103825260238152602001806145496023913960400191505060405180910390fd5b600254611175576040805162461bcd60e51b815260206004820152601f60248201527f4e66745374616b696e673a207374616b696e67206e6f74207374617274656400604482015290519081900360640190fd5b61117d6143ce565b61118e6111886129da565b86612ad9565b50805160208201516040909201519097919650945092505050565b60056020526000908152604090205461ffff81169067ffffffffffffffff6201000082048116916a010000000000000000000090041683565b6111ea6143ee565b50600081815260066020908152604091829020825160808101845290546001600160a01b038116825267ffffffffffffffff600160a01b8204169282019290925261ffff600160e01b8304811693820193909352600160f01b90910490911660608201526112566129da565b6001600160a01b031681600001516001600160a01b0316146112bf576040805162461bcd60e51b815260206004820181905260248201527f4e66745374616b696e673a206e6f74207374616b656420666f72206f776e6572604482015290519081900360640190fd5b60006112ca426129de565b602083015160005491925090600160a01b900460ff16156114545760028360400151830361ffff161015611345576040805162461bcd60e51b815260206004820152601e60248201527f4e66745374616b696e673a20746f6b656e207374696c6c2066726f7a656e0000604482015290519081900360640190fd5b6113646113506129da565b8267ffffffffffffffff1660000384613074565b600080845261ffff808416606086019081528683526006602090815260409384902087518154928901519589015193518516600160f01b027dffffffffffffffffffffffffffffffffffffffffffffffffffffffffffff94909516600160e01b027fffff0000ffffffffffffffffffffffffffffffffffffffffffffffffffffffff67ffffffffffffffff909716600160a01b027fffffffff0000000000000000ffffffffffffffffffffffffffffffffffffffff6001600160a01b039390931673ffffffffffffffffffffffffffffffffffffffff199095169490941791909116929092179490941617161790555b6114ac306114606129da565b6040805160208101909152600081526001600160a01b037f000000000000000000000000000000000000000000000000000000000000000016929190889060019063ffffffff61317316565b7fa809c38c1b1d8f31236741c657ba4d5b0c25cefab4c1cbc9a0ca5f96a774a15d6114d56129da565b604080516001600160a01b03909216825261ffff8516602083015281810187905267ffffffffffffffff84166060830152519081900360800190a161152b61151b6129da565b8267ffffffffffffffff16613308565b50505050565b6115396129da565b6000546001600160a01b0390811691161461159b576040805162461bcd60e51b815260206004820181905260248201527f4f776e61626c653a2063616c6c6572206973206e6f7420746865206f776e6572604482015290519081900360640190fd5b600080546040516001600160a01b03909116907f8be0079c531659141344cd1fd0a4f28419497f9722a3daafe3b4186f6b6457e0908390a36000805473ffffffffffffffffffffffffffffffffffffffff19169055565b6115fa6129da565b6000546001600160a01b0390811691161461165c576040805162461bcd60e51b815260206004820181905260248201527f4f776e61626c653a2063616c6c6572206973206e6f7420746865206f776e6572604482015290519081900360640190fd5b600054600160a01b900460ff16156116bb576040805162461bcd60e51b815260206004820152601f60248201527f4e66745374616b696e673a20636f6e747261637420697320656e61626c656400604482015290519081900360640190fd5b7f00000000000000000000000000000000000000000000000000000000000000006001600160a01b031663a9059cbb6116f26129da565b836040518363ffffffff1660e01b815260040180836001600160a01b03166001600160a01b0316815260200182815260200192505050602060405180830381600087803b15801561174257600080fd5b505af1158015611756573d6000803e3d6000fd5b505050506040513d602081101561176c57600080fd5b50516117a95760405162461bcd60e51b81526004018080602001828103825260348152602001806145e76034913960400191505060405180910390fd5b50565b60035460009080611804576040805162461bcd60e51b815260206004820181905260248201527f4e66745374616b696e673a20656d70747920676c6f62616c20686973746f7279604482015290519081900360640190fd5b60001901905090565b6006602052600090815260409020546001600160a01b0381169067ffffffffffffffff600160a01b8204169061ffff600160e01b8204811691600160f01b90041684565b80806118a4576040805162461bcd60e51b815260206004820152601560248201527f4e66745374616b696e673a206e6f20746f6b656e730000000000000000000000604482015290519081900360640190fd5b60006118af426129de565b9050600060608367ffffffffffffffff811180156118cc57600080fd5b506040519080825280602002602001820160405280156118f6578160200160208202803683370190505b50905060608467ffffffffffffffff8111801561191257600080fd5b5060405190808252806020026020018201604052801561193c578160200160208202803683370190505b50905060005b85811015611b2e57600088888381811061195857fe5b9050602002013590506119696143ee565b50600081815260066020908152604091829020825160808101845290546001600160a01b038116825267ffffffffffffffff600160a01b8204169282019290925261ffff600160e01b8304811693820193909352600160f01b90910490911660608201526119d56129da565b6001600160a01b031681600001516001600160a01b031614611a3e576040805162461bcd60e51b815260206004820181905260248201527f4e66745374616b696e673a206e6f74207374616b656420666f72206f776e6572604482015290519081900360640190fd5b600054600160a01b900460ff1615611b0b5760028160400151880361ffff161015611ab0576040805162461bcd60e51b815260206004820152601e60248201527f4e66745374616b696e673a20746f6b656e207374696c6c2066726f7a656e0000604482015290519081900360640190fd5b6000828152600660209081526040909120805473ffffffffffffffffffffffffffffffffffffffff19169055810151845167ffffffffffffffff82169788019790869086908110611afd57fe5b602002602001018181525050505b6001858481518110611b1957fe5b60209081029190910101525050600101611942565b50600054600160a01b900460ff1615611b5657611b56611b4c6129da565b8460000386613074565b611bde30611b626129da565b898980806020026020016040519081016040528093929190818152602001838360200280828437600092018290525060408051602081019091529081526001600160a01b037f0000000000000000000000000000000000000000000000000000000000000000169695949350899250905063ffffffff61343816565b7f87112173f73b8363460e41b79bbd57c05defff3b13c51d3cc25bcfe57bbe2aae611c076129da565b8589898560405180866001600160a01b03166001600160a01b031681526020018561ffff168152602001806020018060200183810383528686828181526020019250602002808284376000838201819052601f9091017fffffffffffffffffffffffffffffffffffffffffffffffffffffffffffffffe016909201858103845286518152865160209182019382890193509102908190849084905b83811015611cba578181015183820152602001611ca2565b5050505090500197505050505050505060405180910390a1611099611cdd6129da565b84600f0b613308565b6000546001600160a01b031690565b7f000000000000000000000000000000000000000000000000000000000000000081565b7f000000000000000000000000000000000000000000000000000000000000000081565b600054600160a01b900460ff16611d855760405162461bcd60e51b81526004018080602001828103825260238152602001806145496023913960400191505060405180910390fd5b600254611dd9576040805162461bcd60e51b815260206004820152601f60248201527f4e66745374616b696e673a207374616b696e67206e6f74207374617274656400604482015290519081900360640190fd5b611de16143ce565b60056000611ded6129da565b6001600160a01b0316815260208082019290925260409081016000208151606081018352905461ffff811680835267ffffffffffffffff6201000083048116958401959095526a0100000000000000000000909104909316918101919091529150611e5857506117a9565b611e606143ce565b611e686143ce565b611e79611e736129da565b85612ad9565b91509150600060046000611e8b6129da565b6001600160a01b03166001600160a01b0316815260200190815260200160002090505b816040015167ffffffffffffffff16846040015167ffffffffffffffff161015611f1a578084604001805180919060010167ffffffffffffffff1667ffffffffffffffff1681525067ffffffffffffffff1681548110611f0a57fe5b6000918252602082200155611eae565b602083015161ffff16611f3057505050506117a9565b611f386143b7565b815482906000198101908110611f4a57fe5b6000918252602091829020604080518082019091529101546001600160801b038082168352600160801b909104168183018190529186015186519193507f00000000000000000000000000000000000000000000000000000000000000009101600019010261ffff16908110801590611fcb575081516001600160801b0316155b156120205760056000611fdc6129da565b6001600160a01b03168152602081019190915260400160002080547fffffffffffffffffffffffffffff0000000000000000000000000000000000001690556120b3565b836005600061202d6129da565b6001600160a01b0316815260208082019290925260409081016000208351815493850151949092015161ffff1990931661ffff9092169190911769ffffffffffffffff000019166201000067ffffffffffffffff948516021771ffffffffffffffff0000000000000000000019166a010000000000000000000093909216929092021790555b6040850151156121af577f00000000000000000000000000000000000000000000000000000000000000006001600160a01b031663a9059cbb6120f46129da565b87604001516040518363ffffffff1660e01b815260040180836001600160a01b03166001600160a01b0316815260200182815260200192505050602060405180830381600087803b15801561214857600080fd5b505af115801561215c573d6000803e3d6000fd5b505050506040513d602081101561217257600080fd5b50516121af5760405162461bcd60e51b81526004018080602001828103825260268152602001806145c16026913960400191505060405180910390fd5b7f5619b8583bbbb0760d27ac9ff844cec866b333bf7ad0262c2d809ff42f22e5fc6121d86129da565b6121e1426129de565b87516020808a01516040808c015181516001600160a01b03909716875261ffff95861693870193909352928416858401529290921660608401526080830191909152519081900360a00190a150505050505050565b60006122406129da565b6001600160a01b03167f00000000000000000000000000000000000000000000000000000000000000006001600160a01b0316146122af5760405162461bcd60e51b81526004018080602001828103825260248152602001806144aa6024913960400191505060405180910390fd5b6122ed8787808060200260200160405190810160405280939291908181526020018383602002808284376000920191909152508c9250613679915050565b507fbc197c810000000000000000000000000000000000000000000000000000000098975050505050505050565b60006109a8426129de565b61232e6129da565b6000546001600160a01b03908116911614612390576040805162461bcd60e51b815260206004820181905260248201527f4f776e61626c653a2063616c6c6572206973206e6f7420746865206f776e6572604482015290519081900360640190fd5b600254156123e5576040805162461bcd60e51b815260206004820152601f60248201527f4e66745374616b696e673a207374616b696e6720686173207374617274656400604482015290519081900360640190fd5b426002556040517fd8cea0ecd56872ff072e771658b5682ffe4de16d752947f79597d600ea56f7a990600090a1565b6001600160a01b0381166000908152600460205260408120548061247f576040805162461bcd60e51b815260206004820181905260248201527f4e66745374616b696e673a20656d707479207374616b657220686973746f7279604482015290519081900360640190fd5b6000190192915050565b60086020526000908152604090205460ff1681565b60025481565b60006124ae6129da565b6001600160a01b03167f00000000000000000000000000000000000000000000000000000000000000006001600160a01b03161461251d5760405162461bcd60e51b81526004018080602001828103825260248152602001806144aa6024913960400191505060405180910390fd5b6125278587613b88565b507ff23a6e61000000000000000000000000000000000000000000000000000000009695505050505050565b61255b6129da565b6000546001600160a01b039081169116146125bd576040805162461bcd60e51b815260206004820181905260248201527f4f776e61626c653a2063616c6c6572206973206e6f7420746865206f776e6572604482015290519081900360640190fd5b6001600160a01b0381166126025760405162461bcd60e51b815260040180806020018281038252602681526020018061443c6026913960400191505060405180910390fd5b600080546040516001600160a01b03808516939216917f8be0079c531659141344cd1fd0a4f28419497f9722a3daafe3b4186f6b6457e091a36000805473ffffffffffffffffffffffffffffffffffffffff19166001600160a01b0392909216919091179055565b7f000000000000000000000000000000000000000000000000000000000000000081565b6126966129da565b6000546001600160a01b039081169116146126f8576040805162461bcd60e51b815260206004820181905260248201527f4f776e61626c653a2063616c6c6572206973206e6f7420746865206f776e6572604482015290519081900360640190fd5b61ffff83161580159061271357508161ffff168361ffff1611155b612764576040805162461bcd60e51b815260206004820152601e60248201527f4e66745374616b696e673a2077726f6e6720706572696f642072616e67650000604482015290519081900360640190fd5b6002547f000000000000000000000000000000000000000000000000000000000000000090156127dd57612797816129c6565b61ffff168461ffff1610156127dd5760405162461bcd60e51b815260040180806020018281038252602d81526020018061451c602d913960400191505060405180910390fd5b61ffff84165b8361ffff1681116128245760008181526007602052604090205461280d908463ffffffff613f1f16565b6000828152600760205260409020556001016127e3565b50600061285785850360010161ffff1661284b8461ffff1686613f8090919063ffffffff16565b9063ffffffff613f8016565b60015490915061286d908263ffffffff613f1f16565b6001556001600160a01b037f0000000000000000000000000000000000000000000000000000000000000000166323b872dd6128a76129da565b604080517fffffffff0000000000000000000000000000000000000000000000000000000060e085901b1681526001600160a01b039092166004830152306024830152604482018590525160648083019260209291908290030181600087803b15801561291357600080fd5b505af1158015612927573d6000803e3d6000fd5b505050506040513d602081101561293d57600080fd5b505161297a5760405162461bcd60e51b815260040180806020018281038252603281526020018061456c6032913960400191505060405180910390fd5b6040805161ffff80881682528616602082015280820185905290517fbff8d5ced955e6f69a19ecc71d313996f6ddfed652cdb458859af89e2f0768359181900360600190a15050505050565b60006109356129d4426129de565b83612a60565b3390565b6000600254821015612a215760405162461bcd60e51b815260040180806020018281038252602d8152602001806144ef602d913960400191505060405180910390fd5b6109357f000000000000000000000000000000000000000000000000000000000000000063ffffffff16600254840381612a5757fe5b04600101613fd9565b600061ffff8316612ab8576040805162461bcd60e51b815260206004820181905260248201527f4e66745374616b696e673a206379636c652063616e6e6f74206265207a65726f604482015290519081900360640190fd5b8161ffff166001840361ffff1681612acc57fe5b0460010190505b92915050565b612ae16143ce565b612ae96143ce565b61ffff8316612af75761306d565b600354612b035761306d565b506001600160a01b0383166000908152600560209081526040918290208251606081018452905461ffff811680835267ffffffffffffffff6201000083048116948401949094526a010000000000000000000090910490921692810192909252808352612b6f5761306d565b7f00000000000000000000000000000000000000000000000000000000000000006000612b9b826129c6565b90508061ffff16836000015161ffff161415612bb9575061306d9050565b6001600160a01b0386166000908152600460209081526040808320805482518185028101850190935280835260609492939192909184015b82821015612c3a57600084815260209081902060408051808201909152908401546001600160801b038082168352600160801b9091041681830152825260019092019101612bf1565b505050509050612c486143b7565b6003856020015167ffffffffffffffff1681548110612c6357fe5b6000918252602091829020604080518082019091529101546001600160801b038082168352600160801b90910416918101919091529050612ca26143b7565b82866040015167ffffffffffffffff1681518110612cbc57fe5b60200260200101519050612cce6143b7565b612cd66143b7565b600354602089015167ffffffffffffffff1660001990910114612d49576003886020015160010167ffffffffffffffff1681548110612d1157fe5b6000918252602091829020604080518082019091529101546001600160801b038082168352600160801b909104169181019190915291505b6001855103886040015167ffffffffffffffff1614612d8a5784886040015160010167ffffffffffffffff1681518110612d7f57fe5b602002602001015190505b875161ffff908703811660208b01819052908b161015612daf5761ffff8a1660208a01525b602089015188510195505b8561ffff16886000015161ffff161461306557875161ffff808216600090815260076020526040812054928a0260018181019493918c90030116905b8361ffff168114613050578187602001516001600160801b03161115612e275786602001516001600160801b031691505b8188602001516001600160801b03161115612e4d5787602001516001600160801b031691505b50602085015161ffff8416906001600160801b031615801590612e7c57508086602001516001600160801b0316105b15612e91575060208501516001600160801b03165b87516001600160801b031615801590612eb3575086516001600160801b031615155b8015612ebe57508215155b15612f1e578651600090612ee7906001600160801b031661284b8585038763ffffffff613f8016565b89519091506001600160801b03168181612efd57fe5b049050612f17818f60400151613f1f90919063ffffffff16565b60408f0152505b8086602001516001600160801b03161415612fcc5760208c01805160010167ffffffffffffffff169081905260035496985088966000190114612fb55760038c6020015160010167ffffffffffffffff1681548110612f7957fe5b6000918252602091829020604080518082019091529101546001600160801b038082168352600160801b90910416918101919091529550612fcc565b604080518082019091526000808252602082015295505b8085602001516001600160801b0316141561304b5760408c01805160010167ffffffffffffffff169081905289519597508795600019011461303457888c6040015160010167ffffffffffffffff168151811061302557fe5b6020026020010151945061304b565b604080518082019091526000808252602082015294505b612df6565b5050895160010161ffff168a5250612dba9050565b505050505050505b9250929050565b6001600160a01b0383166000908152600460205260408120613097908484614020565b905060006130a760038585614020565b90507f6b53edb1a2d26a789b4466210277239d9ab872345e93a9f6028058e71e64c186858460046000896001600160a01b03166001600160a01b0316815260200190815260200160002085815481106130fc57fe5b600091825260209091200154600380546001600160801b03909216918690811061312257fe5b60009182526020918290200154604080516001600160a01b03909616865261ffff909416918501919091526001600160801b0391821684840152166060830152519081900360800190a15050505050565b856001600160a01b031663f242432a86868686866040518663ffffffff1660e01b815260040180866001600160a01b03166001600160a01b03168152602001856001600160a01b03166001600160a01b0316815260200184815260200183815260200180602001828103825283818151815260200191508051906020019080838360005b8381101561320f5781810151838201526020016131f7565b50505050905090810190601f16801561323c5780820380516001836020036101000a031916815260200191505b509650505050505050600060405180830381600087803b15801561325f57600080fd5b505af1925050508015613270575060015b61330057604080517f23b872dd0000000000000000000000000000000000000000000000000000000081526001600160a01b0387811660048301528681166024830152604482018690529151918816916323b872dd9160648082019260009290919082900301818387803b1580156132e757600080fd5b505af11580156132fb573d6000803e3d6000fd5b505050505b505050505050565b6001600160a01b037f00000000000000000000000000000000000000000000000000000000000000001663a9059cbb83613368847f000000000000000000000000000000000000000000000000000000000000000063ffffffff613f8016565b6040518363ffffffff1660e01b815260040180836001600160a01b03166001600160a01b0316815260200182815260200192505050602060405180830381600087803b1580156133b757600080fd5b505af11580156133cb573d6000803e3d6000fd5b505050506040513d60208110156133e157600080fd5b5051613434576040805162461bcd60e51b815260206004820181905260248201527f4e46545374616b696e673a2052455656207472616e73666572206661696c6564604482015290519081900360640190fd5b5050565b856001600160a01b0316632eb2c2d686868686866040518663ffffffff1660e01b815260040180866001600160a01b03166001600160a01b03168152602001856001600160a01b03166001600160a01b03168152602001806020018060200180602001848103845287818151815260200191508051906020019060200280838360005b838110156134d35781810151838201526020016134bb565b50505050905001848103835286818151815260200191508051906020019060200280838360005b838110156135125781810151838201526020016134fa565b50505050905001848103825285818151815260200191508051906020019080838360005b8381101561354e578181015183820152602001613536565b50505050905090810190601f16801561357b5780820380516001836020036101000a031916815260200191505b5098505050505050505050600060405180830381600087803b1580156135a057600080fd5b505af19250505080156135b1575060015b61330057825160005b8181101561367257876001600160a01b03166323b872dd88888885815181106135df57fe5b60200260200101516040518463ffffffff1660e01b815260040180846001600160a01b03166001600160a01b03168152602001836001600160a01b03166001600160a01b031681526020018281526020019350505050600060405180830381600087803b15801561364f57600080fd5b505af1158015613663573d6000803e3d6000fd5b505050508060010190506135ba565b5050613300565b600054600160a01b900460ff166136c15760405162461bcd60e51b81526004018080602001828103825260238152602001806145496023913960400191505060405180910390fd5b600254613715576040805162461bcd60e51b815260206004820152601f60248201527f4e66745374616b696e673a207374616b696e67206e6f74207374617274656400604482015290519081900360640190fd5b815180613769576040805162461bcd60e51b815260206004820152601560248201527f4e66745374616b696e673a206e6f20746f6b656e730000000000000000000000604482015290519081900360640190fd5b6000613774426129de565b9050600060608367ffffffffffffffff8111801561379157600080fd5b506040519080825280602002602001820160405280156137bb578160200160208202803683370190505b50905060005b848110156139925760008782815181106137d757fe5b6020908102919091018101516000818152600690925260409091205490915061ffff868116600160f01b9092041614156138425760405162461bcd60e51b815260040180806020018281038252602381526020018061459e6023913960400191505060405180910390fd5b600061384d8261415e565b90508067ffffffffffffffff16850194508067ffffffffffffffff1684848151811061387557fe5b602090810291909101810191909152604080516080810182526001600160a01b03808c16825267ffffffffffffffff94851682850190815261ffff808c16848601908152600060608601818152998152600690975294909520925183549151945197518616600160f01b027dffffffffffffffffffffffffffffffffffffffffffffffffffffffffffff98909616600160e01b027fffff0000ffffffffffffffffffffffffffffffffffffffffffffffffffffffff95909716600160a01b027fffffffff0000000000000000ffffffffffffffffffffffffffffffffffffffff9190931673ffffffffffffffffffffffffffffffffffffffff199092169190911716179190911692909217929092169190911790556001016137c1565b5061399e858385613074565b6001600160a01b03851660009081526005602052604090205461ffff16613a945760006139eb847f0000000000000000000000000000000000000000000000000000000000000000612a60565b6040805160608101825261ffff92831681526003546000190167ffffffffffffffff908116602080840191825260008486018181526001600160a01b038e168252600590925294909420925183549151945161ffff1990921695169490941769ffffffffffffffff0000191662010000938216939093029290921771ffffffffffffffff0000000000000000000019166a01000000000000000000009390921692909202179055505b7fcd9d4765f01d0036376071a9d04b55408777e729fd6d798c0c75bd12146e8e2d8584888460405180856001600160a01b03166001600160a01b031681526020018461ffff1681526020018060200180602001838103835285818151815260200191508051906020019060200280838360005b83811015613b1f578181015183820152602001613b07565b50505050905001838103825284818151815260200191508051906020019060200280838360005b83811015613b5e578181015183820152602001613b46565b50505050905001965050505050505060405180910390a161330085836001600160801b0316614245565b600054600160a01b900460ff16613bd05760405162461bcd60e51b81526004018080602001828103825260238152602001806145496023913960400191505060405180910390fd5b600254613c24576040805162461bcd60e51b815260206004820152601f60248201527f4e66745374616b696e673a207374616b696e67206e6f74207374617274656400604482015290519081900360640190fd5b6000613c2f8361415e565b90507f00000000000000000000000000000000000000000000000000000000000000006000613c5d426129de565b9050613c74848467ffffffffffffffff1683613074565b6001600160a01b03841660009081526005602052604090205461ffff16613d4a576000613ca18284612a60565b6040805160608101825261ffff92831681526003546000190167ffffffffffffffff908116602080840191825260008486018181526001600160a01b038d168252600590925294909420925183549151945161ffff1990921695169490941769ffffffffffffffff0000191662010000938216939093029290921771ffffffffffffffff0000000000000000000019166a01000000000000000000009390921692909202179055505b60008581526006602052604090205461ffff600160f01b9091048116908216811415613da75760405162461bcd60e51b815260040180806020018281038252602381526020018061459e6023913960400191505060405180910390fd5b6040518060800160405280866001600160a01b031681526020018567ffffffffffffffff1681526020018361ffff168152602001600061ffff168152506006600088815260200190815260200160002060008201518160000160006101000a8154816001600160a01b0302191690836001600160a01b0316021790555060208201518160000160146101000a81548167ffffffffffffffff021916908367ffffffffffffffff160217905550604082015181600001601c6101000a81548161ffff021916908361ffff160217905550606082015181600001601e6101000a81548161ffff021916908361ffff1602179055509050507f233fb303155fae76e94af13009e2c90416950cf561d3cd13f807618243feda4a8583888760405180856001600160a01b03166001600160a01b031681526020018461ffff1681526020018381526020018267ffffffffffffffff16815260200194505050505060405180910390a1613300858567ffffffffffffffff16614245565b600082820183811015613f79576040805162461bcd60e51b815260206004820152601b60248201527f536166654d6174683a206164646974696f6e206f766572666c6f770000000000604482015290519081900360640190fd5b9392505050565b600082613f8f57506000612ad3565b82820282848281613f9c57fe5b0414613f795760405162461bcd60e51b81526004018080602001828103825260218152602001806144ce6021913960400191505060405180910390fd5b600062010000821061401c5760405162461bcd60e51b81526004018080602001828103825260268152602001806144166026913960400191505060405180910390fd5b5090565b82546000908181156140df57600182039250600086848154811061404057fe5b6000918252602090912001805490915061407690614071906001600160801b0316600f89900b63ffffffff61430e16565b614373565b81549092506001600160801b03600160801b9091041661ffff861614156140d35780547fffffffffffffffffffffffffffffffff00000000000000000000000000000000166001600160801b039290921691909117905550613f79565b600184019350506140e2565b50835b6140ea6143b7565b6001600160801b03918216815261ffff851660208083019182528854600181018a5560008a81529190912092519201805491518416600160801b029284167fffffffffffffffffffffffffffffffff0000000000000000000000000000000090921691909117909216179055509392505050565b600060ff82811c9060f084901c81169060e085901c81169060b086901c16600184148015614196575082600114806141965750826002145b80156141a25750816002145b6141f3576040805162461bcd60e51b815260206004820152601760248201527f4e66745374616b696e673a2077726f6e6720746f6b656e000000000000000000604482015290519081900360640190fd5b82600114156142235760009081526009602052604090205467ffffffffffffffff16600202935061093892505050565b60009081526009602052604090205467ffffffffffffffff1695945050505050565b6001600160a01b037f0000000000000000000000000000000000000000000000000000000000000000166323b872dd83306142a6857f000000000000000000000000000000000000000000000000000000000000000063ffffffff613f8016565b6040518463ffffffff1660e01b815260040180846001600160a01b03166001600160a01b03168152602001836001600160a01b03166001600160a01b031681526020018281526020019350505050602060405180830381600087803b1580156133b757600080fd5b60008282018183128015906143235750838112155b80614338575060008312801561433857508381125b613f795760405162461bcd60e51b81526004018080602001828103825260218152602001806144896021913960400191505060405180910390fd5b6000600160801b821061401c5760405162461bcd60e51b81526004018080602001828103825260278152602001806144626027913960400191505060405180910390fd5b604080518082019091526000808252602082015290565b604080516060810182526000808252602082018190529181019190915290565b6040805160808101825260008082526020820181905291810182905260608101919091529056fe53616665436173743a2076616c756520646f65736e27742066697420696e20313620626974734f776e61626c653a206e6577206f776e657220697320746865207a65726f206164647265737353616665436173743a2076616c756520646f65736e27742066697420696e2031323820626974735369676e6564536166654d6174683a206164646974696f6e206f766572666c6f774e66745374616b696e673a20636f6e7472616374206e6f742077686974656c6973746564536166654d6174683a206d756c7469706c69636174696f6e206f766572666c6f774e66745374616b696e673a2074696d657374616d7020707265636565647320636f6e74726163742073746172744e66745374616b696e673a20616c726561647920636f6d6d697474656420726577617264207363686564756c654e66745374616b696e673a20636f6e7472616374206973206e6f7420656e61626c65644e66745374616b696e673a206661696c656420746f206164642066756e647320746f207468652072657761726420706f6f6c4e66745374616b696e673a20756e7374616b656420746f6b656e20636f6f6c646f776e4e66745374616b696e673a206661696c656420746f207472616e7366657220726577617264734e66745374616b696e673a206661696c656420746f2077697468647261772066726f6d20746865207265776172647320706f6f6ca26469706673582212205d7a159b0e7662be46044eaea626e314e6b7d8e36aaf3c982868a8f9f372a1a664736f6c634300060800334e66745374616b696e673a20696e76616c696420706572696f64206c656e677468",
          "opcodes": "PUSH2 0x120 PUSH1 0x40 MSTORE PUSH1 0x0 DUP1 SLOAD PUSH1 0xFF PUSH1 0xA0 SHL NOT AND PUSH1 0x1 PUSH1 0xA0 SHL OR SWAP1 SSTORE CALLVALUE DUP1 ISZERO PUSH3 0x25 JUMPI PUSH1 0x0 DUP1 REVERT JUMPDEST POP PUSH1 0x40 MLOAD PUSH3 0x4BB7 CODESIZE SUB DUP1 PUSH3 0x4BB7 DUP4 CODECOPY DUP2 DUP2 ADD PUSH1 0x40 MSTORE PUSH1 0xE0 DUP2 LT ISZERO PUSH3 0x4B JUMPI PUSH1 0x0 DUP1 REVERT JUMPDEST DUP2 MLOAD PUSH1 0x20 DUP4 ADD MLOAD PUSH1 0x40 DUP1 DUP6 ADD MLOAD PUSH1 0x60 DUP7 ADD MLOAD PUSH1 0x80 DUP8 ADD DUP1 MLOAD SWAP4 MLOAD SWAP6 SWAP8 SWAP5 SWAP7 SWAP3 SWAP6 SWAP2 SWAP5 SWAP2 SWAP4 SWAP3 DUP3 ADD SWAP3 DUP5 PUSH5 0x100000000 DUP3 GT ISZERO PUSH3 0x87 JUMPI PUSH1 0x0 DUP1 REVERT JUMPDEST SWAP1 DUP4 ADD SWAP1 PUSH1 0x20 DUP3 ADD DUP6 DUP2 GT ISZERO PUSH3 0x9D JUMPI PUSH1 0x0 DUP1 REVERT JUMPDEST DUP3 MLOAD DUP7 PUSH1 0x20 DUP3 MUL DUP4 ADD GT PUSH5 0x100000000 DUP3 GT OR ISZERO PUSH3 0xBB JUMPI PUSH1 0x0 DUP1 REVERT JUMPDEST DUP3 MSTORE POP DUP2 MLOAD PUSH1 0x20 SWAP2 DUP3 ADD SWAP3 DUP3 ADD SWAP2 MUL DUP1 DUP4 DUP4 PUSH1 0x0 JUMPDEST DUP4 DUP2 LT ISZERO PUSH3 0xEA JUMPI DUP2 DUP2 ADD MLOAD DUP4 DUP3 ADD MSTORE PUSH1 0x20 ADD PUSH3 0xD0 JUMP JUMPDEST POP POP POP POP SWAP1 POP ADD PUSH1 0x40 MSTORE PUSH1 0x20 ADD DUP1 MLOAD PUSH1 0x40 MLOAD SWAP4 SWAP3 SWAP2 SWAP1 DUP5 PUSH5 0x100000000 DUP3 GT ISZERO PUSH3 0x114 JUMPI PUSH1 0x0 DUP1 REVERT JUMPDEST SWAP1 DUP4 ADD SWAP1 PUSH1 0x20 DUP3 ADD DUP6 DUP2 GT ISZERO PUSH3 0x12A JUMPI PUSH1 0x0 DUP1 REVERT JUMPDEST DUP3 MLOAD DUP7 PUSH1 0x20 DUP3 MUL DUP4 ADD GT PUSH5 0x100000000 DUP3 GT OR ISZERO PUSH3 0x148 JUMPI PUSH1 0x0 DUP1 REVERT JUMPDEST DUP3 MSTORE POP DUP2 MLOAD PUSH1 0x20 SWAP2 DUP3 ADD SWAP3 DUP3 ADD SWAP2 MUL DUP1 DUP4 DUP4 PUSH1 0x0 JUMPDEST DUP4 DUP2 LT ISZERO PUSH3 0x177 JUMPI DUP2 DUP2 ADD MLOAD DUP4 DUP3 ADD MSTORE PUSH1 0x20 ADD PUSH3 0x15D JUMP JUMPDEST POP POP POP POP SWAP2 SWAP1 SWAP2 ADD PUSH1 0x40 MSTORE POP PUSH1 0x20 ADD MLOAD SWAP2 POP DUP8 SWAP1 POP DUP7 DUP7 DUP7 PUSH1 0x0 PUSH3 0x1A4 PUSH1 0x1 PUSH1 0x1 PUSH1 0xE0 SHL SUB PUSH3 0x492 AND JUMP JUMPDEST PUSH1 0x0 DUP1 SLOAD PUSH1 0x1 PUSH1 0x1 PUSH1 0xA0 SHL SUB NOT AND PUSH1 0x1 PUSH1 0x1 PUSH1 0xA0 SHL SUB DUP4 AND SWAP1 DUP2 OR DUP3 SSTORE PUSH1 0x40 MLOAD SWAP3 SWAP4 POP SWAP2 PUSH32 0x8BE0079C531659141344CD1FD0A4F28419497F9722A3DAAFE3B4186F6B6457E0 SWAP1 DUP3 SWAP1 LOG3 POP PUSH1 0x3C DUP5 PUSH4 0xFFFFFFFF AND LT ISZERO PUSH3 0x24B JUMPI PUSH1 0x40 DUP1 MLOAD PUSH3 0x461BCD PUSH1 0xE5 SHL DUP2 MSTORE PUSH1 0x20 PUSH1 0x4 DUP3 ADD DUP2 SWAP1 MSTORE PUSH1 0x24 DUP3 ADD MSTORE PUSH32 0x4E66745374616B696E673A20696E76616C6964206379636C65206C656E677468 PUSH1 0x44 DUP3 ADD MSTORE SWAP1 MLOAD SWAP1 DUP2 SWAP1 SUB PUSH1 0x64 ADD SWAP1 REVERT JUMPDEST PUSH1 0x2 DUP4 PUSH2 0xFFFF AND LT ISZERO PUSH3 0x291 JUMPI PUSH1 0x40 MLOAD PUSH3 0x461BCD PUSH1 0xE5 SHL DUP2 MSTORE PUSH1 0x4 ADD DUP1 DUP1 PUSH1 0x20 ADD DUP3 DUP2 SUB DUP3 MSTORE PUSH1 0x21 DUP2 MSTORE PUSH1 0x20 ADD DUP1 PUSH3 0x4B96 PUSH1 0x21 SWAP2 CODECOPY PUSH1 0x40 ADD SWAP2 POP POP PUSH1 0x40 MLOAD DUP1 SWAP2 SUB SWAP1 REVERT JUMPDEST PUSH1 0xE0 SWAP4 DUP5 SHL PUSH1 0x1 PUSH1 0x1 PUSH1 0xE0 SHL SUB NOT AND PUSH1 0xC0 MSTORE PUSH1 0xF0 SWAP3 SWAP1 SWAP3 SHL PUSH1 0x1 PUSH1 0x1 PUSH1 0xF0 SHL SUB NOT AND SWAP1 SWAP3 MSTORE PUSH1 0x60 SWAP2 DUP3 SHL PUSH1 0x1 PUSH1 0x1 PUSH1 0x60 SHL SUB NOT SWAP1 DUP2 AND PUSH1 0xA0 MSTORE SWAP2 SHL AND PUSH1 0x80 MSTORE DUP1 PUSH3 0x323 JUMPI PUSH1 0x40 DUP1 MLOAD PUSH3 0x461BCD PUSH1 0xE5 SHL DUP2 MSTORE PUSH1 0x20 PUSH1 0x4 DUP3 ADD MSTORE PUSH1 0x1F PUSH1 0x24 DUP3 ADD MSTORE PUSH32 0x4E66745374616B696E673A20696E76616C696420636F656666696369656E7400 PUSH1 0x44 DUP3 ADD MSTORE SWAP1 MLOAD SWAP1 DUP2 SWAP1 SUB PUSH1 0x64 ADD SWAP1 REVERT JUMPDEST DUP2 MLOAD DUP4 MLOAD EQ PUSH3 0x37A JUMPI PUSH1 0x40 DUP1 MLOAD PUSH3 0x461BCD PUSH1 0xE5 SHL DUP2 MSTORE PUSH1 0x20 PUSH1 0x4 DUP3 ADD MSTORE PUSH1 0x1B PUSH1 0x24 DUP3 ADD MSTORE PUSH32 0x4E66745374616B696E673A2077726F6E6720617267756D656E74730000000000 PUSH1 0x44 DUP3 ADD MSTORE SWAP1 MLOAD SWAP1 DUP2 SWAP1 SUB PUSH1 0x64 ADD SWAP1 REVERT JUMPDEST PUSH1 0x1 PUSH1 0x1 PUSH1 0x3F SHL SUB PUSH1 0x0 JUMPDEST DUP5 MLOAD DUP2 LT ISZERO PUSH3 0x47F JUMPI PUSH1 0x0 DUP5 DUP3 DUP2 MLOAD DUP2 LT PUSH3 0x39E JUMPI INVALID JUMPDEST PUSH1 0x20 MUL PUSH1 0x20 ADD ADD MLOAD SWAP1 POP PUSH1 0x0 DUP2 PUSH1 0x1 PUSH1 0x1 PUSH1 0x40 SHL SUB AND GT DUP1 ISZERO PUSH3 0x3D4 JUMPI POP DUP3 PUSH1 0x1 PUSH1 0x1 PUSH1 0x40 SHL SUB AND DUP2 PUSH1 0x1 PUSH1 0x1 PUSH1 0x40 SHL SUB AND GT ISZERO JUMPDEST PUSH3 0x426 JUMPI PUSH1 0x40 DUP1 MLOAD PUSH3 0x461BCD PUSH1 0xE5 SHL DUP2 MSTORE PUSH1 0x20 PUSH1 0x4 DUP3 ADD DUP2 SWAP1 MSTORE PUSH1 0x24 DUP3 ADD MSTORE PUSH32 0x4E66745374616B696E673A20696E76616C6964207765696768742076616C7565 PUSH1 0x44 DUP3 ADD MSTORE SWAP1 MLOAD SWAP1 DUP2 SWAP1 SUB PUSH1 0x64 ADD SWAP1 REVERT JUMPDEST DUP1 PUSH1 0x9 PUSH1 0x0 DUP9 DUP6 DUP2 MLOAD DUP2 LT PUSH3 0x438 JUMPI INVALID JUMPDEST PUSH1 0x20 MUL PUSH1 0x20 ADD ADD MLOAD DUP2 MSTORE PUSH1 0x20 ADD SWAP1 DUP2 MSTORE PUSH1 0x20 ADD PUSH1 0x0 KECCAK256 PUSH1 0x0 PUSH2 0x100 EXP DUP2 SLOAD DUP2 PUSH1 0x1 PUSH1 0x1 PUSH1 0x40 SHL SUB MUL NOT AND SWAP1 DUP4 PUSH1 0x1 PUSH1 0x1 PUSH1 0x40 SHL SUB AND MUL OR SWAP1 SSTORE POP POP DUP1 PUSH1 0x1 ADD SWAP1 POP PUSH3 0x385 JUMP JUMPDEST POP POP PUSH2 0x100 MSTORE POP PUSH3 0x496 SWAP5 POP POP POP POP POP JUMP JUMPDEST CALLER SWAP1 JUMP JUMPDEST PUSH1 0x80 MLOAD PUSH1 0x60 SHR PUSH1 0xA0 MLOAD PUSH1 0x60 SHR PUSH1 0xC0 MLOAD PUSH1 0xE0 SHR PUSH1 0xE0 MLOAD PUSH1 0xF0 SHR PUSH2 0x100 MLOAD PUSH2 0x4650 PUSH3 0x546 PUSH1 0x0 CODECOPY DUP1 PUSH2 0x266C MSTORE DUP1 PUSH2 0x333E MSTORE DUP1 PUSH2 0x427C MSTORE POP DUP1 PUSH2 0x93F MSTORE DUP1 PUSH2 0x984 MSTORE DUP1 PUSH2 0xF18 MSTORE DUP1 PUSH2 0x1F89 MSTORE DUP1 PUSH2 0x2769 MSTORE DUP1 PUSH2 0x2B71 MSTORE DUP1 PUSH2 0x39C7 MSTORE DUP1 PUSH2 0x3C33 MSTORE POP DUP1 PUSH2 0x9EF MSTORE DUP1 PUSH2 0x2A26 MSTORE POP DUP1 PUSH2 0x1479 MSTORE DUP1 PUSH2 0x1BA9 MSTORE DUP1 PUSH2 0x1D1B MSTORE DUP1 PUSH2 0x224B MSTORE DUP1 PUSH2 0x24B9 MSTORE POP DUP1 PUSH2 0x1024 MSTORE DUP1 PUSH2 0x16BD MSTORE DUP1 PUSH2 0x1CF7 MSTORE DUP1 PUSH2 0x20BF MSTORE DUP1 PUSH2 0x287A MSTORE DUP1 PUSH2 0x3312 MSTORE DUP1 PUSH2 0x424F MSTORE POP PUSH2 0x4650 PUSH1 0x0 RETURN INVALID PUSH1 0x80 PUSH1 0x40 MSTORE CALLVALUE DUP1 ISZERO PUSH2 0x10 JUMPI PUSH1 0x0 DUP1 REVERT JUMPDEST POP PUSH1 0x4 CALLDATASIZE LT PUSH2 0x226 JUMPI PUSH1 0x0 CALLDATALOAD PUSH1 0xE0 SHR DUP1 PUSH4 0x7B62E040 GT PUSH2 0x12A JUMPI DUP1 PUSH4 0xBE26ED7F GT PUSH2 0xBD JUMPI DUP1 PUSH4 0xE6FD48BC GT PUSH2 0x8C JUMPI DUP1 PUSH4 0xF2FDE38B GT PUSH2 0x71 JUMPI DUP1 PUSH4 0xF2FDE38B EQ PUSH2 0x843 JUMPI DUP1 PUSH4 0xF6515971 EQ PUSH2 0x869 JUMPI DUP1 PUSH4 0xF81649B4 EQ PUSH2 0x871 JUMPI PUSH2 0x226 JUMP JUMPDEST DUP1 PUSH4 0xE6FD48BC EQ PUSH2 0x7A6 JUMPI DUP1 PUSH4 0xF23A6E61 EQ PUSH2 0x7AE JUMPI PUSH2 0x226 JUMP JUMPDEST DUP1 PUSH4 0xBE26ED7F EQ PUSH2 0x753 JUMPI DUP1 PUSH4 0xBE9A6555 EQ PUSH2 0x75B JUMPI DUP1 PUSH4 0xCC60FBF1 EQ PUSH2 0x763 JUMPI DUP1 PUSH4 0xD8EBEB8A EQ PUSH2 0x789 JUMPI PUSH2 0x226 JUMP JUMPDEST DUP1 PUSH4 0x9DE2E1CB GT PUSH2 0xF9 JUMPI DUP1 PUSH4 0x9DE2E1CB EQ PUSH2 0x5C0 JUMPI DUP1 PUSH4 0x9E7CFD49 EQ PUSH2 0x5C8 JUMPI DUP1 PUSH4 0xA522BBAA EQ PUSH2 0x5D0 JUMPI DUP1 PUSH4 0xBC197C81 EQ PUSH2 0x5F1 JUMPI PUSH2 0x226 JUMP JUMPDEST DUP1 PUSH4 0x7B62E040 EQ PUSH2 0x4CA JUMPI DUP1 PUSH4 0x7C13774B EQ PUSH2 0x4D2 JUMPI DUP1 PUSH4 0x85807FD9 EQ PUSH2 0x52C JUMPI DUP1 PUSH4 0x8DA5CB5B EQ PUSH2 0x59C JUMPI PUSH2 0x226 JUMP JUMPDEST DUP1 PUSH4 0x2EF3FF6F GT PUSH2 0x1BD JUMPI DUP1 PUSH4 0x5A32502D GT PUSH2 0x18C JUMPI DUP1 PUSH4 0x6B426000 GT PUSH2 0x171 JUMPI DUP1 PUSH4 0x6B426000 EQ PUSH2 0x488 JUMPI DUP1 PUSH4 0x715018A6 EQ PUSH2 0x4A5 JUMPI DUP1 PUSH4 0x73A32346 EQ PUSH2 0x4AD JUMPI PUSH2 0x226 JUMP JUMPDEST DUP1 PUSH4 0x5A32502D EQ PUSH2 0x3EE JUMPI DUP1 PUSH4 0x69628952 EQ PUSH2 0x434 JUMPI PUSH2 0x226 JUMP JUMPDEST DUP1 PUSH4 0x2EF3FF6F EQ PUSH2 0x389 JUMPI DUP1 PUSH4 0x2F2770DB EQ PUSH2 0x391 JUMPI DUP1 PUSH4 0x3AF1F20C EQ PUSH2 0x39B JUMPI DUP1 PUSH4 0x4FC5B849 EQ PUSH2 0x3D1 JUMPI PUSH2 0x226 JUMP JUMPDEST DUP1 PUSH4 0xBC2B269 GT PUSH2 0x1F9 JUMPI DUP1 PUSH4 0xBC2B269 EQ PUSH2 0x2DF JUMPI DUP1 PUSH4 0xD2CB02A EQ PUSH2 0x331 JUMPI DUP1 PUSH4 0x2217F165 EQ PUSH2 0x352 JUMPI DUP1 PUSH4 0x238DAFE0 EQ PUSH2 0x381 JUMPI PUSH2 0x226 JUMP JUMPDEST DUP1 PUSH4 0x1FFC9A7 EQ PUSH2 0x22B JUMPI DUP1 PUSH4 0x320D053 EQ PUSH2 0x27E JUMPI DUP1 PUSH4 0x503C9BB EQ PUSH2 0x29D JUMPI DUP1 PUSH4 0x86146D2 EQ PUSH2 0x2D7 JUMPI JUMPDEST PUSH1 0x0 DUP1 REVERT JUMPDEST PUSH2 0x26A PUSH1 0x4 DUP1 CALLDATASIZE SUB PUSH1 0x20 DUP2 LT ISZERO PUSH2 0x241 JUMPI PUSH1 0x0 DUP1 REVERT JUMPDEST POP CALLDATALOAD PUSH32 0xFFFFFFFF00000000000000000000000000000000000000000000000000000000 AND PUSH2 0x8A2 JUMP JUMPDEST PUSH1 0x40 DUP1 MLOAD SWAP2 ISZERO ISZERO DUP3 MSTORE MLOAD SWAP1 DUP2 SWAP1 SUB PUSH1 0x20 ADD SWAP1 RETURN JUMPDEST PUSH2 0x286 PUSH2 0x93D JUMP JUMPDEST PUSH1 0x40 DUP1 MLOAD PUSH2 0xFFFF SWAP1 SWAP3 AND DUP3 MSTORE MLOAD SWAP1 DUP2 SWAP1 SUB PUSH1 0x20 ADD SWAP1 RETURN JUMPDEST PUSH2 0x2BA PUSH1 0x4 DUP1 CALLDATASIZE SUB PUSH1 0x20 DUP2 LT ISZERO PUSH2 0x2B3 JUMPI PUSH1 0x0 DUP1 REVERT JUMPDEST POP CALLDATALOAD PUSH2 0x961 JUMP JUMPDEST PUSH1 0x40 DUP1 MLOAD PUSH8 0xFFFFFFFFFFFFFFFF SWAP1 SWAP3 AND DUP3 MSTORE MLOAD SWAP1 DUP2 SWAP1 SUB PUSH1 0x20 ADD SWAP1 RETURN JUMPDEST PUSH2 0x286 PUSH2 0x97D JUMP JUMPDEST PUSH2 0x30B PUSH1 0x4 DUP1 CALLDATASIZE SUB PUSH1 0x40 DUP2 LT ISZERO PUSH2 0x2F5 JUMPI PUSH1 0x0 DUP1 REVERT JUMPDEST POP PUSH1 0x1 PUSH1 0x1 PUSH1 0xA0 SHL SUB DUP2 CALLDATALOAD AND SWAP1 PUSH1 0x20 ADD CALLDATALOAD PUSH2 0x9AD JUMP JUMPDEST PUSH1 0x40 DUP1 MLOAD PUSH1 0x1 PUSH1 0x1 PUSH1 0x80 SHL SUB SWAP4 DUP5 AND DUP2 MSTORE SWAP2 SWAP1 SWAP3 AND PUSH1 0x20 DUP3 ADD MSTORE DUP2 MLOAD SWAP1 DUP2 SWAP1 SUB SWAP1 SWAP2 ADD SWAP1 RETURN JUMPDEST PUSH2 0x339 PUSH2 0x9ED JUMP JUMPDEST PUSH1 0x40 DUP1 MLOAD PUSH4 0xFFFFFFFF SWAP1 SWAP3 AND DUP3 MSTORE MLOAD SWAP1 DUP2 SWAP1 SUB PUSH1 0x20 ADD SWAP1 RETURN JUMPDEST PUSH2 0x36F PUSH1 0x4 DUP1 CALLDATASIZE SUB PUSH1 0x20 DUP2 LT ISZERO PUSH2 0x368 JUMPI PUSH1 0x0 DUP1 REVERT JUMPDEST POP CALLDATALOAD PUSH2 0xA11 JUMP JUMPDEST PUSH1 0x40 DUP1 MLOAD SWAP2 DUP3 MSTORE MLOAD SWAP1 DUP2 SWAP1 SUB PUSH1 0x20 ADD SWAP1 RETURN JUMPDEST PUSH2 0x26A PUSH2 0xA23 JUMP JUMPDEST PUSH2 0x36F PUSH2 0xA33 JUMP JUMPDEST PUSH2 0x399 PUSH2 0xA39 JUMP JUMPDEST STOP JUMPDEST PUSH2 0x399 PUSH1 0x4 DUP1 CALLDATASIZE SUB PUSH1 0x60 DUP2 LT ISZERO PUSH2 0x3B1 JUMPI PUSH1 0x0 DUP1 REVERT JUMPDEST POP PUSH1 0x1 PUSH1 0x1 PUSH1 0xA0 SHL SUB DUP2 CALLDATALOAD AND SWAP1 PUSH2 0xFFFF PUSH1 0x20 DUP3 ADD CALLDATALOAD AND SWAP1 PUSH1 0x40 ADD CALLDATALOAD PUSH2 0xAF4 JUMP JUMPDEST PUSH2 0x30B PUSH1 0x4 DUP1 CALLDATASIZE SUB PUSH1 0x20 DUP2 LT ISZERO PUSH2 0x3E7 JUMPI PUSH1 0x0 DUP1 REVERT JUMPDEST POP CALLDATALOAD PUSH2 0x10A2 JUMP JUMPDEST PUSH2 0x40F PUSH1 0x4 DUP1 CALLDATASIZE SUB PUSH1 0x20 DUP2 LT ISZERO PUSH2 0x404 JUMPI PUSH1 0x0 DUP1 REVERT JUMPDEST POP CALLDATALOAD PUSH2 0xFFFF AND PUSH2 0x10D4 JUMP JUMPDEST PUSH1 0x40 DUP1 MLOAD PUSH2 0xFFFF SWAP5 DUP6 AND DUP2 MSTORE SWAP3 SWAP1 SWAP4 AND PUSH1 0x20 DUP4 ADD MSTORE DUP2 DUP4 ADD MSTORE SWAP1 MLOAD SWAP1 DUP2 SWAP1 SUB PUSH1 0x60 ADD SWAP1 RETURN JUMPDEST PUSH2 0x45A PUSH1 0x4 DUP1 CALLDATASIZE SUB PUSH1 0x20 DUP2 LT ISZERO PUSH2 0x44A JUMPI PUSH1 0x0 DUP1 REVERT JUMPDEST POP CALLDATALOAD PUSH1 0x1 PUSH1 0x1 PUSH1 0xA0 SHL SUB AND PUSH2 0x11A9 JUMP JUMPDEST PUSH1 0x40 DUP1 MLOAD PUSH2 0xFFFF SWAP1 SWAP5 AND DUP5 MSTORE PUSH8 0xFFFFFFFFFFFFFFFF SWAP3 DUP4 AND PUSH1 0x20 DUP6 ADD MSTORE SWAP2 AND DUP3 DUP3 ADD MSTORE MLOAD SWAP1 DUP2 SWAP1 SUB PUSH1 0x60 ADD SWAP1 RETURN JUMPDEST PUSH2 0x399 PUSH1 0x4 DUP1 CALLDATASIZE SUB PUSH1 0x20 DUP2 LT ISZERO PUSH2 0x49E JUMPI PUSH1 0x0 DUP1 REVERT JUMPDEST POP CALLDATALOAD PUSH2 0x11E2 JUMP JUMPDEST PUSH2 0x399 PUSH2 0x1531 JUMP JUMPDEST PUSH2 0x399 PUSH1 0x4 DUP1 CALLDATASIZE SUB PUSH1 0x20 DUP2 LT ISZERO PUSH2 0x4C3 JUMPI PUSH1 0x0 DUP1 REVERT JUMPDEST POP CALLDATALOAD PUSH2 0x15F2 JUMP JUMPDEST PUSH2 0x36F PUSH2 0x17AC JUMP JUMPDEST PUSH2 0x4EF PUSH1 0x4 DUP1 CALLDATASIZE SUB PUSH1 0x20 DUP2 LT ISZERO PUSH2 0x4E8 JUMPI PUSH1 0x0 DUP1 REVERT JUMPDEST POP CALLDATALOAD PUSH2 0x180D JUMP JUMPDEST PUSH1 0x40 DUP1 MLOAD PUSH1 0x1 PUSH1 0x1 PUSH1 0xA0 SHL SUB SWAP1 SWAP6 AND DUP6 MSTORE PUSH8 0xFFFFFFFFFFFFFFFF SWAP1 SWAP4 AND PUSH1 0x20 DUP6 ADD MSTORE PUSH2 0xFFFF SWAP2 DUP3 AND DUP5 DUP5 ADD MSTORE AND PUSH1 0x60 DUP4 ADD MSTORE MLOAD SWAP1 DUP2 SWAP1 SUB PUSH1 0x80 ADD SWAP1 RETURN JUMPDEST PUSH2 0x399 PUSH1 0x4 DUP1 CALLDATASIZE SUB PUSH1 0x20 DUP2 LT ISZERO PUSH2 0x542 JUMPI PUSH1 0x0 DUP1 REVERT JUMPDEST DUP2 ADD SWAP1 PUSH1 0x20 DUP2 ADD DUP2 CALLDATALOAD PUSH5 0x100000000 DUP2 GT ISZERO PUSH2 0x55D JUMPI PUSH1 0x0 DUP1 REVERT JUMPDEST DUP3 ADD DUP4 PUSH1 0x20 DUP3 ADD GT ISZERO PUSH2 0x56F JUMPI PUSH1 0x0 DUP1 REVERT JUMPDEST DUP1 CALLDATALOAD SWAP1 PUSH1 0x20 ADD SWAP2 DUP5 PUSH1 0x20 DUP4 MUL DUP5 ADD GT PUSH5 0x100000000 DUP4 GT OR ISZERO PUSH2 0x591 JUMPI PUSH1 0x0 DUP1 REVERT JUMPDEST POP SWAP1 SWAP3 POP SWAP1 POP PUSH2 0x1851 JUMP JUMPDEST PUSH2 0x5A4 PUSH2 0x1CE6 JUMP JUMPDEST PUSH1 0x40 DUP1 MLOAD PUSH1 0x1 PUSH1 0x1 PUSH1 0xA0 SHL SUB SWAP1 SWAP3 AND DUP3 MSTORE MLOAD SWAP1 DUP2 SWAP1 SUB PUSH1 0x20 ADD SWAP1 RETURN JUMPDEST PUSH2 0x5A4 PUSH2 0x1CF5 JUMP JUMPDEST PUSH2 0x5A4 PUSH2 0x1D19 JUMP JUMPDEST PUSH2 0x399 PUSH1 0x4 DUP1 CALLDATASIZE SUB PUSH1 0x20 DUP2 LT ISZERO PUSH2 0x5E6 JUMPI PUSH1 0x0 DUP1 REVERT JUMPDEST POP CALLDATALOAD PUSH2 0xFFFF AND PUSH2 0x1D3D JUMP JUMPDEST PUSH2 0x71E PUSH1 0x4 DUP1 CALLDATASIZE SUB PUSH1 0xA0 DUP2 LT ISZERO PUSH2 0x607 JUMPI PUSH1 0x0 DUP1 REVERT JUMPDEST PUSH1 0x1 PUSH1 0x1 PUSH1 0xA0 SHL SUB DUP3 CALLDATALOAD DUP2 AND SWAP3 PUSH1 0x20 DUP2 ADD CALLDATALOAD SWAP1 SWAP2 AND SWAP2 DUP2 ADD SWAP1 PUSH1 0x60 DUP2 ADD PUSH1 0x40 DUP3 ADD CALLDATALOAD PUSH5 0x100000000 DUP2 GT ISZERO PUSH2 0x63B JUMPI PUSH1 0x0 DUP1 REVERT JUMPDEST DUP3 ADD DUP4 PUSH1 0x20 DUP3 ADD GT ISZERO PUSH2 0x64D JUMPI PUSH1 0x0 DUP1 REVERT JUMPDEST DUP1 CALLDATALOAD SWAP1 PUSH1 0x20 ADD SWAP2 DUP5 PUSH1 0x20 DUP4 MUL DUP5 ADD GT PUSH5 0x100000000 DUP4 GT OR ISZERO PUSH2 0x66F JUMPI PUSH1 0x0 DUP1 REVERT JUMPDEST SWAP2 SWAP4 SWAP1 SWAP3 SWAP1 SWAP2 PUSH1 0x20 DUP2 ADD SWAP1 CALLDATALOAD PUSH5 0x100000000 DUP2 GT ISZERO PUSH2 0x68D JUMPI PUSH1 0x0 DUP1 REVERT JUMPDEST DUP3 ADD DUP4 PUSH1 0x20 DUP3 ADD GT ISZERO PUSH2 0x69F JUMPI PUSH1 0x0 DUP1 REVERT JUMPDEST DUP1 CALLDATALOAD SWAP1 PUSH1 0x20 ADD SWAP2 DUP5 PUSH1 0x20 DUP4 MUL DUP5 ADD GT PUSH5 0x100000000 DUP4 GT OR ISZERO PUSH2 0x6C1 JUMPI PUSH1 0x0 DUP1 REVERT JUMPDEST SWAP2 SWAP4 SWAP1 SWAP3 SWAP1 SWAP2 PUSH1 0x20 DUP2 ADD SWAP1 CALLDATALOAD PUSH5 0x100000000 DUP2 GT ISZERO PUSH2 0x6DF JUMPI PUSH1 0x0 DUP1 REVERT JUMPDEST DUP3 ADD DUP4 PUSH1 0x20 DUP3 ADD GT ISZERO PUSH2 0x6F1 JUMPI PUSH1 0x0 DUP1 REVERT JUMPDEST DUP1 CALLDATALOAD SWAP1 PUSH1 0x20 ADD SWAP2 DUP5 PUSH1 0x1 DUP4 MUL DUP5 ADD GT PUSH5 0x100000000 DUP4 GT OR ISZERO PUSH2 0x713 JUMPI PUSH1 0x0 DUP1 REVERT JUMPDEST POP SWAP1 SWAP3 POP SWAP1 POP PUSH2 0x2236 JUMP JUMPDEST PUSH1 0x40 DUP1 MLOAD PUSH32 0xFFFFFFFF00000000000000000000000000000000000000000000000000000000 SWAP1 SWAP3 AND DUP3 MSTORE MLOAD SWAP1 DUP2 SWAP1 SUB PUSH1 0x20 ADD SWAP1 RETURN JUMPDEST PUSH2 0x286 PUSH2 0x231B JUMP JUMPDEST PUSH2 0x399 PUSH2 0x2326 JUMP JUMPDEST PUSH2 0x36F PUSH1 0x4 DUP1 CALLDATASIZE SUB PUSH1 0x20 DUP2 LT ISZERO PUSH2 0x779 JUMPI PUSH1 0x0 DUP1 REVERT JUMPDEST POP CALLDATALOAD PUSH1 0x1 PUSH1 0x1 PUSH1 0xA0 SHL SUB AND PUSH2 0x2414 JUMP JUMPDEST PUSH2 0x26A PUSH1 0x4 DUP1 CALLDATASIZE SUB PUSH1 0x20 DUP2 LT ISZERO PUSH2 0x79F JUMPI PUSH1 0x0 DUP1 REVERT JUMPDEST POP CALLDATALOAD PUSH2 0x2489 JUMP JUMPDEST PUSH2 0x36F PUSH2 0x249E JUMP JUMPDEST PUSH2 0x71E PUSH1 0x4 DUP1 CALLDATASIZE SUB PUSH1 0xA0 DUP2 LT ISZERO PUSH2 0x7C4 JUMPI PUSH1 0x0 DUP1 REVERT JUMPDEST PUSH1 0x1 PUSH1 0x1 PUSH1 0xA0 SHL SUB DUP3 CALLDATALOAD DUP2 AND SWAP3 PUSH1 0x20 DUP2 ADD CALLDATALOAD SWAP1 SWAP2 AND SWAP2 PUSH1 0x40 DUP3 ADD CALLDATALOAD SWAP2 PUSH1 0x60 DUP2 ADD CALLDATALOAD SWAP2 DUP2 ADD SWAP1 PUSH1 0xA0 DUP2 ADD PUSH1 0x80 DUP3 ADD CALLDATALOAD PUSH5 0x100000000 DUP2 GT ISZERO PUSH2 0x804 JUMPI PUSH1 0x0 DUP1 REVERT JUMPDEST DUP3 ADD DUP4 PUSH1 0x20 DUP3 ADD GT ISZERO PUSH2 0x816 JUMPI PUSH1 0x0 DUP1 REVERT JUMPDEST DUP1 CALLDATALOAD SWAP1 PUSH1 0x20 ADD SWAP2 DUP5 PUSH1 0x1 DUP4 MUL DUP5 ADD GT PUSH5 0x100000000 DUP4 GT OR ISZERO PUSH2 0x838 JUMPI PUSH1 0x0 DUP1 REVERT JUMPDEST POP SWAP1 SWAP3 POP SWAP1 POP PUSH2 0x24A4 JUMP JUMPDEST PUSH2 0x399 PUSH1 0x4 DUP1 CALLDATASIZE SUB PUSH1 0x20 DUP2 LT ISZERO PUSH2 0x859 JUMPI PUSH1 0x0 DUP1 REVERT JUMPDEST POP CALLDATALOAD PUSH1 0x1 PUSH1 0x1 PUSH1 0xA0 SHL SUB AND PUSH2 0x2553 JUMP JUMPDEST PUSH2 0x36F PUSH2 0x266A JUMP JUMPDEST PUSH2 0x399 PUSH1 0x4 DUP1 CALLDATASIZE SUB PUSH1 0x60 DUP2 LT ISZERO PUSH2 0x887 JUMPI PUSH1 0x0 DUP1 REVERT JUMPDEST POP PUSH2 0xFFFF DUP2 CALLDATALOAD DUP2 AND SWAP2 PUSH1 0x20 DUP2 ADD CALLDATALOAD SWAP1 SWAP2 AND SWAP1 PUSH1 0x40 ADD CALLDATALOAD PUSH2 0x268E JUMP JUMPDEST PUSH1 0x0 PUSH32 0xFFFFFFFF00000000000000000000000000000000000000000000000000000000 DUP3 AND PUSH32 0x1FFC9A700000000000000000000000000000000000000000000000000000000 EQ DUP1 PUSH2 0x935 JUMPI POP PUSH32 0xFFFFFFFF00000000000000000000000000000000000000000000000000000000 DUP3 AND PUSH32 0x4E2312E000000000000000000000000000000000000000000000000000000000 EQ JUMPDEST SWAP1 POP JUMPDEST SWAP2 SWAP1 POP JUMP JUMPDEST PUSH32 0x0 DUP2 JUMP JUMPDEST PUSH1 0x9 PUSH1 0x20 MSTORE PUSH1 0x0 SWAP1 DUP2 MSTORE PUSH1 0x40 SWAP1 KECCAK256 SLOAD PUSH8 0xFFFFFFFFFFFFFFFF AND DUP2 JUMP JUMPDEST PUSH1 0x0 PUSH2 0x9A8 PUSH32 0x0 PUSH2 0x29C6 JUMP JUMPDEST SWAP1 POP SWAP1 JUMP JUMPDEST PUSH1 0x4 PUSH1 0x20 MSTORE DUP2 PUSH1 0x0 MSTORE PUSH1 0x40 PUSH1 0x0 KECCAK256 DUP2 DUP2 SLOAD DUP2 LT PUSH2 0x9C6 JUMPI INVALID JUMPDEST PUSH1 0x0 SWAP2 DUP3 MSTORE PUSH1 0x20 SWAP1 SWAP2 KECCAK256 ADD SLOAD PUSH1 0x1 PUSH1 0x1 PUSH1 0x80 SHL SUB DUP1 DUP3 AND SWAP4 POP PUSH1 0x1 PUSH1 0x80 SHL SWAP1 SWAP2 DIV AND SWAP1 POP DUP3 JUMP JUMPDEST PUSH32 0x0 DUP2 JUMP JUMPDEST PUSH1 0x7 PUSH1 0x20 MSTORE PUSH1 0x0 SWAP1 DUP2 MSTORE PUSH1 0x40 SWAP1 KECCAK256 SLOAD DUP2 JUMP JUMPDEST PUSH1 0x0 SLOAD PUSH1 0x1 PUSH1 0xA0 SHL SWAP1 DIV PUSH1 0xFF AND DUP2 JUMP JUMPDEST PUSH1 0x1 SLOAD DUP2 JUMP JUMPDEST PUSH2 0xA41 PUSH2 0x29DA JUMP JUMPDEST PUSH1 0x0 SLOAD PUSH1 0x1 PUSH1 0x1 PUSH1 0xA0 SHL SUB SWAP1 DUP2 AND SWAP2 AND EQ PUSH2 0xAA3 JUMPI PUSH1 0x40 DUP1 MLOAD PUSH3 0x461BCD PUSH1 0xE5 SHL DUP2 MSTORE PUSH1 0x20 PUSH1 0x4 DUP3 ADD DUP2 SWAP1 MSTORE PUSH1 0x24 DUP3 ADD MSTORE PUSH32 0x4F776E61626C653A2063616C6C6572206973206E6F7420746865206F776E6572 PUSH1 0x44 DUP3 ADD MSTORE SWAP1 MLOAD SWAP1 DUP2 SWAP1 SUB PUSH1 0x64 ADD SWAP1 REVERT JUMPDEST PUSH1 0x0 DUP1 SLOAD PUSH32 0xFFFFFFFFFFFFFFFFFFFFFF00FFFFFFFFFFFFFFFFFFFFFFFFFFFFFFFFFFFFFFFF AND DUP2 SSTORE PUSH1 0x40 MLOAD PUSH32 0x75884CDADC4A89E8B545DB800057F06EC7F5338A08183C7BA515F2BFDD9FE1E1 SWAP2 SWAP1 LOG1 JUMP JUMPDEST PUSH2 0xAFC PUSH2 0x29DA JUMP JUMPDEST PUSH1 0x0 SLOAD PUSH1 0x1 PUSH1 0x1 PUSH1 0xA0 SHL SUB SWAP1 DUP2 AND SWAP2 AND EQ PUSH2 0xB5E JUMPI PUSH1 0x40 DUP1 MLOAD PUSH3 0x461BCD PUSH1 0xE5 SHL DUP2 MSTORE PUSH1 0x20 PUSH1 0x4 DUP3 ADD DUP2 SWAP1 MSTORE PUSH1 0x24 DUP3 ADD MSTORE PUSH32 0x4F776E61626C653A2063616C6C6572206973206E6F7420746865206F776E6572 PUSH1 0x44 DUP3 ADD MSTORE SWAP1 MLOAD SWAP1 DUP2 SWAP1 SUB PUSH1 0x64 ADD SWAP1 REVERT JUMPDEST PUSH1 0x1 PUSH1 0x1 PUSH1 0xA0 SHL SUB DUP4 AND PUSH2 0xBB9 JUMPI PUSH1 0x40 DUP1 MLOAD PUSH3 0x461BCD PUSH1 0xE5 SHL DUP2 MSTORE PUSH1 0x20 PUSH1 0x4 DUP3 ADD MSTORE PUSH1 0x18 PUSH1 0x24 DUP3 ADD MSTORE PUSH32 0x4E66745374616B696E673A207A65726F20616464726573730000000000000000 PUSH1 0x44 DUP3 ADD MSTORE SWAP1 MLOAD SWAP1 DUP2 SWAP1 SUB PUSH1 0x64 ADD SWAP1 REVERT JUMPDEST PUSH2 0xBC2 TIMESTAMP PUSH2 0x29DE JUMP JUMPDEST PUSH2 0xFFFF AND DUP3 PUSH2 0xFFFF AND LT PUSH2 0xC1D JUMPI PUSH1 0x40 DUP1 MLOAD PUSH3 0x461BCD PUSH1 0xE5 SHL DUP2 MSTORE PUSH1 0x20 PUSH1 0x4 DUP3 ADD MSTORE PUSH1 0x1A PUSH1 0x24 DUP3 ADD MSTORE PUSH32 0x4E66745374616B696E673A206E6F6E2D70617374206379636C65000000000000 PUSH1 0x44 DUP3 ADD MSTORE SWAP1 MLOAD SWAP1 DUP2 SWAP1 SUB PUSH1 0x64 ADD SWAP1 REVERT JUMPDEST PUSH2 0xFFFF DUP3 AND PUSH1 0x0 SWAP1 DUP2 MSTORE PUSH1 0x8 PUSH1 0x20 MSTORE PUSH1 0x40 SWAP1 KECCAK256 SLOAD PUSH1 0xFF AND ISZERO PUSH2 0xC86 JUMPI PUSH1 0x40 DUP1 MLOAD PUSH3 0x461BCD PUSH1 0xE5 SHL DUP2 MSTORE PUSH1 0x20 PUSH1 0x4 DUP3 ADD MSTORE PUSH1 0x1D PUSH1 0x24 DUP3 ADD MSTORE PUSH32 0x4E66745374616B696E673A20616C72656164792077697468647261776E000000 PUSH1 0x44 DUP3 ADD MSTORE SWAP1 MLOAD SWAP1 DUP2 SWAP1 SUB PUSH1 0x64 ADD SWAP1 REVERT JUMPDEST DUP1 PUSH1 0x0 NOT EQ ISZERO PUSH2 0xD21 JUMPI PUSH1 0x3 SLOAD ISZERO DUP1 PUSH2 0xCCB JUMPI POP PUSH1 0x3 PUSH1 0x0 DUP2 SLOAD DUP2 LT PUSH2 0xCA8 JUMPI INVALID JUMPDEST PUSH1 0x0 SWAP2 DUP3 MSTORE PUSH1 0x20 SWAP1 SWAP2 KECCAK256 ADD SLOAD PUSH1 0x1 PUSH1 0x80 SHL SWAP1 DIV PUSH1 0x1 PUSH1 0x1 PUSH1 0x80 SHL SUB AND PUSH2 0xFFFF DUP4 AND LT JUMPDEST PUSH2 0xD1C JUMPI PUSH1 0x40 DUP1 MLOAD PUSH3 0x461BCD PUSH1 0xE5 SHL DUP2 MSTORE PUSH1 0x20 PUSH1 0x4 DUP3 ADD MSTORE PUSH1 0x1E PUSH1 0x24 DUP3 ADD MSTORE PUSH32 0x4E66745374616B696E673A206379636C652068617320736E617073686F740000 PUSH1 0x44 DUP3 ADD MSTORE SWAP1 MLOAD SWAP1 DUP2 SWAP1 SUB PUSH1 0x64 ADD SWAP1 REVERT JUMPDEST PUSH2 0xF10 JUMP JUMPDEST PUSH1 0x0 DUP2 SLT PUSH2 0xEC3 JUMPI DUP1 PUSH2 0xD32 PUSH2 0x43B7 JUMP JUMPDEST PUSH1 0x3 DUP3 DUP2 SLOAD DUP2 LT PUSH2 0xD3F JUMPI INVALID JUMPDEST PUSH1 0x0 SWAP2 DUP3 MSTORE PUSH1 0x20 SWAP2 DUP3 SWAP1 KECCAK256 PUSH1 0x40 DUP1 MLOAD DUP1 DUP3 ADD SWAP1 SWAP2 MSTORE SWAP2 ADD SLOAD PUSH1 0x1 PUSH1 0x1 PUSH1 0x80 SHL SUB DUP1 DUP3 AND DUP4 MSTORE PUSH1 0x1 PUSH1 0x80 SHL SWAP1 SWAP2 DIV AND SWAP2 DUP2 ADD DUP3 SWAP1 MSTORE SWAP2 POP PUSH2 0xFFFF DUP6 AND LT ISZERO PUSH2 0xDCD JUMPI PUSH1 0x40 DUP1 MLOAD PUSH3 0x461BCD PUSH1 0xE5 SHL DUP2 MSTORE PUSH1 0x20 PUSH1 0x4 DUP3 ADD MSTORE PUSH1 0x1C PUSH1 0x24 DUP3 ADD MSTORE PUSH32 0x4E66745374616B696E673A206379636C65203C20736E617073686F7400000000 PUSH1 0x44 DUP3 ADD MSTORE SWAP1 MLOAD SWAP1 DUP2 SWAP1 SUB PUSH1 0x64 ADD SWAP1 REVERT JUMPDEST PUSH1 0x3 SLOAD PUSH1 0x1 DUP4 ADD EQ DUP1 PUSH2 0xE0E JUMPI POP PUSH1 0x3 DUP3 PUSH1 0x1 ADD DUP2 SLOAD DUP2 LT PUSH2 0xDEB JUMPI INVALID JUMPDEST PUSH1 0x0 SWAP2 DUP3 MSTORE PUSH1 0x20 SWAP1 SWAP2 KECCAK256 ADD SLOAD PUSH1 0x1 PUSH1 0x80 SHL SWAP1 DIV PUSH1 0x1 PUSH1 0x1 PUSH1 0x80 SHL SUB AND PUSH2 0xFFFF DUP6 AND LT JUMPDEST PUSH2 0xE5F JUMPI PUSH1 0x40 DUP1 MLOAD PUSH3 0x461BCD PUSH1 0xE5 SHL DUP2 MSTORE PUSH1 0x20 PUSH1 0x4 DUP3 ADD MSTORE PUSH1 0x1C PUSH1 0x24 DUP3 ADD MSTORE PUSH32 0x4E66745374616B696E673A206379636C65203E20736E617073686F7400000000 PUSH1 0x44 DUP3 ADD MSTORE SWAP1 MLOAD SWAP1 DUP2 SWAP1 SUB PUSH1 0x64 ADD SWAP1 REVERT JUMPDEST DUP1 MLOAD PUSH1 0x1 PUSH1 0x1 PUSH1 0x80 SHL SUB AND ISZERO PUSH2 0xEBC JUMPI PUSH1 0x40 DUP1 MLOAD PUSH3 0x461BCD PUSH1 0xE5 SHL DUP2 MSTORE PUSH1 0x20 PUSH1 0x4 DUP3 ADD MSTORE PUSH1 0x1A PUSH1 0x24 DUP3 ADD MSTORE PUSH32 0x4E66745374616B696E673A206E6F6E2D6C6F7374206379636C65000000000000 PUSH1 0x44 DUP3 ADD MSTORE SWAP1 MLOAD SWAP1 DUP2 SWAP1 SUB PUSH1 0x64 ADD SWAP1 REVERT JUMPDEST POP POP PUSH2 0xF10 JUMP JUMPDEST PUSH1 0x40 DUP1 MLOAD PUSH3 0x461BCD PUSH1 0xE5 SHL DUP2 MSTORE PUSH1 0x20 PUSH1 0x4 DUP3 ADD MSTORE PUSH1 0x1D PUSH1 0x24 DUP3 ADD MSTORE PUSH32 0x4E66745374616B696E673A2077726F6E6720696E6465782076616C7565000000 PUSH1 0x44 DUP3 ADD MSTORE SWAP1 MLOAD SWAP1 DUP2 SWAP1 SUB PUSH1 0x64 ADD SWAP1 REVERT JUMPDEST PUSH1 0x0 PUSH2 0xF3C DUP4 PUSH32 0x0 PUSH2 0x2A60 JUMP JUMPDEST PUSH2 0xFFFF DUP2 AND PUSH1 0x0 SWAP1 DUP2 MSTORE PUSH1 0x7 PUSH1 0x20 MSTORE PUSH1 0x40 SWAP1 KECCAK256 SLOAD SWAP1 SWAP2 POP DUP1 PUSH2 0xFA5 JUMPI PUSH1 0x40 DUP1 MLOAD PUSH3 0x461BCD PUSH1 0xE5 SHL DUP2 MSTORE PUSH1 0x20 PUSH1 0x4 DUP3 ADD MSTORE PUSH1 0x1C PUSH1 0x24 DUP3 ADD MSTORE PUSH32 0x4E66745374616B696E673A207265776172646C657373206379636C6500000000 PUSH1 0x44 DUP3 ADD MSTORE SWAP1 MLOAD SWAP1 DUP2 SWAP1 SUB PUSH1 0x64 ADD SWAP1 REVERT JUMPDEST PUSH2 0xFFFF DUP5 AND PUSH1 0x0 SWAP1 DUP2 MSTORE PUSH1 0x8 PUSH1 0x20 SWAP1 DUP2 MSTORE PUSH1 0x40 DUP1 DUP4 KECCAK256 DUP1 SLOAD PUSH32 0xFFFFFFFFFFFFFFFFFFFFFFFFFFFFFFFFFFFFFFFFFFFFFFFFFFFFFFFFFFFFFF00 AND PUSH1 0x1 OR SWAP1 SSTORE DUP1 MLOAD PUSH32 0xA9059CBB00000000000000000000000000000000000000000000000000000000 DUP2 MSTORE PUSH1 0x1 PUSH1 0x1 PUSH1 0xA0 SHL SUB DUP10 DUP2 AND PUSH1 0x4 DUP4 ADD MSTORE PUSH1 0x24 DUP3 ADD DUP7 SWAP1 MSTORE SWAP2 MLOAD PUSH32 0x0 SWAP3 SWAP1 SWAP3 AND SWAP4 PUSH4 0xA9059CBB SWAP4 PUSH1 0x44 DUP1 DUP5 ADD SWAP5 SWAP2 SWAP4 SWAP2 SWAP3 SWAP2 DUP4 SWAP1 SUB ADD SWAP1 DUP3 SWAP1 DUP8 DUP1 EXTCODESIZE ISZERO DUP1 ISZERO PUSH2 0x106F JUMPI PUSH1 0x0 DUP1 REVERT JUMPDEST POP GAS CALL ISZERO DUP1 ISZERO PUSH2 0x1083 JUMPI RETURNDATASIZE PUSH1 0x0 DUP1 RETURNDATACOPY RETURNDATASIZE PUSH1 0x0 REVERT JUMPDEST POP POP POP POP PUSH1 0x40 MLOAD RETURNDATASIZE PUSH1 0x20 DUP2 LT ISZERO PUSH2 0x1099 JUMPI PUSH1 0x0 DUP1 REVERT JUMPDEST POP POP POP POP POP POP POP JUMP JUMPDEST PUSH1 0x3 DUP2 DUP2 SLOAD DUP2 LT PUSH2 0x10AF JUMPI INVALID JUMPDEST PUSH1 0x0 SWAP2 DUP3 MSTORE PUSH1 0x20 SWAP1 SWAP2 KECCAK256 ADD SLOAD PUSH1 0x1 PUSH1 0x1 PUSH1 0x80 SHL SUB DUP1 DUP3 AND SWAP3 POP PUSH1 0x1 PUSH1 0x80 SHL SWAP1 SWAP2 DIV AND DUP3 JUMP JUMPDEST PUSH1 0x0 DUP1 SLOAD DUP2 SWAP1 DUP2 SWAP1 PUSH1 0x1 PUSH1 0xA0 SHL SWAP1 DIV PUSH1 0xFF AND PUSH2 0x1121 JUMPI PUSH1 0x40 MLOAD PUSH3 0x461BCD PUSH1 0xE5 SHL DUP2 MSTORE PUSH1 0x4 ADD DUP1 DUP1 PUSH1 0x20 ADD DUP3 DUP2 SUB DUP3 MSTORE PUSH1 0x23 DUP2 MSTORE PUSH1 0x20 ADD DUP1 PUSH2 0x4549 PUSH1 0x23 SWAP2 CODECOPY PUSH1 0x40 ADD SWAP2 POP POP PUSH1 0x40 MLOAD DUP1 SWAP2 SUB SWAP1 REVERT JUMPDEST PUSH1 0x2 SLOAD PUSH2 0x1175 JUMPI PUSH1 0x40 DUP1 MLOAD PUSH3 0x461BCD PUSH1 0xE5 SHL DUP2 MSTORE PUSH1 0x20 PUSH1 0x4 DUP3 ADD MSTORE PUSH1 0x1F PUSH1 0x24 DUP3 ADD MSTORE PUSH32 0x4E66745374616B696E673A207374616B696E67206E6F74207374617274656400 PUSH1 0x44 DUP3 ADD MSTORE SWAP1 MLOAD SWAP1 DUP2 SWAP1 SUB PUSH1 0x64 ADD SWAP1 REVERT JUMPDEST PUSH2 0x117D PUSH2 0x43CE JUMP JUMPDEST PUSH2 0x118E PUSH2 0x1188 PUSH2 0x29DA JUMP JUMPDEST DUP7 PUSH2 0x2AD9 JUMP JUMPDEST POP DUP1 MLOAD PUSH1 0x20 DUP3 ADD MLOAD PUSH1 0x40 SWAP1 SWAP3 ADD MLOAD SWAP1 SWAP8 SWAP2 SWAP7 POP SWAP5 POP SWAP3 POP POP POP JUMP JUMPDEST PUSH1 0x5 PUSH1 0x20 MSTORE PUSH1 0x0 SWAP1 DUP2 MSTORE PUSH1 0x40 SWAP1 KECCAK256 SLOAD PUSH2 0xFFFF DUP2 AND SWAP1 PUSH8 0xFFFFFFFFFFFFFFFF PUSH3 0x10000 DUP3 DIV DUP2 AND SWAP2 PUSH11 0x100000000000000000000 SWAP1 DIV AND DUP4 JUMP JUMPDEST PUSH2 0x11EA PUSH2 0x43EE JUMP JUMPDEST POP PUSH1 0x0 DUP2 DUP2 MSTORE PUSH1 0x6 PUSH1 0x20 SWAP1 DUP2 MSTORE PUSH1 0x40 SWAP2 DUP3 SWAP1 KECCAK256 DUP3 MLOAD PUSH1 0x80 DUP2 ADD DUP5 MSTORE SWAP1 SLOAD PUSH1 0x1 PUSH1 0x1 PUSH1 0xA0 SHL SUB DUP2 AND DUP3 MSTORE PUSH8 0xFFFFFFFFFFFFFFFF PUSH1 0x1 PUSH1 0xA0 SHL DUP3 DIV AND SWAP3 DUP3 ADD SWAP3 SWAP1 SWAP3 MSTORE PUSH2 0xFFFF PUSH1 0x1 PUSH1 0xE0 SHL DUP4 DIV DUP2 AND SWAP4 DUP3 ADD SWAP4 SWAP1 SWAP4 MSTORE PUSH1 0x1 PUSH1 0xF0 SHL SWAP1 SWAP2 DIV SWAP1 SWAP2 AND PUSH1 0x60 DUP3 ADD MSTORE PUSH2 0x1256 PUSH2 0x29DA JUMP JUMPDEST PUSH1 0x1 PUSH1 0x1 PUSH1 0xA0 SHL SUB AND DUP2 PUSH1 0x0 ADD MLOAD PUSH1 0x1 PUSH1 0x1 PUSH1 0xA0 SHL SUB AND EQ PUSH2 0x12BF JUMPI PUSH1 0x40 DUP1 MLOAD PUSH3 0x461BCD PUSH1 0xE5 SHL DUP2 MSTORE PUSH1 0x20 PUSH1 0x4 DUP3 ADD DUP2 SWAP1 MSTORE PUSH1 0x24 DUP3 ADD MSTORE PUSH32 0x4E66745374616B696E673A206E6F74207374616B656420666F72206F776E6572 PUSH1 0x44 DUP3 ADD MSTORE SWAP1 MLOAD SWAP1 DUP2 SWAP1 SUB PUSH1 0x64 ADD SWAP1 REVERT JUMPDEST PUSH1 0x0 PUSH2 0x12CA TIMESTAMP PUSH2 0x29DE JUMP JUMPDEST PUSH1 0x20 DUP4 ADD MLOAD PUSH1 0x0 SLOAD SWAP2 SWAP3 POP SWAP1 PUSH1 0x1 PUSH1 0xA0 SHL SWAP1 DIV PUSH1 0xFF AND ISZERO PUSH2 0x1454 JUMPI PUSH1 0x2 DUP4 PUSH1 0x40 ADD MLOAD DUP4 SUB PUSH2 0xFFFF AND LT ISZERO PUSH2 0x1345 JUMPI PUSH1 0x40 DUP1 MLOAD PUSH3 0x461BCD PUSH1 0xE5 SHL DUP2 MSTORE PUSH1 0x20 PUSH1 0x4 DUP3 ADD MSTORE PUSH1 0x1E PUSH1 0x24 DUP3 ADD MSTORE PUSH32 0x4E66745374616B696E673A20746F6B656E207374696C6C2066726F7A656E0000 PUSH1 0x44 DUP3 ADD MSTORE SWAP1 MLOAD SWAP1 DUP2 SWAP1 SUB PUSH1 0x64 ADD SWAP1 REVERT JUMPDEST PUSH2 0x1364 PUSH2 0x1350 PUSH2 0x29DA JUMP JUMPDEST DUP3 PUSH8 0xFFFFFFFFFFFFFFFF AND PUSH1 0x0 SUB DUP5 PUSH2 0x3074 JUMP JUMPDEST PUSH1 0x0 DUP1 DUP5 MSTORE PUSH2 0xFFFF DUP1 DUP5 AND PUSH1 0x60 DUP7 ADD SWAP1 DUP2 MSTORE DUP7 DUP4 MSTORE PUSH1 0x6 PUSH1 0x20 SWAP1 DUP2 MSTORE PUSH1 0x40 SWAP4 DUP5 SWAP1 KECCAK256 DUP8 MLOAD DUP2 SLOAD SWAP3 DUP10 ADD MLOAD SWAP6 DUP10 ADD MLOAD SWAP4 MLOAD DUP6 AND PUSH1 0x1 PUSH1 0xF0 SHL MUL PUSH30 0xFFFFFFFFFFFFFFFFFFFFFFFFFFFFFFFFFFFFFFFFFFFFFFFFFFFFFFFFFFFF SWAP5 SWAP1 SWAP6 AND PUSH1 0x1 PUSH1 0xE0 SHL MUL PUSH32 0xFFFF0000FFFFFFFFFFFFFFFFFFFFFFFFFFFFFFFFFFFFFFFFFFFFFFFFFFFFFFFF PUSH8 0xFFFFFFFFFFFFFFFF SWAP1 SWAP8 AND PUSH1 0x1 PUSH1 0xA0 SHL MUL PUSH32 0xFFFFFFFF0000000000000000FFFFFFFFFFFFFFFFFFFFFFFFFFFFFFFFFFFFFFFF PUSH1 0x1 PUSH1 0x1 PUSH1 0xA0 SHL SUB SWAP4 SWAP1 SWAP4 AND PUSH20 0xFFFFFFFFFFFFFFFFFFFFFFFFFFFFFFFFFFFFFFFF NOT SWAP1 SWAP6 AND SWAP5 SWAP1 SWAP5 OR SWAP2 SWAP1 SWAP2 AND SWAP3 SWAP1 SWAP3 OR SWAP5 SWAP1 SWAP5 AND OR AND OR SWAP1 SSTORE JUMPDEST PUSH2 0x14AC ADDRESS PUSH2 0x1460 PUSH2 0x29DA JUMP JUMPDEST PUSH1 0x40 DUP1 MLOAD PUSH1 0x20 DUP2 ADD SWAP1 SWAP2 MSTORE PUSH1 0x0 DUP2 MSTORE PUSH1 0x1 PUSH1 0x1 PUSH1 0xA0 SHL SUB PUSH32 0x0 AND SWAP3 SWAP2 SWAP1 DUP9 SWAP1 PUSH1 0x1 SWAP1 PUSH4 0xFFFFFFFF PUSH2 0x3173 AND JUMP JUMPDEST PUSH32 0xA809C38C1B1D8F31236741C657BA4D5B0C25CEFAB4C1CBC9A0CA5F96A774A15D PUSH2 0x14D5 PUSH2 0x29DA JUMP JUMPDEST PUSH1 0x40 DUP1 MLOAD PUSH1 0x1 PUSH1 0x1 PUSH1 0xA0 SHL SUB SWAP1 SWAP3 AND DUP3 MSTORE PUSH2 0xFFFF DUP6 AND PUSH1 0x20 DUP4 ADD MSTORE DUP2 DUP2 ADD DUP8 SWAP1 MSTORE PUSH8 0xFFFFFFFFFFFFFFFF DUP5 AND PUSH1 0x60 DUP4 ADD MSTORE MLOAD SWAP1 DUP2 SWAP1 SUB PUSH1 0x80 ADD SWAP1 LOG1 PUSH2 0x152B PUSH2 0x151B PUSH2 0x29DA JUMP JUMPDEST DUP3 PUSH8 0xFFFFFFFFFFFFFFFF AND PUSH2 0x3308 JUMP JUMPDEST POP POP POP POP JUMP JUMPDEST PUSH2 0x1539 PUSH2 0x29DA JUMP JUMPDEST PUSH1 0x0 SLOAD PUSH1 0x1 PUSH1 0x1 PUSH1 0xA0 SHL SUB SWAP1 DUP2 AND SWAP2 AND EQ PUSH2 0x159B JUMPI PUSH1 0x40 DUP1 MLOAD PUSH3 0x461BCD PUSH1 0xE5 SHL DUP2 MSTORE PUSH1 0x20 PUSH1 0x4 DUP3 ADD DUP2 SWAP1 MSTORE PUSH1 0x24 DUP3 ADD MSTORE PUSH32 0x4F776E61626C653A2063616C6C6572206973206E6F7420746865206F776E6572 PUSH1 0x44 DUP3 ADD MSTORE SWAP1 MLOAD SWAP1 DUP2 SWAP1 SUB PUSH1 0x64 ADD SWAP1 REVERT JUMPDEST PUSH1 0x0 DUP1 SLOAD PUSH1 0x40 MLOAD PUSH1 0x1 PUSH1 0x1 PUSH1 0xA0 SHL SUB SWAP1 SWAP2 AND SWAP1 PUSH32 0x8BE0079C531659141344CD1FD0A4F28419497F9722A3DAAFE3B4186F6B6457E0 SWAP1 DUP4 SWAP1 LOG3 PUSH1 0x0 DUP1 SLOAD PUSH20 0xFFFFFFFFFFFFFFFFFFFFFFFFFFFFFFFFFFFFFFFF NOT AND SWAP1 SSTORE JUMP JUMPDEST PUSH2 0x15FA PUSH2 0x29DA JUMP JUMPDEST PUSH1 0x0 SLOAD PUSH1 0x1 PUSH1 0x1 PUSH1 0xA0 SHL SUB SWAP1 DUP2 AND SWAP2 AND EQ PUSH2 0x165C JUMPI PUSH1 0x40 DUP1 MLOAD PUSH3 0x461BCD PUSH1 0xE5 SHL DUP2 MSTORE PUSH1 0x20 PUSH1 0x4 DUP3 ADD DUP2 SWAP1 MSTORE PUSH1 0x24 DUP3 ADD MSTORE PUSH32 0x4F776E61626C653A2063616C6C6572206973206E6F7420746865206F776E6572 PUSH1 0x44 DUP3 ADD MSTORE SWAP1 MLOAD SWAP1 DUP2 SWAP1 SUB PUSH1 0x64 ADD SWAP1 REVERT JUMPDEST PUSH1 0x0 SLOAD PUSH1 0x1 PUSH1 0xA0 SHL SWAP1 DIV PUSH1 0xFF AND ISZERO PUSH2 0x16BB JUMPI PUSH1 0x40 DUP1 MLOAD PUSH3 0x461BCD PUSH1 0xE5 SHL DUP2 MSTORE PUSH1 0x20 PUSH1 0x4 DUP3 ADD MSTORE PUSH1 0x1F PUSH1 0x24 DUP3 ADD MSTORE PUSH32 0x4E66745374616B696E673A20636F6E747261637420697320656E61626C656400 PUSH1 0x44 DUP3 ADD MSTORE SWAP1 MLOAD SWAP1 DUP2 SWAP1 SUB PUSH1 0x64 ADD SWAP1 REVERT JUMPDEST PUSH32 0x0 PUSH1 0x1 PUSH1 0x1 PUSH1 0xA0 SHL SUB AND PUSH4 0xA9059CBB PUSH2 0x16F2 PUSH2 0x29DA JUMP JUMPDEST DUP4 PUSH1 0x40 MLOAD DUP4 PUSH4 0xFFFFFFFF AND PUSH1 0xE0 SHL DUP2 MSTORE PUSH1 0x4 ADD DUP1 DUP4 PUSH1 0x1 PUSH1 0x1 PUSH1 0xA0 SHL SUB AND PUSH1 0x1 PUSH1 0x1 PUSH1 0xA0 SHL SUB AND DUP2 MSTORE PUSH1 0x20 ADD DUP3 DUP2 MSTORE PUSH1 0x20 ADD SWAP3 POP POP POP PUSH1 0x20 PUSH1 0x40 MLOAD DUP1 DUP4 SUB DUP2 PUSH1 0x0 DUP8 DUP1 EXTCODESIZE ISZERO DUP1 ISZERO PUSH2 0x1742 JUMPI PUSH1 0x0 DUP1 REVERT JUMPDEST POP GAS CALL ISZERO DUP1 ISZERO PUSH2 0x1756 JUMPI RETURNDATASIZE PUSH1 0x0 DUP1 RETURNDATACOPY RETURNDATASIZE PUSH1 0x0 REVERT JUMPDEST POP POP POP POP PUSH1 0x40 MLOAD RETURNDATASIZE PUSH1 0x20 DUP2 LT ISZERO PUSH2 0x176C JUMPI PUSH1 0x0 DUP1 REVERT JUMPDEST POP MLOAD PUSH2 0x17A9 JUMPI PUSH1 0x40 MLOAD PUSH3 0x461BCD PUSH1 0xE5 SHL DUP2 MSTORE PUSH1 0x4 ADD DUP1 DUP1 PUSH1 0x20 ADD DUP3 DUP2 SUB DUP3 MSTORE PUSH1 0x34 DUP2 MSTORE PUSH1 0x20 ADD DUP1 PUSH2 0x45E7 PUSH1 0x34 SWAP2 CODECOPY PUSH1 0x40 ADD SWAP2 POP POP PUSH1 0x40 MLOAD DUP1 SWAP2 SUB SWAP1 REVERT JUMPDEST POP JUMP JUMPDEST PUSH1 0x3 SLOAD PUSH1 0x0 SWAP1 DUP1 PUSH2 0x1804 JUMPI PUSH1 0x40 DUP1 MLOAD PUSH3 0x461BCD PUSH1 0xE5 SHL DUP2 MSTORE PUSH1 0x20 PUSH1 0x4 DUP3 ADD DUP2 SWAP1 MSTORE PUSH1 0x24 DUP3 ADD MSTORE PUSH32 0x4E66745374616B696E673A20656D70747920676C6F62616C20686973746F7279 PUSH1 0x44 DUP3 ADD MSTORE SWAP1 MLOAD SWAP1 DUP2 SWAP1 SUB PUSH1 0x64 ADD SWAP1 REVERT JUMPDEST PUSH1 0x0 NOT ADD SWAP1 POP SWAP1 JUMP JUMPDEST PUSH1 0x6 PUSH1 0x20 MSTORE PUSH1 0x0 SWAP1 DUP2 MSTORE PUSH1 0x40 SWAP1 KECCAK256 SLOAD PUSH1 0x1 PUSH1 0x1 PUSH1 0xA0 SHL SUB DUP2 AND SWAP1 PUSH8 0xFFFFFFFFFFFFFFFF PUSH1 0x1 PUSH1 0xA0 SHL DUP3 DIV AND SWAP1 PUSH2 0xFFFF PUSH1 0x1 PUSH1 0xE0 SHL DUP3 DIV DUP2 AND SWAP2 PUSH1 0x1 PUSH1 0xF0 SHL SWAP1 DIV AND DUP5 JUMP JUMPDEST DUP1 DUP1 PUSH2 0x18A4 JUMPI PUSH1 0x40 DUP1 MLOAD PUSH3 0x461BCD PUSH1 0xE5 SHL DUP2 MSTORE PUSH1 0x20 PUSH1 0x4 DUP3 ADD MSTORE PUSH1 0x15 PUSH1 0x24 DUP3 ADD MSTORE PUSH32 0x4E66745374616B696E673A206E6F20746F6B656E730000000000000000000000 PUSH1 0x44 DUP3 ADD MSTORE SWAP1 MLOAD SWAP1 DUP2 SWAP1 SUB PUSH1 0x64 ADD SWAP1 REVERT JUMPDEST PUSH1 0x0 PUSH2 0x18AF TIMESTAMP PUSH2 0x29DE JUMP JUMPDEST SWAP1 POP PUSH1 0x0 PUSH1 0x60 DUP4 PUSH8 0xFFFFFFFFFFFFFFFF DUP2 GT DUP1 ISZERO PUSH2 0x18CC JUMPI PUSH1 0x0 DUP1 REVERT JUMPDEST POP PUSH1 0x40 MLOAD SWAP1 DUP1 DUP3 MSTORE DUP1 PUSH1 0x20 MUL PUSH1 0x20 ADD DUP3 ADD PUSH1 0x40 MSTORE DUP1 ISZERO PUSH2 0x18F6 JUMPI DUP2 PUSH1 0x20 ADD PUSH1 0x20 DUP3 MUL DUP1 CALLDATASIZE DUP4 CALLDATACOPY ADD SWAP1 POP JUMPDEST POP SWAP1 POP PUSH1 0x60 DUP5 PUSH8 0xFFFFFFFFFFFFFFFF DUP2 GT DUP1 ISZERO PUSH2 0x1912 JUMPI PUSH1 0x0 DUP1 REVERT JUMPDEST POP PUSH1 0x40 MLOAD SWAP1 DUP1 DUP3 MSTORE DUP1 PUSH1 0x20 MUL PUSH1 0x20 ADD DUP3 ADD PUSH1 0x40 MSTORE DUP1 ISZERO PUSH2 0x193C JUMPI DUP2 PUSH1 0x20 ADD PUSH1 0x20 DUP3 MUL DUP1 CALLDATASIZE DUP4 CALLDATACOPY ADD SWAP1 POP JUMPDEST POP SWAP1 POP PUSH1 0x0 JUMPDEST DUP6 DUP2 LT ISZERO PUSH2 0x1B2E JUMPI PUSH1 0x0 DUP9 DUP9 DUP4 DUP2 DUP2 LT PUSH2 0x1958 JUMPI INVALID JUMPDEST SWAP1 POP PUSH1 0x20 MUL ADD CALLDATALOAD SWAP1 POP PUSH2 0x1969 PUSH2 0x43EE JUMP JUMPDEST POP PUSH1 0x0 DUP2 DUP2 MSTORE PUSH1 0x6 PUSH1 0x20 SWAP1 DUP2 MSTORE PUSH1 0x40 SWAP2 DUP3 SWAP1 KECCAK256 DUP3 MLOAD PUSH1 0x80 DUP2 ADD DUP5 MSTORE SWAP1 SLOAD PUSH1 0x1 PUSH1 0x1 PUSH1 0xA0 SHL SUB DUP2 AND DUP3 MSTORE PUSH8 0xFFFFFFFFFFFFFFFF PUSH1 0x1 PUSH1 0xA0 SHL DUP3 DIV AND SWAP3 DUP3 ADD SWAP3 SWAP1 SWAP3 MSTORE PUSH2 0xFFFF PUSH1 0x1 PUSH1 0xE0 SHL DUP4 DIV DUP2 AND SWAP4 DUP3 ADD SWAP4 SWAP1 SWAP4 MSTORE PUSH1 0x1 PUSH1 0xF0 SHL SWAP1 SWAP2 DIV SWAP1 SWAP2 AND PUSH1 0x60 DUP3 ADD MSTORE PUSH2 0x19D5 PUSH2 0x29DA JUMP JUMPDEST PUSH1 0x1 PUSH1 0x1 PUSH1 0xA0 SHL SUB AND DUP2 PUSH1 0x0 ADD MLOAD PUSH1 0x1 PUSH1 0x1 PUSH1 0xA0 SHL SUB AND EQ PUSH2 0x1A3E JUMPI PUSH1 0x40 DUP1 MLOAD PUSH3 0x461BCD PUSH1 0xE5 SHL DUP2 MSTORE PUSH1 0x20 PUSH1 0x4 DUP3 ADD DUP2 SWAP1 MSTORE PUSH1 0x24 DUP3 ADD MSTORE PUSH32 0x4E66745374616B696E673A206E6F74207374616B656420666F72206F776E6572 PUSH1 0x44 DUP3 ADD MSTORE SWAP1 MLOAD SWAP1 DUP2 SWAP1 SUB PUSH1 0x64 ADD SWAP1 REVERT JUMPDEST PUSH1 0x0 SLOAD PUSH1 0x1 PUSH1 0xA0 SHL SWAP1 DIV PUSH1 0xFF AND ISZERO PUSH2 0x1B0B JUMPI PUSH1 0x2 DUP2 PUSH1 0x40 ADD MLOAD DUP9 SUB PUSH2 0xFFFF AND LT ISZERO PUSH2 0x1AB0 JUMPI PUSH1 0x40 DUP1 MLOAD PUSH3 0x461BCD PUSH1 0xE5 SHL DUP2 MSTORE PUSH1 0x20 PUSH1 0x4 DUP3 ADD MSTORE PUSH1 0x1E PUSH1 0x24 DUP3 ADD MSTORE PUSH32 0x4E66745374616B696E673A20746F6B656E207374696C6C2066726F7A656E0000 PUSH1 0x44 DUP3 ADD MSTORE SWAP1 MLOAD SWAP1 DUP2 SWAP1 SUB PUSH1 0x64 ADD SWAP1 REVERT JUMPDEST PUSH1 0x0 DUP3 DUP2 MSTORE PUSH1 0x6 PUSH1 0x20 SWAP1 DUP2 MSTORE PUSH1 0x40 SWAP1 SWAP2 KECCAK256 DUP1 SLOAD PUSH20 0xFFFFFFFFFFFFFFFFFFFFFFFFFFFFFFFFFFFFFFFF NOT AND SWAP1 SSTORE DUP2 ADD MLOAD DUP5 MLOAD PUSH8 0xFFFFFFFFFFFFFFFF DUP3 AND SWAP8 DUP9 ADD SWAP8 SWAP1 DUP7 SWAP1 DUP7 SWAP1 DUP2 LT PUSH2 0x1AFD JUMPI INVALID JUMPDEST PUSH1 0x20 MUL PUSH1 0x20 ADD ADD DUP2 DUP2 MSTORE POP POP POP JUMPDEST PUSH1 0x1 DUP6 DUP5 DUP2 MLOAD DUP2 LT PUSH2 0x1B19 JUMPI INVALID JUMPDEST PUSH1 0x20 SWAP1 DUP2 MUL SWAP2 SWAP1 SWAP2 ADD ADD MSTORE POP POP PUSH1 0x1 ADD PUSH2 0x1942 JUMP JUMPDEST POP PUSH1 0x0 SLOAD PUSH1 0x1 PUSH1 0xA0 SHL SWAP1 DIV PUSH1 0xFF AND ISZERO PUSH2 0x1B56 JUMPI PUSH2 0x1B56 PUSH2 0x1B4C PUSH2 0x29DA JUMP JUMPDEST DUP5 PUSH1 0x0 SUB DUP7 PUSH2 0x3074 JUMP JUMPDEST PUSH2 0x1BDE ADDRESS PUSH2 0x1B62 PUSH2 0x29DA JUMP JUMPDEST DUP10 DUP10 DUP1 DUP1 PUSH1 0x20 MUL PUSH1 0x20 ADD PUSH1 0x40 MLOAD SWAP1 DUP2 ADD PUSH1 0x40 MSTORE DUP1 SWAP4 SWAP3 SWAP2 SWAP1 DUP2 DUP2 MSTORE PUSH1 0x20 ADD DUP4 DUP4 PUSH1 0x20 MUL DUP1 DUP3 DUP5 CALLDATACOPY PUSH1 0x0 SWAP3 ADD DUP3 SWAP1 MSTORE POP PUSH1 0x40 DUP1 MLOAD PUSH1 0x20 DUP2 ADD SWAP1 SWAP2 MSTORE SWAP1 DUP2 MSTORE PUSH1 0x1 PUSH1 0x1 PUSH1 0xA0 SHL SUB PUSH32 0x0 AND SWAP7 SWAP6 SWAP5 SWAP4 POP DUP10 SWAP3 POP SWAP1 POP PUSH4 0xFFFFFFFF PUSH2 0x3438 AND JUMP JUMPDEST PUSH32 0x87112173F73B8363460E41B79BBD57C05DEFFF3B13C51D3CC25BCFE57BBE2AAE PUSH2 0x1C07 PUSH2 0x29DA JUMP JUMPDEST DUP6 DUP10 DUP10 DUP6 PUSH1 0x40 MLOAD DUP1 DUP7 PUSH1 0x1 PUSH1 0x1 PUSH1 0xA0 SHL SUB AND PUSH1 0x1 PUSH1 0x1 PUSH1 0xA0 SHL SUB AND DUP2 MSTORE PUSH1 0x20 ADD DUP6 PUSH2 0xFFFF AND DUP2 MSTORE PUSH1 0x20 ADD DUP1 PUSH1 0x20 ADD DUP1 PUSH1 0x20 ADD DUP4 DUP2 SUB DUP4 MSTORE DUP7 DUP7 DUP3 DUP2 DUP2 MSTORE PUSH1 0x20 ADD SWAP3 POP PUSH1 0x20 MUL DUP1 DUP3 DUP5 CALLDATACOPY PUSH1 0x0 DUP4 DUP3 ADD DUP2 SWAP1 MSTORE PUSH1 0x1F SWAP1 SWAP2 ADD PUSH32 0xFFFFFFFFFFFFFFFFFFFFFFFFFFFFFFFFFFFFFFFFFFFFFFFFFFFFFFFFFFFFFFE0 AND SWAP1 SWAP3 ADD DUP6 DUP2 SUB DUP5 MSTORE DUP7 MLOAD DUP2 MSTORE DUP7 MLOAD PUSH1 0x20 SWAP2 DUP3 ADD SWAP4 DUP3 DUP10 ADD SWAP4 POP SWAP2 MUL SWAP1 DUP2 SWAP1 DUP5 SWAP1 DUP5 SWAP1 JUMPDEST DUP4 DUP2 LT ISZERO PUSH2 0x1CBA JUMPI DUP2 DUP2 ADD MLOAD DUP4 DUP3 ADD MSTORE PUSH1 0x20 ADD PUSH2 0x1CA2 JUMP JUMPDEST POP POP POP POP SWAP1 POP ADD SWAP8 POP POP POP POP POP POP POP POP PUSH1 0x40 MLOAD DUP1 SWAP2 SUB SWAP1 LOG1 PUSH2 0x1099 PUSH2 0x1CDD PUSH2 0x29DA JUMP JUMPDEST DUP5 PUSH1 0xF SIGNEXTEND PUSH2 0x3308 JUMP JUMPDEST PUSH1 0x0 SLOAD PUSH1 0x1 PUSH1 0x1 PUSH1 0xA0 SHL SUB AND SWAP1 JUMP JUMPDEST PUSH32 0x0 DUP2 JUMP JUMPDEST PUSH32 0x0 DUP2 JUMP JUMPDEST PUSH1 0x0 SLOAD PUSH1 0x1 PUSH1 0xA0 SHL SWAP1 DIV PUSH1 0xFF AND PUSH2 0x1D85 JUMPI PUSH1 0x40 MLOAD PUSH3 0x461BCD PUSH1 0xE5 SHL DUP2 MSTORE PUSH1 0x4 ADD DUP1 DUP1 PUSH1 0x20 ADD DUP3 DUP2 SUB DUP3 MSTORE PUSH1 0x23 DUP2 MSTORE PUSH1 0x20 ADD DUP1 PUSH2 0x4549 PUSH1 0x23 SWAP2 CODECOPY PUSH1 0x40 ADD SWAP2 POP POP PUSH1 0x40 MLOAD DUP1 SWAP2 SUB SWAP1 REVERT JUMPDEST PUSH1 0x2 SLOAD PUSH2 0x1DD9 JUMPI PUSH1 0x40 DUP1 MLOAD PUSH3 0x461BCD PUSH1 0xE5 SHL DUP2 MSTORE PUSH1 0x20 PUSH1 0x4 DUP3 ADD MSTORE PUSH1 0x1F PUSH1 0x24 DUP3 ADD MSTORE PUSH32 0x4E66745374616B696E673A207374616B696E67206E6F74207374617274656400 PUSH1 0x44 DUP3 ADD MSTORE SWAP1 MLOAD SWAP1 DUP2 SWAP1 SUB PUSH1 0x64 ADD SWAP1 REVERT JUMPDEST PUSH2 0x1DE1 PUSH2 0x43CE JUMP JUMPDEST PUSH1 0x5 PUSH1 0x0 PUSH2 0x1DED PUSH2 0x29DA JUMP JUMPDEST PUSH1 0x1 PUSH1 0x1 PUSH1 0xA0 SHL SUB AND DUP2 MSTORE PUSH1 0x20 DUP1 DUP3 ADD SWAP3 SWAP1 SWAP3 MSTORE PUSH1 0x40 SWAP1 DUP2 ADD PUSH1 0x0 KECCAK256 DUP2 MLOAD PUSH1 0x60 DUP2 ADD DUP4 MSTORE SWAP1 SLOAD PUSH2 0xFFFF DUP2 AND DUP1 DUP4 MSTORE PUSH8 0xFFFFFFFFFFFFFFFF PUSH3 0x10000 DUP4 DIV DUP2 AND SWAP6 DUP5 ADD SWAP6 SWAP1 SWAP6 MSTORE PUSH11 0x100000000000000000000 SWAP1 SWAP2 DIV SWAP1 SWAP4 AND SWAP2 DUP2 ADD SWAP2 SWAP1 SWAP2 MSTORE SWAP2 POP PUSH2 0x1E58 JUMPI POP PUSH2 0x17A9 JUMP JUMPDEST PUSH2 0x1E60 PUSH2 0x43CE JUMP JUMPDEST PUSH2 0x1E68 PUSH2 0x43CE JUMP JUMPDEST PUSH2 0x1E79 PUSH2 0x1E73 PUSH2 0x29DA JUMP JUMPDEST DUP6 PUSH2 0x2AD9 JUMP JUMPDEST SWAP2 POP SWAP2 POP PUSH1 0x0 PUSH1 0x4 PUSH1 0x0 PUSH2 0x1E8B PUSH2 0x29DA JUMP JUMPDEST PUSH1 0x1 PUSH1 0x1 PUSH1 0xA0 SHL SUB AND PUSH1 0x1 PUSH1 0x1 PUSH1 0xA0 SHL SUB AND DUP2 MSTORE PUSH1 0x20 ADD SWAP1 DUP2 MSTORE PUSH1 0x20 ADD PUSH1 0x0 KECCAK256 SWAP1 POP JUMPDEST DUP2 PUSH1 0x40 ADD MLOAD PUSH8 0xFFFFFFFFFFFFFFFF AND DUP5 PUSH1 0x40 ADD MLOAD PUSH8 0xFFFFFFFFFFFFFFFF AND LT ISZERO PUSH2 0x1F1A JUMPI DUP1 DUP5 PUSH1 0x40 ADD DUP1 MLOAD DUP1 SWAP2 SWAP1 PUSH1 0x1 ADD PUSH8 0xFFFFFFFFFFFFFFFF AND PUSH8 0xFFFFFFFFFFFFFFFF AND DUP2 MSTORE POP PUSH8 0xFFFFFFFFFFFFFFFF AND DUP2 SLOAD DUP2 LT PUSH2 0x1F0A JUMPI INVALID JUMPDEST PUSH1 0x0 SWAP2 DUP3 MSTORE PUSH1 0x20 DUP3 KECCAK256 ADD SSTORE PUSH2 0x1EAE JUMP JUMPDEST PUSH1 0x20 DUP4 ADD MLOAD PUSH2 0xFFFF AND PUSH2 0x1F30 JUMPI POP POP POP POP PUSH2 0x17A9 JUMP JUMPDEST PUSH2 0x1F38 PUSH2 0x43B7 JUMP JUMPDEST DUP2 SLOAD DUP3 SWAP1 PUSH1 0x0 NOT DUP2 ADD SWAP1 DUP2 LT PUSH2 0x1F4A JUMPI INVALID JUMPDEST PUSH1 0x0 SWAP2 DUP3 MSTORE PUSH1 0x20 SWAP2 DUP3 SWAP1 KECCAK256 PUSH1 0x40 DUP1 MLOAD DUP1 DUP3 ADD SWAP1 SWAP2 MSTORE SWAP2 ADD SLOAD PUSH1 0x1 PUSH1 0x1 PUSH1 0x80 SHL SUB DUP1 DUP3 AND DUP4 MSTORE PUSH1 0x1 PUSH1 0x80 SHL SWAP1 SWAP2 DIV AND DUP2 DUP4 ADD DUP2 SWAP1 MSTORE SWAP2 DUP7 ADD MLOAD DUP7 MLOAD SWAP2 SWAP4 POP PUSH32 0x0 SWAP2 ADD PUSH1 0x0 NOT ADD MUL PUSH2 0xFFFF AND SWAP1 DUP2 LT DUP1 ISZERO SWAP1 PUSH2 0x1FCB JUMPI POP DUP2 MLOAD PUSH1 0x1 PUSH1 0x1 PUSH1 0x80 SHL SUB AND ISZERO JUMPDEST ISZERO PUSH2 0x2020 JUMPI PUSH1 0x5 PUSH1 0x0 PUSH2 0x1FDC PUSH2 0x29DA JUMP JUMPDEST PUSH1 0x1 PUSH1 0x1 PUSH1 0xA0 SHL SUB AND DUP2 MSTORE PUSH1 0x20 DUP2 ADD SWAP2 SWAP1 SWAP2 MSTORE PUSH1 0x40 ADD PUSH1 0x0 KECCAK256 DUP1 SLOAD PUSH32 0xFFFFFFFFFFFFFFFFFFFFFFFFFFFF000000000000000000000000000000000000 AND SWAP1 SSTORE PUSH2 0x20B3 JUMP JUMPDEST DUP4 PUSH1 0x5 PUSH1 0x0 PUSH2 0x202D PUSH2 0x29DA JUMP JUMPDEST PUSH1 0x1 PUSH1 0x1 PUSH1 0xA0 SHL SUB AND DUP2 MSTORE PUSH1 0x20 DUP1 DUP3 ADD SWAP3 SWAP1 SWAP3 MSTORE PUSH1 0x40 SWAP1 DUP2 ADD PUSH1 0x0 KECCAK256 DUP4 MLOAD DUP2 SLOAD SWAP4 DUP6 ADD MLOAD SWAP5 SWAP1 SWAP3 ADD MLOAD PUSH2 0xFFFF NOT SWAP1 SWAP4 AND PUSH2 0xFFFF SWAP1 SWAP3 AND SWAP2 SWAP1 SWAP2 OR PUSH10 0xFFFFFFFFFFFFFFFF0000 NOT AND PUSH3 0x10000 PUSH8 0xFFFFFFFFFFFFFFFF SWAP5 DUP6 AND MUL OR PUSH18 0xFFFFFFFFFFFFFFFF00000000000000000000 NOT AND PUSH11 0x100000000000000000000 SWAP4 SWAP1 SWAP3 AND SWAP3 SWAP1 SWAP3 MUL OR SWAP1 SSTORE JUMPDEST PUSH1 0x40 DUP6 ADD MLOAD ISZERO PUSH2 0x21AF JUMPI PUSH32 0x0 PUSH1 0x1 PUSH1 0x1 PUSH1 0xA0 SHL SUB AND PUSH4 0xA9059CBB PUSH2 0x20F4 PUSH2 0x29DA JUMP JUMPDEST DUP8 PUSH1 0x40 ADD MLOAD PUSH1 0x40 MLOAD DUP4 PUSH4 0xFFFFFFFF AND PUSH1 0xE0 SHL DUP2 MSTORE PUSH1 0x4 ADD DUP1 DUP4 PUSH1 0x1 PUSH1 0x1 PUSH1 0xA0 SHL SUB AND PUSH1 0x1 PUSH1 0x1 PUSH1 0xA0 SHL SUB AND DUP2 MSTORE PUSH1 0x20 ADD DUP3 DUP2 MSTORE PUSH1 0x20 ADD SWAP3 POP POP POP PUSH1 0x20 PUSH1 0x40 MLOAD DUP1 DUP4 SUB DUP2 PUSH1 0x0 DUP8 DUP1 EXTCODESIZE ISZERO DUP1 ISZERO PUSH2 0x2148 JUMPI PUSH1 0x0 DUP1 REVERT JUMPDEST POP GAS CALL ISZERO DUP1 ISZERO PUSH2 0x215C JUMPI RETURNDATASIZE PUSH1 0x0 DUP1 RETURNDATACOPY RETURNDATASIZE PUSH1 0x0 REVERT JUMPDEST POP POP POP POP PUSH1 0x40 MLOAD RETURNDATASIZE PUSH1 0x20 DUP2 LT ISZERO PUSH2 0x2172 JUMPI PUSH1 0x0 DUP1 REVERT JUMPDEST POP MLOAD PUSH2 0x21AF JUMPI PUSH1 0x40 MLOAD PUSH3 0x461BCD PUSH1 0xE5 SHL DUP2 MSTORE PUSH1 0x4 ADD DUP1 DUP1 PUSH1 0x20 ADD DUP3 DUP2 SUB DUP3 MSTORE PUSH1 0x26 DUP2 MSTORE PUSH1 0x20 ADD DUP1 PUSH2 0x45C1 PUSH1 0x26 SWAP2 CODECOPY PUSH1 0x40 ADD SWAP2 POP POP PUSH1 0x40 MLOAD DUP1 SWAP2 SUB SWAP1 REVERT JUMPDEST PUSH32 0x5619B8583BBBB0760D27AC9FF844CEC866B333BF7AD0262C2D809FF42F22E5FC PUSH2 0x21D8 PUSH2 0x29DA JUMP JUMPDEST PUSH2 0x21E1 TIMESTAMP PUSH2 0x29DE JUMP JUMPDEST DUP8 MLOAD PUSH1 0x20 DUP1 DUP11 ADD MLOAD PUSH1 0x40 DUP1 DUP13 ADD MLOAD DUP2 MLOAD PUSH1 0x1 PUSH1 0x1 PUSH1 0xA0 SHL SUB SWAP1 SWAP8 AND DUP8 MSTORE PUSH2 0xFFFF SWAP6 DUP7 AND SWAP4 DUP8 ADD SWAP4 SWAP1 SWAP4 MSTORE SWAP3 DUP5 AND DUP6 DUP5 ADD MSTORE SWAP3 SWAP1 SWAP3 AND PUSH1 0x60 DUP5 ADD MSTORE PUSH1 0x80 DUP4 ADD SWAP2 SWAP1 SWAP2 MSTORE MLOAD SWAP1 DUP2 SWAP1 SUB PUSH1 0xA0 ADD SWAP1 LOG1 POP POP POP POP POP POP POP JUMP JUMPDEST PUSH1 0x0 PUSH2 0x2240 PUSH2 0x29DA JUMP JUMPDEST PUSH1 0x1 PUSH1 0x1 PUSH1 0xA0 SHL SUB AND PUSH32 0x0 PUSH1 0x1 PUSH1 0x1 PUSH1 0xA0 SHL SUB AND EQ PUSH2 0x22AF JUMPI PUSH1 0x40 MLOAD PUSH3 0x461BCD PUSH1 0xE5 SHL DUP2 MSTORE PUSH1 0x4 ADD DUP1 DUP1 PUSH1 0x20 ADD DUP3 DUP2 SUB DUP3 MSTORE PUSH1 0x24 DUP2 MSTORE PUSH1 0x20 ADD DUP1 PUSH2 0x44AA PUSH1 0x24 SWAP2 CODECOPY PUSH1 0x40 ADD SWAP2 POP POP PUSH1 0x40 MLOAD DUP1 SWAP2 SUB SWAP1 REVERT JUMPDEST PUSH2 0x22ED DUP8 DUP8 DUP1 DUP1 PUSH1 0x20 MUL PUSH1 0x20 ADD PUSH1 0x40 MLOAD SWAP1 DUP2 ADD PUSH1 0x40 MSTORE DUP1 SWAP4 SWAP3 SWAP2 SWAP1 DUP2 DUP2 MSTORE PUSH1 0x20 ADD DUP4 DUP4 PUSH1 0x20 MUL DUP1 DUP3 DUP5 CALLDATACOPY PUSH1 0x0 SWAP3 ADD SWAP2 SWAP1 SWAP2 MSTORE POP DUP13 SWAP3 POP PUSH2 0x3679 SWAP2 POP POP JUMP JUMPDEST POP PUSH32 0xBC197C8100000000000000000000000000000000000000000000000000000000 SWAP9 SWAP8 POP POP POP POP POP POP POP POP JUMP JUMPDEST PUSH1 0x0 PUSH2 0x9A8 TIMESTAMP PUSH2 0x29DE JUMP JUMPDEST PUSH2 0x232E PUSH2 0x29DA JUMP JUMPDEST PUSH1 0x0 SLOAD PUSH1 0x1 PUSH1 0x1 PUSH1 0xA0 SHL SUB SWAP1 DUP2 AND SWAP2 AND EQ PUSH2 0x2390 JUMPI PUSH1 0x40 DUP1 MLOAD PUSH3 0x461BCD PUSH1 0xE5 SHL DUP2 MSTORE PUSH1 0x20 PUSH1 0x4 DUP3 ADD DUP2 SWAP1 MSTORE PUSH1 0x24 DUP3 ADD MSTORE PUSH32 0x4F776E61626C653A2063616C6C6572206973206E6F7420746865206F776E6572 PUSH1 0x44 DUP3 ADD MSTORE SWAP1 MLOAD SWAP1 DUP2 SWAP1 SUB PUSH1 0x64 ADD SWAP1 REVERT JUMPDEST PUSH1 0x2 SLOAD ISZERO PUSH2 0x23E5 JUMPI PUSH1 0x40 DUP1 MLOAD PUSH3 0x461BCD PUSH1 0xE5 SHL DUP2 MSTORE PUSH1 0x20 PUSH1 0x4 DUP3 ADD MSTORE PUSH1 0x1F PUSH1 0x24 DUP3 ADD MSTORE PUSH32 0x4E66745374616B696E673A207374616B696E6720686173207374617274656400 PUSH1 0x44 DUP3 ADD MSTORE SWAP1 MLOAD SWAP1 DUP2 SWAP1 SUB PUSH1 0x64 ADD SWAP1 REVERT JUMPDEST TIMESTAMP PUSH1 0x2 SSTORE PUSH1 0x40 MLOAD PUSH32 0xD8CEA0ECD56872FF072E771658B5682FFE4DE16D752947F79597D600EA56F7A9 SWAP1 PUSH1 0x0 SWAP1 LOG1 JUMP JUMPDEST PUSH1 0x1 PUSH1 0x1 PUSH1 0xA0 SHL SUB DUP2 AND PUSH1 0x0 SWAP1 DUP2 MSTORE PUSH1 0x4 PUSH1 0x20 MSTORE PUSH1 0x40 DUP2 KECCAK256 SLOAD DUP1 PUSH2 0x247F JUMPI PUSH1 0x40 DUP1 MLOAD PUSH3 0x461BCD PUSH1 0xE5 SHL DUP2 MSTORE PUSH1 0x20 PUSH1 0x4 DUP3 ADD DUP2 SWAP1 MSTORE PUSH1 0x24 DUP3 ADD MSTORE PUSH32 0x4E66745374616B696E673A20656D707479207374616B657220686973746F7279 PUSH1 0x44 DUP3 ADD MSTORE SWAP1 MLOAD SWAP1 DUP2 SWAP1 SUB PUSH1 0x64 ADD SWAP1 REVERT JUMPDEST PUSH1 0x0 NOT ADD SWAP3 SWAP2 POP POP JUMP JUMPDEST PUSH1 0x8 PUSH1 0x20 MSTORE PUSH1 0x0 SWAP1 DUP2 MSTORE PUSH1 0x40 SWAP1 KECCAK256 SLOAD PUSH1 0xFF AND DUP2 JUMP JUMPDEST PUSH1 0x2 SLOAD DUP2 JUMP JUMPDEST PUSH1 0x0 PUSH2 0x24AE PUSH2 0x29DA JUMP JUMPDEST PUSH1 0x1 PUSH1 0x1 PUSH1 0xA0 SHL SUB AND PUSH32 0x0 PUSH1 0x1 PUSH1 0x1 PUSH1 0xA0 SHL SUB AND EQ PUSH2 0x251D JUMPI PUSH1 0x40 MLOAD PUSH3 0x461BCD PUSH1 0xE5 SHL DUP2 MSTORE PUSH1 0x4 ADD DUP1 DUP1 PUSH1 0x20 ADD DUP3 DUP2 SUB DUP3 MSTORE PUSH1 0x24 DUP2 MSTORE PUSH1 0x20 ADD DUP1 PUSH2 0x44AA PUSH1 0x24 SWAP2 CODECOPY PUSH1 0x40 ADD SWAP2 POP POP PUSH1 0x40 MLOAD DUP1 SWAP2 SUB SWAP1 REVERT JUMPDEST PUSH2 0x2527 DUP6 DUP8 PUSH2 0x3B88 JUMP JUMPDEST POP PUSH32 0xF23A6E6100000000000000000000000000000000000000000000000000000000 SWAP7 SWAP6 POP POP POP POP POP POP JUMP JUMPDEST PUSH2 0x255B PUSH2 0x29DA JUMP JUMPDEST PUSH1 0x0 SLOAD PUSH1 0x1 PUSH1 0x1 PUSH1 0xA0 SHL SUB SWAP1 DUP2 AND SWAP2 AND EQ PUSH2 0x25BD JUMPI PUSH1 0x40 DUP1 MLOAD PUSH3 0x461BCD PUSH1 0xE5 SHL DUP2 MSTORE PUSH1 0x20 PUSH1 0x4 DUP3 ADD DUP2 SWAP1 MSTORE PUSH1 0x24 DUP3 ADD MSTORE PUSH32 0x4F776E61626C653A2063616C6C6572206973206E6F7420746865206F776E6572 PUSH1 0x44 DUP3 ADD MSTORE SWAP1 MLOAD SWAP1 DUP2 SWAP1 SUB PUSH1 0x64 ADD SWAP1 REVERT JUMPDEST PUSH1 0x1 PUSH1 0x1 PUSH1 0xA0 SHL SUB DUP2 AND PUSH2 0x2602 JUMPI PUSH1 0x40 MLOAD PUSH3 0x461BCD PUSH1 0xE5 SHL DUP2 MSTORE PUSH1 0x4 ADD DUP1 DUP1 PUSH1 0x20 ADD DUP3 DUP2 SUB DUP3 MSTORE PUSH1 0x26 DUP2 MSTORE PUSH1 0x20 ADD DUP1 PUSH2 0x443C PUSH1 0x26 SWAP2 CODECOPY PUSH1 0x40 ADD SWAP2 POP POP PUSH1 0x40 MLOAD DUP1 SWAP2 SUB SWAP1 REVERT JUMPDEST PUSH1 0x0 DUP1 SLOAD PUSH1 0x40 MLOAD PUSH1 0x1 PUSH1 0x1 PUSH1 0xA0 SHL SUB DUP1 DUP6 AND SWAP4 SWAP3 AND SWAP2 PUSH32 0x8BE0079C531659141344CD1FD0A4F28419497F9722A3DAAFE3B4186F6B6457E0 SWAP2 LOG3 PUSH1 0x0 DUP1 SLOAD PUSH20 0xFFFFFFFFFFFFFFFFFFFFFFFFFFFFFFFFFFFFFFFF NOT AND PUSH1 0x1 PUSH1 0x1 PUSH1 0xA0 SHL SUB SWAP3 SWAP1 SWAP3 AND SWAP2 SWAP1 SWAP2 OR SWAP1 SSTORE JUMP JUMPDEST PUSH32 0x0 DUP2 JUMP JUMPDEST PUSH2 0x2696 PUSH2 0x29DA JUMP JUMPDEST PUSH1 0x0 SLOAD PUSH1 0x1 PUSH1 0x1 PUSH1 0xA0 SHL SUB SWAP1 DUP2 AND SWAP2 AND EQ PUSH2 0x26F8 JUMPI PUSH1 0x40 DUP1 MLOAD PUSH3 0x461BCD PUSH1 0xE5 SHL DUP2 MSTORE PUSH1 0x20 PUSH1 0x4 DUP3 ADD DUP2 SWAP1 MSTORE PUSH1 0x24 DUP3 ADD MSTORE PUSH32 0x4F776E61626C653A2063616C6C6572206973206E6F7420746865206F776E6572 PUSH1 0x44 DUP3 ADD MSTORE SWAP1 MLOAD SWAP1 DUP2 SWAP1 SUB PUSH1 0x64 ADD SWAP1 REVERT JUMPDEST PUSH2 0xFFFF DUP4 AND ISZERO DUP1 ISZERO SWAP1 PUSH2 0x2713 JUMPI POP DUP2 PUSH2 0xFFFF AND DUP4 PUSH2 0xFFFF AND GT ISZERO JUMPDEST PUSH2 0x2764 JUMPI PUSH1 0x40 DUP1 MLOAD PUSH3 0x461BCD PUSH1 0xE5 SHL DUP2 MSTORE PUSH1 0x20 PUSH1 0x4 DUP3 ADD MSTORE PUSH1 0x1E PUSH1 0x24 DUP3 ADD MSTORE PUSH32 0x4E66745374616B696E673A2077726F6E6720706572696F642072616E67650000 PUSH1 0x44 DUP3 ADD MSTORE SWAP1 MLOAD SWAP1 DUP2 SWAP1 SUB PUSH1 0x64 ADD SWAP1 REVERT JUMPDEST PUSH1 0x2 SLOAD PUSH32 0x0 SWAP1 ISZERO PUSH2 0x27DD JUMPI PUSH2 0x2797 DUP2 PUSH2 0x29C6 JUMP JUMPDEST PUSH2 0xFFFF AND DUP5 PUSH2 0xFFFF AND LT ISZERO PUSH2 0x27DD JUMPI PUSH1 0x40 MLOAD PUSH3 0x461BCD PUSH1 0xE5 SHL DUP2 MSTORE PUSH1 0x4 ADD DUP1 DUP1 PUSH1 0x20 ADD DUP3 DUP2 SUB DUP3 MSTORE PUSH1 0x2D DUP2 MSTORE PUSH1 0x20 ADD DUP1 PUSH2 0x451C PUSH1 0x2D SWAP2 CODECOPY PUSH1 0x40 ADD SWAP2 POP POP PUSH1 0x40 MLOAD DUP1 SWAP2 SUB SWAP1 REVERT JUMPDEST PUSH2 0xFFFF DUP5 AND JUMPDEST DUP4 PUSH2 0xFFFF AND DUP2 GT PUSH2 0x2824 JUMPI PUSH1 0x0 DUP2 DUP2 MSTORE PUSH1 0x7 PUSH1 0x20 MSTORE PUSH1 0x40 SWAP1 KECCAK256 SLOAD PUSH2 0x280D SWAP1 DUP5 PUSH4 0xFFFFFFFF PUSH2 0x3F1F AND JUMP JUMPDEST PUSH1 0x0 DUP3 DUP2 MSTORE PUSH1 0x7 PUSH1 0x20 MSTORE PUSH1 0x40 SWAP1 KECCAK256 SSTORE PUSH1 0x1 ADD PUSH2 0x27E3 JUMP JUMPDEST POP PUSH1 0x0 PUSH2 0x2857 DUP6 DUP6 SUB PUSH1 0x1 ADD PUSH2 0xFFFF AND PUSH2 0x284B DUP5 PUSH2 0xFFFF AND DUP7 PUSH2 0x3F80 SWAP1 SWAP2 SWAP1 PUSH4 0xFFFFFFFF AND JUMP JUMPDEST SWAP1 PUSH4 0xFFFFFFFF PUSH2 0x3F80 AND JUMP JUMPDEST PUSH1 0x1 SLOAD SWAP1 SWAP2 POP PUSH2 0x286D SWAP1 DUP3 PUSH4 0xFFFFFFFF PUSH2 0x3F1F AND JUMP JUMPDEST PUSH1 0x1 SSTORE PUSH1 0x1 PUSH1 0x1 PUSH1 0xA0 SHL SUB PUSH32 0x0 AND PUSH4 0x23B872DD PUSH2 0x28A7 PUSH2 0x29DA JUMP JUMPDEST PUSH1 0x40 DUP1 MLOAD PUSH32 0xFFFFFFFF00000000000000000000000000000000000000000000000000000000 PUSH1 0xE0 DUP6 SWAP1 SHL AND DUP2 MSTORE PUSH1 0x1 PUSH1 0x1 PUSH1 0xA0 SHL SUB SWAP1 SWAP3 AND PUSH1 0x4 DUP4 ADD MSTORE ADDRESS PUSH1 0x24 DUP4 ADD MSTORE PUSH1 0x44 DUP3 ADD DUP6 SWAP1 MSTORE MLOAD PUSH1 0x64 DUP1 DUP4 ADD SWAP3 PUSH1 0x20 SWAP3 SWAP2 SWAP1 DUP3 SWAP1 SUB ADD DUP2 PUSH1 0x0 DUP8 DUP1 EXTCODESIZE ISZERO DUP1 ISZERO PUSH2 0x2913 JUMPI PUSH1 0x0 DUP1 REVERT JUMPDEST POP GAS CALL ISZERO DUP1 ISZERO PUSH2 0x2927 JUMPI RETURNDATASIZE PUSH1 0x0 DUP1 RETURNDATACOPY RETURNDATASIZE PUSH1 0x0 REVERT JUMPDEST POP POP POP POP PUSH1 0x40 MLOAD RETURNDATASIZE PUSH1 0x20 DUP2 LT ISZERO PUSH2 0x293D JUMPI PUSH1 0x0 DUP1 REVERT JUMPDEST POP MLOAD PUSH2 0x297A JUMPI PUSH1 0x40 MLOAD PUSH3 0x461BCD PUSH1 0xE5 SHL DUP2 MSTORE PUSH1 0x4 ADD DUP1 DUP1 PUSH1 0x20 ADD DUP3 DUP2 SUB DUP3 MSTORE PUSH1 0x32 DUP2 MSTORE PUSH1 0x20 ADD DUP1 PUSH2 0x456C PUSH1 0x32 SWAP2 CODECOPY PUSH1 0x40 ADD SWAP2 POP POP PUSH1 0x40 MLOAD DUP1 SWAP2 SUB SWAP1 REVERT JUMPDEST PUSH1 0x40 DUP1 MLOAD PUSH2 0xFFFF DUP1 DUP9 AND DUP3 MSTORE DUP7 AND PUSH1 0x20 DUP3 ADD MSTORE DUP1 DUP3 ADD DUP6 SWAP1 MSTORE SWAP1 MLOAD PUSH32 0xBFF8D5CED955E6F69A19ECC71D313996F6DDFED652CDB458859AF89E2F076835 SWAP2 DUP2 SWAP1 SUB PUSH1 0x60 ADD SWAP1 LOG1 POP POP POP POP POP JUMP JUMPDEST PUSH1 0x0 PUSH2 0x935 PUSH2 0x29D4 TIMESTAMP PUSH2 0x29DE JUMP JUMPDEST DUP4 PUSH2 0x2A60 JUMP JUMPDEST CALLER SWAP1 JUMP JUMPDEST PUSH1 0x0 PUSH1 0x2 SLOAD DUP3 LT ISZERO PUSH2 0x2A21 JUMPI PUSH1 0x40 MLOAD PUSH3 0x461BCD PUSH1 0xE5 SHL DUP2 MSTORE PUSH1 0x4 ADD DUP1 DUP1 PUSH1 0x20 ADD DUP3 DUP2 SUB DUP3 MSTORE PUSH1 0x2D DUP2 MSTORE PUSH1 0x20 ADD DUP1 PUSH2 0x44EF PUSH1 0x2D SWAP2 CODECOPY PUSH1 0x40 ADD SWAP2 POP POP PUSH1 0x40 MLOAD DUP1 SWAP2 SUB SWAP1 REVERT JUMPDEST PUSH2 0x935 PUSH32 0x0 PUSH4 0xFFFFFFFF AND PUSH1 0x2 SLOAD DUP5 SUB DUP2 PUSH2 0x2A57 JUMPI INVALID JUMPDEST DIV PUSH1 0x1 ADD PUSH2 0x3FD9 JUMP JUMPDEST PUSH1 0x0 PUSH2 0xFFFF DUP4 AND PUSH2 0x2AB8 JUMPI PUSH1 0x40 DUP1 MLOAD PUSH3 0x461BCD PUSH1 0xE5 SHL DUP2 MSTORE PUSH1 0x20 PUSH1 0x4 DUP3 ADD DUP2 SWAP1 MSTORE PUSH1 0x24 DUP3 ADD MSTORE PUSH32 0x4E66745374616B696E673A206379636C652063616E6E6F74206265207A65726F PUSH1 0x44 DUP3 ADD MSTORE SWAP1 MLOAD SWAP1 DUP2 SWAP1 SUB PUSH1 0x64 ADD SWAP1 REVERT JUMPDEST DUP2 PUSH2 0xFFFF AND PUSH1 0x1 DUP5 SUB PUSH2 0xFFFF AND DUP2 PUSH2 0x2ACC JUMPI INVALID JUMPDEST DIV PUSH1 0x1 ADD SWAP1 POP JUMPDEST SWAP3 SWAP2 POP POP JUMP JUMPDEST PUSH2 0x2AE1 PUSH2 0x43CE JUMP JUMPDEST PUSH2 0x2AE9 PUSH2 0x43CE JUMP JUMPDEST PUSH2 0xFFFF DUP4 AND PUSH2 0x2AF7 JUMPI PUSH2 0x306D JUMP JUMPDEST PUSH1 0x3 SLOAD PUSH2 0x2B03 JUMPI PUSH2 0x306D JUMP JUMPDEST POP PUSH1 0x1 PUSH1 0x1 PUSH1 0xA0 SHL SUB DUP4 AND PUSH1 0x0 SWAP1 DUP2 MSTORE PUSH1 0x5 PUSH1 0x20 SWAP1 DUP2 MSTORE PUSH1 0x40 SWAP2 DUP3 SWAP1 KECCAK256 DUP3 MLOAD PUSH1 0x60 DUP2 ADD DUP5 MSTORE SWAP1 SLOAD PUSH2 0xFFFF DUP2 AND DUP1 DUP4 MSTORE PUSH8 0xFFFFFFFFFFFFFFFF PUSH3 0x10000 DUP4 DIV DUP2 AND SWAP5 DUP5 ADD SWAP5 SWAP1 SWAP5 MSTORE PUSH11 0x100000000000000000000 SWAP1 SWAP2 DIV SWAP1 SWAP3 AND SWAP3 DUP2 ADD SWAP3 SWAP1 SWAP3 MSTORE DUP1 DUP4 MSTORE PUSH2 0x2B6F JUMPI PUSH2 0x306D JUMP JUMPDEST PUSH32 0x0 PUSH1 0x0 PUSH2 0x2B9B DUP3 PUSH2 0x29C6 JUMP JUMPDEST SWAP1 POP DUP1 PUSH2 0xFFFF AND DUP4 PUSH1 0x0 ADD MLOAD PUSH2 0xFFFF AND EQ ISZERO PUSH2 0x2BB9 JUMPI POP PUSH2 0x306D SWAP1 POP JUMP JUMPDEST PUSH1 0x1 PUSH1 0x1 PUSH1 0xA0 SHL SUB DUP7 AND PUSH1 0x0 SWAP1 DUP2 MSTORE PUSH1 0x4 PUSH1 0x20 SWAP1 DUP2 MSTORE PUSH1 0x40 DUP1 DUP4 KECCAK256 DUP1 SLOAD DUP3 MLOAD DUP2 DUP6 MUL DUP2 ADD DUP6 ADD SWAP1 SWAP4 MSTORE DUP1 DUP4 MSTORE PUSH1 0x60 SWAP5 SWAP3 SWAP4 SWAP2 SWAP3 SWAP1 SWAP2 DUP5 ADD JUMPDEST DUP3 DUP3 LT ISZERO PUSH2 0x2C3A JUMPI PUSH1 0x0 DUP5 DUP2 MSTORE PUSH1 0x20 SWAP1 DUP2 SWAP1 KECCAK256 PUSH1 0x40 DUP1 MLOAD DUP1 DUP3 ADD SWAP1 SWAP2 MSTORE SWAP1 DUP5 ADD SLOAD PUSH1 0x1 PUSH1 0x1 PUSH1 0x80 SHL SUB DUP1 DUP3 AND DUP4 MSTORE PUSH1 0x1 PUSH1 0x80 SHL SWAP1 SWAP2 DIV AND DUP2 DUP4 ADD MSTORE DUP3 MSTORE PUSH1 0x1 SWAP1 SWAP3 ADD SWAP2 ADD PUSH2 0x2BF1 JUMP JUMPDEST POP POP POP POP SWAP1 POP PUSH2 0x2C48 PUSH2 0x43B7 JUMP JUMPDEST PUSH1 0x3 DUP6 PUSH1 0x20 ADD MLOAD PUSH8 0xFFFFFFFFFFFFFFFF AND DUP2 SLOAD DUP2 LT PUSH2 0x2C63 JUMPI INVALID JUMPDEST PUSH1 0x0 SWAP2 DUP3 MSTORE PUSH1 0x20 SWAP2 DUP3 SWAP1 KECCAK256 PUSH1 0x40 DUP1 MLOAD DUP1 DUP3 ADD SWAP1 SWAP2 MSTORE SWAP2 ADD SLOAD PUSH1 0x1 PUSH1 0x1 PUSH1 0x80 SHL SUB DUP1 DUP3 AND DUP4 MSTORE PUSH1 0x1 PUSH1 0x80 SHL SWAP1 SWAP2 DIV AND SWAP2 DUP2 ADD SWAP2 SWAP1 SWAP2 MSTORE SWAP1 POP PUSH2 0x2CA2 PUSH2 0x43B7 JUMP JUMPDEST DUP3 DUP7 PUSH1 0x40 ADD MLOAD PUSH8 0xFFFFFFFFFFFFFFFF AND DUP2 MLOAD DUP2 LT PUSH2 0x2CBC JUMPI INVALID JUMPDEST PUSH1 0x20 MUL PUSH1 0x20 ADD ADD MLOAD SWAP1 POP PUSH2 0x2CCE PUSH2 0x43B7 JUMP JUMPDEST PUSH2 0x2CD6 PUSH2 0x43B7 JUMP JUMPDEST PUSH1 0x3 SLOAD PUSH1 0x20 DUP10 ADD MLOAD PUSH8 0xFFFFFFFFFFFFFFFF AND PUSH1 0x0 NOT SWAP1 SWAP2 ADD EQ PUSH2 0x2D49 JUMPI PUSH1 0x3 DUP9 PUSH1 0x20 ADD MLOAD PUSH1 0x1 ADD PUSH8 0xFFFFFFFFFFFFFFFF AND DUP2 SLOAD DUP2 LT PUSH2 0x2D11 JUMPI INVALID JUMPDEST PUSH1 0x0 SWAP2 DUP3 MSTORE PUSH1 0x20 SWAP2 DUP3 SWAP1 KECCAK256 PUSH1 0x40 DUP1 MLOAD DUP1 DUP3 ADD SWAP1 SWAP2 MSTORE SWAP2 ADD SLOAD PUSH1 0x1 PUSH1 0x1 PUSH1 0x80 SHL SUB DUP1 DUP3 AND DUP4 MSTORE PUSH1 0x1 PUSH1 0x80 SHL SWAP1 SWAP2 DIV AND SWAP2 DUP2 ADD SWAP2 SWAP1 SWAP2 MSTORE SWAP2 POP JUMPDEST PUSH1 0x1 DUP6 MLOAD SUB DUP9 PUSH1 0x40 ADD MLOAD PUSH8 0xFFFFFFFFFFFFFFFF AND EQ PUSH2 0x2D8A JUMPI DUP5 DUP9 PUSH1 0x40 ADD MLOAD PUSH1 0x1 ADD PUSH8 0xFFFFFFFFFFFFFFFF AND DUP2 MLOAD DUP2 LT PUSH2 0x2D7F JUMPI INVALID JUMPDEST PUSH1 0x20 MUL PUSH1 0x20 ADD ADD MLOAD SWAP1 POP JUMPDEST DUP8 MLOAD PUSH2 0xFFFF SWAP1 DUP8 SUB DUP2 AND PUSH1 0x20 DUP12 ADD DUP2 SWAP1 MSTORE SWAP1 DUP12 AND LT ISZERO PUSH2 0x2DAF JUMPI PUSH2 0xFFFF DUP11 AND PUSH1 0x20 DUP11 ADD MSTORE JUMPDEST PUSH1 0x20 DUP10 ADD MLOAD DUP9 MLOAD ADD SWAP6 POP JUMPDEST DUP6 PUSH2 0xFFFF AND DUP9 PUSH1 0x0 ADD MLOAD PUSH2 0xFFFF AND EQ PUSH2 0x3065 JUMPI DUP8 MLOAD PUSH2 0xFFFF DUP1 DUP3 AND PUSH1 0x0 SWAP1 DUP2 MSTORE PUSH1 0x7 PUSH1 0x20 MSTORE PUSH1 0x40 DUP2 KECCAK256 SLOAD SWAP3 DUP11 MUL PUSH1 0x1 DUP2 DUP2 ADD SWAP5 SWAP4 SWAP2 DUP13 SWAP1 SUB ADD AND SWAP1 JUMPDEST DUP4 PUSH2 0xFFFF AND DUP2 EQ PUSH2 0x3050 JUMPI DUP2 DUP8 PUSH1 0x20 ADD MLOAD PUSH1 0x1 PUSH1 0x1 PUSH1 0x80 SHL SUB AND GT ISZERO PUSH2 0x2E27 JUMPI DUP7 PUSH1 0x20 ADD MLOAD PUSH1 0x1 PUSH1 0x1 PUSH1 0x80 SHL SUB AND SWAP2 POP JUMPDEST DUP2 DUP9 PUSH1 0x20 ADD MLOAD PUSH1 0x1 PUSH1 0x1 PUSH1 0x80 SHL SUB AND GT ISZERO PUSH2 0x2E4D JUMPI DUP8 PUSH1 0x20 ADD MLOAD PUSH1 0x1 PUSH1 0x1 PUSH1 0x80 SHL SUB AND SWAP2 POP JUMPDEST POP PUSH1 0x20 DUP6 ADD MLOAD PUSH2 0xFFFF DUP5 AND SWAP1 PUSH1 0x1 PUSH1 0x1 PUSH1 0x80 SHL SUB AND ISZERO DUP1 ISZERO SWAP1 PUSH2 0x2E7C JUMPI POP DUP1 DUP7 PUSH1 0x20 ADD MLOAD PUSH1 0x1 PUSH1 0x1 PUSH1 0x80 SHL SUB AND LT JUMPDEST ISZERO PUSH2 0x2E91 JUMPI POP PUSH1 0x20 DUP6 ADD MLOAD PUSH1 0x1 PUSH1 0x1 PUSH1 0x80 SHL SUB AND JUMPDEST DUP8 MLOAD PUSH1 0x1 PUSH1 0x1 PUSH1 0x80 SHL SUB AND ISZERO DUP1 ISZERO SWAP1 PUSH2 0x2EB3 JUMPI POP DUP7 MLOAD PUSH1 0x1 PUSH1 0x1 PUSH1 0x80 SHL SUB AND ISZERO ISZERO JUMPDEST DUP1 ISZERO PUSH2 0x2EBE JUMPI POP DUP3 ISZERO ISZERO JUMPDEST ISZERO PUSH2 0x2F1E JUMPI DUP7 MLOAD PUSH1 0x0 SWAP1 PUSH2 0x2EE7 SWAP1 PUSH1 0x1 PUSH1 0x1 PUSH1 0x80 SHL SUB AND PUSH2 0x284B DUP6 DUP6 SUB DUP8 PUSH4 0xFFFFFFFF PUSH2 0x3F80 AND JUMP JUMPDEST DUP10 MLOAD SWAP1 SWAP2 POP PUSH1 0x1 PUSH1 0x1 PUSH1 0x80 SHL SUB AND DUP2 DUP2 PUSH2 0x2EFD JUMPI INVALID JUMPDEST DIV SWAP1 POP PUSH2 0x2F17 DUP2 DUP16 PUSH1 0x40 ADD MLOAD PUSH2 0x3F1F SWAP1 SWAP2 SWAP1 PUSH4 0xFFFFFFFF AND JUMP JUMPDEST PUSH1 0x40 DUP16 ADD MSTORE POP JUMPDEST DUP1 DUP7 PUSH1 0x20 ADD MLOAD PUSH1 0x1 PUSH1 0x1 PUSH1 0x80 SHL SUB AND EQ ISZERO PUSH2 0x2FCC JUMPI PUSH1 0x20 DUP13 ADD DUP1 MLOAD PUSH1 0x1 ADD PUSH8 0xFFFFFFFFFFFFFFFF AND SWAP1 DUP2 SWAP1 MSTORE PUSH1 0x3 SLOAD SWAP7 SWAP9 POP DUP9 SWAP7 PUSH1 0x0 NOT ADD EQ PUSH2 0x2FB5 JUMPI PUSH1 0x3 DUP13 PUSH1 0x20 ADD MLOAD PUSH1 0x1 ADD PUSH8 0xFFFFFFFFFFFFFFFF AND DUP2 SLOAD DUP2 LT PUSH2 0x2F79 JUMPI INVALID JUMPDEST PUSH1 0x0 SWAP2 DUP3 MSTORE PUSH1 0x20 SWAP2 DUP3 SWAP1 KECCAK256 PUSH1 0x40 DUP1 MLOAD DUP1 DUP3 ADD SWAP1 SWAP2 MSTORE SWAP2 ADD SLOAD PUSH1 0x1 PUSH1 0x1 PUSH1 0x80 SHL SUB DUP1 DUP3 AND DUP4 MSTORE PUSH1 0x1 PUSH1 0x80 SHL SWAP1 SWAP2 DIV AND SWAP2 DUP2 ADD SWAP2 SWAP1 SWAP2 MSTORE SWAP6 POP PUSH2 0x2FCC JUMP JUMPDEST PUSH1 0x40 DUP1 MLOAD DUP1 DUP3 ADD SWAP1 SWAP2 MSTORE PUSH1 0x0 DUP1 DUP3 MSTORE PUSH1 0x20 DUP3 ADD MSTORE SWAP6 POP JUMPDEST DUP1 DUP6 PUSH1 0x20 ADD MLOAD PUSH1 0x1 PUSH1 0x1 PUSH1 0x80 SHL SUB AND EQ ISZERO PUSH2 0x304B JUMPI PUSH1 0x40 DUP13 ADD DUP1 MLOAD PUSH1 0x1 ADD PUSH8 0xFFFFFFFFFFFFFFFF AND SWAP1 DUP2 SWAP1 MSTORE DUP10 MLOAD SWAP6 SWAP8 POP DUP8 SWAP6 PUSH1 0x0 NOT ADD EQ PUSH2 0x3034 JUMPI DUP9 DUP13 PUSH1 0x40 ADD MLOAD PUSH1 0x1 ADD PUSH8 0xFFFFFFFFFFFFFFFF AND DUP2 MLOAD DUP2 LT PUSH2 0x3025 JUMPI INVALID JUMPDEST PUSH1 0x20 MUL PUSH1 0x20 ADD ADD MLOAD SWAP5 POP PUSH2 0x304B JUMP JUMPDEST PUSH1 0x40 DUP1 MLOAD DUP1 DUP3 ADD SWAP1 SWAP2 MSTORE PUSH1 0x0 DUP1 DUP3 MSTORE PUSH1 0x20 DUP3 ADD MSTORE SWAP5 POP JUMPDEST PUSH2 0x2DF6 JUMP JUMPDEST POP POP DUP10 MLOAD PUSH1 0x1 ADD PUSH2 0xFFFF AND DUP11 MSTORE POP PUSH2 0x2DBA SWAP1 POP JUMP JUMPDEST POP POP POP POP POP POP POP JUMPDEST SWAP3 POP SWAP3 SWAP1 POP JUMP JUMPDEST PUSH1 0x1 PUSH1 0x1 PUSH1 0xA0 SHL SUB DUP4 AND PUSH1 0x0 SWAP1 DUP2 MSTORE PUSH1 0x4 PUSH1 0x20 MSTORE PUSH1 0x40 DUP2 KECCAK256 PUSH2 0x3097 SWAP1 DUP5 DUP5 PUSH2 0x4020 JUMP JUMPDEST SWAP1 POP PUSH1 0x0 PUSH2 0x30A7 PUSH1 0x3 DUP6 DUP6 PUSH2 0x4020 JUMP JUMPDEST SWAP1 POP PUSH32 0x6B53EDB1A2D26A789B4466210277239D9AB872345E93A9F6028058E71E64C186 DUP6 DUP5 PUSH1 0x4 PUSH1 0x0 DUP10 PUSH1 0x1 PUSH1 0x1 PUSH1 0xA0 SHL SUB AND PUSH1 0x1 PUSH1 0x1 PUSH1 0xA0 SHL SUB AND DUP2 MSTORE PUSH1 0x20 ADD SWAP1 DUP2 MSTORE PUSH1 0x20 ADD PUSH1 0x0 KECCAK256 DUP6 DUP2 SLOAD DUP2 LT PUSH2 0x30FC JUMPI INVALID JUMPDEST PUSH1 0x0 SWAP2 DUP3 MSTORE PUSH1 0x20 SWAP1 SWAP2 KECCAK256 ADD SLOAD PUSH1 0x3 DUP1 SLOAD PUSH1 0x1 PUSH1 0x1 PUSH1 0x80 SHL SUB SWAP1 SWAP3 AND SWAP2 DUP7 SWAP1 DUP2 LT PUSH2 0x3122 JUMPI INVALID JUMPDEST PUSH1 0x0 SWAP2 DUP3 MSTORE PUSH1 0x20 SWAP2 DUP3 SWAP1 KECCAK256 ADD SLOAD PUSH1 0x40 DUP1 MLOAD PUSH1 0x1 PUSH1 0x1 PUSH1 0xA0 SHL SUB SWAP1 SWAP7 AND DUP7 MSTORE PUSH2 0xFFFF SWAP1 SWAP5 AND SWAP2 DUP6 ADD SWAP2 SWAP1 SWAP2 MSTORE PUSH1 0x1 PUSH1 0x1 PUSH1 0x80 SHL SUB SWAP2 DUP3 AND DUP5 DUP5 ADD MSTORE AND PUSH1 0x60 DUP4 ADD MSTORE MLOAD SWAP1 DUP2 SWAP1 SUB PUSH1 0x80 ADD SWAP1 LOG1 POP POP POP POP POP JUMP JUMPDEST DUP6 PUSH1 0x1 PUSH1 0x1 PUSH1 0xA0 SHL SUB AND PUSH4 0xF242432A DUP7 DUP7 DUP7 DUP7 DUP7 PUSH1 0x40 MLOAD DUP7 PUSH4 0xFFFFFFFF AND PUSH1 0xE0 SHL DUP2 MSTORE PUSH1 0x4 ADD DUP1 DUP7 PUSH1 0x1 PUSH1 0x1 PUSH1 0xA0 SHL SUB AND PUSH1 0x1 PUSH1 0x1 PUSH1 0xA0 SHL SUB AND DUP2 MSTORE PUSH1 0x20 ADD DUP6 PUSH1 0x1 PUSH1 0x1 PUSH1 0xA0 SHL SUB AND PUSH1 0x1 PUSH1 0x1 PUSH1 0xA0 SHL SUB AND DUP2 MSTORE PUSH1 0x20 ADD DUP5 DUP2 MSTORE PUSH1 0x20 ADD DUP4 DUP2 MSTORE PUSH1 0x20 ADD DUP1 PUSH1 0x20 ADD DUP3 DUP2 SUB DUP3 MSTORE DUP4 DUP2 DUP2 MLOAD DUP2 MSTORE PUSH1 0x20 ADD SWAP2 POP DUP1 MLOAD SWAP1 PUSH1 0x20 ADD SWAP1 DUP1 DUP4 DUP4 PUSH1 0x0 JUMPDEST DUP4 DUP2 LT ISZERO PUSH2 0x320F JUMPI DUP2 DUP2 ADD MLOAD DUP4 DUP3 ADD MSTORE PUSH1 0x20 ADD PUSH2 0x31F7 JUMP JUMPDEST POP POP POP POP SWAP1 POP SWAP1 DUP2 ADD SWAP1 PUSH1 0x1F AND DUP1 ISZERO PUSH2 0x323C JUMPI DUP1 DUP3 SUB DUP1 MLOAD PUSH1 0x1 DUP4 PUSH1 0x20 SUB PUSH2 0x100 EXP SUB NOT AND DUP2 MSTORE PUSH1 0x20 ADD SWAP2 POP JUMPDEST POP SWAP7 POP POP POP POP POP POP POP PUSH1 0x0 PUSH1 0x40 MLOAD DUP1 DUP4 SUB DUP2 PUSH1 0x0 DUP8 DUP1 EXTCODESIZE ISZERO DUP1 ISZERO PUSH2 0x325F JUMPI PUSH1 0x0 DUP1 REVERT JUMPDEST POP GAS CALL SWAP3 POP POP POP DUP1 ISZERO PUSH2 0x3270 JUMPI POP PUSH1 0x1 JUMPDEST PUSH2 0x3300 JUMPI PUSH1 0x40 DUP1 MLOAD PUSH32 0x23B872DD00000000000000000000000000000000000000000000000000000000 DUP2 MSTORE PUSH1 0x1 PUSH1 0x1 PUSH1 0xA0 SHL SUB DUP8 DUP2 AND PUSH1 0x4 DUP4 ADD MSTORE DUP7 DUP2 AND PUSH1 0x24 DUP4 ADD MSTORE PUSH1 0x44 DUP3 ADD DUP7 SWAP1 MSTORE SWAP2 MLOAD SWAP2 DUP9 AND SWAP2 PUSH4 0x23B872DD SWAP2 PUSH1 0x64 DUP1 DUP3 ADD SWAP3 PUSH1 0x0 SWAP3 SWAP1 SWAP2 SWAP1 DUP3 SWAP1 SUB ADD DUP2 DUP4 DUP8 DUP1 EXTCODESIZE ISZERO DUP1 ISZERO PUSH2 0x32E7 JUMPI PUSH1 0x0 DUP1 REVERT JUMPDEST POP GAS CALL ISZERO DUP1 ISZERO PUSH2 0x32FB JUMPI RETURNDATASIZE PUSH1 0x0 DUP1 RETURNDATACOPY RETURNDATASIZE PUSH1 0x0 REVERT JUMPDEST POP POP POP POP JUMPDEST POP POP POP POP POP POP JUMP JUMPDEST PUSH1 0x1 PUSH1 0x1 PUSH1 0xA0 SHL SUB PUSH32 0x0 AND PUSH4 0xA9059CBB DUP4 PUSH2 0x3368 DUP5 PUSH32 0x0 PUSH4 0xFFFFFFFF PUSH2 0x3F80 AND JUMP JUMPDEST PUSH1 0x40 MLOAD DUP4 PUSH4 0xFFFFFFFF AND PUSH1 0xE0 SHL DUP2 MSTORE PUSH1 0x4 ADD DUP1 DUP4 PUSH1 0x1 PUSH1 0x1 PUSH1 0xA0 SHL SUB AND PUSH1 0x1 PUSH1 0x1 PUSH1 0xA0 SHL SUB AND DUP2 MSTORE PUSH1 0x20 ADD DUP3 DUP2 MSTORE PUSH1 0x20 ADD SWAP3 POP POP POP PUSH1 0x20 PUSH1 0x40 MLOAD DUP1 DUP4 SUB DUP2 PUSH1 0x0 DUP8 DUP1 EXTCODESIZE ISZERO DUP1 ISZERO PUSH2 0x33B7 JUMPI PUSH1 0x0 DUP1 REVERT JUMPDEST POP GAS CALL ISZERO DUP1 ISZERO PUSH2 0x33CB JUMPI RETURNDATASIZE PUSH1 0x0 DUP1 RETURNDATACOPY RETURNDATASIZE PUSH1 0x0 REVERT JUMPDEST POP POP POP POP PUSH1 0x40 MLOAD RETURNDATASIZE PUSH1 0x20 DUP2 LT ISZERO PUSH2 0x33E1 JUMPI PUSH1 0x0 DUP1 REVERT JUMPDEST POP MLOAD PUSH2 0x3434 JUMPI PUSH1 0x40 DUP1 MLOAD PUSH3 0x461BCD PUSH1 0xE5 SHL DUP2 MSTORE PUSH1 0x20 PUSH1 0x4 DUP3 ADD DUP2 SWAP1 MSTORE PUSH1 0x24 DUP3 ADD MSTORE PUSH32 0x4E46545374616B696E673A2052455656207472616E73666572206661696C6564 PUSH1 0x44 DUP3 ADD MSTORE SWAP1 MLOAD SWAP1 DUP2 SWAP1 SUB PUSH1 0x64 ADD SWAP1 REVERT JUMPDEST POP POP JUMP JUMPDEST DUP6 PUSH1 0x1 PUSH1 0x1 PUSH1 0xA0 SHL SUB AND PUSH4 0x2EB2C2D6 DUP7 DUP7 DUP7 DUP7 DUP7 PUSH1 0x40 MLOAD DUP7 PUSH4 0xFFFFFFFF AND PUSH1 0xE0 SHL DUP2 MSTORE PUSH1 0x4 ADD DUP1 DUP7 PUSH1 0x1 PUSH1 0x1 PUSH1 0xA0 SHL SUB AND PUSH1 0x1 PUSH1 0x1 PUSH1 0xA0 SHL SUB AND DUP2 MSTORE PUSH1 0x20 ADD DUP6 PUSH1 0x1 PUSH1 0x1 PUSH1 0xA0 SHL SUB AND PUSH1 0x1 PUSH1 0x1 PUSH1 0xA0 SHL SUB AND DUP2 MSTORE PUSH1 0x20 ADD DUP1 PUSH1 0x20 ADD DUP1 PUSH1 0x20 ADD DUP1 PUSH1 0x20 ADD DUP5 DUP2 SUB DUP5 MSTORE DUP8 DUP2 DUP2 MLOAD DUP2 MSTORE PUSH1 0x20 ADD SWAP2 POP DUP1 MLOAD SWAP1 PUSH1 0x20 ADD SWAP1 PUSH1 0x20 MUL DUP1 DUP4 DUP4 PUSH1 0x0 JUMPDEST DUP4 DUP2 LT ISZERO PUSH2 0x34D3 JUMPI DUP2 DUP2 ADD MLOAD DUP4 DUP3 ADD MSTORE PUSH1 0x20 ADD PUSH2 0x34BB JUMP JUMPDEST POP POP POP POP SWAP1 POP ADD DUP5 DUP2 SUB DUP4 MSTORE DUP7 DUP2 DUP2 MLOAD DUP2 MSTORE PUSH1 0x20 ADD SWAP2 POP DUP1 MLOAD SWAP1 PUSH1 0x20 ADD SWAP1 PUSH1 0x20 MUL DUP1 DUP4 DUP4 PUSH1 0x0 JUMPDEST DUP4 DUP2 LT ISZERO PUSH2 0x3512 JUMPI DUP2 DUP2 ADD MLOAD DUP4 DUP3 ADD MSTORE PUSH1 0x20 ADD PUSH2 0x34FA JUMP JUMPDEST POP POP POP POP SWAP1 POP ADD DUP5 DUP2 SUB DUP3 MSTORE DUP6 DUP2 DUP2 MLOAD DUP2 MSTORE PUSH1 0x20 ADD SWAP2 POP DUP1 MLOAD SWAP1 PUSH1 0x20 ADD SWAP1 DUP1 DUP4 DUP4 PUSH1 0x0 JUMPDEST DUP4 DUP2 LT ISZERO PUSH2 0x354E JUMPI DUP2 DUP2 ADD MLOAD DUP4 DUP3 ADD MSTORE PUSH1 0x20 ADD PUSH2 0x3536 JUMP JUMPDEST POP POP POP POP SWAP1 POP SWAP1 DUP2 ADD SWAP1 PUSH1 0x1F AND DUP1 ISZERO PUSH2 0x357B JUMPI DUP1 DUP3 SUB DUP1 MLOAD PUSH1 0x1 DUP4 PUSH1 0x20 SUB PUSH2 0x100 EXP SUB NOT AND DUP2 MSTORE PUSH1 0x20 ADD SWAP2 POP JUMPDEST POP SWAP9 POP POP POP POP POP POP POP POP POP PUSH1 0x0 PUSH1 0x40 MLOAD DUP1 DUP4 SUB DUP2 PUSH1 0x0 DUP8 DUP1 EXTCODESIZE ISZERO DUP1 ISZERO PUSH2 0x35A0 JUMPI PUSH1 0x0 DUP1 REVERT JUMPDEST POP GAS CALL SWAP3 POP POP POP DUP1 ISZERO PUSH2 0x35B1 JUMPI POP PUSH1 0x1 JUMPDEST PUSH2 0x3300 JUMPI DUP3 MLOAD PUSH1 0x0 JUMPDEST DUP2 DUP2 LT ISZERO PUSH2 0x3672 JUMPI DUP8 PUSH1 0x1 PUSH1 0x1 PUSH1 0xA0 SHL SUB AND PUSH4 0x23B872DD DUP9 DUP9 DUP9 DUP6 DUP2 MLOAD DUP2 LT PUSH2 0x35DF JUMPI INVALID JUMPDEST PUSH1 0x20 MUL PUSH1 0x20 ADD ADD MLOAD PUSH1 0x40 MLOAD DUP5 PUSH4 0xFFFFFFFF AND PUSH1 0xE0 SHL DUP2 MSTORE PUSH1 0x4 ADD DUP1 DUP5 PUSH1 0x1 PUSH1 0x1 PUSH1 0xA0 SHL SUB AND PUSH1 0x1 PUSH1 0x1 PUSH1 0xA0 SHL SUB AND DUP2 MSTORE PUSH1 0x20 ADD DUP4 PUSH1 0x1 PUSH1 0x1 PUSH1 0xA0 SHL SUB AND PUSH1 0x1 PUSH1 0x1 PUSH1 0xA0 SHL SUB AND DUP2 MSTORE PUSH1 0x20 ADD DUP3 DUP2 MSTORE PUSH1 0x20 ADD SWAP4 POP POP POP POP PUSH1 0x0 PUSH1 0x40 MLOAD DUP1 DUP4 SUB DUP2 PUSH1 0x0 DUP8 DUP1 EXTCODESIZE ISZERO DUP1 ISZERO PUSH2 0x364F JUMPI PUSH1 0x0 DUP1 REVERT JUMPDEST POP GAS CALL ISZERO DUP1 ISZERO PUSH2 0x3663 JUMPI RETURNDATASIZE PUSH1 0x0 DUP1 RETURNDATACOPY RETURNDATASIZE PUSH1 0x0 REVERT JUMPDEST POP POP POP POP DUP1 PUSH1 0x1 ADD SWAP1 POP PUSH2 0x35BA JUMP JUMPDEST POP POP PUSH2 0x3300 JUMP JUMPDEST PUSH1 0x0 SLOAD PUSH1 0x1 PUSH1 0xA0 SHL SWAP1 DIV PUSH1 0xFF AND PUSH2 0x36C1 JUMPI PUSH1 0x40 MLOAD PUSH3 0x461BCD PUSH1 0xE5 SHL DUP2 MSTORE PUSH1 0x4 ADD DUP1 DUP1 PUSH1 0x20 ADD DUP3 DUP2 SUB DUP3 MSTORE PUSH1 0x23 DUP2 MSTORE PUSH1 0x20 ADD DUP1 PUSH2 0x4549 PUSH1 0x23 SWAP2 CODECOPY PUSH1 0x40 ADD SWAP2 POP POP PUSH1 0x40 MLOAD DUP1 SWAP2 SUB SWAP1 REVERT JUMPDEST PUSH1 0x2 SLOAD PUSH2 0x3715 JUMPI PUSH1 0x40 DUP1 MLOAD PUSH3 0x461BCD PUSH1 0xE5 SHL DUP2 MSTORE PUSH1 0x20 PUSH1 0x4 DUP3 ADD MSTORE PUSH1 0x1F PUSH1 0x24 DUP3 ADD MSTORE PUSH32 0x4E66745374616B696E673A207374616B696E67206E6F74207374617274656400 PUSH1 0x44 DUP3 ADD MSTORE SWAP1 MLOAD SWAP1 DUP2 SWAP1 SUB PUSH1 0x64 ADD SWAP1 REVERT JUMPDEST DUP2 MLOAD DUP1 PUSH2 0x3769 JUMPI PUSH1 0x40 DUP1 MLOAD PUSH3 0x461BCD PUSH1 0xE5 SHL DUP2 MSTORE PUSH1 0x20 PUSH1 0x4 DUP3 ADD MSTORE PUSH1 0x15 PUSH1 0x24 DUP3 ADD MSTORE PUSH32 0x4E66745374616B696E673A206E6F20746F6B656E730000000000000000000000 PUSH1 0x44 DUP3 ADD MSTORE SWAP1 MLOAD SWAP1 DUP2 SWAP1 SUB PUSH1 0x64 ADD SWAP1 REVERT JUMPDEST PUSH1 0x0 PUSH2 0x3774 TIMESTAMP PUSH2 0x29DE JUMP JUMPDEST SWAP1 POP PUSH1 0x0 PUSH1 0x60 DUP4 PUSH8 0xFFFFFFFFFFFFFFFF DUP2 GT DUP1 ISZERO PUSH2 0x3791 JUMPI PUSH1 0x0 DUP1 REVERT JUMPDEST POP PUSH1 0x40 MLOAD SWAP1 DUP1 DUP3 MSTORE DUP1 PUSH1 0x20 MUL PUSH1 0x20 ADD DUP3 ADD PUSH1 0x40 MSTORE DUP1 ISZERO PUSH2 0x37BB JUMPI DUP2 PUSH1 0x20 ADD PUSH1 0x20 DUP3 MUL DUP1 CALLDATASIZE DUP4 CALLDATACOPY ADD SWAP1 POP JUMPDEST POP SWAP1 POP PUSH1 0x0 JUMPDEST DUP5 DUP2 LT ISZERO PUSH2 0x3992 JUMPI PUSH1 0x0 DUP8 DUP3 DUP2 MLOAD DUP2 LT PUSH2 0x37D7 JUMPI INVALID JUMPDEST PUSH1 0x20 SWAP1 DUP2 MUL SWAP2 SWAP1 SWAP2 ADD DUP2 ADD MLOAD PUSH1 0x0 DUP2 DUP2 MSTORE PUSH1 0x6 SWAP1 SWAP3 MSTORE PUSH1 0x40 SWAP1 SWAP2 KECCAK256 SLOAD SWAP1 SWAP2 POP PUSH2 0xFFFF DUP7 DUP2 AND PUSH1 0x1 PUSH1 0xF0 SHL SWAP1 SWAP3 DIV AND EQ ISZERO PUSH2 0x3842 JUMPI PUSH1 0x40 MLOAD PUSH3 0x461BCD PUSH1 0xE5 SHL DUP2 MSTORE PUSH1 0x4 ADD DUP1 DUP1 PUSH1 0x20 ADD DUP3 DUP2 SUB DUP3 MSTORE PUSH1 0x23 DUP2 MSTORE PUSH1 0x20 ADD DUP1 PUSH2 0x459E PUSH1 0x23 SWAP2 CODECOPY PUSH1 0x40 ADD SWAP2 POP POP PUSH1 0x40 MLOAD DUP1 SWAP2 SUB SWAP1 REVERT JUMPDEST PUSH1 0x0 PUSH2 0x384D DUP3 PUSH2 0x415E JUMP JUMPDEST SWAP1 POP DUP1 PUSH8 0xFFFFFFFFFFFFFFFF AND DUP6 ADD SWAP5 POP DUP1 PUSH8 0xFFFFFFFFFFFFFFFF AND DUP5 DUP5 DUP2 MLOAD DUP2 LT PUSH2 0x3875 JUMPI INVALID JUMPDEST PUSH1 0x20 SWAP1 DUP2 MUL SWAP2 SWAP1 SWAP2 ADD DUP2 ADD SWAP2 SWAP1 SWAP2 MSTORE PUSH1 0x40 DUP1 MLOAD PUSH1 0x80 DUP2 ADD DUP3 MSTORE PUSH1 0x1 PUSH1 0x1 PUSH1 0xA0 SHL SUB DUP1 DUP13 AND DUP3 MSTORE PUSH8 0xFFFFFFFFFFFFFFFF SWAP5 DUP6 AND DUP3 DUP6 ADD SWAP1 DUP2 MSTORE PUSH2 0xFFFF DUP1 DUP13 AND DUP5 DUP7 ADD SWAP1 DUP2 MSTORE PUSH1 0x0 PUSH1 0x60 DUP7 ADD DUP2 DUP2 MSTORE SWAP10 DUP2 MSTORE PUSH1 0x6 SWAP1 SWAP8 MSTORE SWAP5 SWAP1 SWAP6 KECCAK256 SWAP3 MLOAD DUP4 SLOAD SWAP2 MLOAD SWAP5 MLOAD SWAP8 MLOAD DUP7 AND PUSH1 0x1 PUSH1 0xF0 SHL MUL PUSH30 0xFFFFFFFFFFFFFFFFFFFFFFFFFFFFFFFFFFFFFFFFFFFFFFFFFFFFFFFFFFFF SWAP9 SWAP1 SWAP7 AND PUSH1 0x1 PUSH1 0xE0 SHL MUL PUSH32 0xFFFF0000FFFFFFFFFFFFFFFFFFFFFFFFFFFFFFFFFFFFFFFFFFFFFFFFFFFFFFFF SWAP6 SWAP1 SWAP8 AND PUSH1 0x1 PUSH1 0xA0 SHL MUL PUSH32 0xFFFFFFFF0000000000000000FFFFFFFFFFFFFFFFFFFFFFFFFFFFFFFFFFFFFFFF SWAP2 SWAP1 SWAP4 AND PUSH20 0xFFFFFFFFFFFFFFFFFFFFFFFFFFFFFFFFFFFFFFFF NOT SWAP1 SWAP3 AND SWAP2 SWAP1 SWAP2 OR AND OR SWAP2 SWAP1 SWAP2 AND SWAP3 SWAP1 SWAP3 OR SWAP3 SWAP1 SWAP3 AND SWAP2 SWAP1 SWAP2 OR SWAP1 SSTORE PUSH1 0x1 ADD PUSH2 0x37C1 JUMP JUMPDEST POP PUSH2 0x399E DUP6 DUP4 DUP6 PUSH2 0x3074 JUMP JUMPDEST PUSH1 0x1 PUSH1 0x1 PUSH1 0xA0 SHL SUB DUP6 AND PUSH1 0x0 SWAP1 DUP2 MSTORE PUSH1 0x5 PUSH1 0x20 MSTORE PUSH1 0x40 SWAP1 KECCAK256 SLOAD PUSH2 0xFFFF AND PUSH2 0x3A94 JUMPI PUSH1 0x0 PUSH2 0x39EB DUP5 PUSH32 0x0 PUSH2 0x2A60 JUMP JUMPDEST PUSH1 0x40 DUP1 MLOAD PUSH1 0x60 DUP2 ADD DUP3 MSTORE PUSH2 0xFFFF SWAP3 DUP4 AND DUP2 MSTORE PUSH1 0x3 SLOAD PUSH1 0x0 NOT ADD PUSH8 0xFFFFFFFFFFFFFFFF SWAP1 DUP2 AND PUSH1 0x20 DUP1 DUP5 ADD SWAP2 DUP3 MSTORE PUSH1 0x0 DUP5 DUP7 ADD DUP2 DUP2 MSTORE PUSH1 0x1 PUSH1 0x1 PUSH1 0xA0 SHL SUB DUP15 AND DUP3 MSTORE PUSH1 0x5 SWAP1 SWAP3 MSTORE SWAP5 SWAP1 SWAP5 KECCAK256 SWAP3 MLOAD DUP4 SLOAD SWAP2 MLOAD SWAP5 MLOAD PUSH2 0xFFFF NOT SWAP1 SWAP3 AND SWAP6 AND SWAP5 SWAP1 SWAP5 OR PUSH10 0xFFFFFFFFFFFFFFFF0000 NOT AND PUSH3 0x10000 SWAP4 DUP3 AND SWAP4 SWAP1 SWAP4 MUL SWAP3 SWAP1 SWAP3 OR PUSH18 0xFFFFFFFFFFFFFFFF00000000000000000000 NOT AND PUSH11 0x100000000000000000000 SWAP4 SWAP1 SWAP3 AND SWAP3 SWAP1 SWAP3 MUL OR SWAP1 SSTORE POP JUMPDEST PUSH32 0xCD9D4765F01D0036376071A9D04B55408777E729FD6D798C0C75BD12146E8E2D DUP6 DUP5 DUP9 DUP5 PUSH1 0x40 MLOAD DUP1 DUP6 PUSH1 0x1 PUSH1 0x1 PUSH1 0xA0 SHL SUB AND PUSH1 0x1 PUSH1 0x1 PUSH1 0xA0 SHL SUB AND DUP2 MSTORE PUSH1 0x20 ADD DUP5 PUSH2 0xFFFF AND DUP2 MSTORE PUSH1 0x20 ADD DUP1 PUSH1 0x20 ADD DUP1 PUSH1 0x20 ADD DUP4 DUP2 SUB DUP4 MSTORE DUP6 DUP2 DUP2 MLOAD DUP2 MSTORE PUSH1 0x20 ADD SWAP2 POP DUP1 MLOAD SWAP1 PUSH1 0x20 ADD SWAP1 PUSH1 0x20 MUL DUP1 DUP4 DUP4 PUSH1 0x0 JUMPDEST DUP4 DUP2 LT ISZERO PUSH2 0x3B1F JUMPI DUP2 DUP2 ADD MLOAD DUP4 DUP3 ADD MSTORE PUSH1 0x20 ADD PUSH2 0x3B07 JUMP JUMPDEST POP POP POP POP SWAP1 POP ADD DUP4 DUP2 SUB DUP3 MSTORE DUP5 DUP2 DUP2 MLOAD DUP2 MSTORE PUSH1 0x20 ADD SWAP2 POP DUP1 MLOAD SWAP1 PUSH1 0x20 ADD SWAP1 PUSH1 0x20 MUL DUP1 DUP4 DUP4 PUSH1 0x0 JUMPDEST DUP4 DUP2 LT ISZERO PUSH2 0x3B5E JUMPI DUP2 DUP2 ADD MLOAD DUP4 DUP3 ADD MSTORE PUSH1 0x20 ADD PUSH2 0x3B46 JUMP JUMPDEST POP POP POP POP SWAP1 POP ADD SWAP7 POP POP POP POP POP POP POP PUSH1 0x40 MLOAD DUP1 SWAP2 SUB SWAP1 LOG1 PUSH2 0x3300 DUP6 DUP4 PUSH1 0x1 PUSH1 0x1 PUSH1 0x80 SHL SUB AND PUSH2 0x4245 JUMP JUMPDEST PUSH1 0x0 SLOAD PUSH1 0x1 PUSH1 0xA0 SHL SWAP1 DIV PUSH1 0xFF AND PUSH2 0x3BD0 JUMPI PUSH1 0x40 MLOAD PUSH3 0x461BCD PUSH1 0xE5 SHL DUP2 MSTORE PUSH1 0x4 ADD DUP1 DUP1 PUSH1 0x20 ADD DUP3 DUP2 SUB DUP3 MSTORE PUSH1 0x23 DUP2 MSTORE PUSH1 0x20 ADD DUP1 PUSH2 0x4549 PUSH1 0x23 SWAP2 CODECOPY PUSH1 0x40 ADD SWAP2 POP POP PUSH1 0x40 MLOAD DUP1 SWAP2 SUB SWAP1 REVERT JUMPDEST PUSH1 0x2 SLOAD PUSH2 0x3C24 JUMPI PUSH1 0x40 DUP1 MLOAD PUSH3 0x461BCD PUSH1 0xE5 SHL DUP2 MSTORE PUSH1 0x20 PUSH1 0x4 DUP3 ADD MSTORE PUSH1 0x1F PUSH1 0x24 DUP3 ADD MSTORE PUSH32 0x4E66745374616B696E673A207374616B696E67206E6F74207374617274656400 PUSH1 0x44 DUP3 ADD MSTORE SWAP1 MLOAD SWAP1 DUP2 SWAP1 SUB PUSH1 0x64 ADD SWAP1 REVERT JUMPDEST PUSH1 0x0 PUSH2 0x3C2F DUP4 PUSH2 0x415E JUMP JUMPDEST SWAP1 POP PUSH32 0x0 PUSH1 0x0 PUSH2 0x3C5D TIMESTAMP PUSH2 0x29DE JUMP JUMPDEST SWAP1 POP PUSH2 0x3C74 DUP5 DUP5 PUSH8 0xFFFFFFFFFFFFFFFF AND DUP4 PUSH2 0x3074 JUMP JUMPDEST PUSH1 0x1 PUSH1 0x1 PUSH1 0xA0 SHL SUB DUP5 AND PUSH1 0x0 SWAP1 DUP2 MSTORE PUSH1 0x5 PUSH1 0x20 MSTORE PUSH1 0x40 SWAP1 KECCAK256 SLOAD PUSH2 0xFFFF AND PUSH2 0x3D4A JUMPI PUSH1 0x0 PUSH2 0x3CA1 DUP3 DUP5 PUSH2 0x2A60 JUMP JUMPDEST PUSH1 0x40 DUP1 MLOAD PUSH1 0x60 DUP2 ADD DUP3 MSTORE PUSH2 0xFFFF SWAP3 DUP4 AND DUP2 MSTORE PUSH1 0x3 SLOAD PUSH1 0x0 NOT ADD PUSH8 0xFFFFFFFFFFFFFFFF SWAP1 DUP2 AND PUSH1 0x20 DUP1 DUP5 ADD SWAP2 DUP3 MSTORE PUSH1 0x0 DUP5 DUP7 ADD DUP2 DUP2 MSTORE PUSH1 0x1 PUSH1 0x1 PUSH1 0xA0 SHL SUB DUP14 AND DUP3 MSTORE PUSH1 0x5 SWAP1 SWAP3 MSTORE SWAP5 SWAP1 SWAP5 KECCAK256 SWAP3 MLOAD DUP4 SLOAD SWAP2 MLOAD SWAP5 MLOAD PUSH2 0xFFFF NOT SWAP1 SWAP3 AND SWAP6 AND SWAP5 SWAP1 SWAP5 OR PUSH10 0xFFFFFFFFFFFFFFFF0000 NOT AND PUSH3 0x10000 SWAP4 DUP3 AND SWAP4 SWAP1 SWAP4 MUL SWAP3 SWAP1 SWAP3 OR PUSH18 0xFFFFFFFFFFFFFFFF00000000000000000000 NOT AND PUSH11 0x100000000000000000000 SWAP4 SWAP1 SWAP3 AND SWAP3 SWAP1 SWAP3 MUL OR SWAP1 SSTORE POP JUMPDEST PUSH1 0x0 DUP6 DUP2 MSTORE PUSH1 0x6 PUSH1 0x20 MSTORE PUSH1 0x40 SWAP1 KECCAK256 SLOAD PUSH2 0xFFFF PUSH1 0x1 PUSH1 0xF0 SHL SWAP1 SWAP2 DIV DUP2 AND SWAP1 DUP3 AND DUP2 EQ ISZERO PUSH2 0x3DA7 JUMPI PUSH1 0x40 MLOAD PUSH3 0x461BCD PUSH1 0xE5 SHL DUP2 MSTORE PUSH1 0x4 ADD DUP1 DUP1 PUSH1 0x20 ADD DUP3 DUP2 SUB DUP3 MSTORE PUSH1 0x23 DUP2 MSTORE PUSH1 0x20 ADD DUP1 PUSH2 0x459E PUSH1 0x23 SWAP2 CODECOPY PUSH1 0x40 ADD SWAP2 POP POP PUSH1 0x40 MLOAD DUP1 SWAP2 SUB SWAP1 REVERT JUMPDEST PUSH1 0x40 MLOAD DUP1 PUSH1 0x80 ADD PUSH1 0x40 MSTORE DUP1 DUP7 PUSH1 0x1 PUSH1 0x1 PUSH1 0xA0 SHL SUB AND DUP2 MSTORE PUSH1 0x20 ADD DUP6 PUSH8 0xFFFFFFFFFFFFFFFF AND DUP2 MSTORE PUSH1 0x20 ADD DUP4 PUSH2 0xFFFF AND DUP2 MSTORE PUSH1 0x20 ADD PUSH1 0x0 PUSH2 0xFFFF AND DUP2 MSTORE POP PUSH1 0x6 PUSH1 0x0 DUP9 DUP2 MSTORE PUSH1 0x20 ADD SWAP1 DUP2 MSTORE PUSH1 0x20 ADD PUSH1 0x0 KECCAK256 PUSH1 0x0 DUP3 ADD MLOAD DUP2 PUSH1 0x0 ADD PUSH1 0x0 PUSH2 0x100 EXP DUP2 SLOAD DUP2 PUSH1 0x1 PUSH1 0x1 PUSH1 0xA0 SHL SUB MUL NOT AND SWAP1 DUP4 PUSH1 0x1 PUSH1 0x1 PUSH1 0xA0 SHL SUB AND MUL OR SWAP1 SSTORE POP PUSH1 0x20 DUP3 ADD MLOAD DUP2 PUSH1 0x0 ADD PUSH1 0x14 PUSH2 0x100 EXP DUP2 SLOAD DUP2 PUSH8 0xFFFFFFFFFFFFFFFF MUL NOT AND SWAP1 DUP4 PUSH8 0xFFFFFFFFFFFFFFFF AND MUL OR SWAP1 SSTORE POP PUSH1 0x40 DUP3 ADD MLOAD DUP2 PUSH1 0x0 ADD PUSH1 0x1C PUSH2 0x100 EXP DUP2 SLOAD DUP2 PUSH2 0xFFFF MUL NOT AND SWAP1 DUP4 PUSH2 0xFFFF AND MUL OR SWAP1 SSTORE POP PUSH1 0x60 DUP3 ADD MLOAD DUP2 PUSH1 0x0 ADD PUSH1 0x1E PUSH2 0x100 EXP DUP2 SLOAD DUP2 PUSH2 0xFFFF MUL NOT AND SWAP1 DUP4 PUSH2 0xFFFF AND MUL OR SWAP1 SSTORE POP SWAP1 POP POP PUSH32 0x233FB303155FAE76E94AF13009E2C90416950CF561D3CD13F807618243FEDA4A DUP6 DUP4 DUP9 DUP8 PUSH1 0x40 MLOAD DUP1 DUP6 PUSH1 0x1 PUSH1 0x1 PUSH1 0xA0 SHL SUB AND PUSH1 0x1 PUSH1 0x1 PUSH1 0xA0 SHL SUB AND DUP2 MSTORE PUSH1 0x20 ADD DUP5 PUSH2 0xFFFF AND DUP2 MSTORE PUSH1 0x20 ADD DUP4 DUP2 MSTORE PUSH1 0x20 ADD DUP3 PUSH8 0xFFFFFFFFFFFFFFFF AND DUP2 MSTORE PUSH1 0x20 ADD SWAP5 POP POP POP POP POP PUSH1 0x40 MLOAD DUP1 SWAP2 SUB SWAP1 LOG1 PUSH2 0x3300 DUP6 DUP6 PUSH8 0xFFFFFFFFFFFFFFFF AND PUSH2 0x4245 JUMP JUMPDEST PUSH1 0x0 DUP3 DUP3 ADD DUP4 DUP2 LT ISZERO PUSH2 0x3F79 JUMPI PUSH1 0x40 DUP1 MLOAD PUSH3 0x461BCD PUSH1 0xE5 SHL DUP2 MSTORE PUSH1 0x20 PUSH1 0x4 DUP3 ADD MSTORE PUSH1 0x1B PUSH1 0x24 DUP3 ADD MSTORE PUSH32 0x536166654D6174683A206164646974696F6E206F766572666C6F770000000000 PUSH1 0x44 DUP3 ADD MSTORE SWAP1 MLOAD SWAP1 DUP2 SWAP1 SUB PUSH1 0x64 ADD SWAP1 REVERT JUMPDEST SWAP4 SWAP3 POP POP POP JUMP JUMPDEST PUSH1 0x0 DUP3 PUSH2 0x3F8F JUMPI POP PUSH1 0x0 PUSH2 0x2AD3 JUMP JUMPDEST DUP3 DUP3 MUL DUP3 DUP5 DUP3 DUP2 PUSH2 0x3F9C JUMPI INVALID JUMPDEST DIV EQ PUSH2 0x3F79 JUMPI PUSH1 0x40 MLOAD PUSH3 0x461BCD PUSH1 0xE5 SHL DUP2 MSTORE PUSH1 0x4 ADD DUP1 DUP1 PUSH1 0x20 ADD DUP3 DUP2 SUB DUP3 MSTORE PUSH1 0x21 DUP2 MSTORE PUSH1 0x20 ADD DUP1 PUSH2 0x44CE PUSH1 0x21 SWAP2 CODECOPY PUSH1 0x40 ADD SWAP2 POP POP PUSH1 0x40 MLOAD DUP1 SWAP2 SUB SWAP1 REVERT JUMPDEST PUSH1 0x0 PUSH3 0x10000 DUP3 LT PUSH2 0x401C JUMPI PUSH1 0x40 MLOAD PUSH3 0x461BCD PUSH1 0xE5 SHL DUP2 MSTORE PUSH1 0x4 ADD DUP1 DUP1 PUSH1 0x20 ADD DUP3 DUP2 SUB DUP3 MSTORE PUSH1 0x26 DUP2 MSTORE PUSH1 0x20 ADD DUP1 PUSH2 0x4416 PUSH1 0x26 SWAP2 CODECOPY PUSH1 0x40 ADD SWAP2 POP POP PUSH1 0x40 MLOAD DUP1 SWAP2 SUB SWAP1 REVERT JUMPDEST POP SWAP1 JUMP JUMPDEST DUP3 SLOAD PUSH1 0x0 SWAP1 DUP2 DUP2 ISZERO PUSH2 0x40DF JUMPI PUSH1 0x1 DUP3 SUB SWAP3 POP PUSH1 0x0 DUP7 DUP5 DUP2 SLOAD DUP2 LT PUSH2 0x4040 JUMPI INVALID JUMPDEST PUSH1 0x0 SWAP2 DUP3 MSTORE PUSH1 0x20 SWAP1 SWAP2 KECCAK256 ADD DUP1 SLOAD SWAP1 SWAP2 POP PUSH2 0x4076 SWAP1 PUSH2 0x4071 SWAP1 PUSH1 0x1 PUSH1 0x1 PUSH1 0x80 SHL SUB AND PUSH1 0xF DUP10 SWAP1 SIGNEXTEND PUSH4 0xFFFFFFFF PUSH2 0x430E AND JUMP JUMPDEST PUSH2 0x4373 JUMP JUMPDEST DUP2 SLOAD SWAP1 SWAP3 POP PUSH1 0x1 PUSH1 0x1 PUSH1 0x80 SHL SUB PUSH1 0x1 PUSH1 0x80 SHL SWAP1 SWAP2 DIV AND PUSH2 0xFFFF DUP7 AND EQ ISZERO PUSH2 0x40D3 JUMPI DUP1 SLOAD PUSH32 0xFFFFFFFFFFFFFFFFFFFFFFFFFFFFFFFF00000000000000000000000000000000 AND PUSH1 0x1 PUSH1 0x1 PUSH1 0x80 SHL SUB SWAP3 SWAP1 SWAP3 AND SWAP2 SWAP1 SWAP2 OR SWAP1 SSTORE POP PUSH2 0x3F79 JUMP JUMPDEST PUSH1 0x1 DUP5 ADD SWAP4 POP POP PUSH2 0x40E2 JUMP JUMPDEST POP DUP4 JUMPDEST PUSH2 0x40EA PUSH2 0x43B7 JUMP JUMPDEST PUSH1 0x1 PUSH1 0x1 PUSH1 0x80 SHL SUB SWAP2 DUP3 AND DUP2 MSTORE PUSH2 0xFFFF DUP6 AND PUSH1 0x20 DUP1 DUP4 ADD SWAP2 DUP3 MSTORE DUP9 SLOAD PUSH1 0x1 DUP2 ADD DUP11 SSTORE PUSH1 0x0 DUP11 DUP2 MSTORE SWAP2 SWAP1 SWAP2 KECCAK256 SWAP3 MLOAD SWAP3 ADD DUP1 SLOAD SWAP2 MLOAD DUP5 AND PUSH1 0x1 PUSH1 0x80 SHL MUL SWAP3 DUP5 AND PUSH32 0xFFFFFFFFFFFFFFFFFFFFFFFFFFFFFFFF00000000000000000000000000000000 SWAP1 SWAP3 AND SWAP2 SWAP1 SWAP2 OR SWAP1 SWAP3 AND OR SWAP1 SSTORE POP SWAP4 SWAP3 POP POP POP JUMP JUMPDEST PUSH1 0x0 PUSH1 0xFF DUP3 DUP2 SHR SWAP1 PUSH1 0xF0 DUP5 SWAP1 SHR DUP2 AND SWAP1 PUSH1 0xE0 DUP6 SWAP1 SHR DUP2 AND SWAP1 PUSH1 0xB0 DUP7 SWAP1 SHR AND PUSH1 0x1 DUP5 EQ DUP1 ISZERO PUSH2 0x4196 JUMPI POP DUP3 PUSH1 0x1 EQ DUP1 PUSH2 0x4196 JUMPI POP DUP3 PUSH1 0x2 EQ JUMPDEST DUP1 ISZERO PUSH2 0x41A2 JUMPI POP DUP2 PUSH1 0x2 EQ JUMPDEST PUSH2 0x41F3 JUMPI PUSH1 0x40 DUP1 MLOAD PUSH3 0x461BCD PUSH1 0xE5 SHL DUP2 MSTORE PUSH1 0x20 PUSH1 0x4 DUP3 ADD MSTORE PUSH1 0x17 PUSH1 0x24 DUP3 ADD MSTORE PUSH32 0x4E66745374616B696E673A2077726F6E6720746F6B656E000000000000000000 PUSH1 0x44 DUP3 ADD MSTORE SWAP1 MLOAD SWAP1 DUP2 SWAP1 SUB PUSH1 0x64 ADD SWAP1 REVERT JUMPDEST DUP3 PUSH1 0x1 EQ ISZERO PUSH2 0x4223 JUMPI PUSH1 0x0 SWAP1 DUP2 MSTORE PUSH1 0x9 PUSH1 0x20 MSTORE PUSH1 0x40 SWAP1 KECCAK256 SLOAD PUSH8 0xFFFFFFFFFFFFFFFF AND PUSH1 0x2 MUL SWAP4 POP PUSH2 0x938 SWAP3 POP POP POP JUMP JUMPDEST PUSH1 0x0 SWAP1 DUP2 MSTORE PUSH1 0x9 PUSH1 0x20 MSTORE PUSH1 0x40 SWAP1 KECCAK256 SLOAD PUSH8 0xFFFFFFFFFFFFFFFF AND SWAP6 SWAP5 POP POP POP POP POP JUMP JUMPDEST PUSH1 0x1 PUSH1 0x1 PUSH1 0xA0 SHL SUB PUSH32 0x0 AND PUSH4 0x23B872DD DUP4 ADDRESS PUSH2 0x42A6 DUP6 PUSH32 0x0 PUSH4 0xFFFFFFFF PUSH2 0x3F80 AND JUMP JUMPDEST PUSH1 0x40 MLOAD DUP5 PUSH4 0xFFFFFFFF AND PUSH1 0xE0 SHL DUP2 MSTORE PUSH1 0x4 ADD DUP1 DUP5 PUSH1 0x1 PUSH1 0x1 PUSH1 0xA0 SHL SUB AND PUSH1 0x1 PUSH1 0x1 PUSH1 0xA0 SHL SUB AND DUP2 MSTORE PUSH1 0x20 ADD DUP4 PUSH1 0x1 PUSH1 0x1 PUSH1 0xA0 SHL SUB AND PUSH1 0x1 PUSH1 0x1 PUSH1 0xA0 SHL SUB AND DUP2 MSTORE PUSH1 0x20 ADD DUP3 DUP2 MSTORE PUSH1 0x20 ADD SWAP4 POP POP POP POP PUSH1 0x20 PUSH1 0x40 MLOAD DUP1 DUP4 SUB DUP2 PUSH1 0x0 DUP8 DUP1 EXTCODESIZE ISZERO DUP1 ISZERO PUSH2 0x33B7 JUMPI PUSH1 0x0 DUP1 REVERT JUMPDEST PUSH1 0x0 DUP3 DUP3 ADD DUP2 DUP4 SLT DUP1 ISZERO SWAP1 PUSH2 0x4323 JUMPI POP DUP4 DUP2 SLT ISZERO JUMPDEST DUP1 PUSH2 0x4338 JUMPI POP PUSH1 0x0 DUP4 SLT DUP1 ISZERO PUSH2 0x4338 JUMPI POP DUP4 DUP2 SLT JUMPDEST PUSH2 0x3F79 JUMPI PUSH1 0x40 MLOAD PUSH3 0x461BCD PUSH1 0xE5 SHL DUP2 MSTORE PUSH1 0x4 ADD DUP1 DUP1 PUSH1 0x20 ADD DUP3 DUP2 SUB DUP3 MSTORE PUSH1 0x21 DUP2 MSTORE PUSH1 0x20 ADD DUP1 PUSH2 0x4489 PUSH1 0x21 SWAP2 CODECOPY PUSH1 0x40 ADD SWAP2 POP POP PUSH1 0x40 MLOAD DUP1 SWAP2 SUB SWAP1 REVERT JUMPDEST PUSH1 0x0 PUSH1 0x1 PUSH1 0x80 SHL DUP3 LT PUSH2 0x401C JUMPI PUSH1 0x40 MLOAD PUSH3 0x461BCD PUSH1 0xE5 SHL DUP2 MSTORE PUSH1 0x4 ADD DUP1 DUP1 PUSH1 0x20 ADD DUP3 DUP2 SUB DUP3 MSTORE PUSH1 0x27 DUP2 MSTORE PUSH1 0x20 ADD DUP1 PUSH2 0x4462 PUSH1 0x27 SWAP2 CODECOPY PUSH1 0x40 ADD SWAP2 POP POP PUSH1 0x40 MLOAD DUP1 SWAP2 SUB SWAP1 REVERT JUMPDEST PUSH1 0x40 DUP1 MLOAD DUP1 DUP3 ADD SWAP1 SWAP2 MSTORE PUSH1 0x0 DUP1 DUP3 MSTORE PUSH1 0x20 DUP3 ADD MSTORE SWAP1 JUMP JUMPDEST PUSH1 0x40 DUP1 MLOAD PUSH1 0x60 DUP2 ADD DUP3 MSTORE PUSH1 0x0 DUP1 DUP3 MSTORE PUSH1 0x20 DUP3 ADD DUP2 SWAP1 MSTORE SWAP2 DUP2 ADD SWAP2 SWAP1 SWAP2 MSTORE SWAP1 JUMP JUMPDEST PUSH1 0x40 DUP1 MLOAD PUSH1 0x80 DUP2 ADD DUP3 MSTORE PUSH1 0x0 DUP1 DUP3 MSTORE PUSH1 0x20 DUP3 ADD DUP2 SWAP1 MSTORE SWAP2 DUP2 ADD DUP3 SWAP1 MSTORE PUSH1 0x60 DUP2 ADD SWAP2 SWAP1 SWAP2 MSTORE SWAP1 JUMP INVALID MSTORE8 PUSH2 0x6665 NUMBER PUSH2 0x7374 GASPRICE KECCAK256 PUSH23 0x616C756520646F65736E27742066697420696E20313620 PUSH3 0x697473 0x4F PUSH24 0x6E61626C653A206E6577206F776E65722069732074686520 PUSH27 0x65726F206164647265737353616665436173743A2076616C756520 PUSH5 0x6F65736E27 PUSH21 0x2066697420696E2031323820626974735369676E65 PUSH5 0x536166654D PUSH2 0x7468 GASPRICE KECCAK256 PUSH2 0x6464 PUSH10 0x74696F6E206F76657266 PUSH13 0x6F774E66745374616B696E673A KECCAK256 PUSH4 0x6F6E7472 PUSH2 0x6374 KECCAK256 PUSH15 0x6F742077686974656C697374656453 PUSH2 0x6665 0x4D PUSH2 0x7468 GASPRICE KECCAK256 PUSH14 0x756C7469706C69636174696F6E20 PUSH16 0x766572666C6F774E66745374616B696E PUSH8 0x3A2074696D657374 PUSH2 0x6D70 KECCAK256 PUSH17 0x7265636565647320636F6E747261637420 PUSH20 0x746172744E66745374616B696E673A20616C7265 PUSH2 0x6479 KECCAK256 PUSH4 0x6F6D6D69 PUSH21 0x74656420726577617264207363686564756C654E66 PUSH21 0x5374616B696E673A20636F6E747261637420697320 PUSH15 0x6F7420656E61626C65644E66745374 PUSH2 0x6B69 PUSH15 0x673A206661696C656420746F206164 PUSH5 0x2066756E64 PUSH20 0x20746F207468652072657761726420706F6F6C4E PUSH7 0x745374616B696E PUSH8 0x3A20756E7374616B PUSH6 0x6420746F6B65 PUSH15 0x20636F6F6C646F776E4E6674537461 PUSH12 0x696E673A206661696C656420 PUSH21 0x6F207472616E7366657220726577617264734E6674 MSTORE8 PUSH21 0x616B696E673A206661696C656420746F2077697468 PUSH5 0x7261772066 PUSH19 0x6F6D20746865207265776172647320706F6F6C LOG2 PUSH5 0x6970667358 0x22 SLT KECCAK256 0x5D PUSH27 0x159B0E7662BE46044EAEA626E314E6B7D8E36AAF3C982868A8F9F3 PUSH19 0xA1A664736F6C634300060800334E6674537461 PUSH12 0x696E673A20696E76616C6964 KECCAK256 PUSH17 0x6572696F64206C656E6774680000000000 "
        },
        "methodIdentifiers": {
          "addRewardsForPeriods(uint16,uint16,uint256)": "f81649b4",
          "batchUnstakeNfts(uint256[])": "85807fd9",
          "claimRewards(uint16)": "a522bbaa",
          "cycleLengthInSeconds()": "0d2cb02a",
          "disable()": "2f2770db",
          "enabled()": "238dafe0",
          "estimateRewards(uint16)": "5a32502d",
          "getCurrentCycle()": "be26ed7f",
          "getCurrentPeriod()": "086146d2",
          "globalHistory(uint256)": "4fc5b849",
          "lastGlobalSnapshotIndex()": "7b62e040",
          "lastStakerSnapshotIndex(address)": "cc60fbf1",
          "nextClaims(address)": "69628952",
          "onERC1155BatchReceived(address,address,uint256[],uint256[],bytes)": "bc197c81",
          "onERC1155Received(address,address,uint256,uint256,bytes)": "f23a6e61",
          "owner()": "8da5cb5b",
          "periodLengthInCycles()": "0320d053",
          "renounceOwnership()": "715018a6",
          "revvEscrowingWeightCoefficient()": "f6515971",
          "rewardsSchedule(uint256)": "2217f165",
          "rewardsTokenContract()": "9de2e1cb",
          "stakerHistories(address,uint256)": "0bc2b269",
          "start()": "be9a6555",
          "startTimestamp()": "e6fd48bc",
          "supportsInterface(bytes4)": "01ffc9a7",
          "tokenInfos(uint256)": "7c13774b",
          "totalRewardsPool()": "2ef3ff6f",
          "transferOwnership(address)": "f2fde38b",
          "unstakeNft(uint256)": "6b426000",
          "weightsByRarity(uint256)": "0503c9bb",
          "whitelistedNftContract()": "9e7cfd49",
          "withdrawLostCycleRewards(address,uint16,int256)": "3af1f20c",
          "withdrawRewardsPool(uint256)": "73a32346",
          "withdrawnLostCycles(uint256)": "d8ebeb8a"
        }
      }
    }
  }
}