{
  "_format": "hh-sol-artifact-1",
  "contractName": "Crates2020RNGLibMock",
  "sourceName": "contracts/mocks/metadata/Crates2020RNGLibMock.sol",
  "abi": [
    {
      "inputs": [
        {
          "internalType": "uint256",
          "name": "counter_",
          "type": "uint256"
        }
      ],
      "stateMutability": "nonpayable",
      "type": "constructor"
    },
    {
      "inputs": [
        {
          "internalType": "uint256",
          "name": "crateTier",
          "type": "uint256"
        }
      ],
      "name": "generateCrate",
      "outputs": [
        {
          "internalType": "uint256[]",
          "name": "tokens",
          "type": "uint256[]"
        }
      ],
      "stateMutability": "nonpayable",
      "type": "function"
    },
    {
      "inputs": [],
      "name": "generateSeed",
      "outputs": [
        {
          "internalType": "uint256",
          "name": "",
          "type": "uint256"
        }
      ],
      "stateMutability": "view",
      "type": "function"
    }
  ],
  "bytecode": "0x608060405234801561001057600080fd5b50604051610f0f380380610f0f83398101604081905261002f91610037565b60005561004f565b600060208284031215610048578081fd5b5051919050565b610eb18061005e6000396000f3fe608060405234801561001057600080fd5b50600436106100365760003560e01c8063399da5851461003b5780638cc776c814610059575b600080fd5b610043610079565b6040516100509190610e72565b60405180910390f35b61006c610067366004610d30565b6100b0565b6040516100509190610d89565b6000600143034033604051602001610092929190610d48565b6040516020818303038152906040528051906020012060001c905090565b60606000805490506100d38360006100c6610079565b919063ffffffff6100e216565b80519190910160005592915050565b60408051600580825260c082019092526060916020820160a0803683370190505090506003831415610199576005840660005b806005146101925760008682604051602001610132929190610d7b565b6040516020818303038152906040528051906020012060001c905061017261016d82888886888814610165576003610168565b60025b6103b9565b6104a1565b84838151811061017e57fe5b602090810291909101015250600101610115565b50506103b2565b60028314156102475760008060006101b087610555565b9194509250905060005b8060051461023e57600088826040516020016101d7929190610d7b565b6040516020818303038152906040528051906020012060001c905061021e61016d828a8a868a88148061020957508988145b8061021357508888145b610165576003610168565b86838151811061022a57fe5b6020908102919091010152506001016101ba565b505050506103b2565b60018314156102f25760008061025c86610670565b909250905060005b806005146102ea5760008782604051602001610281929190610d7b565b60408051601f19818403018152919052805160209091012090506003828514156102ad575060026102b9565b838314156102b9575060015b6102c961016d838a8a87866103b9565b8684815181106102d557fe5b60209081029190910101525050600101610264565b5050506103b2565b826103915760008061030386610670565b909250905060005b806005146102ea5760008782604051602001610328929190610d7b565b60408051601f198184030181529190528051602090910120905060038285141561035457506002610360565b83831415610360575060005b61037061016d838a8a87866103b9565b86848151811061037c57fe5b6020908102919091010152505060010161030b565b60405162461bcd60e51b81526004016103a990610e3b565b60405180910390fd5b9392505050565b6103c1610cd6565b6000806103d2600489901c8661068b565b818552909250905080156103e857602083018190525b60006103f960298a901c898761070b565b60808501819052905060018314806104115750600283145b1561046d5760038111156104365761042c60498a901c61089c565b604085015261046d565b600061044560498b901c61089c565b606086018190529050600284141561046b5761046560518b901c826108a6565b60c08601525b505b61047c60808a901c8483610a75565b61012087015261010086015260e0850152505050929091016101408301525092915050565b8051602082015160408301516060840151608085015160a086015160c08088015160e08901516101008a01516101208b0151610140909b015160589b909b1b60689190911b60789290921b60889390931b60989590951b60b09690961b60b89790971b9790931b60e89890981b60f09990991b989098179690961794909417929092171717919091179190911717177f80000003000000000000000000000000000000000000000000000000000000001790565b60008080600a8406806105745750600292506003915060049050610669565b806001141561058f5750600192506003915060049050610669565b80600214156105aa5750600192506002915060049050610669565b80600314156105c55750600192506002915060039050610669565b80600414156105e05750600092506003915060049050610669565b80600514156105fb5750600092506002915060049050610669565b80600614156106165750600092506002915060039050610669565b80600714156106315750600092506001915060049050610669565b806008141561064c5750600092506001915060039050610669565b80600914156106675750600092506001915060029050610669565b505b9193909250565b600580820692600160049390931c6003168401929092010690565b600080826106a25750506001808316016000610704565b620186a08406620142448110156106f1576003602086901c0660018114156106d9576004935083602287901c0660010192506106eb565b600393506008602287901c0660010192505b50610702565b6005925082602086901c0660010191505b505b9250929050565b6000620186a0840660038414156107835760038314801561072e57506201825381105b15610743576003815b066007019150506103b2565b6201863b81101561075e576003815b066004019150506103b2565b6201869f811015610779576002815b066002019150506103b2565b60019150506103b2565b60028414156107d15760038314801561079e5750620178ea81105b156107ab57600381610737565b620182ae8110156107be57600381610752565b620186968110156107795760028161076d565b6001841415610836576003831480156107ec5750620168f081105b156107f957600381610737565b60038314806108085750600283145b8015610816575062017c7881105b1561082357600381610752565b6201863c8110156107795760028161076d565b836108945760038314801561084d57506201482081105b1561085a57600381610737565b60038314806108695750600283145b156107795762016f3081101561088157600381610752565b620182b88110156107795760028161076d565b509392505050565b600a900660010190565b60006001808416908314156108e357604051806040016040528060078152602001606381525081600281106108d757fe5b60200201519150610a6e565b600283141561090e57604051806040016040528060058152602001601081525081600281106108d757fe5b600383141561093957604051806040016040528060088152602001601481525081600281106108d757fe5b600483141561096457604051806040016040528060048152602001603781525081600281106108d757fe5b600583141561098f576040518060400160405280602c8152602001604d81525081600281106108d757fe5b60068314156109ba576040518060400160405280600b8152602001601281525081600281106108d757fe5b60078314156109e557604051806040016040528060178152602001602181525081600281106108d757fe5b6008831415610a1057604051806040016040528060038152602001601f81525081600281106108d757fe5b6009831415610a3b576040518060400160405280600a8152602001601a81525081600281106108d757fe5b600a831415610a6e576040518060400160405280603f815260200160068152508160028110610a6657fe5b602002015191505b5092915050565b60008060008060006001871480610a8c5750600287145b15610b7d578560011415610aa857506103209050610384610b78565b8560021415610abf57506102c6905061032a610b78565b8560031415610ad657506102a8905061030c610b78565b8560041415610aed575061026290506102c6610b78565b8560051415610b04575061023a90506102a8610b78565b8560061415610b1b575061021c905061028a610b78565b8560071415610b3257506101f49050610244610b78565b8560081415610b4957506101e09050610226610b78565b8560091415610b6057506101c2905061021c610b78565b60405162461bcd60e51b81526004016103a990610e04565b610c95565b6004871480610b8c5750600387145b15610c5d578560011415610ba857506101f49050610258610b78565b8560021415610bbf57506101a49050610208610b78565b8560031415610bd6575061017c90506101e0610b78565b8560041415610bed575061015490506101b8610b78565b8560051415610c04575061014a90506101ae610b78565b8560061415610c1b57506101229050610186610b78565b8560071415610c31575060fa905061015e610b78565b8560081415610c47575060f09050610154610b78565b8560091415610b60575060c8905061012c610b78565b6005871415610c7d578560011415610ba857506101f49050610258610b78565b60405162461bcd60e51b81526004016103a990610dcd565b818103808981610ca157fe5b06830195508060108a901c81610cb357fe5b06830194508060208a901c81610cc557fe5b068301935050505093509350939050565b60405180610160016040528060008152602001600081526020016000815260200160008152602001600081526020016000815260200160008152602001600081526020016000815260200160008152602001600081525090565b600060208284031215610d41578081fd5b5035919050565b91825260601b7fffffffffffffffffffffffffffffffffffffffff00000000000000000000000016602082015260340190565b918252602082015260400190565b6020808252825182820181905260009190848201906040850190845b81811015610dc157835183529284019291840191600101610da5565b50909695505050505050565b60208082526010908201527f57726f6e6720746f6b656e207479706500000000000000000000000000000000604082015260600190565b60208082526012908201527f57726f6e6720746f6b656e207261726974790000000000000000000000000000604082015260600190565b6020808252601f908201527f43726174657332303230524e473a2077726f6e67206372617465207469657200604082015260600190565b9081526020019056fea26469706673582212200b111ffbc13b0cb8e64b37e7d9508dce712414477e5d31a40724db00fad90b9564736f6c63430006080033",
  "linkReferences": {},
  "deployedLinkReferences": {}
}