{
  "_format": "hh-sol-artifact-1",
  "contractName": "Crates2020Mock",
  "sourceName": "contracts/mocks/game/Crates2020Mock.sol",
  "abi": [
    {
      "inputs": [
        {
          "internalType": "contract IF1DTInventory",
          "name": "INVENTORY_",
          "type": "address"
        },
        {
          "internalType": "contract IF1DTBurnableCrateKey",
          "name": "COMMON_CRATE_",
          "type": "address"
        },
        {
          "internalType": "contract IF1DTBurnableCrateKey",
          "name": "RARE_CRATE_",
          "type": "address"
        },
        {
          "internalType": "contract IF1DTBurnableCrateKey",
          "name": "EPIC_CRATE_",
          "type": "address"
        },
        {
          "internalType": "contract IF1DTBurnableCrateKey",
          "name": "LEGENDARY_CRATE_",
          "type": "address"
        },
        {
          "internalType": "uint256",
          "name": "counter_",
          "type": "uint256"
        }
      ],
      "stateMutability": "nonpayable",
      "type": "constructor"
    },
    {
      "anonymous": false,
      "inputs": [
        {
          "indexed": true,
          "internalType": "address",
          "name": "previousOwner",
          "type": "address"
        },
        {
          "indexed": true,
          "internalType": "address",
          "name": "newOwner",
          "type": "address"
        }
      ],
      "name": "OwnershipTransferred",
      "type": "event"
    },
    {
      "inputs": [],
      "name": "CRATE_KEY_COMMON",
      "outputs": [
        {
          "internalType": "contract IF1DTBurnableCrateKey",
          "name": "",
          "type": "address"
        }
      ],
      "stateMutability": "view",
      "type": "function"
    },
    {
      "inputs": [],
      "name": "CRATE_KEY_EPIC",
      "outputs": [
        {
          "internalType": "contract IF1DTBurnableCrateKey",
          "name": "",
          "type": "address"
        }
      ],
      "stateMutability": "view",
      "type": "function"
    },
    {
      "inputs": [],
      "name": "CRATE_KEY_LEGENDARY",
      "outputs": [
        {
          "internalType": "contract IF1DTBurnableCrateKey",
          "name": "",
          "type": "address"
        }
      ],
      "stateMutability": "view",
      "type": "function"
    },
    {
      "inputs": [],
      "name": "CRATE_KEY_RARE",
      "outputs": [
        {
          "internalType": "contract IF1DTBurnableCrateKey",
          "name": "",
          "type": "address"
        }
      ],
      "stateMutability": "view",
      "type": "function"
    },
    {
      "inputs": [],
      "name": "INVENTORY",
      "outputs": [
        {
          "internalType": "contract IF1DTInventory",
          "name": "",
          "type": "address"
        }
      ],
      "stateMutability": "view",
      "type": "function"
    },
    {
      "inputs": [],
      "name": "counter",
      "outputs": [
        {
          "internalType": "uint256",
          "name": "",
          "type": "uint256"
        }
      ],
      "stateMutability": "view",
      "type": "function"
    },
    {
      "inputs": [
        {
          "internalType": "uint256",
          "name": "crateTier",
          "type": "uint256"
        },
        {
          "internalType": "uint256",
          "name": "quantity",
          "type": "uint256"
        },
        {
          "internalType": "uint256",
          "name": "seed",
          "type": "uint256"
        }
      ],
      "name": "openCrates",
      "outputs": [],
      "stateMutability": "nonpayable",
      "type": "function"
    },
    {
      "inputs": [],
      "name": "owner",
      "outputs": [
        {
          "internalType": "address",
          "name": "",
          "type": "address"
        }
      ],
      "stateMutability": "view",
      "type": "function"
    },
    {
      "inputs": [],
      "name": "renounceOwnership",
      "outputs": [],
      "stateMutability": "nonpayable",
      "type": "function"
    },
    {
      "inputs": [
        {
          "internalType": "uint256",
          "name": "crateTier",
          "type": "uint256"
        },
        {
          "internalType": "address",
          "name": "newOwner",
          "type": "address"
        }
      ],
      "name": "transferCrateKeyOwnership",
      "outputs": [],
      "stateMutability": "nonpayable",
      "type": "function"
    },
    {
      "inputs": [
        {
          "internalType": "address",
          "name": "newOwner",
          "type": "address"
        }
      ],
      "name": "transferOwnership",
      "outputs": [],
      "stateMutability": "nonpayable",
      "type": "function"
    }
  ],
  "bytecode": "0x61012060405234801561001157600080fd5b50604051620019fe380380620019fe833981810160405260c081101561003657600080fd5b508051602082015160408301516060840151608085015160a090950151939492939192909185858585858560006100746001600160e01b0361019916565b600080546001600160a01b0319166001600160a01b0383169081178255604051929350917f8be0079c531659141344cd1fd0a4f28419497f9722a3daafe3b4186f6b6457e0908290a3506001600160a01b038616158015906100de57506001600160a01b03851615155b80156100f257506001600160a01b03831615155b801561010657506001600160a01b03821615155b610157576040805162461bcd60e51b815260206004820152601460248201527f4372617465733a207a65726f2061646472657373000000000000000000000000604482015290519081900360640190fd5b6001600160601b0319606096871b811660805294861b851660a05292851b841660c05290841b831660e05290921b16610100526001555061019d945050505050565b3390565b60805160601c60a05160601c60c05160601c60e05160601c6101005160601c6117f962000205600039806101bb528061060a5250806102cb52806105de52508061040452806105ae5250806103e0528061057e525080610428528061091f52506117f96000f3fe608060405234801561001057600080fd5b50600436106100c95760003560e01c8063715018a611610081578063d88a8b131161005b578063d88a8b1314610183578063de5d547e1461018b578063f2fde38b14610193576100c9565b8063715018a61461016b5780638da5cb5b14610173578063bf5541111461017b576100c9565b80634289cae6116100b25780634289cae61461012057806361bc221a1461012857806364f5548d14610142576100c9565b8063229417f5146100ce5780633104e614146100f2575b600080fd5b6100d66101b9565b604080516001600160a01b039092168252519081900360200190f35b61011e6004803603604081101561010857600080fd5b50803590602001356001600160a01b03166101dd565b005b6100d66102c9565b6101306102ed565b60408051918252519081900360200190f35b61011e6004803603606081101561015857600080fd5b50803590602081013590604001356102f3565b61011e610303565b6100d66103cf565b6100d66103de565b6100d6610402565b6100d6610426565b61011e600480360360208110156101a957600080fd5b50356001600160a01b031661044a565b7f000000000000000000000000000000000000000000000000000000000000000081565b6101e561056c565b6000546001600160a01b03908116911614610247576040805162461bcd60e51b815260206004820181905260248201527f4f776e61626c653a2063616c6c6572206973206e6f7420746865206f776e6572604482015290519081900360640190fd5b600061025283610570565b9050806001600160a01b031663f2fde38b836040518263ffffffff1660e01b815260040180826001600160a01b03166001600160a01b03168152602001915050600060405180830381600087803b1580156102ac57600080fd5b505af11580156102c0573d6000803e3d6000fd5b50505050505050565b7f000000000000000000000000000000000000000000000000000000000000000081565b60015481565b6102fe838383610680565b505050565b61030b61056c565b6000546001600160a01b0390811691161461036d576040805162461bcd60e51b815260206004820181905260248201527f4f776e61626c653a2063616c6c6572206973206e6f7420746865206f776e6572604482015290519081900360640190fd5b600080546040516001600160a01b03909116907f8be0079c531659141344cd1fd0a4f28419497f9722a3daafe3b4186f6b6457e0908390a3600080547fffffffffffffffffffffffff0000000000000000000000000000000000000000169055565b6000546001600160a01b031690565b7f000000000000000000000000000000000000000000000000000000000000000081565b7f000000000000000000000000000000000000000000000000000000000000000081565b7f000000000000000000000000000000000000000000000000000000000000000081565b61045261056c565b6000546001600160a01b039081169116146104b4576040805162461bcd60e51b815260206004820181905260248201527f4f776e61626c653a2063616c6c6572206973206e6f7420746865206f776e6572604482015290519081900360640190fd5b6001600160a01b0381166104f95760405162461bcd60e51b815260040180806020018281038252602681526020018061179e6026913960400191505060405180910390fd5b600080546040516001600160a01b03808516939216917f8be0079c531659141344cd1fd0a4f28419497f9722a3daafe3b4186f6b6457e091a3600080547fffffffffffffffffffffffff0000000000000000000000000000000000000000166001600160a01b0392909216919091179055565b3390565b600060038214156105a257507f000000000000000000000000000000000000000000000000000000000000000061067b565b60028214156105d257507f000000000000000000000000000000000000000000000000000000000000000061067b565b600182141561060257507f000000000000000000000000000000000000000000000000000000000000000061067b565b8161062e57507f000000000000000000000000000000000000000000000000000000000000000061067b565b6040805162461bcd60e51b815260206004820152601860248201527f4372617465733a2077726f6e6720637261746520746965720000000000000000604482015290519081900360640190fd5b919050565b816106d2576040805162461bcd60e51b815260206004820152601560248201527f4372617465733a207a65726f207175616e746974790000000000000000000000604482015290519081900360640190fd5b60006106dd84610570565b905060006106e961056c565b604080517f23b872dd0000000000000000000000000000000000000000000000000000000081526001600160a01b038084166004830152306024830152670de0b6b3a764000088026044830181905292519394509192918516916323b872dd916064808201926020929091908290030181600087803b15801561076b57600080fd5b505af115801561077f573d6000803e3d6000fd5b505050506040513d602081101561079557600080fd5b5050604080517f42966c680000000000000000000000000000000000000000000000000000000081526004810183905290516001600160a01b038516916342966c6891602480830192600092919082900301818387803b1580156107f857600080fd5b505af115801561080c573d6000803e3d6000fd5b505060408051600580825260c082019092526060935091506020820160a080368337505060408051600580825260c0820190925292935060609291506020820160a080368337505060408051600580825260c0820190925292935060609291506020820160a08036833701905050905060005b806005146108ce57600183828151811061089557fe5b602002602001018181525050858282815181106108ae57fe5b6001600160a01b039092166020928302919091019091015260010161087f565b5060015460005b898114610ac8578015610908576040805160208082019b909b5281518082038c0181529082019091528051990198909820975b606061091b8a8d8563ffffffff610ad716565b90507f00000000000000000000000000000000000000000000000000000000000000006001600160a01b031663e6fd76fe8583898960006040518663ffffffff1660e01b815260040180806020018060200180602001806020018615151515815260200185810385528a818151815260200191508051906020019060200280838360005b838110156109b757818101518382015260200161099f565b50505050905001858103845289818151815260200191508051906020019060200280838360005b838110156109f65781810151838201526020016109de565b50505050905001858103835288818151815260200191508051906020019060200280838360005b83811015610a35578181015183820152602001610a1d565b50505050905001858103825287818151815260200191508051906020019060200280838360005b83811015610a74578181015183820152602001610a5c565b505050509050019950505050505050505050600060405180830381600087803b158015610aa057600080fd5b505af1158015610ab4573d6000803e3d6000fd5b5050506005939093019250506001016108d5565b50600155505050505050505050565b60408051600580825260c082019092526060916020820160a0803683370190505090506003831415610b86576005840660005b80600514610b7f5760408051602080820189905281830184905282518083038401815260609092019092528051910120610b5f610b5a82888886888114610b52576003610b55565b60025b610dbc565b610ea4565b848381518110610b6b57fe5b602090810291909101015250600101610b0a565b5050610db5565b6002831415610c2c576000806000610b9d87610f58565b9194509250905060005b80600514610c23576040805160208082018b905281830184905282518083038401815260609092019092528051910120610c03610b5a828a8a868a811480610bee57508988145b80610bf857508888145b610b52576003610b55565b868381518110610c0f57fe5b602090810291909101015250600101610ba7565b50505050610db5565b6001831415610cd057600080610c4186611073565b909250905060005b80600514610cc8576040805160208082018a905281830184905282518083038401815260609092019092528051910120600384831415610c8b57506002610c97565b83831415610c97575060015b610ca7610b5a838a8a8786610dbc565b868481518110610cb357fe5b60209081029190910101525050600101610c49565b505050610db5565b82610d6857600080610ce186611073565b909250905060005b80600514610cc8576040805160208082018a905281830184905282518083038401815260609092019092528051910120600384831415610d2b57506002610d37565b83831415610d37575060005b610d47610b5a838a8a8786610dbc565b868481518110610d5357fe5b60209081029190910101525050600101610ce9565b6040805162461bcd60e51b815260206004820152601f60248201527f43726174657332303230524e473a2077726f6e67206372617465207469657200604482015290519081900360640190fd5b9392505050565b610dc4611743565b600080610dd5600489901c8661108e565b81855290925090508015610deb57602083018190525b6000610dfc60298a901c898761110e565b6080850181905290506001831480610e145750600283145b15610e70576003811115610e3957610e2f60498a901c61129f565b6040850152610e70565b6000610e4860498b901c61129f565b6060860181905290506002841415610e6e57610e6860518b901c826112a9565b60c08601525b505b610e7f60808a901c8483611478565b61012087015261010086015260e0850152505050929091016101408301525092915050565b8051602082015160408301516060840151608085015160a086015160c08088015160e08901516101008a01516101208b0151610140909b015160589b909b1b60689190911b60789290921b60889390931b60989590951b60b09690961b60b89790971b9790931b60e89890981b60f09990991b989098179690961794909417929092171717919091179190911717177f80000003000000000000000000000000000000000000000000000000000000001790565b60008080600a840680610f77575060029250600391506004905061106c565b8060011415610f92575060019250600391506004905061106c565b8060021415610fad575060019250600291506004905061106c565b8060031415610fc8575060019250600291506003905061106c565b8060041415610fe3575060009250600391506004905061106c565b8060051415610ffe575060009250600291506004905061106c565b8060061415611019575060009250600291506003905061106c565b8060071415611034575060009250600191506004905061106c565b806008141561104f575060009250600191506003905061106c565b806009141561106a575060009250600191506002905061106c565b505b9193909250565b600580820692600160049390931c6003168401929092010690565b600080826110a55750506001808316016000611107565b620186a08406620142448110156110f4576003602086901c0660018114156110dc576004935083602287901c0660010192506110ee565b600393506008602287901c0660010192505b50611105565b6005925082602086901c0660010191505b505b9250929050565b6000620186a0840660038414156111865760038314801561113157506201825381105b15611146576003815b06600701915050610db5565b6201863b811015611161576003815b06600401915050610db5565b6201869f81101561117c576002815b06600201915050610db5565b6001915050610db5565b60028414156111d4576003831480156111a15750620178ea81105b156111ae5760038161113a565b620182ae8110156111c157600381611155565b6201869681101561117c57600281611170565b6001841415611239576003831480156111ef5750620168f081105b156111fc5760038161113a565b600383148061120b5750600283145b8015611219575062017c7881105b1561122657600381611155565b6201863c81101561117c57600281611170565b836112975760038314801561125057506201482081105b1561125d5760038161113a565b600383148061126c5750600283145b1561117c5762016f3081101561128457600381611155565b620182b881101561117c57600281611170565b509392505050565b600a900660010190565b60006001808416908314156112e657604051806040016040528060078152602001606381525081600281106112da57fe5b60200201519150611471565b600283141561131157604051806040016040528060058152602001601081525081600281106112da57fe5b600383141561133c57604051806040016040528060088152602001601481525081600281106112da57fe5b600483141561136757604051806040016040528060048152602001603781525081600281106112da57fe5b6005831415611392576040518060400160405280602c8152602001604d81525081600281106112da57fe5b60068314156113bd576040518060400160405280600b8152602001601281525081600281106112da57fe5b60078314156113e857604051806040016040528060178152602001602181525081600281106112da57fe5b600883141561141357604051806040016040528060038152602001601f81525081600281106112da57fe5b600983141561143e576040518060400160405280600a8152602001601a81525081600281106112da57fe5b600a831415611471576040518060400160405280603f81526020016006815250816002811061146957fe5b602002015191505b5092915050565b6000806000806000600187148061148f5750600287145b156115b55785600114156114ab575061032090506103846115b0565b85600214156114c257506102c6905061032a6115b0565b85600314156114d957506102a8905061030c6115b0565b85600414156114f0575061026290506102c66115b0565b8560051415611507575061023a90506102a86115b0565b856006141561151e575061021c905061028a6115b0565b856007141561153557506101f490506102446115b0565b856008141561154c57506101e090506102266115b0565b856009141561156357506101c2905061021c6115b0565b6040805162461bcd60e51b815260206004820152601260248201527f57726f6e6720746f6b656e207261726974790000000000000000000000000000604482015290519081900360640190fd5b611702565b60048714806115c45750600387145b156116955785600114156115e057506101f490506102586115b0565b85600214156115f757506101a490506102086115b0565b856003141561160e575061017c90506101e06115b0565b8560041415611625575061015490506101b86115b0565b856005141561163c575061014a90506101ae6115b0565b8560061415611653575061012290506101866115b0565b8560071415611669575060fa905061015e6115b0565b856008141561167f575060f090506101546115b0565b8560091415611563575060c8905061012c6115b0565b60058714156116b55785600114156115e057506101f490506102586115b0565b6040805162461bcd60e51b815260206004820152601060248201527f57726f6e6720746f6b656e207479706500000000000000000000000000000000604482015290519081900360640190fd5b81810380898161170e57fe5b06830195508060108a901c8161172057fe5b06830194508060208a901c8161173257fe5b068301935050505093509350939050565b6040518061016001604052806000815260200160008152602001600081526020016000815260200160008152602001600081526020016000815260200160008152602001600081526020016000815260200160008152509056fe4f776e61626c653a206e6577206f776e657220697320746865207a65726f2061646472657373a26469706673582212204bff7e8f91907a4b874086db83f08b5ec7e2c56000e81dc6d807023468e2bfa164736f6c63430006080033",
  "linkReferences": {},
  "deployedLinkReferences": {}
}