{
  "_format": "hh-sol-artifact-1",
  "contractName": "NFTRepairCentre",
  "sourceName": "contracts/token/ERC1155721/NFTRepairCentre.sol",
  "abi": [
    {
      "inputs": [
        {
          "internalType": "address",
          "name": "inventoryContract_",
          "type": "address"
        },
        {
          "internalType": "address",
          "name": "tokensGraveyard_",
          "type": "address"
        },
        {
          "internalType": "address",
          "name": "revvContract_",
          "type": "address"
        },
        {
          "internalType": "uint256",
          "name": "revvCompensation_",
          "type": "uint256"
        }
      ],
      "stateMutability": "nonpayable",
      "type": "constructor"
    },
    {
      "anonymous": false,
      "inputs": [
        {
          "indexed": true,
          "internalType": "address",
          "name": "previousOwner",
          "type": "address"
        },
        {
          "indexed": true,
          "internalType": "address",
          "name": "newOwner",
          "type": "address"
        }
      ],
      "name": "OwnershipTransferred",
      "type": "event"
    },
    {
      "anonymous": false,
      "inputs": [
        {
          "indexed": false,
          "internalType": "address",
          "name": "account",
          "type": "address"
        }
      ],
      "name": "Paused",
      "type": "event"
    },
    {
      "anonymous": false,
      "inputs": [
        {
          "indexed": false,
          "internalType": "uint256[]",
          "name": "defectiveTokens",
          "type": "uint256[]"
        },
        {
          "indexed": false,
          "internalType": "uint256[]",
          "name": "replacementTokens",
          "type": "uint256[]"
        }
      ],
      "name": "RepairedBatch",
      "type": "event"
    },
    {
      "anonymous": false,
      "inputs": [
        {
          "indexed": false,
          "internalType": "uint256",
          "name": "defectiveToken",
          "type": "uint256"
        },
        {
          "indexed": false,
          "internalType": "uint256",
          "name": "replacementToken",
          "type": "uint256"
        }
      ],
      "name": "RepairedSingle",
      "type": "event"
    },
    {
      "anonymous": false,
      "inputs": [
        {
          "indexed": false,
          "internalType": "uint256[]",
          "name": "defectiveTokens",
          "type": "uint256[]"
        },
        {
          "indexed": false,
          "internalType": "uint256[]",
          "name": "replacementTokens",
          "type": "uint256[]"
        }
      ],
      "name": "TokensToRepairAdded",
      "type": "event"
    },
    {
      "anonymous": false,
      "inputs": [
        {
          "indexed": false,
          "internalType": "address",
          "name": "account",
          "type": "address"
        }
      ],
      "name": "Unpaused",
      "type": "event"
    },
    {
      "inputs": [
        {
          "internalType": "uint256[]",
          "name": "defectiveTokens",
          "type": "uint256[]"
        },
        {
          "internalType": "uint256[]",
          "name": "replacementTokens",
          "type": "uint256[]"
        }
      ],
      "name": "addTokensToRepair",
      "outputs": [],
      "stateMutability": "nonpayable",
      "type": "function"
    },
    {
      "inputs": [
        {
          "internalType": "uint256[]",
          "name": "tokens",
          "type": "uint256[]"
        }
      ],
      "name": "containsDefectiveToken",
      "outputs": [
        {
          "internalType": "bool",
          "name": "",
          "type": "bool"
        }
      ],
      "stateMutability": "view",
      "type": "function"
    },
    {
      "inputs": [
        {
          "internalType": "address",
          "name": "",
          "type": "address"
        },
        {
          "internalType": "address",
          "name": "from",
          "type": "address"
        },
        {
          "internalType": "uint256[]",
          "name": "defectiveTokens",
          "type": "uint256[]"
        },
        {
          "internalType": "uint256[]",
          "name": "values",
          "type": "uint256[]"
        },
        {
          "internalType": "bytes",
          "name": "",
          "type": "bytes"
        }
      ],
      "name": "onERC1155BatchReceived",
      "outputs": [
        {
          "internalType": "bytes4",
          "name": "",
          "type": "bytes4"
        }
      ],
      "stateMutability": "nonpayable",
      "type": "function"
    },
    {
      "inputs": [
        {
          "internalType": "address",
          "name": "",
          "type": "address"
        },
        {
          "internalType": "address",
          "name": "from",
          "type": "address"
        },
        {
          "internalType": "uint256",
          "name": "defectiveToken",
          "type": "uint256"
        },
        {
          "internalType": "uint256",
          "name": "",
          "type": "uint256"
        },
        {
          "internalType": "bytes",
          "name": "",
          "type": "bytes"
        }
      ],
      "name": "onERC1155Received",
      "outputs": [
        {
          "internalType": "bytes4",
          "name": "",
          "type": "bytes4"
        }
      ],
      "stateMutability": "nonpayable",
      "type": "function"
    },
    {
      "inputs": [],
      "name": "owner",
      "outputs": [
        {
          "internalType": "address",
          "name": "",
          "type": "address"
        }
      ],
      "stateMutability": "view",
      "type": "function"
    },
    {
      "inputs": [],
      "name": "pause",
      "outputs": [],
      "stateMutability": "nonpayable",
      "type": "function"
    },
    {
      "inputs": [],
      "name": "paused",
      "outputs": [
        {
          "internalType": "bool",
          "name": "",
          "type": "bool"
        }
      ],
      "stateMutability": "view",
      "type": "function"
    },
    {
      "inputs": [],
      "name": "renounceMinter",
      "outputs": [],
      "stateMutability": "nonpayable",
      "type": "function"
    },
    {
      "inputs": [],
      "name": "renounceOwnership",
      "outputs": [],
      "stateMutability": "nonpayable",
      "type": "function"
    },
    {
      "inputs": [
        {
          "internalType": "bytes4",
          "name": "interfaceId",
          "type": "bytes4"
        }
      ],
      "name": "supportsInterface",
      "outputs": [
        {
          "internalType": "bool",
          "name": "",
          "type": "bool"
        }
      ],
      "stateMutability": "view",
      "type": "function"
    },
    {
      "inputs": [
        {
          "internalType": "address",
          "name": "newOwner",
          "type": "address"
        }
      ],
      "name": "transferOwnership",
      "outputs": [],
      "stateMutability": "nonpayable",
      "type": "function"
    },
    {
      "inputs": [],
      "name": "unpause",
      "outputs": [],
      "stateMutability": "nonpayable",
      "type": "function"
    }
  ],
  "bytecode": "0x608060405234801561001057600080fd5b5060405162001d6738038062001d678339818101604052608081101561003557600080fd5b5080516020820151604083015160609093015191929091600061005f6001600160e01b0361018016565b600080546001600160a01b0319166001600160a01b0383169081178255604051929350917f8be0079c531659141344cd1fd0a4f28419497f9722a3daafe3b4186f6b6457e0908290a3506000805460ff60a01b191690556001600160a01b038416158015906100d657506001600160a01b03831615155b80156100ea57506001600160a01b03821615155b61013b576040805162461bcd60e51b815260206004820152601a60248201527f52657061697243656e7472653a207a65726f2061646472657373000000000000604482015290519081900360640190fd5b600180546001600160a01b03199081166001600160a01b0396871617909155600280548216948616949094179093556003805490931691909316179055600455610184565b3390565b611bd380620001946000396000f3fe608060405234801561001057600080fd5b50600436106100d45760003560e01c80638456cb5911610081578063bc197c811161005b578063bc197c81146102ac578063f23a6e611461040e578063f2fde38b146104a3576100d4565b80638456cb59146102785780638da5cb5b1461028057806398650275146102a4576100d4565b80635c975abb116100b25780635c975abb146101a6578063715018a6146101ae578063737d7a46146101b6576100d4565b806301ffc9a7146100d95780630fe920f31461012c5780633f4ba83a1461019c575b600080fd5b610118600480360360208110156100ef57600080fd5b50357fffffffff00000000000000000000000000000000000000000000000000000000166104c9565b604080519115158252519081900360200190f35b6101186004803603602081101561014257600080fd5b81019060208101813564010000000081111561015d57600080fd5b82018360208201111561016f57600080fd5b8035906020019184602083028401116401000000008311171561019157600080fd5b509092509050610562565b6101a46105b7565b005b61011861062b565b6101a461063b565b6101a4600480360360408110156101cc57600080fd5b8101906020810181356401000000008111156101e757600080fd5b8201836020820111156101f957600080fd5b8035906020019184602083028401116401000000008311171561021b57600080fd5b91939092909160208101903564010000000081111561023957600080fd5b82018360208201111561024b57600080fd5b8035906020019184602083028401116401000000008311171561026d57600080fd5b509092509050610707565b6101a461097f565b6102886109f1565b604080516001600160a01b039092168252519081900360200190f35b6101a4610a00565b6103d9600480360360a08110156102c257600080fd5b6001600160a01b0382358116926020810135909116918101906060810160408201356401000000008111156102f657600080fd5b82018360208201111561030857600080fd5b8035906020019184602083028401116401000000008311171561032a57600080fd5b91939092909160208101903564010000000081111561034857600080fd5b82018360208201111561035a57600080fd5b8035906020019184602083028401116401000000008311171561037c57600080fd5b91939092909160208101903564010000000081111561039a57600080fd5b8201836020820111156103ac57600080fd5b803590602001918460018302840111640100000000831117156103ce57600080fd5b509092509050610ad4565b604080517fffffffff000000000000000000000000000000000000000000000000000000009092168252519081900360200190f35b6103d9600480360360a081101561042457600080fd5b6001600160a01b03823581169260208101359091169160408201359160608101359181019060a08101608082013564010000000081111561046457600080fd5b82018360208201111561047657600080fd5b8035906020019184600183028401116401000000008311171561049857600080fd5b5090925090506113a1565b6101a4600480360360208110156104b957600080fd5b50356001600160a01b031661182d565b60007fffffffff0000000000000000000000000000000000000000000000000000000082167f01ffc9a700000000000000000000000000000000000000000000000000000000148061055c57507fffffffff0000000000000000000000000000000000000000000000000000000082167f4e2312e000000000000000000000000000000000000000000000000000000000145b92915050565b6000805b828110156105ad576005600085858481811061057e57fe5b905060200201358152602001908152602001600020546000146105a557600191505061055c565b600101610566565b5060009392505050565b6105bf61194f565b6000546001600160a01b03908116911614610621576040805162461bcd60e51b815260206004820181905260248201527f4f776e61626c653a2063616c6c6572206973206e6f7420746865206f776e6572604482015290519081900360640190fd5b610629611953565b565b600054600160a01b900460ff1690565b61064361194f565b6000546001600160a01b039081169116146106a5576040805162461bcd60e51b815260206004820181905260248201527f4f776e61626c653a2063616c6c6572206973206e6f7420746865206f776e6572604482015290519081900360640190fd5b600080546040516001600160a01b03909116907f8be0079c531659141344cd1fd0a4f28419497f9722a3daafe3b4186f6b6457e0908390a3600080547fffffffffffffffffffffffff0000000000000000000000000000000000000000169055565b61070f61194f565b6000546001600160a01b03908116911614610771576040805162461bcd60e51b815260206004820181905260248201527f4f776e61626c653a2063616c6c6572206973206e6f7420746865206f776e6572604482015290519081900360640190fd5b82801580159061078057508082145b6107d1576040805162461bcd60e51b815260206004820152601b60248201527f52657061697243656e7472653a2077726f6e67206c656e677468730000000000604482015290519081900360640190fd5b60005b81811015610821578383828181106107e857fe5b90506020020135600560008888858181106107ff57fe5b60209081029290920135835250810191909152604001600020556001016107d4565b506003546004546001600160a01b03909116906323b872dd903390309061084e908663ffffffff611a1f16565b6040518463ffffffff1660e01b815260040180846001600160a01b03166001600160a01b03168152602001836001600160a01b03166001600160a01b031681526020018281526020019350505050602060405180830381600087803b1580156108b657600080fd5b505af11580156108ca573d6000803e3d6000fd5b505050506040513d60208110156108e057600080fd5b5050604080518181529081018590527fb380eaa9f6cb279d2695d070bb2e054fba005a2e08671b41772a93865d51b5db9086908690869086908060208181019060608301908890880280828437600083820152601f01601f19169091018481038352858152602090810191508690860280828437600083820152604051601f909101601f19169092018290039850909650505050505050a15050505050565b61098761194f565b6000546001600160a01b039081169116146109e9576040805162461bcd60e51b815260206004820181905260248201527f4f776e61626c653a2063616c6c6572206973206e6f7420746865206f776e6572604482015290519081900360640190fd5b610629611a7f565b6000546001600160a01b031690565b610a0861194f565b6000546001600160a01b03908116911614610a6a576040805162461bcd60e51b815260206004820181905260248201527f4f776e61626c653a2063616c6c6572206973206e6f7420746865206f776e6572604482015290519081900360640190fd5b600160009054906101000a90046001600160a01b03166001600160a01b031663986502756040518163ffffffff1660e01b8152600401600060405180830381600087803b158015610aba57600080fd5b505af1158015610ace573d6000803e3d6000fd5b50505050565b60008054600160a01b900460ff1615610b34576040805162461bcd60e51b815260206004820152601060248201527f5061757361626c653a2070617573656400000000000000000000000000000000604482015290519081900360640190fd5b6001546001600160a01b03163314610b93576040805162461bcd60e51b815260206004820152601d60248201527f52657061697243656e7472653a2077726f6e6720696e76656e746f7279000000604482015290519081900360640190fd5b8580610be6576040805162461bcd60e51b815260206004820152601960248201527f52657061697243656e7472653a20656d70747920617272617900000000000000604482015290519081900360640190fd5b60608167ffffffffffffffff81118015610bff57600080fd5b50604051908082528060200260200182016040528015610c29578160200160208202803683370190505b50905060608267ffffffffffffffff81118015610c4557600080fd5b50604051908082528060200260200182016040528015610c6f578160200160208202803683370190505b50905060608367ffffffffffffffff81118015610c8b57600080fd5b50604051908082528060200260200182016040528015610cb5578160200160208202803683370190505b50905060005b84811015610d8c5760008c8c83818110610cd157fe5b60209081029290920135600081815260059093526040909220549192505080610d2b5760405162461bcd60e51b8152600401808060200182810382526021815260200180611b7d6021913960400191505060405180910390fd5b60008281526005602052604081205585518f90879085908110610d4a57fe5b60200260200101906001600160a01b031690816001600160a01b03168152505080858481518110610d7757fe5b60209081029190910101525050600101610cbb565b50600160009054906101000a90046001600160a01b03166001600160a01b0316632eb2c2d630600260009054906101000a90046001600160a01b03168e8e8e8e604051806020016040528060008152506040518863ffffffff1660e01b815260040180886001600160a01b03166001600160a01b03168152602001876001600160a01b03166001600160a01b031681526020018060200180602001806020018481038452898982818152602001925060200280828437600083820152601f01601f191690910185810384528781526020908101915088908802808284376000838201819052601f909101601f191690920186810384528751815287516020918201939189019250908190849084905b83811015610eb3578181015183820152602001610e9b565b50505050905090810190601f168015610ee05780820380516001836020036101000a031916815260200191505b509a5050505050505050505050600060405180830381600087803b158015610f0757600080fd5b505af1158015610f1b573d6000803e3d6000fd5b50505050600160009054906101000a90046001600160a01b03166001600160a01b031663e6fd76fe8484848d8d60016040518763ffffffff1660e01b815260040180806020018060200180602001806020018615151515815260200185810385528b818151815260200191508051906020019060200280838360005b83811015610faf578181015183820152602001610f97565b5050505090500185810384528a818151815260200191508051906020019060200280838360005b83811015610fee578181015183820152602001610fd6565b50505050905001858103835289818151815260200191508051906020019060200280838360005b8381101561102d578181015183820152602001611015565b505050509050018581038252888882818152602001925060200280828437600081840152601f19601f8201169050808301925050509a5050505050505050505050600060405180830381600087803b15801561108857600080fd5b505af1925050508015611099575060015b61121f57600160009054906101000a90046001600160a01b03166001600160a01b031663e6fd76fe8484848d8d60006040518763ffffffff1660e01b815260040180806020018060200180602001806020018615151515815260200185810385528b818151815260200191508051906020019060200280838360005b8381101561112d578181015183820152602001611115565b5050505090500185810384528a818151815260200191508051906020019060200280838360005b8381101561116c578181015183820152602001611154565b50505050905001858103835289818151815260200191508051906020019060200280838360005b838110156111ab578181015183820152602001611193565b505050509050018581038252888882818152602001925060200280828437600081840152601f19601f8201169050808301925050509a5050505050505050505050600060405180830381600087803b15801561120657600080fd5b505af115801561121a573d6000803e3d6000fd5b505050505b6003546004546001600160a01b039091169063a9059cbb908e90611249908863ffffffff611a1f16565b6040518363ffffffff1660e01b815260040180836001600160a01b03166001600160a01b0316815260200182815260200192505050602060405180830381600087803b15801561129857600080fd5b505af11580156112ac573d6000803e3d6000fd5b505050506040513d60208110156112c257600080fd5b5050604080518181529081018b90527f2cf905ead2e9d792396a729bff8203532d1ae96085bee924227803dee4189e60908c908c90859080602081810190606083019087908702808284376000838201819052601f909101601f1916909201858103845286518152865160209182019382890193509102908190849084905b83811015611359578181015183820152602001611341565b505050509050019550505050505060405180910390a1507fbc197c81000000000000000000000000000000000000000000000000000000009c9b505050505050505050505050565b60008054600160a01b900460ff1615611401576040805162461bcd60e51b815260206004820152601060248201527f5061757361626c653a2070617573656400000000000000000000000000000000604482015290519081900360640190fd5b6001546001600160a01b03163314611460576040805162461bcd60e51b815260206004820152601d60248201527f52657061697243656e7472653a2077726f6e6720696e76656e746f7279000000604482015290519081900360640190fd5b600085815260056020526040902054806114ab5760405162461bcd60e51b8152600401808060200182810382526021815260200180611b7d6021913960400191505060405180910390fd5b6005600087815260200190815260200160002060009055600160009054906101000a90046001600160a01b03166001600160a01b031663f242432a30600260009054906101000a90046001600160a01b0316896001604051806020016040528060008152506040518663ffffffff1660e01b815260040180866001600160a01b03166001600160a01b03168152602001856001600160a01b03166001600160a01b0316815260200184815260200183815260200180602001828103825283818151815260200191508051906020019080838360005b83811015611598578181015183820152602001611580565b50505050905090810190601f1680156115c55780820380516001836020036101000a031916815260200191505b509650505050505050600060405180830381600087803b1580156115e857600080fd5b505af11580156115fc573d6000803e3d6000fd5b505060018054604080517f9220dd040000000000000000000000000000000000000000000000000000000081526001600160a01b038d811660048301526024820188905260006044830181905260648301959095529151919092169450639220dd0493506084808301939282900301818387803b15801561167c57600080fd5b505af192505050801561168d575060015b61172457600154604080517f9220dd040000000000000000000000000000000000000000000000000000000081526001600160a01b038a8116600483015260248201859052600060448301819052606483018190529251931692639220dd049260848084019391929182900301818387803b15801561170b57600080fd5b505af115801561171f573d6000803e3d6000fd5b505050505b60035460048054604080517fa9059cbb0000000000000000000000000000000000000000000000000000000081526001600160a01b038c811694820194909452602481019290925251919092169163a9059cbb9160448083019260209291908290030181600087803b15801561179957600080fd5b505af11580156117ad573d6000803e3d6000fd5b505050506040513d60208110156117c357600080fd5b5050604080518781526020810183905281517f356799e8140806fb4937337aad7d8803d2678e879ee90e5dd1d005754764c73f929181900390910190a1507ff23a6e6100000000000000000000000000000000000000000000000000000000979650505050505050565b61183561194f565b6000546001600160a01b03908116911614611897576040805162461bcd60e51b815260206004820181905260248201527f4f776e61626c653a2063616c6c6572206973206e6f7420746865206f776e6572604482015290519081900360640190fd5b6001600160a01b0381166118dc5760405162461bcd60e51b8152600401808060200182810382526026815260200180611b366026913960400191505060405180910390fd5b600080546040516001600160a01b03808516939216917f8be0079c531659141344cd1fd0a4f28419497f9722a3daafe3b4186f6b6457e091a3600080547fffffffffffffffffffffffff0000000000000000000000000000000000000000166001600160a01b0392909216919091179055565b3390565b600054600160a01b900460ff166119b1576040805162461bcd60e51b815260206004820152601460248201527f5061757361626c653a206e6f7420706175736564000000000000000000000000604482015290519081900360640190fd5b600080547fffffffffffffffffffffff00ffffffffffffffffffffffffffffffffffffffff1690557f5db9ee0a495bf2e6ff9c91a7834c1ba4fdd244a5e8aa4e537bd38aeae4b073aa611a0261194f565b604080516001600160a01b039092168252519081900360200190a1565b600082611a2e5750600061055c565b82820282848281611a3b57fe5b0414611a785760405162461bcd60e51b8152600401808060200182810382526021815260200180611b5c6021913960400191505060405180910390fd5b9392505050565b600054600160a01b900460ff1615611ade576040805162461bcd60e51b815260206004820152601060248201527f5061757361626c653a2070617573656400000000000000000000000000000000604482015290519081900360640190fd5b600080547fffffffffffffffffffffff00ffffffffffffffffffffffffffffffffffffffff16600160a01b1790557f62e78cea01bee320cd4e420270b5ea74000d11b0c9f74754ebdbfc544b05a258611a0261194f56fe4f776e61626c653a206e6577206f776e657220697320746865207a65726f2061646472657373536166654d6174683a206d756c7469706c69636174696f6e206f766572666c6f7752657061697243656e7472653a20746f6b656e206e6f7420646566656374697665a26469706673582212204f8fd389d3452cb2ad101b1e8d821b7f58018ce1a177226de2da91615ea8908164736f6c63430006080033",
  "linkReferences": {},
  "deployedLinkReferences": {}
}