{
  "_format": "hh-sol-artifact-1",
  "contractName": "PayoutClaimDistributor",
  "sourceName": "contracts/payout/PayoutClaimDistributor.sol",
  "abi": [
    {
      "inputs": [
        {
          "internalType": "contract IWrappedERC20",
          "name": "token_",
          "type": "address"
        }
      ],
      "stateMutability": "nonpayable",
      "type": "constructor"
    },
    {
      "anonymous": false,
      "inputs": [
        {
          "indexed": true,
          "internalType": "address",
          "name": "account",
          "type": "address"
        },
        {
          "indexed": false,
          "internalType": "uint256",
          "name": "amount",
          "type": "uint256"
        },
        {
          "indexed": false,
          "internalType": "uint256",
          "name": "batch",
          "type": "uint256"
        }
      ],
      "name": "ClaimedPayout",
      "type": "event"
    },
    {
      "anonymous": false,
      "inputs": [
        {
          "indexed": false,
          "internalType": "bool",
          "name": "isLocked",
          "type": "bool"
        }
      ],
      "name": "DistributionLocked",
      "type": "event"
    },
    {
      "anonymous": false,
      "inputs": [
        {
          "indexed": true,
          "internalType": "address",
          "name": "previousOwner",
          "type": "address"
        },
        {
          "indexed": true,
          "internalType": "address",
          "name": "newOwner",
          "type": "address"
        }
      ],
      "name": "OwnershipTransferred",
      "type": "event"
    },
    {
      "anonymous": false,
      "inputs": [
        {
          "indexed": true,
          "internalType": "address",
          "name": "ownerAddress",
          "type": "address"
        },
        {
          "indexed": true,
          "internalType": "address",
          "name": "distAddress",
          "type": "address"
        }
      ],
      "name": "SetDistributorAddress",
      "type": "event"
    },
    {
      "anonymous": false,
      "inputs": [
        {
          "indexed": true,
          "internalType": "bytes32",
          "name": "merkleRoot",
          "type": "bytes32"
        }
      ],
      "name": "SetMerkleRoot",
      "type": "event"
    },
    {
      "inputs": [
        {
          "internalType": "address",
          "name": "account",
          "type": "address"
        },
        {
          "internalType": "uint256",
          "name": "amount",
          "type": "uint256"
        },
        {
          "internalType": "uint256",
          "name": "batch",
          "type": "uint256"
        },
        {
          "internalType": "bytes32[]",
          "name": "merkleProof",
          "type": "bytes32[]"
        }
      ],
      "name": "claimPayout",
      "outputs": [],
      "stateMutability": "nonpayable",
      "type": "function"
    },
    {
      "inputs": [
        {
          "internalType": "bytes32",
          "name": "",
          "type": "bytes32"
        }
      ],
      "name": "claimed",
      "outputs": [
        {
          "internalType": "bool",
          "name": "",
          "type": "bool"
        }
      ],
      "stateMutability": "view",
      "type": "function"
    },
    {
      "inputs": [],
      "name": "distAddress",
      "outputs": [
        {
          "internalType": "address",
          "name": "",
          "type": "address"
        }
      ],
      "stateMutability": "view",
      "type": "function"
    },
    {
      "inputs": [],
      "name": "isLocked",
      "outputs": [
        {
          "internalType": "bool",
          "name": "",
          "type": "bool"
        }
      ],
      "stateMutability": "view",
      "type": "function"
    },
    {
      "inputs": [],
      "name": "merkleRoot",
      "outputs": [
        {
          "internalType": "bytes32",
          "name": "",
          "type": "bytes32"
        }
      ],
      "stateMutability": "view",
      "type": "function"
    },
    {
      "inputs": [],
      "name": "owner",
      "outputs": [
        {
          "internalType": "address",
          "name": "",
          "type": "address"
        }
      ],
      "stateMutability": "view",
      "type": "function"
    },
    {
      "inputs": [
        {
          "internalType": "address",
          "name": "distributorAddress",
          "type": "address"
        }
      ],
      "name": "setDistributorAddress",
      "outputs": [],
      "stateMutability": "nonpayable",
      "type": "function"
    },
    {
      "inputs": [
        {
          "internalType": "bool",
          "name": "isLocked_",
          "type": "bool"
        }
      ],
      "name": "setLocked",
      "outputs": [],
      "stateMutability": "nonpayable",
      "type": "function"
    },
    {
      "inputs": [
        {
          "internalType": "bytes32",
          "name": "merkleRoot_",
          "type": "bytes32"
        }
      ],
      "name": "setMerkleRoot",
      "outputs": [],
      "stateMutability": "nonpayable",
      "type": "function"
    },
    {
      "inputs": [],
      "name": "token",
      "outputs": [
        {
          "internalType": "contract IWrappedERC20",
          "name": "",
          "type": "address"
        }
      ],
      "stateMutability": "view",
      "type": "function"
    },
    {
      "inputs": [
        {
          "internalType": "address",
          "name": "newOwner",
          "type": "address"
        }
      ],
      "name": "transferOwnership",
      "outputs": [],
      "stateMutability": "nonpayable",
      "type": "function"
    }
  ],
  "bytecode": "0x608060405234801561001057600080fd5b50604051610bec380380610bec8339818101604052602081101561003357600080fd5b5051600080546001600160a01b031916339081178255604051909182917f8be0079c531659141344cd1fd0a4f28419497f9722a3daafe3b4186f6b6457e0908290a350600280546001600160a01b039092166001600160a01b03199283161790556003805490911633179055610b3e806100ae6000396000f3fe608060405234801561001057600080fd5b50600436106100c95760003560e01c806387950f4911610081578063cc3c0f061161005b578063cc3c0f0614610220578063f2fde38b1461023d578063fc0c546a14610263576100c9565b806387950f49146101d65780638da5cb5b146101fc578063a4e2d63414610204576100c9565b80632eb4a7ab116100b25780632eb4a7ab1461017b5780637cb6475914610195578063878e0658146101b2576100c9565b8063211e28b6146100ce57806321c3df25146100ef575b600080fd5b6100ed600480360360208110156100e457600080fd5b5035151561026b565b005b6100ed6004803603608081101561010557600080fd5b6001600160a01b03823516916020810135916040820135919081019060808101606082013564010000000081111561013c57600080fd5b82018360208201111561014e57600080fd5b8035906020019184602083028401116401000000008311171561017057600080fd5b5090925090506102fa565b61018361055f565b60408051918252519081900360200190f35b6100ed600480360360208110156101ab57600080fd5b5035610565565b6101ba6105a3565b604080516001600160a01b039092168252519081900360200190f35b6100ed600480360360208110156101ec57600080fd5b50356001600160a01b03166105b2565b6101ba610633565b61020c610642565b604080519115158252519081900360200190f35b61020c6004803603602081101561023657600080fd5b5035610663565b6100ed6004803603602081101561025357600080fd5b50356001600160a01b0316610678565b6101ba6106e9565b61027b6102766106f8565b6106fc565b600380548215157401000000000000000000000000000000000000000081027fffffffffffffffffffffff00ffffffffffffffffffffffffffffffffffffffff9092169190911790915560408051918252517f02facaa785222e4bd80c10706458a82b36f6c826954368073e6a0cbf0405ae709181900360200190a150565b60035474010000000000000000000000000000000000000000900460ff161561036a576040805162461bcd60e51b815260206004820152600d60248201527f5061796f7574206c6f636b656400000000000000000000000000000000000000604482015290519081900360640190fd5b604080517fffffffffffffffffffffffffffffffffffffffff000000000000000000000000606088901b166020808301919091526034820187905260548083018790528351808403909101815260749092018352815191810191909120600081815260049092529190205460ff161561042a576040805162461bcd60e51b815260206004820152601660248201527f5061796f757420616c726561647920636c61696d656400000000000000000000604482015290519081900360640190fd5b61046e600154828585808060200260200160405190810160405280939291908181526020018383602002808284376000920191909152509294939250506107c39050565b6104bf576040805162461bcd60e51b815260206004820152600d60248201527f496e76616c69642070726f6f6600000000000000000000000000000000000000604482015290519081900360640190fd5b600081815260046020526040902080547fffffffffffffffffffffffffffffffffffffffffffffffffffffffffffffff00166001179055600354600254610514916001600160a01b039182169116888861086c565b604080518681526020810186905281516001600160a01b038916927f50bfd7a1ed22b77390b27d4c62acb66656778c2f221853834365a348f894077b928290030190a2505050505050565b60015481565b6105706102766106f8565b600181905560405181907f914960aef5e033ce5cae8a7992d4b7a6f0f9741227b66acb67c605b7019f8a4690600090a250565b6003546001600160a01b031681565b6105bd6102766106f8565b600380547fffffffffffffffffffffffff0000000000000000000000000000000000000000166001600160a01b0383169081179091556105fb6106f8565b6001600160a01b03167fe9286a175900d0389b36adb63c9d6992999e166909e1050adf0fc5efa15c91fd60405160405180910390a350565b6000546001600160a01b031690565b60035474010000000000000000000000000000000000000000900460ff1681565b60046020526000908152604090205460ff1681565b6106836102766106f8565b600080547fffffffffffffffffffffffff0000000000000000000000000000000000000000166001600160a01b0383811691821780845560405192939116917f8be0079c531659141344cd1fd0a4f28419497f9722a3daafe3b4186f6b6457e09190a350565b6002546001600160a01b031681565b3390565b306001600160a01b0316638da5cb5b6040518163ffffffff1660e01b815260040160206040518083038186803b15801561073557600080fd5b505afa158015610749573d6000803e3d6000fd5b505050506040513d602081101561075f57600080fd5b50516001600160a01b038281169116146107c0576040805162461bcd60e51b815260206004820152601660248201527f4f776e61626c653a206e6f7420746865206f776e657200000000000000000000604482015290519081900360640190fd5b50565b600081815b85518110156108615760008682815181106107df57fe5b602002602001015190508083116108265782816040516020018083815260200182815260200192505050604051602081830303815290604052805190602001209250610858565b808360405160200180838152602001828152602001925050506040516020818303038152906040528051906020012092505b506001016107c8565b509092149392505050565b604080516001600160a01b0380861660248301528416604482015260648082018490528251808303909101815260849091019091526020810180517bffffffffffffffffffffffffffffffffffffffffffffffffffffffff167f23b872dd000000000000000000000000000000000000000000000000000000001790526108f49085906108fa565b50505050565b8161090d6001600160a01b038216610b02565b61095e576040805162461bcd60e51b815260206004820152601a60248201527f4552433230577261707065723a206e6f6e2d636f6e7472616374000000000000604482015290519081900360640190fd5b600080826001600160a01b0316846040518082805190602001908083835b602083106109b957805182527fffffffffffffffffffffffffffffffffffffffffffffffffffffffffffffffe0909201916020918201910161097c565b6001836020036101000a0380198251168184511680821785525050505050509050019150506000604051808303816000865af19150503d8060008114610a1b576040519150601f19603f3d011682016040523d82523d6000602084013e610a20565b606091505b50915091508115610a9f57805115610a9a57808060200190516020811015610a4757600080fd5b5051610a9a576040805162461bcd60e51b815260206004820152601e60248201527f4552433230577261707065723a206f7065726174696f6e206661696c65640000604482015290519081900360640190fd5b610afb565b8051610af2576040805162461bcd60e51b815260206004820152601e60248201527f4552433230577261707065723a206f7065726174696f6e206661696c65640000604482015290519081900360640190fd5b80518082602001fd5b5050505050565b3b15159056fea26469706673582212207298b031ca133fad348e49c29ffee15f8a9454be335089cadddcf877cb82da0164736f6c63430007060033",
  "linkReferences": {},
  "deployedLinkReferences": {}
}