{
  "_format": "hh-sol-artifact-1",
  "contractName": "PayoutClaimDistributor",
  "sourceName": "contracts/payout/PayoutClaimDistributor.sol",
  "abi": [
    {
      "inputs": [
        {
          "internalType": "contract IERC20",
          "name": "token_",
          "type": "address"
        }
      ],
      "stateMutability": "nonpayable",
      "type": "constructor"
    },
    {
      "anonymous": false,
      "inputs": [
        {
          "indexed": true,
          "internalType": "address",
          "name": "_address",
          "type": "address"
        },
        {
          "indexed": false,
          "internalType": "uint256",
          "name": "amount",
          "type": "uint256"
        },
        {
          "indexed": false,
          "internalType": "bytes32",
          "name": "salt",
          "type": "bytes32"
        }
      ],
      "name": "ClaimedPayout",
      "type": "event"
    },
    {
      "anonymous": false,
      "inputs": [
        {
          "indexed": false,
          "internalType": "bool",
          "name": "_isLocked",
          "type": "bool"
        }
      ],
      "name": "DistributionLocked",
      "type": "event"
    },
    {
      "anonymous": false,
      "inputs": [
        {
          "indexed": true,
          "internalType": "address",
          "name": "previousOwner",
          "type": "address"
        },
        {
          "indexed": true,
          "internalType": "address",
          "name": "newOwner",
          "type": "address"
        }
      ],
      "name": "OwnershipTransferred",
      "type": "event"
    },
    {
      "anonymous": false,
      "inputs": [
        {
          "indexed": true,
          "internalType": "address",
          "name": "_ownerAddress",
          "type": "address"
        },
        {
          "indexed": true,
          "internalType": "address",
          "name": "_distAddress",
          "type": "address"
        }
      ],
      "name": "SetDistributorAddress",
      "type": "event"
    },
    {
      "anonymous": false,
      "inputs": [
        {
          "indexed": true,
          "internalType": "bytes32",
          "name": "_merkleRoot",
          "type": "bytes32"
        }
      ],
      "name": "SetMerkleRoot",
      "type": "event"
    },
    {
      "inputs": [
        {
          "internalType": "uint256",
          "name": "index",
          "type": "uint256"
        },
        {
          "internalType": "address",
          "name": "address_",
          "type": "address"
        },
        {
          "internalType": "uint256",
          "name": "amount",
          "type": "uint256"
        },
        {
          "internalType": "bytes32",
          "name": "salt",
          "type": "bytes32"
        },
        {
          "internalType": "bytes32[]",
          "name": "merkleProof",
          "type": "bytes32[]"
        }
      ],
      "name": "claimPayout",
      "outputs": [],
      "stateMutability": "nonpayable",
      "type": "function"
    },
    {
      "inputs": [
        {
          "internalType": "bytes32",
          "name": "",
          "type": "bytes32"
        }
      ],
      "name": "claimed",
      "outputs": [
        {
          "internalType": "bool",
          "name": "",
          "type": "bool"
        }
      ],
      "stateMutability": "view",
      "type": "function"
    },
    {
      "inputs": [],
      "name": "distAddress",
      "outputs": [
        {
          "internalType": "address",
          "name": "",
          "type": "address"
        }
      ],
      "stateMutability": "view",
      "type": "function"
    },
    {
      "inputs": [],
      "name": "isLocked",
      "outputs": [
        {
          "internalType": "bool",
          "name": "",
          "type": "bool"
        }
      ],
      "stateMutability": "view",
      "type": "function"
    },
    {
      "inputs": [],
      "name": "merkleRoot",
      "outputs": [
        {
          "internalType": "bytes32",
          "name": "",
          "type": "bytes32"
        }
      ],
      "stateMutability": "view",
      "type": "function"
    },
    {
      "inputs": [],
      "name": "owner",
      "outputs": [
        {
          "internalType": "address",
          "name": "",
          "type": "address"
        }
      ],
      "stateMutability": "view",
      "type": "function"
    },
    {
      "inputs": [
        {
          "internalType": "address",
          "name": "distributorAddress_",
          "type": "address"
        }
      ],
      "name": "setDistributorAddress",
      "outputs": [],
      "stateMutability": "nonpayable",
      "type": "function"
    },
    {
      "inputs": [
        {
          "internalType": "bool",
          "name": "isLocked_",
          "type": "bool"
        }
      ],
      "name": "setLocked",
      "outputs": [],
      "stateMutability": "nonpayable",
      "type": "function"
    },
    {
      "inputs": [
        {
          "internalType": "bytes32",
          "name": "merkleRoot_",
          "type": "bytes32"
        }
      ],
      "name": "setMerkleRoot",
      "outputs": [],
      "stateMutability": "nonpayable",
      "type": "function"
    },
    {
      "inputs": [],
      "name": "token",
      "outputs": [
        {
          "internalType": "contract IERC20",
          "name": "",
          "type": "address"
        }
      ],
      "stateMutability": "view",
      "type": "function"
    },
    {
      "inputs": [
        {
          "internalType": "address",
          "name": "newOwner",
          "type": "address"
        }
      ],
      "name": "transferOwnership",
      "outputs": [],
      "stateMutability": "nonpayable",
      "type": "function"
    }
  ],
  "bytecode": "0x608060405234801561001057600080fd5b50604051610a71380380610a718339818101604052602081101561003357600080fd5b5051600080546001600160a01b031916339081178255604051909182917f8be0079c531659141344cd1fd0a4f28419497f9722a3daafe3b4186f6b6457e0908290a350600280546001600160a01b039092166001600160a01b031992831617905560038054909116331790556109c3806100ae6000396000f3fe608060405234801561001057600080fd5b50600436106100c95760003560e01c806387950f4911610081578063cc3c0f061161005b578063cc3c0f0614610225578063f2fde38b14610242578063fc0c546a14610268576100c9565b806387950f49146101db5780638da5cb5b14610201578063a4e2d63414610209576100c9565b80635c3d953c116100b25780635c3d953c146101095780637cb647591461019a578063878e0658146101b7576100c9565b8063211e28b6146100ce5780632eb4a7ab146100ef575b600080fd5b6100ed600480360360208110156100e457600080fd5b50351515610270565b005b6100f76102ff565b60408051918252519081900360200190f35b6100ed600480360360a081101561011f57600080fd5b8135916001600160a01b036020820135169160408201359160608101359181019060a08101608082013564010000000081111561015b57600080fd5b82018360208201111561016d57600080fd5b8035906020019184602083028401116401000000008311171561018f57600080fd5b509092509050610305565b6100ed600480360360208110156101b057600080fd5b5035610698565b6101bf6106d6565b604080516001600160a01b039092168252519081900360200190f35b6100ed600480360360208110156101f157600080fd5b50356001600160a01b03166106e5565b6101bf610754565b610211610763565b604080519115158252519081900360200190f35b6102116004803603602081101561023b57600080fd5b5035610784565b6100ed6004803603602081101561025857600080fd5b50356001600160a01b0316610799565b6101bf61080a565b61028061027b610819565b61081d565b600380548215157401000000000000000000000000000000000000000081027fffffffffffffffffffffff00ffffffffffffffffffffffffffffffffffffffff9092169190911790915560408051918252517f02facaa785222e4bd80c10706458a82b36f6c826954368073e6a0cbf0405ae709181900360200190a150565b60015481565b60035474010000000000000000000000000000000000000000900460ff1615610375576040805162461bcd60e51b815260206004820152600d60248201527f5061796f7574206c6f636b656400000000000000000000000000000000000000604482015290519081900360640190fd5b836103c7576040805162461bcd60e51b815260206004820152600e60248201527f496e76616c696420416d6f756e74000000000000000000000000000000000000604482015290519081900360640190fd5b6040805160208082018990527fffffffffffffffffffffffffffffffffffffffff000000000000000000000000606089901b16828401526054820187905260748083018790528351808403909101815260949092018352815191810191909120600081815260049092529190205460ff161561048a576040805162461bcd60e51b815260206004820152601660248201527f5061796f757420616c726561647920636c61696d656400000000000000000000604482015290519081900360640190fd5b6104ce600154828585808060200260200160405190810160405280939291908181526020018383602002808284376000920191909152509294939250506108e49050565b61051f576040805162461bcd60e51b815260206004820152600d60248201527f496e76616c69642070726f6f6600000000000000000000000000000000000000604482015290519081900360640190fd5b600081815260046020818152604080842080547fffffffffffffffffffffffffffffffffffffffffffffffffffffffffffffff0016600117905560025460035482517f23b872dd0000000000000000000000000000000000000000000000000000000081526001600160a01b03918216958101959095528b81166024860152604485018b905291519116936323b872dd936064808201949392918390030190829087803b1580156105cf57600080fd5b505af11580156105e3573d6000803e3d6000fd5b505050506040513d60208110156105f957600080fd5b505161064c576040805162461bcd60e51b815260206004820152600d60248201527f5061796f7574206661696c656400000000000000000000000000000000000000604482015290519081900360640190fd5b604080518681526020810186905281516001600160a01b038916927f8c4d69106aadf6bdad7624cc6ef2565954d5350ea3e6d59639e1462cf2ba2f6c928290030190a250505050505050565b6106a361027b610819565b600181905560405181907f914960aef5e033ce5cae8a7992d4b7a6f0f9741227b66acb67c605b7019f8a4690600090a250565b6003546001600160a01b031681565b6106f061027b610819565b600380547fffffffffffffffffffffffff0000000000000000000000000000000000000000166001600160a01b03831690811790915560405133907fe9286a175900d0389b36adb63c9d6992999e166909e1050adf0fc5efa15c91fd90600090a350565b6000546001600160a01b031690565b60035474010000000000000000000000000000000000000000900460ff1681565b60046020526000908152604090205460ff1681565b6107a461027b610819565b600080547fffffffffffffffffffffffff0000000000000000000000000000000000000000166001600160a01b0383811691821780845560405192939116917f8be0079c531659141344cd1fd0a4f28419497f9722a3daafe3b4186f6b6457e09190a350565b6002546001600160a01b031681565b3390565b306001600160a01b0316638da5cb5b6040518163ffffffff1660e01b815260040160206040518083038186803b15801561085657600080fd5b505afa15801561086a573d6000803e3d6000fd5b505050506040513d602081101561088057600080fd5b50516001600160a01b038281169116146108e1576040805162461bcd60e51b815260206004820152601660248201527f4f776e61626c653a206e6f7420746865206f776e657200000000000000000000604482015290519081900360640190fd5b50565b600081815b855181101561098257600086828151811061090057fe5b602002602001015190508083116109475782816040516020018083815260200182815260200192505050604051602081830303815290604052805190602001209250610979565b808360405160200180838152602001828152602001925050506040516020818303038152906040528051906020012092505b506001016108e9565b50909214939250505056fea26469706673582212204851ff60843fed27816576b5c5493d5df64aade85247cdefbab2eaaa4b12f03764736f6c63430007060033",
  "linkReferences": {},
  "deployedLinkReferences": {}
}