{
  "_format": "hh-sol-artifact-1",
  "contractName": "PayoutClaimDistributor",
  "sourceName": "contracts/payout/PayoutClaimDistributor.sol",
  "abi": [
    {
      "inputs": [
        {
          "internalType": "contract IERC20",
          "name": "ercToken_",
          "type": "address"
        },
        {
          "internalType": "bytes32",
          "name": "merkleRoot_",
          "type": "bytes32"
        }
      ],
      "stateMutability": "nonpayable",
      "type": "constructor"
    },
    {
      "anonymous": false,
      "inputs": [
        {
          "indexed": true,
          "internalType": "address",
          "name": "_address",
          "type": "address"
        },
        {
          "indexed": false,
          "internalType": "uint256",
          "name": "amount",
          "type": "uint256"
        },
        {
          "indexed": false,
          "internalType": "bytes32",
          "name": "salt",
          "type": "bytes32"
        }
      ],
      "name": "ClaimedPayout",
      "type": "event"
    },
    {
      "anonymous": false,
      "inputs": [
        {
          "indexed": false,
          "internalType": "bool",
          "name": "_isLocked",
          "type": "bool"
        }
      ],
      "name": "DistributionLocked",
      "type": "event"
    },
    {
      "anonymous": false,
      "inputs": [
        {
          "indexed": true,
          "internalType": "address",
          "name": "previousOwner",
          "type": "address"
        },
        {
          "indexed": true,
          "internalType": "address",
          "name": "newOwner",
          "type": "address"
        }
      ],
      "name": "OwnershipTransferred",
      "type": "event"
    },
    {
      "anonymous": false,
      "inputs": [
        {
          "indexed": true,
          "internalType": "address",
          "name": "_ownerAddress",
          "type": "address"
        },
        {
          "indexed": true,
          "internalType": "address",
          "name": "_distAddress",
          "type": "address"
        }
      ],
      "name": "SetDistributorAddress",
      "type": "event"
    },
    {
      "anonymous": false,
      "inputs": [
        {
          "indexed": true,
          "internalType": "bytes32",
          "name": "_merkleRoot",
          "type": "bytes32"
        }
      ],
      "name": "SetMerkleRoot",
      "type": "event"
    },
    {
      "anonymous": false,
      "inputs": [
        {
          "indexed": false,
          "internalType": "address",
          "name": "_tokenAddress",
          "type": "address"
        }
      ],
      "name": "SetTokenToClaim",
      "type": "event"
    },
    {
      "inputs": [
        {
          "internalType": "uint256",
          "name": "index",
          "type": "uint256"
        },
        {
          "internalType": "address",
          "name": "address_",
          "type": "address"
        },
        {
          "internalType": "uint256",
          "name": "amount",
          "type": "uint256"
        },
        {
          "internalType": "bytes32",
          "name": "salt",
          "type": "bytes32"
        },
        {
          "internalType": "bytes32[]",
          "name": "merkleProof",
          "type": "bytes32[]"
        }
      ],
      "name": "claimPayout",
      "outputs": [],
      "stateMutability": "nonpayable",
      "type": "function"
    },
    {
      "inputs": [
        {
          "internalType": "bytes32",
          "name": "",
          "type": "bytes32"
        }
      ],
      "name": "claimed",
      "outputs": [
        {
          "internalType": "bool",
          "name": "",
          "type": "bool"
        }
      ],
      "stateMutability": "view",
      "type": "function"
    },
    {
      "inputs": [],
      "name": "distAddress",
      "outputs": [
        {
          "internalType": "address",
          "name": "",
          "type": "address"
        }
      ],
      "stateMutability": "view",
      "type": "function"
    },
    {
      "inputs": [],
      "name": "ercToken",
      "outputs": [
        {
          "internalType": "contract IERC20",
          "name": "",
          "type": "address"
        }
      ],
      "stateMutability": "view",
      "type": "function"
    },
    {
      "inputs": [],
      "name": "isLocked",
      "outputs": [
        {
          "internalType": "bool",
          "name": "",
          "type": "bool"
        }
      ],
      "stateMutability": "view",
      "type": "function"
    },
    {
      "inputs": [],
      "name": "merkleRoot",
      "outputs": [
        {
          "internalType": "bytes32",
          "name": "",
          "type": "bytes32"
        }
      ],
      "stateMutability": "view",
      "type": "function"
    },
    {
      "inputs": [],
      "name": "owner",
      "outputs": [
        {
          "internalType": "address",
          "name": "",
          "type": "address"
        }
      ],
      "stateMutability": "view",
      "type": "function"
    },
    {
      "inputs": [
        {
          "internalType": "address",
          "name": "distributorAddress_",
          "type": "address"
        }
      ],
      "name": "setDistributorAddress",
      "outputs": [],
      "stateMutability": "nonpayable",
      "type": "function"
    },
    {
      "inputs": [
        {
          "internalType": "bool",
          "name": "isLocked_",
          "type": "bool"
        }
      ],
      "name": "setLocked",
      "outputs": [],
      "stateMutability": "nonpayable",
      "type": "function"
    },
    {
      "inputs": [
        {
          "internalType": "bytes32",
          "name": "merkleRoot_",
          "type": "bytes32"
        }
      ],
      "name": "setMerkleRoot",
      "outputs": [],
      "stateMutability": "nonpayable",
      "type": "function"
    },
    {
      "inputs": [
        {
          "internalType": "contract IERC20",
          "name": "ercToken_",
          "type": "address"
        }
      ],
      "name": "setTokenToClaim",
      "outputs": [],
      "stateMutability": "nonpayable",
      "type": "function"
    },
    {
      "inputs": [
        {
          "internalType": "address",
          "name": "newOwner",
          "type": "address"
        }
      ],
      "name": "transferOwnership",
      "outputs": [],
      "stateMutability": "nonpayable",
      "type": "function"
    }
  ],
  "bytecode": "0x608060405234801561001057600080fd5b50604051610b02380380610b028339818101604052604081101561003357600080fd5b508051602090910151600080546001600160a01b031916339081178255604051909182917f8be0079c531659141344cd1fd0a4f28419497f9722a3daafe3b4186f6b6457e0908290a350600280546001600160a01b039093166001600160a01b03199384161790556001556003805490911633179055610a4a806100b86000396000f3fe608060405234801561001057600080fd5b50600436106100d45760003560e01c8063878e065811610081578063a4e2d6341161005b578063a4e2d63414610242578063cc3c0f061461025e578063f2fde38b1461027b576100d4565b8063878e06581461020c57806387950f49146102145780638da5cb5b1461023a576100d4565b80635c3d953c116100b25780635c3d953c1461013a5780637cb64759146101cb5780637f2f767e146101e8576100d4565b80630a0102a4146100d9578063211e28b6146101015780632eb4a7ab14610120575b600080fd5b6100ff600480360360208110156100ef57600080fd5b50356001600160a01b03166102a1565b005b6100ff6004803603602081101561011757600080fd5b50351515610312565b61012861039c565b60408051918252519081900360200190f35b6100ff600480360360a081101561015057600080fd5b8135916001600160a01b036020820135169160408201359160608101359181019060a08101608082013564010000000081111561018c57600080fd5b82018360208201111561019e57600080fd5b803590602001918460208302840111640100000000831117156101c057600080fd5b5090925090506103a2565b6100ff600480360360208110156101e157600080fd5b5035610735565b6101f0610773565b604080516001600160a01b039092168252519081900360200190f35b6101f0610782565b6100ff6004803603602081101561022a57600080fd5b50356001600160a01b0316610791565b6101f06107f5565b61024a610804565b604080519115158252519081900360200190f35b61024a6004803603602081101561027457600080fd5b5035610825565b6100ff6004803603602081101561029157600080fd5b50356001600160a01b031661083a565b6102b16102ac6108a0565b6108a4565b600280546001600160a01b03831673ffffffffffffffffffffffffffffffffffffffff19909116811790915560408051918252517fa3851da653ef5435a5a88b7817a51e64fafdd0fa32c9944d76278856a7c718c19181900360200190a150565b61031d6102ac6108a0565b600380548215157401000000000000000000000000000000000000000081027fffffffffffffffffffffff00ffffffffffffffffffffffffffffffffffffffff9092169190911790915560408051918252517f02facaa785222e4bd80c10706458a82b36f6c826954368073e6a0cbf0405ae709181900360200190a150565b60015481565b60035474010000000000000000000000000000000000000000900460ff1615610412576040805162461bcd60e51b815260206004820152600d60248201527f5061796f7574206c6f636b656400000000000000000000000000000000000000604482015290519081900360640190fd5b83610464576040805162461bcd60e51b815260206004820152600e60248201527f496e76616c696420416d6f756e74000000000000000000000000000000000000604482015290519081900360640190fd5b6040805160208082018990527fffffffffffffffffffffffffffffffffffffffff000000000000000000000000606089901b16828401526054820187905260748083018790528351808403909101815260949092018352815191810191909120600081815260049092529190205460ff1615610527576040805162461bcd60e51b815260206004820152601660248201527f5061796f757420616c726561647920636c61696d656400000000000000000000604482015290519081900360640190fd5b61056b6001548285858080602002602001604051908101604052809392919081815260200183836020028082843760009201919091525092949392505061096b9050565b6105bc576040805162461bcd60e51b815260206004820152600d60248201527f496e76616c69642070726f6f6600000000000000000000000000000000000000604482015290519081900360640190fd5b600081815260046020818152604080842080547fffffffffffffffffffffffffffffffffffffffffffffffffffffffffffffff0016600117905560025460035482517f23b872dd0000000000000000000000000000000000000000000000000000000081526001600160a01b03918216958101959095528b81166024860152604485018b905291519116936323b872dd936064808201949392918390030190829087803b15801561066c57600080fd5b505af1158015610680573d6000803e3d6000fd5b505050506040513d602081101561069657600080fd5b50516106e9576040805162461bcd60e51b815260206004820152600d60248201527f5061796f7574206661696c656400000000000000000000000000000000000000604482015290519081900360640190fd5b604080518681526020810186905281516001600160a01b038916927f8c4d69106aadf6bdad7624cc6ef2565954d5350ea3e6d59639e1462cf2ba2f6c928290030190a250505050505050565b6107406102ac6108a0565b600181905560405181907f914960aef5e033ce5cae8a7992d4b7a6f0f9741227b66acb67c605b7019f8a4690600090a250565b6002546001600160a01b031681565b6003546001600160a01b031681565b61079c6102ac6108a0565b6003805473ffffffffffffffffffffffffffffffffffffffff19166001600160a01b03831690811790915560405133907fe9286a175900d0389b36adb63c9d6992999e166909e1050adf0fc5efa15c91fd90600090a350565b6000546001600160a01b031690565b60035474010000000000000000000000000000000000000000900460ff1681565b60046020526000908152604090205460ff1681565b6108456102ac6108a0565b6000805473ffffffffffffffffffffffffffffffffffffffff19166001600160a01b0383811691821780845560405192939116917f8be0079c531659141344cd1fd0a4f28419497f9722a3daafe3b4186f6b6457e09190a350565b3390565b306001600160a01b0316638da5cb5b6040518163ffffffff1660e01b815260040160206040518083038186803b1580156108dd57600080fd5b505afa1580156108f1573d6000803e3d6000fd5b505050506040513d602081101561090757600080fd5b50516001600160a01b03828116911614610968576040805162461bcd60e51b815260206004820152601660248201527f4f776e61626c653a206e6f7420746865206f776e657200000000000000000000604482015290519081900360640190fd5b50565b600081815b8551811015610a0957600086828151811061098757fe5b602002602001015190508083116109ce5782816040516020018083815260200182815260200192505050604051602081830303815290604052805190602001209250610a00565b808360405160200180838152602001828152602001925050506040516020818303038152906040528051906020012092505b50600101610970565b50909214939250505056fea2646970667358221220f79848a6e94e40ed3563809f0f2b5bf0ad99b6ad63d8bdf73bea18131580602d64736f6c63430007060033",
  "linkReferences": {},
  "deployedLinkReferences": {}
}