{
  "_format": "hh-sol-artifact-1",
  "contractName": "NFTPayoutClaim",
  "sourceName": "contracts/payout/NFTPayoutClaim.sol",
  "abi": [
    {
      "inputs": [],
      "stateMutability": "nonpayable",
      "type": "constructor"
    },
    {
      "anonymous": false,
      "inputs": [
        {
          "indexed": true,
          "internalType": "address",
          "name": "fromAddress",
          "type": "address"
        },
        {
          "indexed": true,
          "internalType": "address",
          "name": "toAddress",
          "type": "address"
        },
        {
          "indexed": false,
          "internalType": "uint256[]",
          "name": "tokenId",
          "type": "uint256[]"
        },
        {
          "indexed": false,
          "internalType": "uint256[]",
          "name": "amount",
          "type": "uint256[]"
        }
      ],
      "name": "ClaimPayout",
      "type": "event"
    },
    {
      "anonymous": false,
      "inputs": [
        {
          "indexed": true,
          "internalType": "address",
          "name": "previousOwner",
          "type": "address"
        },
        {
          "indexed": true,
          "internalType": "address",
          "name": "newOwner",
          "type": "address"
        }
      ],
      "name": "OwnershipTransferred",
      "type": "event"
    },
    {
      "anonymous": false,
      "inputs": [
        {
          "indexed": true,
          "internalType": "address",
          "name": "account",
          "type": "address"
        },
        {
          "indexed": true,
          "internalType": "address",
          "name": "distributorAddress",
          "type": "address"
        }
      ],
      "name": "SetDistributor",
      "type": "event"
    },
    {
      "anonymous": false,
      "inputs": [
        {
          "indexed": true,
          "internalType": "address",
          "name": "account",
          "type": "address"
        },
        {
          "indexed": false,
          "internalType": "bytes32",
          "name": "merkleRoot",
          "type": "bytes32"
        }
      ],
      "name": "SetMerkleRoot",
      "type": "event"
    },
    {
      "anonymous": false,
      "inputs": [
        {
          "indexed": false,
          "internalType": "bytes32",
          "name": "merkleRoot",
          "type": "bytes32"
        },
        {
          "indexed": false,
          "internalType": "bool",
          "name": "status",
          "type": "bool"
        }
      ],
      "name": "SetMerkleRootStatus",
      "type": "event"
    },
    {
      "inputs": [
        {
          "internalType": "bytes32",
          "name": "merkleRoot",
          "type": "bytes32"
        }
      ],
      "name": "addMerkleRoot",
      "outputs": [],
      "stateMutability": "nonpayable",
      "type": "function"
    },
    {
      "inputs": [
        {
          "internalType": "uint256",
          "name": "batch",
          "type": "uint256"
        },
        {
          "internalType": "address",
          "name": "receiver",
          "type": "address"
        },
        {
          "internalType": "address[]",
          "name": "contractAddress",
          "type": "address[]"
        },
        {
          "internalType": "uint256[][]",
          "name": "tokenIds",
          "type": "uint256[][]"
        },
        {
          "internalType": "uint256[][]",
          "name": "amounts",
          "type": "uint256[][]"
        },
        {
          "internalType": "bytes32",
          "name": "merkleRoot",
          "type": "bytes32"
        },
        {
          "internalType": "bytes32[][]",
          "name": "merkleProof",
          "type": "bytes32[][]"
        }
      ],
      "name": "claimPayout",
      "outputs": [],
      "stateMutability": "nonpayable",
      "type": "function"
    },
    {
      "inputs": [
        {
          "internalType": "bytes32",
          "name": "",
          "type": "bytes32"
        },
        {
          "internalType": "bytes32",
          "name": "",
          "type": "bytes32"
        }
      ],
      "name": "claimed",
      "outputs": [
        {
          "internalType": "bool",
          "name": "",
          "type": "bool"
        }
      ],
      "stateMutability": "view",
      "type": "function"
    },
    {
      "inputs": [
        {
          "internalType": "bytes32",
          "name": "merkleRoot",
          "type": "bytes32"
        }
      ],
      "name": "disableMerkleRoot",
      "outputs": [],
      "stateMutability": "nonpayable",
      "type": "function"
    },
    {
      "inputs": [],
      "name": "distributorAddress",
      "outputs": [
        {
          "internalType": "address",
          "name": "",
          "type": "address"
        }
      ],
      "stateMutability": "view",
      "type": "function"
    },
    {
      "inputs": [],
      "name": "merkleRootCount",
      "outputs": [
        {
          "internalType": "uint256",
          "name": "",
          "type": "uint256"
        }
      ],
      "stateMutability": "view",
      "type": "function"
    },
    {
      "inputs": [
        {
          "internalType": "bytes32",
          "name": "",
          "type": "bytes32"
        }
      ],
      "name": "merkleRootExists",
      "outputs": [
        {
          "internalType": "bool",
          "name": "",
          "type": "bool"
        }
      ],
      "stateMutability": "view",
      "type": "function"
    },
    {
      "inputs": [
        {
          "internalType": "bytes32",
          "name": "",
          "type": "bytes32"
        }
      ],
      "name": "merkleRoots",
      "outputs": [
        {
          "internalType": "bool",
          "name": "",
          "type": "bool"
        }
      ],
      "stateMutability": "view",
      "type": "function"
    },
    {
      "inputs": [],
      "name": "owner",
      "outputs": [
        {
          "internalType": "address",
          "name": "",
          "type": "address"
        }
      ],
      "stateMutability": "view",
      "type": "function"
    },
    {
      "inputs": [
        {
          "internalType": "address",
          "name": "distAddress",
          "type": "address"
        }
      ],
      "name": "setDistributor",
      "outputs": [],
      "stateMutability": "nonpayable",
      "type": "function"
    },
    {
      "inputs": [
        {
          "internalType": "address",
          "name": "newOwner",
          "type": "address"
        }
      ],
      "name": "transferOwnership",
      "outputs": [],
      "stateMutability": "nonpayable",
      "type": "function"
    }
  ],
  "bytecode": "0x6080604052600060025534801561001557600080fd5b50600080546001600160a01b031916339081178255604051909182917f8be0079c531659141344cd1fd0a4f28419497f9722a3daafe3b4186f6b6457e0908290a350600180546001600160a01b03191633179055610e7d806100786000396000f3fe608060405234801561001057600080fd5b50600436106100c95760003560e01c80638b45d08f11610081578063d766749a1161005b578063d766749a14610177578063f2fde38b1461018a578063fe5a53771461019d576100c9565b80638b45d08f146101475780638da5cb5b1461015a578063a51af4c51461016f576100c9565b80633323c807116100b25780633323c8071461010c578063666eb3fc1461011f57806375619ab514610134576100c9565b80631bc92e5a146100ce57806329f7787a146100f7575b600080fd5b6100e16100dc3660046109f3565b6101b0565b6040516100ee9190610cab565b60405180910390f35b61010a6101053660046109f3565b6101c5565b005b61010a61011a3660046109f3565b610295565b610127610358565b6040516100ee9190610cb6565b61010a6101423660046109d2565b61035e565b6100e1610155366004610a0b565b6103df565b6101626103ff565b6040516100ee9190610c09565b61016261040e565b61010a610185366004610a2c565b61041d565b61010a6101983660046109d2565b610773565b6100e16101ab3660046109f3565b6107e4565b60056020526000908152604090205460ff1681565b6101d56101d06107f9565b6107fd565b60008181526005602052604090205460ff1615156001146102115760405162461bcd60e51b815260040161020890610dab565b60405180910390fd5b60008181526004602052604090205460ff1615156001146102445760405162461bcd60e51b815260040161020890610d06565b600081815260046020526040808220805460ff19169055517f40033614aa35b4ce58ed1283ac64758c67bd85ffa3db2e8e67243f88cc4f9d819161028a91849190610cbf565b60405180910390a150565b6102a06101d06107f9565b60008181526005602052604090205460ff16156102cf5760405162461bcd60e51b815260040161020890610d3d565b6002805460018082019092556000838152600460209081526040808320805460ff199081168717909155600590925290912080549091169092179091556103146107f9565b6001600160a01b03167f8c20d275fe64865598ebdb3edb3a618f781cd951ac8ec5b911ddd5c72a4fb8b08360405161034c9190610cb6565b60405180910390a25050565b60025481565b6103696101d06107f9565b600180547fffffffffffffffffffffffff0000000000000000000000000000000000000000166001600160a01b0383169081179091556103a76107f9565b6001600160a01b03167f128323376dda10f736641415ad0e5e8a534e184b01a83f1d15af57c4627480d860405160405180910390a350565b600360209081526000928352604080842090915290825290205460ff1681565b6000546001600160a01b031690565b6001546001600160a01b031681565b60008381526005602052604090205460ff1615156001146104505760405162461bcd60e51b815260040161020890610dab565b60008381526004602052604090205460ff1615156001146104835760405162461bcd60e51b815260040161020890610d06565b60005b888110156107655760008a8a8381811061049c57fe5b90506020020160208101906104b191906109d2565b905060008d8d838c8c878181106104c457fe5b90506020028101906104d69190610de2565b8c8c898181106104e257fe5b90506020028101906104f49190610de2565b60405160200161050a9796959493929190610ba7565b604080517fffffffffffffffffffffffffffffffffffffffffffffffffffffffffffffffe0818403018152918152815160209283012060008981526003845282812082825290935291205490915060ff16156105785760405162461bcd60e51b815260040161020890610ccf565b6105d6868287878781811061058957fe5b905060200281019061059b9190610de2565b808060200260200160405190810160405280939291908181526020018383602002808284376000920191909152509294939250506108c49050565b6105f25760405162461bcd60e51b815260040161020890610d74565b60008681526003602090815260408083208484529091529020805460ff19166001908117909155546001600160a01b0380841691632eb2c2d691168f8d8d8881811061063a57fe5b905060200281019061064c9190610de2565b8d8d8a81811061065857fe5b905060200281019061066a9190610de2565b6040518763ffffffff1660e01b815260040161068b96959493929190610c1d565b600060405180830381600087803b1580156106a557600080fd5b505af11580156106b9573d6000803e3d6000fd5b505050508c6001600160a01b0316600160009054906101000a90046001600160a01b03166001600160a01b03167f5f8f4f37c178a5645ea0a4b9cac90cc2727faf8f875762aa1e335956b47d6a398c8c8781811061071357fe5b90506020028101906107259190610de2565b8c8c8981811061073157fe5b90506020028101906107439190610de2565b6040516107539493929190610c79565b60405180910390a35050600101610486565b505050505050505050505050565b61077e6101d06107f9565b600080547fffffffffffffffffffffffff0000000000000000000000000000000000000000166001600160a01b0383811691821780845560405192939116917f8be0079c531659141344cd1fd0a4f28419497f9722a3daafe3b4186f6b6457e09190a350565b60046020526000908152604090205460ff1681565b3390565b306001600160a01b0316638da5cb5b6040518163ffffffff1660e01b815260040160206040518083038186803b15801561083657600080fd5b505afa15801561084a573d6000803e3d6000fd5b505050506040513d602081101561086057600080fd5b50516001600160a01b038281169116146108c1576040805162461bcd60e51b815260206004820152601660248201527f4f776e61626c653a206e6f7420746865206f776e657200000000000000000000604482015290519081900360640190fd5b50565b600081815b85518110156109625760008682815181106108e057fe5b602002602001015190508083116109275782816040516020018083815260200182815260200192505050604051602081830303815290604052805190602001209250610959565b808360405160200180838152602001828152602001925050506040516020818303038152906040528051906020012092505b506001016108c9565b509092149392505050565b80356001600160a01b038116811461098457600080fd5b919050565b60008083601f84011261099a578182fd5b50813567ffffffffffffffff8111156109b1578182fd5b60208301915083602080830285010111156109cb57600080fd5b9250929050565b6000602082840312156109e3578081fd5b6109ec8261096d565b9392505050565b600060208284031215610a04578081fd5b5035919050565b60008060408385031215610a1d578081fd5b50508035926020909101359150565b600080600080600080600080600080600060e08c8e031215610a4c578687fd5b8b359a50610a5c60208d0161096d565b995067ffffffffffffffff8060408e01351115610a77578788fd5b610a878e60408f01358f01610989565b909a50985060608d0135811015610a9c578788fd5b610aac8e60608f01358f01610989565b909850965060808d0135811015610ac1578586fd5b610ad18e60808f01358f01610989565b909650945060a08d0135935060c08d0135811015610aed578283fd5b50610afe8d60c08e01358e01610989565b81935080925050509295989b509295989b9093969950565b60008284527f07ffffffffffffffffffffffffffffffffffffffffffffffffffffffffffffff831115610b47578081fd5b6020830280836020870137939093016020019283525090919050565b60007f07ffffffffffffffffffffffffffffffffffffffffffffffffffffffffffffff831115610b91578081fd5b6020830280838637939093019283525090919050565b60008882527fffffffffffffffffffffffffffffffffffffffff000000000000000000000000808960601b166020840152808860601b16603484015250610bfc610bf5604884018789610b63565b8486610b63565b9998505050505050505050565b6001600160a01b0391909116815260200190565b60006001600160a01b03808916835280881660208401525060a06040830152610c4a60a083018688610b16565b8281036060840152610c5d818587610b16565b8381036080909401939093525081526020019695505050505050565b600060408252610c8d604083018688610b16565b8281036020840152610ca0818587610b16565b979650505050505050565b901515815260200190565b90815260200190565b9182521515602082015260400190565b60208082526017908201527f5061796f757420616c726561647920636c61696d65642e000000000000000000604082015260600190565b60208082526014908201527f4d65726b6c65526f6f742064697361626c65642e000000000000000000000000604082015260600190565b6020808252601a908201527f4d65726b6c65526f6f7420616c7265616479206578697374732e000000000000604082015260600190565b6020808252600e908201527f496e76616c69642070726f6f662e000000000000000000000000000000000000604082015260600190565b60208082526013908201527f496e76616c6964204d65726b6c65526f6f742e00000000000000000000000000604082015260600190565b60008083357fffffffffffffffffffffffffffffffffffffffffffffffffffffffffffffffe1843603018112610e16578283fd5b83018035915067ffffffffffffffff821115610e30578283fd5b60209081019250810236038213156109cb57600080fdfea2646970667358221220fb3bf526c5100d0c4fd78b401305246d497378f0e9471de3bd682cb7fe46c32e64736f6c63430007060033",
  "linkReferences": {},
  "deployedLinkReferences": {}
}