{
  "_format": "hh-sol-artifact-1",
  "contractName": "NFTPayoutClaim",
  "sourceName": "contracts/payout/NFTPayoutClaim.sol",
  "abi": [
    {
      "inputs": [],
      "stateMutability": "nonpayable",
      "type": "constructor"
    },
    {
      "anonymous": false,
      "inputs": [
        {
          "indexed": true,
          "internalType": "address",
          "name": "fromAddress",
          "type": "address"
        },
        {
          "indexed": true,
          "internalType": "address",
          "name": "toAddress",
          "type": "address"
        },
        {
          "indexed": false,
          "internalType": "uint256[]",
          "name": "tokenId",
          "type": "uint256[]"
        },
        {
          "indexed": false,
          "internalType": "uint256[]",
          "name": "amount",
          "type": "uint256[]"
        }
      ],
      "name": "ClaimPayout",
      "type": "event"
    },
    {
      "anonymous": false,
      "inputs": [
        {
          "indexed": true,
          "internalType": "address",
          "name": "previousOwner",
          "type": "address"
        },
        {
          "indexed": true,
          "internalType": "address",
          "name": "newOwner",
          "type": "address"
        }
      ],
      "name": "OwnershipTransferred",
      "type": "event"
    },
    {
      "anonymous": false,
      "inputs": [
        {
          "indexed": true,
          "internalType": "address",
          "name": "account",
          "type": "address"
        },
        {
          "indexed": true,
          "internalType": "address",
          "name": "distributorAddress",
          "type": "address"
        }
      ],
      "name": "SetDistributor",
      "type": "event"
    },
    {
      "anonymous": false,
      "inputs": [
        {
          "indexed": true,
          "internalType": "address",
          "name": "account",
          "type": "address"
        },
        {
          "indexed": false,
          "internalType": "bytes32",
          "name": "merkleRoot",
          "type": "bytes32"
        }
      ],
      "name": "SetMerkleRoot",
      "type": "event"
    },
    {
      "anonymous": false,
      "inputs": [
        {
          "indexed": false,
          "internalType": "bytes32",
          "name": "merkleRoot",
          "type": "bytes32"
        },
        {
          "indexed": false,
          "internalType": "bool",
          "name": "status",
          "type": "bool"
        }
      ],
      "name": "SetMerkleRootStatus",
      "type": "event"
    },
    {
      "inputs": [
        {
          "internalType": "bytes32",
          "name": "merkleRoot",
          "type": "bytes32"
        }
      ],
      "name": "addMerkleRoot",
      "outputs": [],
      "stateMutability": "nonpayable",
      "type": "function"
    },
    {
      "inputs": [
        {
          "internalType": "uint256",
          "name": "batch",
          "type": "uint256"
        },
        {
          "internalType": "address",
          "name": "receiver",
          "type": "address"
        },
        {
          "internalType": "address[]",
          "name": "contractAddress",
          "type": "address[]"
        },
        {
          "internalType": "uint256[][]",
          "name": "tokenIds",
          "type": "uint256[][]"
        },
        {
          "internalType": "uint256[][]",
          "name": "amounts",
          "type": "uint256[][]"
        },
        {
          "internalType": "bytes32",
          "name": "merkleRoot",
          "type": "bytes32"
        },
        {
          "internalType": "bytes32[][]",
          "name": "merkleProof",
          "type": "bytes32[][]"
        }
      ],
      "name": "claimPayout",
      "outputs": [],
      "stateMutability": "nonpayable",
      "type": "function"
    },
    {
      "inputs": [
        {
          "internalType": "bytes32",
          "name": "",
          "type": "bytes32"
        },
        {
          "internalType": "bytes32",
          "name": "",
          "type": "bytes32"
        }
      ],
      "name": "claimed",
      "outputs": [
        {
          "internalType": "bool",
          "name": "",
          "type": "bool"
        }
      ],
      "stateMutability": "view",
      "type": "function"
    },
    {
      "inputs": [
        {
          "internalType": "bytes32",
          "name": "merkleRoot",
          "type": "bytes32"
        }
      ],
      "name": "disableMerkleRoot",
      "outputs": [],
      "stateMutability": "nonpayable",
      "type": "function"
    },
    {
      "inputs": [],
      "name": "distributorAddress",
      "outputs": [
        {
          "internalType": "address",
          "name": "",
          "type": "address"
        }
      ],
      "stateMutability": "view",
      "type": "function"
    },
    {
      "inputs": [],
      "name": "merkleRootCount",
      "outputs": [
        {
          "internalType": "uint256",
          "name": "",
          "type": "uint256"
        }
      ],
      "stateMutability": "view",
      "type": "function"
    },
    {
      "inputs": [
        {
          "internalType": "bytes32",
          "name": "",
          "type": "bytes32"
        }
      ],
      "name": "merkleRootExists",
      "outputs": [
        {
          "internalType": "bool",
          "name": "",
          "type": "bool"
        }
      ],
      "stateMutability": "view",
      "type": "function"
    },
    {
      "inputs": [
        {
          "internalType": "bytes32",
          "name": "",
          "type": "bytes32"
        }
      ],
      "name": "merkleRoots",
      "outputs": [
        {
          "internalType": "bool",
          "name": "",
          "type": "bool"
        }
      ],
      "stateMutability": "view",
      "type": "function"
    },
    {
      "inputs": [],
      "name": "owner",
      "outputs": [
        {
          "internalType": "address",
          "name": "",
          "type": "address"
        }
      ],
      "stateMutability": "view",
      "type": "function"
    },
    {
      "inputs": [
        {
          "internalType": "address",
          "name": "distAddress",
          "type": "address"
        }
      ],
      "name": "setDistributor",
      "outputs": [],
      "stateMutability": "nonpayable",
      "type": "function"
    },
    {
      "inputs": [
        {
          "internalType": "address",
          "name": "newOwner",
          "type": "address"
        }
      ],
      "name": "transferOwnership",
      "outputs": [],
      "stateMutability": "nonpayable",
      "type": "function"
    }
  ],
  "bytecode": "0x6080604052600060025534801561001557600080fd5b50600080546001600160a01b031916339081178255604051909182917f8be0079c531659141344cd1fd0a4f28419497f9722a3daafe3b4186f6b6457e0908290a350600180546001600160a01b03191633179055610e80806100786000396000f3fe608060405234801561001057600080fd5b50600436106100c95760003560e01c80638b45d08f11610081578063d766749a1161005b578063d766749a14610177578063f2fde38b1461018a578063fe5a53771461019d576100c9565b80638b45d08f146101475780638da5cb5b1461015a578063a51af4c51461016f576100c9565b80633323c807116100b25780633323c8071461010c578063666eb3fc1461011f57806375619ab514610134576100c9565b80631bc92e5a146100ce57806329f7787a146100f7575b600080fd5b6100e16100dc3660046109f6565b6101b0565b6040516100ee9190610cae565b60405180910390f35b61010a6101053660046109f6565b6101c5565b005b61010a61011a3660046109f6565b610295565b61012761035e565b6040516100ee9190610cb9565b61010a6101423660046109d5565b610364565b6100e1610155366004610a0e565b6103e2565b610162610402565b6040516100ee9190610c0c565b610162610411565b61010a610185366004610a2f565b610420565b61010a6101983660046109d5565b610776565b6100e16101ab3660046109f6565b6107e7565b60056020526000908152604090205460ff1681565b6101d56101d06107fc565b610800565b60008181526005602052604090205460ff1615156001146102115760405162461bcd60e51b815260040161020890610dae565b60405180910390fd5b60008181526004602052604090205460ff1615156001146102445760405162461bcd60e51b815260040161020890610d09565b600081815260046020526040808220805460ff19169055517f40033614aa35b4ce58ed1283ac64758c67bd85ffa3db2e8e67243f88cc4f9d819161028a91849190610cc2565b60405180910390a150565b600061029f6107fc565b90506102aa81610800565b60008281526005602052604090205460ff16156102d95760405162461bcd60e51b815260040161020890610d40565b6002805460018082019092556000848152600460209081526040808320805460ff199081168717909155600590925291829020805490911690931790925590516001600160a01b038316907f8c20d275fe64865598ebdb3edb3a618f781cd951ac8ec5b911ddd5c72a4fb8b090610351908690610cb9565b60405180910390a2505050565b60025481565b600061036e6107fc565b905061037981610800565b600180547fffffffffffffffffffffffff0000000000000000000000000000000000000000166001600160a01b0384811691821790925560405190918316907f128323376dda10f736641415ad0e5e8a534e184b01a83f1d15af57c4627480d890600090a35050565b600360209081526000928352604080842090915290825290205460ff1681565b6000546001600160a01b031690565b6001546001600160a01b031681565b60008381526005602052604090205460ff1615156001146104535760405162461bcd60e51b815260040161020890610dae565b60008381526004602052604090205460ff1615156001146104865760405162461bcd60e51b815260040161020890610d09565b60005b888110156107685760008a8a8381811061049f57fe5b90506020020160208101906104b491906109d5565b905060008d8d838c8c878181106104c757fe5b90506020028101906104d99190610de5565b8c8c898181106104e557fe5b90506020028101906104f79190610de5565b60405160200161050d9796959493929190610baa565b604080517fffffffffffffffffffffffffffffffffffffffffffffffffffffffffffffffe0818403018152918152815160209283012060008981526003845282812082825290935291205490915060ff161561057b5760405162461bcd60e51b815260040161020890610cd2565b6105d9868287878781811061058c57fe5b905060200281019061059e9190610de5565b808060200260200160405190810160405280939291908181526020018383602002808284376000920191909152509294939250506108c79050565b6105f55760405162461bcd60e51b815260040161020890610d77565b60008681526003602090815260408083208484529091529020805460ff19166001908117909155546001600160a01b0380841691632eb2c2d691168f8d8d8881811061063d57fe5b905060200281019061064f9190610de5565b8d8d8a81811061065b57fe5b905060200281019061066d9190610de5565b6040518763ffffffff1660e01b815260040161068e96959493929190610c20565b600060405180830381600087803b1580156106a857600080fd5b505af11580156106bc573d6000803e3d6000fd5b505050508c6001600160a01b0316600160009054906101000a90046001600160a01b03166001600160a01b03167f5f8f4f37c178a5645ea0a4b9cac90cc2727faf8f875762aa1e335956b47d6a398c8c8781811061071657fe5b90506020028101906107289190610de5565b8c8c8981811061073457fe5b90506020028101906107469190610de5565b6040516107569493929190610c7c565b60405180910390a35050600101610489565b505050505050505050505050565b6107816101d06107fc565b600080547fffffffffffffffffffffffff0000000000000000000000000000000000000000166001600160a01b0383811691821780845560405192939116917f8be0079c531659141344cd1fd0a4f28419497f9722a3daafe3b4186f6b6457e09190a350565b60046020526000908152604090205460ff1681565b3390565b306001600160a01b0316638da5cb5b6040518163ffffffff1660e01b815260040160206040518083038186803b15801561083957600080fd5b505afa15801561084d573d6000803e3d6000fd5b505050506040513d602081101561086357600080fd5b50516001600160a01b038281169116146108c4576040805162461bcd60e51b815260206004820152601660248201527f4f776e61626c653a206e6f7420746865206f776e657200000000000000000000604482015290519081900360640190fd5b50565b600081815b85518110156109655760008682815181106108e357fe5b6020026020010151905080831161092a578281604051602001808381526020018281526020019250505060405160208183030381529060405280519060200120925061095c565b808360405160200180838152602001828152602001925050506040516020818303038152906040528051906020012092505b506001016108cc565b509092149392505050565b80356001600160a01b038116811461098757600080fd5b919050565b60008083601f84011261099d578182fd5b50813567ffffffffffffffff8111156109b4578182fd5b60208301915083602080830285010111156109ce57600080fd5b9250929050565b6000602082840312156109e6578081fd5b6109ef82610970565b9392505050565b600060208284031215610a07578081fd5b5035919050565b60008060408385031215610a20578081fd5b50508035926020909101359150565b600080600080600080600080600080600060e08c8e031215610a4f578687fd5b8b359a50610a5f60208d01610970565b995067ffffffffffffffff8060408e01351115610a7a578788fd5b610a8a8e60408f01358f0161098c565b909a50985060608d0135811015610a9f578788fd5b610aaf8e60608f01358f0161098c565b909850965060808d0135811015610ac4578586fd5b610ad48e60808f01358f0161098c565b909650945060a08d0135935060c08d0135811015610af0578283fd5b50610b018d60c08e01358e0161098c565b81935080925050509295989b509295989b9093969950565b60008284527f07ffffffffffffffffffffffffffffffffffffffffffffffffffffffffffffff831115610b4a578081fd5b6020830280836020870137939093016020019283525090919050565b60007f07ffffffffffffffffffffffffffffffffffffffffffffffffffffffffffffff831115610b94578081fd5b6020830280838637939093019283525090919050565b60008882527fffffffffffffffffffffffffffffffffffffffff000000000000000000000000808960601b166020840152808860601b16603484015250610bff610bf8604884018789610b66565b8486610b66565b9998505050505050505050565b6001600160a01b0391909116815260200190565b60006001600160a01b03808916835280881660208401525060a06040830152610c4d60a083018688610b19565b8281036060840152610c60818587610b19565b8381036080909401939093525081526020019695505050505050565b600060408252610c90604083018688610b19565b8281036020840152610ca3818587610b19565b979650505050505050565b901515815260200190565b90815260200190565b9182521515602082015260400190565b60208082526017908201527f5061796f757420616c726561647920636c61696d65642e000000000000000000604082015260600190565b60208082526014908201527f4d65726b6c65526f6f742064697361626c65642e000000000000000000000000604082015260600190565b6020808252601a908201527f4d65726b6c65526f6f7420616c7265616479206578697374732e000000000000604082015260600190565b6020808252600e908201527f496e76616c69642070726f6f662e000000000000000000000000000000000000604082015260600190565b60208082526013908201527f496e76616c6964204d65726b6c65526f6f742e00000000000000000000000000604082015260600190565b60008083357fffffffffffffffffffffffffffffffffffffffffffffffffffffffffffffffe1843603018112610e19578283fd5b83018035915067ffffffffffffffff821115610e33578283fd5b60209081019250810236038213156109ce57600080fdfea264697066735822122088a5c148a0b8f3999661720f209c8e4639c0b680393546415063e47e7eee07c564736f6c63430007060033",
  "linkReferences": {},
  "deployedLinkReferences": {}
}