{
  "contractName": "AltcoinsPurchaseProxy",
  "abi": [
    {
      "inputs": [
        {
          "internalType": "contract FixedSupplyCratesSale",
          "name": "saleContract",
          "type": "address"
        }
      ],
      "payable": false,
      "stateMutability": "nonpayable",
      "type": "constructor"
    },
    {
      "anonymous": false,
      "inputs": [
        {
          "indexed": true,
          "internalType": "address",
          "name": "previousOwner",
          "type": "address"
        },
        {
          "indexed": true,
          "internalType": "address",
          "name": "newOwner",
          "type": "address"
        }
      ],
      "name": "OwnershipTransferred",
      "type": "event"
    },
    {
      "anonymous": false,
      "inputs": [
        {
          "indexed": true,
          "internalType": "address",
          "name": "owner",
          "type": "address"
        },
        {
          "indexed": false,
          "internalType": "address",
          "name": "operator",
          "type": "address"
        },
        {
          "indexed": true,
          "internalType": "uint256",
          "name": "lotId",
          "type": "uint256"
        },
        {
          "indexed": true,
          "internalType": "uint256",
          "name": "quantity",
          "type": "uint256"
        },
        {
          "indexed": false,
          "internalType": "uint256",
          "name": "pricePaid",
          "type": "uint256"
        },
        {
          "indexed": false,
          "internalType": "address",
          "name": "tokenAddress",
          "type": "address"
        },
        {
          "indexed": false,
          "internalType": "address",
          "name": "referrer",
          "type": "address"
        }
      ],
      "name": "PurchasedViaProxy",
      "type": "event"
    },
    {
      "constant": true,
      "inputs": [
        {
          "internalType": "address",
          "name": "",
          "type": "address"
        }
      ],
      "name": "_stableCoinRates",
      "outputs": [
        {
          "internalType": "uint256",
          "name": "",
          "type": "uint256"
        }
      ],
      "payable": false,
      "stateMutability": "view",
      "type": "function"
    },
    {
      "constant": true,
      "inputs": [],
      "name": "isOwner",
      "outputs": [
        {
          "internalType": "bool",
          "name": "",
          "type": "bool"
        }
      ],
      "payable": false,
      "stateMutability": "view",
      "type": "function"
    },
    {
      "constant": true,
      "inputs": [],
      "name": "owner",
      "outputs": [
        {
          "internalType": "address",
          "name": "",
          "type": "address"
        }
      ],
      "payable": false,
      "stateMutability": "view",
      "type": "function"
    },
    {
      "constant": false,
      "inputs": [],
      "name": "renounceOwnership",
      "outputs": [],
      "payable": false,
      "stateMutability": "nonpayable",
      "type": "function"
    },
    {
      "constant": false,
      "inputs": [
        {
          "internalType": "address",
          "name": "newOwner",
          "type": "address"
        }
      ],
      "name": "transferOwnership",
      "outputs": [],
      "payable": false,
      "stateMutability": "nonpayable",
      "type": "function"
    },
    {
      "constant": false,
      "inputs": [
        {
          "internalType": "address",
          "name": "altcoinAddress",
          "type": "address"
        },
        {
          "internalType": "uint256",
          "name": "stableCoinRate",
          "type": "uint256"
        }
      ],
      "name": "addAltcoin",
      "outputs": [],
      "payable": false,
      "stateMutability": "nonpayable",
      "type": "function"
    },
    {
      "constant": false,
      "inputs": [
        {
          "internalType": "address payable",
          "name": "destination",
          "type": "address"
        },
        {
          "internalType": "uint256",
          "name": "lotId",
          "type": "uint256"
        },
        {
          "internalType": "contract ERC20Capped",
          "name": "altcoinAddress",
          "type": "address"
        },
        {
          "internalType": "uint256",
          "name": "quantity",
          "type": "uint256"
        },
        {
          "internalType": "uint256",
          "name": "maxTokenAmount",
          "type": "uint256"
        },
        {
          "internalType": "uint256",
          "name": "minConversionRate",
          "type": "uint256"
        },
        {
          "internalType": "address payable",
          "name": "referrer",
          "type": "address"
        }
      ],
      "name": "purchaseFor",
      "outputs": [],
      "payable": false,
      "stateMutability": "nonpayable",
      "type": "function"
    },
    {
      "constant": true,
      "inputs": [
        {
          "internalType": "uint256",
          "name": "lotId",
          "type": "uint256"
        },
        {
          "internalType": "uint256",
          "name": "quantity",
          "type": "uint256"
        },
        {
          "internalType": "contract ERC20",
          "name": "tokenAddress",
          "type": "address"
        },
        {
          "internalType": "address",
          "name": "destination",
          "type": "address"
        }
      ],
      "name": "getPrice",
      "outputs": [
        {
          "internalType": "uint256",
          "name": "minConversionRate",
          "type": "uint256"
        },
        {
          "internalType": "uint256",
          "name": "lotPrice",
          "type": "uint256"
        },
        {
          "internalType": "uint256",
          "name": "lotPriceWithoutDiscount",
          "type": "uint256"
        }
      ],
      "payable": false,
      "stateMutability": "view",
      "type": "function"
    },
    {
      "constant": true,
      "inputs": [],
      "name": "balance",
      "outputs": [
        {
          "internalType": "uint256",
          "name": "",
          "type": "uint256"
        }
      ],
      "payable": false,
      "stateMutability": "view",
      "type": "function"
    },
    {
      "constant": false,
      "inputs": [
        {
          "internalType": "address",
          "name": "to",
          "type": "address"
        },
        {
          "internalType": "uint256",
          "name": "quantity",
          "type": "uint256"
        }
      ],
      "name": "withdraw",
      "outputs": [],
      "payable": false,
      "stateMutability": "nonpayable",
      "type": "function"
    }
  ],
  "bytecode": "0x608060405234801561001057600080fd5b506040516119183803806119188339818101604052602081101561003357600080fd5b505160006100486001600160e01b036100ca16565b600080546001600160a01b0319166001600160a01b0383169081178255604051929350917f8be0079c531659141344cd1fd0a4f28419497f9722a3daafe3b4186f6b6457e0908290a3506001600160a01b0381166100a557600080fd5b600180546001600160a01b0319166001600160a01b03929092169190911790556100ce565b3390565b61183b806100dd6000396000f3fe608060405234801561001057600080fd5b506004361061009e5760003560e01c80638f32d59b116100665780638f32d59b14610185578063b1e9bfda146101a1578063b69ef8a8146101f9578063f2fde38b14610201578063f3fef3a3146102275761009e565b80630f1ea46e146100a357806327e4774a146100f5578063382d27971461012d578063715018a6146101595780638da5cb5b14610161575b600080fd5b6100f3600480360360e08110156100b957600080fd5b506001600160a01b038135811691602081013591604082013581169160608101359160808201359160a08101359160c09091013516610253565b005b61011b6004803603602081101561010b57600080fd5b50356001600160a01b0316610802565b60408051918252519081900360200190f35b6100f36004803603604081101561014357600080fd5b506001600160a01b038135169060200135610814565b6100f361088a565b61016961091b565b604080516001600160a01b039092168252519081900360200190f35b61018d61092a565b604080519115158252519081900360200190f35b6101db600480360360808110156101b757600080fd5b508035906020810135906001600160a01b036040820135811691606001351661094e565b60408051938452602084019290925282820152519081900360600190f35b61011b610ccc565b6100f36004803603602081101561021757600080fd5b50356001600160a01b0316610db6565b6100f36004803603604081101561023d57600080fd5b506001600160a01b038135169060200135610e09565b61025b611769565b6102678786888b61094e565b604084015260208301528082526102bd576040805162461bcd60e51b8152602060048201526015602482015274105b1d18dbda5b881b9bdd081cdd5c1c1bdc9d1959605a1b604482015290519081900360640190fd5b8051831015610306576040805162461bcd60e51b815260206004820152601060248201526f4d696e207261746520746f6f206c6f7760801b604482015290519081900360640190fd5b838160200151111561035f576040805162461bcd60e51b815260206004820152601c60248201527f50726963652061626f7665206d617820746f6b656e20616d6f756e7400000000604482015290519081900360640190fd5b6103e48786600160009054906101000a90046001600160a01b03166001600160a01b03166335a10f716040518163ffffffff1660e01b815260040160206040518083038186803b1580156103b257600080fd5b505afa1580156103c6573d6000803e3d6000fd5b505050506040513d60208110156103dc57600080fd5b50518b61094e565b60a08401526080830152606082015260015460408051631799b43960e21b815290516001600160a01b03808a16936323b872dd9333939190921691635e66d0e4916004808301926020929190829003018186803b15801561044457600080fd5b505afa158015610458573d6000803e3d6000fd5b505050506040513d602081101561046e57600080fd5b5051602085810151604080516001600160e01b031960e088901b1681526001600160a01b039586166004820152949093166024850152604484015290516064808401938290030181600087803b1580156104c757600080fd5b505af11580156104db573d6000803e3d6000fd5b505050506040513d60208110156104f157600080fd5b5051610544576040805162461bcd60e51b815260206004820152601760248201527f416c74636f696e207472616e73666572206661696c6564000000000000000000604482015290519081900360640190fd5b600160009054906101000a90046001600160a01b03166001600160a01b03166335a10f716040518163ffffffff1660e01b815260040160206040518083038186803b15801561059257600080fd5b505afa1580156105a6573d6000803e3d6000fd5b505050506040513d60208110156105bc57600080fd5b505160015460808301516040805163095ea7b360e01b81526001600160a01b039384166004820152602481019290925251919092169163095ea7b39160448083019260209291908290030181600087803b15801561061957600080fd5b505af115801561062d573d6000803e3d6000fd5b505050506040513d602081101561064357600080fd5b5051610688576040805162461bcd60e51b815260206004820152600f60248201526e105c1c1c9bdd985b0819985a5b1959608a1b604482015290519081900360640190fd5b600154604080516335a10f7160e01b815290516001600160a01b0390921691630f1ea46e918b918b9185916335a10f7191600480820192602092909190829003018186803b1580156106d957600080fd5b505afa1580156106ed573d6000803e3d6000fd5b505050506040513d602081101561070357600080fd5b505160808601516060870151604080516001600160e01b031960e089901b1681526001600160a01b03968716600482015260248101959095529285166044850152606484018c9052608484019190915260a483015291861660c4820152905160e480830192600092919082900301818387803b15801561078257600080fd5b505af1158015610796573d6000803e3d6000fd5b5050505060208181015160408051338152928301919091526001600160a01b03888116838301528481166060840152905187928a928c16917f27146347f012dfbbdba4ed68c4e1cea09cd53cba10bad82bc11d56d90df168069181900360800190a45050505050505050565b60026020526000908152604090205481565b61081c61092a565b61085b576040805162461bcd60e51b815260206004820181905260248201526000805160206117e7833981519152604482015290519081900360640190fd5b6001600160a01b03821661086e57600080fd5b6001600160a01b03909116600090815260026020526040902055565b61089261092a565b6108d1576040805162461bcd60e51b815260206004820181905260248201526000805160206117e7833981519152604482015290519081900360640190fd5b600080546040516001600160a01b03909116907f8be0079c531659141344cd1fd0a4f28419497f9722a3daafe3b4186f6b6457e0908390a3600080546001600160a01b0319169055565b6000546001600160a01b031690565b600080546001600160a01b031661093f61104c565b6001600160a01b031614905090565b6001546040805163205fe33960e01b8152600481018790528151670de0b6b3a764000093600093849384936001600160a01b039093169263205fe33992602480840193919291829003018186803b1580156109a857600080fd5b505afa1580156109bc573d6000803e3d6000fd5b505050506040513d60408110156109d257600080fd5b506020015190506109e9818863ffffffff61105016565b60015460408051632d67499360e21b81526001600160a01b038981166004830152602482018d90529151939550610a769385938c93169163b59d264c916044808301926020929190829003018186803b158015610a4557600080fd5b505afa158015610a59573d6000803e3d6000fd5b505050506040513d6020811015610a6f57600080fd5b50516110b2565b50600154604080516335a10f7160e01b815290519295506001600160a01b03909116916335a10f7191600480820192602092909190829003018186803b158015610abf57600080fd5b505afa158015610ad3573d6000803e3d6000fd5b505050506040513d6020811015610ae957600080fd5b50516001600160a01b03878116911614610cc1576001600160a01b038616600090815260026020526040902054935083610b62576040805162461bcd60e51b8152602060048201526015602482015274105b1d18dbda5b881b9bdd081cdd5c1c1bdc9d1959605a1b604482015290519081900360640190fd5b610b8a610b84846ec097ce7bc90715b34b9f100000000063ffffffff61105016565b8561120b565b9250610c12600160009054906101000a90046001600160a01b03166001600160a01b03166335a10f716040518163ffffffff1660e01b815260040160206040518083038186803b158015610bdd57600080fd5b505afa158015610bf1573d6000803e3d6000fd5b505050506040513d6020811015610c0757600080fd5b50518785600161124f565b9250610c36610b84836ec097ce7bc90715b34b9f100000000063ffffffff61105016565b9150610cbe600160009054906101000a90046001600160a01b03166001600160a01b03166335a10f716040518163ffffffff1660e01b815260040160206040518083038186803b158015610c8957600080fd5b505afa158015610c9d573d6000803e3d6000fd5b505050506040513d6020811015610cb357600080fd5b50518784600161124f565b91505b509450945094915050565b600154604080516335a10f7160e01b815290516000926001600160a01b0316916335a10f71916004808301926020929190829003018186803b158015610d1157600080fd5b505afa158015610d25573d6000803e3d6000fd5b505050506040513d6020811015610d3b57600080fd5b5051604080516370a0823160e01b815230600482015290516001600160a01b03909216916370a0823191602480820192602092909190829003018186803b158015610d8557600080fd5b505afa158015610d99573d6000803e3d6000fd5b505050506040513d6020811015610daf57600080fd5b5051905090565b610dbe61092a565b610dfd576040805162461bcd60e51b815260206004820181905260248201526000805160206117e7833981519152604482015290519081900360640190fd5b610e068161138d565b50565b610e1161092a565b610e50576040805162461bcd60e51b815260206004820181905260248201526000805160206117e7833981519152604482015290519081900360640190fd5b80610f4657600160009054906101000a90046001600160a01b03166001600160a01b03166335a10f716040518163ffffffff1660e01b815260040160206040518083038186803b158015610ea357600080fd5b505afa158015610eb7573d6000803e3d6000fd5b505050506040513d6020811015610ecd57600080fd5b5051604080516370a0823160e01b815230600482015290516001600160a01b03909216916370a0823191602480820192602092909190829003018186803b158015610f1757600080fd5b505afa158015610f2b573d6000803e3d6000fd5b505050506040513d6020811015610f4157600080fd5b505190505b600160009054906101000a90046001600160a01b03166001600160a01b03166335a10f716040518163ffffffff1660e01b815260040160206040518083038186803b158015610f9457600080fd5b505afa158015610fa8573d6000803e3d6000fd5b505050506040513d6020811015610fbe57600080fd5b50516040805163a9059cbb60e01b81526001600160a01b038581166004830152602482018590529151919092169163a9059cbb9160448083019260209291908290030181600087803b15801561101357600080fd5b505af1158015611027573d6000803e3d6000fd5b505050506040513d602081101561103d57600080fd5b505161104857600080fd5b5050565b3390565b60008261105f575060006110ac565b8282028284828161106c57fe5b04146110a95760405162461bcd60e51b81526004018080602001828103825260218152602001806117c66021913960400191505060405180910390fd5b90505b92915050565b6000806110c5858563ffffffff61105016565b9150600160009054906101000a90046001600160a01b03166001600160a01b031663ef2bc4056040518163ffffffff1660e01b815260040160206040518083038186803b15801561111557600080fd5b505afa158015611129573d6000803e3d6000fd5b505050506040513d602081101561113f57600080fd5b5051156111e5576111e26127106111d6600160009054906101000a90046001600160a01b03166001600160a01b031663af7a07ad6040518163ffffffff1660e01b815260040160206040518083038186803b15801561119d57600080fd5b505afa1580156111b1573d6000803e3d6000fd5b505050506040513d60208110156111c757600080fd5b5051859063ffffffff61105016565b9063ffffffff61142d16565b90505b6111f085858561146f565b01611201828263ffffffff61152d16565b9150935093915050565b60006110a981611221858563ffffffff61156f16565b1161122d576000611230565b60015b60ff16611243858563ffffffff61142d16565b9063ffffffff6115b116565b600080856001600160a01b031663313ce5676040518163ffffffff1660e01b815260040160206040518083038186803b15801561128b57600080fd5b505afa15801561129f573d6000803e3d6000fd5b505050506040513d60208110156112b557600080fd5b50516040805163313ce56760e01b81529051601290920160ff1692506000916001600160a01b0388169163313ce567916004808301926020929190829003018186803b15801561130457600080fd5b505afa158015611318573d6000803e3d6000fd5b505050506040513d602081101561132e57600080fd5b505160ff1690508082111561137057831561135b5761135285828403600a0a61120b565b92505050611385565b61135285828403600a0a63ffffffff61142d16565b61135285838303600a0a63ffffffff61105016565b949350505050565b6001600160a01b0381166113d25760405162461bcd60e51b81526004018080602001828103825260268152602001806117a06026913960400191505060405180910390fd5b600080546040516001600160a01b03808516939216917f8be0079c531659141344cd1fd0a4f28419497f9722a3daafe3b4186f6b6457e091a3600080546001600160a01b0319166001600160a01b0392909216919091179055565b60006110a983836040518060400160405280601a81526020017f536166654d6174683a206469766973696f6e206279207a65726f00000000000081525061160b565b6000806005830490506000816005858701040390506115236127106111d6600160009054906101000a90046001600160a01b03166001600160a01b031663984006206040518163ffffffff1660e01b815260040160206040518083038186803b1580156114db57600080fd5b505afa1580156114ef573d6000803e3d6000fd5b505050506040513d602081101561150557600080fd5b50516115178a8663ffffffff61105016565b9063ffffffff61105016565b9695505050505050565b60006110a983836040518060400160405280601e81526020017f536166654d6174683a207375627472616374696f6e206f766572666c6f7700008152506116ad565b60006110a983836040518060400160405280601881526020017f536166654d6174683a206d6f64756c6f206279207a65726f0000000000000000815250611707565b6000828201838110156110a9576040805162461bcd60e51b815260206004820152601b60248201527f536166654d6174683a206164646974696f6e206f766572666c6f770000000000604482015290519081900360640190fd5b600081836116975760405162461bcd60e51b81526004018080602001828103825283818151815260200191508051906020019080838360005b8381101561165c578181015183820152602001611644565b50505050905090810190601f1680156116895780820380516001836020036101000a031916815260200191505b509250505060405180910390fd5b5060008385816116a357fe5b0495945050505050565b600081848411156116ff5760405162461bcd60e51b815260206004820181815283516024840152835190928392604490910191908501908083836000831561165c578181015183820152602001611644565b505050900390565b600081836117565760405162461bcd60e51b815260206004820181815283516024840152835190928392604490910191908501908083836000831561165c578181015183820152602001611644565b5082848161176057fe5b06949350505050565b6040518060c00160405280600081526020016000815260200160008152602001600081526020016000815260200160008152509056fe4f776e61626c653a206e6577206f776e657220697320746865207a65726f2061646472657373536166654d6174683a206d756c7469706c69636174696f6e206f766572666c6f774f776e61626c653a2063616c6c6572206973206e6f7420746865206f776e6572a265627a7a723158201a380de881de04059baee777c015b2d10d4a2bfa86c0052c2b1076ee0abb342464736f6c63430005100032",
  "source": "pragma solidity = 0.5.16;\n\nimport \"@openzeppelin/contracts/token/ERC20/ERC20.sol\";\nimport \"@openzeppelin/contracts/token/ERC20/ERC20Capped.sol\";\nimport \"@openzeppelin/contracts/ownership/Ownable.sol\";\nimport \"@openzeppelin/contracts/math/SafeMath.sol\";\nimport \"@openzeppelin/contracts/math/Math.sol\";\n\nimport \"./FixedSupplyCratesSale.sol\";\n\ncontract AltcoinsPurchaseProxy is Ownable {\n    using SafeMath for uint256;\n\n    event PurchasedViaProxy (\n        address indexed owner,\n        address operator,\n        uint256 indexed lotId,\n        uint256 indexed quantity,\n        uint256 pricePaid,\n        address tokenAddress,\n        address referrer\n    );\n\n    struct PurchaseForVars {\n        uint256 altcoinConversionRate;\n        uint256 altcoinPrice;\n        uint256 altcoinPriceWithoutDiscount;\n        uint256 stablecoinConversionRate;\n        uint256 stablecoinPrice;\n        uint256 stablecoinPriceWithoutDiscount;\n    }\n\n    uint256 private constant PERCENT_PRECISION = 10000;\n    uint256 private constant MULTI_PURCHASE_DISCOUNT_STEP = 5;\n\n    FixedSupplyCratesSale _saleContract;\n    mapping (address => uint256) public _stableCoinRates;\n\n    constructor(FixedSupplyCratesSale saleContract) public {\n        require(saleContract != FixedSupplyCratesSale(address(0)));\n        _saleContract = saleContract;\n    }\n\n    function addAltcoin(address altcoinAddress, uint256 stableCoinRate) external onlyOwner {\n        require(altcoinAddress != address(0));\n        _stableCoinRates[altcoinAddress] = stableCoinRate;\n    }\n\n    function purchaseFor(\n        address payable destination,\n        uint256 lotId,\n        ERC20Capped altcoinAddress,\n        uint256 quantity,\n        uint256 maxTokenAmount,\n        uint256 minConversionRate,\n        address payable referrer\n    ) external {\n        PurchaseForVars memory vars;\n\n        (\n            vars.altcoinConversionRate,\n            vars.altcoinPrice,\n            vars.altcoinPriceWithoutDiscount\n        ) = getPrice(lotId, quantity, ERC20(address(altcoinAddress)), destination);\n\n        require(vars.altcoinConversionRate != 0, \"Altcoin not supported\");\n        require(minConversionRate >= vars.altcoinConversionRate, \"Min rate too low\"); //TODO check it's correct\n        require(vars.altcoinPrice <= maxTokenAmount, \"Price above max token amount\");\n\n        (\n            vars.stablecoinConversionRate,\n            vars.stablecoinPrice,\n            vars.stablecoinPriceWithoutDiscount\n        ) = getPrice(lotId, quantity, _saleContract._stableCoinAddress(), destination);\n\n        require(altcoinAddress.transferFrom(msg.sender, _saleContract._payoutWallet(), vars.altcoinPrice), \"Altcoin transfer failed\");\n        require(ERC20(address(_saleContract._stableCoinAddress())).approve(address(_saleContract), vars.stablecoinPrice), \"Approval failed\");\n        _saleContract.purchaseFor(\n            destination,\n            lotId,\n            ERC20Capped(address(_saleContract._stableCoinAddress())),\n            quantity,\n            vars.stablecoinPrice,\n            vars.stablecoinConversionRate,\n            referrer\n        );\n\n        emit PurchasedViaProxy(\n            destination,\n            msg.sender,\n            lotId,\n            quantity,\n            vars.altcoinPrice,\n            address(altcoinAddress),\n            referrer\n        );\n    }\n\n    function getPrice(\n        uint256 lotId,\n        uint256 quantity,\n        ERC20 tokenAddress,\n        address destination\n    )\n    public\n    view\n    returns (\n        uint256 minConversionRate,\n        uint256 lotPrice,\n        uint256 lotPriceWithoutDiscount\n    )\n    {\n        minConversionRate = 1000000000000000000;\n        (, uint256 singleLotPrice) = _saleContract._lots(lotId);\n        lotPriceWithoutDiscount = singleLotPrice.mul(quantity);\n        (lotPrice, ) = _getPriceWithDiscounts(singleLotPrice, quantity, _saleContract._cratesPurchased(destination, lotId));\n        if (tokenAddress != _saleContract._stableCoinAddress()) {\n            minConversionRate = _stableCoinRates[address(tokenAddress)];\n            require(minConversionRate != 0, \"Altcoin not supported\");\n            lotPrice = ceilingDiv(lotPrice.mul(10**36), minConversionRate);\n            lotPrice = _fixTokenDecimals(_saleContract._stableCoinAddress(), tokenAddress, lotPrice, true);\n            lotPriceWithoutDiscount = ceilingDiv(lotPriceWithoutDiscount.mul(10**36), minConversionRate);\n            lotPriceWithoutDiscount = _fixTokenDecimals(_saleContract._stableCoinAddress(), tokenAddress, lotPriceWithoutDiscount, true);\n        }\n    }\n\n    function ceilingDiv(uint256 a, uint256 b) internal pure returns (uint256 c) {\n        return a.div(b).add(a.mod(b) > 0 ? 1 : 0);\n    }\n\n    function _nthPurchaseDiscount(uint lotPrice, uint quantity, uint cratesPurchased) private view returns(uint) {\n        uint discountsApplied = cratesPurchased / MULTI_PURCHASE_DISCOUNT_STEP;\n        uint discountsToApply = (cratesPurchased + quantity) / MULTI_PURCHASE_DISCOUNT_STEP - discountsApplied;\n\n        return lotPrice.mul(discountsToApply).mul(_saleContract._multiPurchaseDiscount()).div(PERCENT_PRECISION);\n    }\n\n    function _getPriceWithDiscounts(uint256 lotPrice, uint quantity, uint cratesPurchased) private view returns(uint price, uint discount) {\n        price = lotPrice.mul(quantity);\n        // Discounts are additive\n\n        // apply early bird discount\n        if (_saleContract.initialDiscountActive()) {\n            discount = price.mul(_saleContract._initialDiscountPercentage()).div(PERCENT_PRECISION);\n        }\n\n        // apply multi purchase discount if any\n        discount += _nthPurchaseDiscount(lotPrice, quantity, cratesPurchased);\n        price = price.sub(discount);\n    }\n\n    function _fixTokenDecimals(\n        ERC20 _src,\n        ERC20 _dest,\n        uint256 _unfixedDestAmount,\n        bool _ceiling\n    )\n    internal\n    view\n    returns (uint256 _destTokenAmount)\n    {\n        uint256 _unfixedDecimals = ERC20Detailed(address(_src)).decimals() + 18; // Kyber by default returns rates with 18 decimals.\n        uint256 _decimals = ERC20Detailed(address(_dest)).decimals();\n\n        if (_unfixedDecimals > _decimals) {\n            // Divide token amount by 10^(_unfixedDecimals - _decimals) to reduce decimals.\n            if (_ceiling) {\n                return ceilingDiv(_unfixedDestAmount, (10 ** (_unfixedDecimals - _decimals)));\n            } else {\n                return _unfixedDestAmount.div(10 ** (_unfixedDecimals - _decimals));\n            }\n        } else {\n            // Multiply token amount with 10^(_decimals - _unfixedDecimals) to increase decimals.\n            return _unfixedDestAmount.mul(10 ** (_decimals - _unfixedDecimals));\n        }\n    }\n\n    function balance() external view returns(uint256) {\n        return ERC20(_saleContract._stableCoinAddress()).balanceOf(address(this));\n    }\n\n    function withdraw(address to, uint256 quantity) external onlyOwner {\n        if (quantity == 0) { // Withdraw all\n            quantity = ERC20(_saleContract._stableCoinAddress()).balanceOf(address(this));\n        }\n        require(ERC20(_saleContract._stableCoinAddress()).transfer(to, quantity));\n    }\n}",
  "sourcePath": "/Users/nathan/Workspace/animoca/f1dt/contracts_and_tokens_management/contracts/purchase/AltcoinsPurchaseProxy.sol",
  "compiler": {
    "name": "solc",
    "version": "0.5.16+commit.9c3226ce.Emscripten.clang"
  },
  "schemaVersion": "3.0.23",
  "updatedAt": "2020-07-02T20:02:48.226Z",
  "devdoc": {
    "methods": {
      "isOwner()": {
        "details": "Returns true if the caller is the current owner."
      },
      "owner()": {
        "details": "Returns the address of the current owner."
      },
      "renounceOwnership()": {
        "details": "Leaves the contract without owner. It will not be possible to call `onlyOwner` functions anymore. Can only be called by the current owner.     * NOTE: Renouncing ownership will leave the contract without an owner, thereby removing any functionality that is only available to the owner."
      },
      "transferOwnership(address)": {
        "details": "Transfers ownership of the contract to a new account (`newOwner`). Can only be called by the current owner."
      }
    }
  },
  "userdoc": {
    "methods": {}
  }
}