{
  "contractName": "F1DeltaCrate",
  "abi": [
    {
      "inputs": [
        {
          "internalType": "uint256",
          "name": "lotId",
          "type": "uint256"
        },
        {
          "internalType": "uint256",
          "name": "cap",
          "type": "uint256"
        },
        {
          "internalType": "string",
          "name": "name",
          "type": "string"
        },
        {
          "internalType": "string",
          "name": "symbol",
          "type": "string"
        },
        {
          "internalType": "string",
          "name": "uri",
          "type": "string"
        },
        {
          "internalType": "address",
          "name": "crateOpener",
          "type": "address"
        }
      ],
      "payable": false,
      "stateMutability": "nonpayable",
      "type": "constructor"
    },
    {
      "anonymous": false,
      "inputs": [
        {
          "indexed": true,
          "internalType": "address",
          "name": "owner",
          "type": "address"
        },
        {
          "indexed": true,
          "internalType": "address",
          "name": "spender",
          "type": "address"
        },
        {
          "indexed": false,
          "internalType": "uint256",
          "name": "value",
          "type": "uint256"
        }
      ],
      "name": "Approval",
      "type": "event"
    },
    {
      "anonymous": false,
      "inputs": [
        {
          "indexed": true,
          "internalType": "address",
          "name": "account",
          "type": "address"
        }
      ],
      "name": "MinterAdded",
      "type": "event"
    },
    {
      "anonymous": false,
      "inputs": [
        {
          "indexed": true,
          "internalType": "address",
          "name": "account",
          "type": "address"
        }
      ],
      "name": "MinterRemoved",
      "type": "event"
    },
    {
      "anonymous": false,
      "inputs": [
        {
          "indexed": true,
          "internalType": "address",
          "name": "previousOwner",
          "type": "address"
        },
        {
          "indexed": true,
          "internalType": "address",
          "name": "newOwner",
          "type": "address"
        }
      ],
      "name": "OwnershipTransferred",
      "type": "event"
    },
    {
      "anonymous": false,
      "inputs": [
        {
          "indexed": true,
          "internalType": "address",
          "name": "oldRelayHub",
          "type": "address"
        },
        {
          "indexed": true,
          "internalType": "address",
          "name": "newRelayHub",
          "type": "address"
        }
      ],
      "name": "RelayHubChanged",
      "type": "event"
    },
    {
      "anonymous": false,
      "inputs": [
        {
          "indexed": true,
          "internalType": "address",
          "name": "from",
          "type": "address"
        },
        {
          "indexed": true,
          "internalType": "address",
          "name": "to",
          "type": "address"
        },
        {
          "indexed": false,
          "internalType": "uint256",
          "name": "value",
          "type": "uint256"
        }
      ],
      "name": "Transfer",
      "type": "event"
    },
    {
      "constant": true,
      "inputs": [],
      "name": "_cratesIssued",
      "outputs": [
        {
          "internalType": "uint256",
          "name": "",
          "type": "uint256"
        }
      ],
      "payable": false,
      "stateMutability": "view",
      "type": "function"
    },
    {
      "constant": false,
      "inputs": [
        {
          "internalType": "address",
          "name": "account",
          "type": "address"
        }
      ],
      "name": "addMinter",
      "outputs": [],
      "payable": false,
      "stateMutability": "nonpayable",
      "type": "function"
    },
    {
      "constant": true,
      "inputs": [
        {
          "internalType": "address",
          "name": "owner",
          "type": "address"
        },
        {
          "internalType": "address",
          "name": "spender",
          "type": "address"
        }
      ],
      "name": "allowance",
      "outputs": [
        {
          "internalType": "uint256",
          "name": "",
          "type": "uint256"
        }
      ],
      "payable": false,
      "stateMutability": "view",
      "type": "function"
    },
    {
      "constant": false,
      "inputs": [
        {
          "internalType": "address",
          "name": "spender",
          "type": "address"
        },
        {
          "internalType": "uint256",
          "name": "amount",
          "type": "uint256"
        }
      ],
      "name": "approve",
      "outputs": [
        {
          "internalType": "bool",
          "name": "",
          "type": "bool"
        }
      ],
      "payable": false,
      "stateMutability": "nonpayable",
      "type": "function"
    },
    {
      "constant": true,
      "inputs": [
        {
          "internalType": "address",
          "name": "account",
          "type": "address"
        }
      ],
      "name": "balanceOf",
      "outputs": [
        {
          "internalType": "uint256",
          "name": "",
          "type": "uint256"
        }
      ],
      "payable": false,
      "stateMutability": "view",
      "type": "function"
    },
    {
      "constant": true,
      "inputs": [],
      "name": "cap",
      "outputs": [
        {
          "internalType": "uint256",
          "name": "",
          "type": "uint256"
        }
      ],
      "payable": false,
      "stateMutability": "view",
      "type": "function"
    },
    {
      "constant": true,
      "inputs": [],
      "name": "decimals",
      "outputs": [
        {
          "internalType": "uint8",
          "name": "",
          "type": "uint8"
        }
      ],
      "payable": false,
      "stateMutability": "view",
      "type": "function"
    },
    {
      "constant": false,
      "inputs": [
        {
          "internalType": "address",
          "name": "spender",
          "type": "address"
        },
        {
          "internalType": "uint256",
          "name": "subtractedValue",
          "type": "uint256"
        }
      ],
      "name": "decreaseAllowance",
      "outputs": [
        {
          "internalType": "bool",
          "name": "",
          "type": "bool"
        }
      ],
      "payable": false,
      "stateMutability": "nonpayable",
      "type": "function"
    },
    {
      "constant": true,
      "inputs": [],
      "name": "getHubAddr",
      "outputs": [
        {
          "internalType": "address",
          "name": "",
          "type": "address"
        }
      ],
      "payable": false,
      "stateMutability": "view",
      "type": "function"
    },
    {
      "constant": false,
      "inputs": [
        {
          "internalType": "address",
          "name": "spender",
          "type": "address"
        },
        {
          "internalType": "uint256",
          "name": "addedValue",
          "type": "uint256"
        }
      ],
      "name": "increaseAllowance",
      "outputs": [
        {
          "internalType": "bool",
          "name": "",
          "type": "bool"
        }
      ],
      "payable": false,
      "stateMutability": "nonpayable",
      "type": "function"
    },
    {
      "constant": true,
      "inputs": [
        {
          "internalType": "address",
          "name": "account",
          "type": "address"
        }
      ],
      "name": "isMinter",
      "outputs": [
        {
          "internalType": "bool",
          "name": "",
          "type": "bool"
        }
      ],
      "payable": false,
      "stateMutability": "view",
      "type": "function"
    },
    {
      "constant": true,
      "inputs": [],
      "name": "isOwner",
      "outputs": [
        {
          "internalType": "bool",
          "name": "",
          "type": "bool"
        }
      ],
      "payable": false,
      "stateMutability": "view",
      "type": "function"
    },
    {
      "constant": false,
      "inputs": [
        {
          "internalType": "address",
          "name": "account",
          "type": "address"
        },
        {
          "internalType": "uint256",
          "name": "amount",
          "type": "uint256"
        }
      ],
      "name": "mint",
      "outputs": [
        {
          "internalType": "bool",
          "name": "",
          "type": "bool"
        }
      ],
      "payable": false,
      "stateMutability": "nonpayable",
      "type": "function"
    },
    {
      "constant": true,
      "inputs": [],
      "name": "name",
      "outputs": [
        {
          "internalType": "string",
          "name": "",
          "type": "string"
        }
      ],
      "payable": false,
      "stateMutability": "view",
      "type": "function"
    },
    {
      "constant": true,
      "inputs": [],
      "name": "owner",
      "outputs": [
        {
          "internalType": "address",
          "name": "",
          "type": "address"
        }
      ],
      "payable": false,
      "stateMutability": "view",
      "type": "function"
    },
    {
      "constant": false,
      "inputs": [
        {
          "internalType": "bytes",
          "name": "context",
          "type": "bytes"
        },
        {
          "internalType": "bool",
          "name": "success",
          "type": "bool"
        },
        {
          "internalType": "uint256",
          "name": "actualCharge",
          "type": "uint256"
        },
        {
          "internalType": "bytes32",
          "name": "preRetVal",
          "type": "bytes32"
        }
      ],
      "name": "postRelayedCall",
      "outputs": [],
      "payable": false,
      "stateMutability": "nonpayable",
      "type": "function"
    },
    {
      "constant": false,
      "inputs": [
        {
          "internalType": "bytes",
          "name": "context",
          "type": "bytes"
        }
      ],
      "name": "preRelayedCall",
      "outputs": [
        {
          "internalType": "bytes32",
          "name": "",
          "type": "bytes32"
        }
      ],
      "payable": false,
      "stateMutability": "nonpayable",
      "type": "function"
    },
    {
      "constant": true,
      "inputs": [],
      "name": "relayHubVersion",
      "outputs": [
        {
          "internalType": "string",
          "name": "",
          "type": "string"
        }
      ],
      "payable": false,
      "stateMutability": "view",
      "type": "function"
    },
    {
      "constant": false,
      "inputs": [],
      "name": "renounceMinter",
      "outputs": [],
      "payable": false,
      "stateMutability": "nonpayable",
      "type": "function"
    },
    {
      "constant": false,
      "inputs": [],
      "name": "renounceOwnership",
      "outputs": [],
      "payable": false,
      "stateMutability": "nonpayable",
      "type": "function"
    },
    {
      "constant": true,
      "inputs": [],
      "name": "symbol",
      "outputs": [
        {
          "internalType": "string",
          "name": "",
          "type": "string"
        }
      ],
      "payable": false,
      "stateMutability": "view",
      "type": "function"
    },
    {
      "constant": true,
      "inputs": [],
      "name": "totalSupply",
      "outputs": [
        {
          "internalType": "uint256",
          "name": "",
          "type": "uint256"
        }
      ],
      "payable": false,
      "stateMutability": "view",
      "type": "function"
    },
    {
      "constant": false,
      "inputs": [
        {
          "internalType": "address",
          "name": "recipient",
          "type": "address"
        },
        {
          "internalType": "uint256",
          "name": "amount",
          "type": "uint256"
        }
      ],
      "name": "transfer",
      "outputs": [
        {
          "internalType": "bool",
          "name": "",
          "type": "bool"
        }
      ],
      "payable": false,
      "stateMutability": "nonpayable",
      "type": "function"
    },
    {
      "constant": false,
      "inputs": [
        {
          "internalType": "address",
          "name": "sender",
          "type": "address"
        },
        {
          "internalType": "address",
          "name": "recipient",
          "type": "address"
        },
        {
          "internalType": "uint256",
          "name": "amount",
          "type": "uint256"
        }
      ],
      "name": "transferFrom",
      "outputs": [
        {
          "internalType": "bool",
          "name": "",
          "type": "bool"
        }
      ],
      "payable": false,
      "stateMutability": "nonpayable",
      "type": "function"
    },
    {
      "constant": false,
      "inputs": [
        {
          "internalType": "address",
          "name": "newOwner",
          "type": "address"
        }
      ],
      "name": "transferOwnership",
      "outputs": [],
      "payable": false,
      "stateMutability": "nonpayable",
      "type": "function"
    },
    {
      "constant": false,
      "inputs": [
        {
          "internalType": "uint256",
          "name": "amount",
          "type": "uint256"
        }
      ],
      "name": "burn",
      "outputs": [],
      "payable": false,
      "stateMutability": "nonpayable",
      "type": "function"
    },
    {
      "constant": false,
      "inputs": [
        {
          "internalType": "address",
          "name": "account",
          "type": "address"
        },
        {
          "internalType": "uint256",
          "name": "amount",
          "type": "uint256"
        }
      ],
      "name": "burnFrom",
      "outputs": [],
      "payable": false,
      "stateMutability": "nonpayable",
      "type": "function"
    },
    {
      "constant": true,
      "inputs": [],
      "name": "tokenURI",
      "outputs": [
        {
          "internalType": "string",
          "name": "",
          "type": "string"
        }
      ],
      "payable": false,
      "stateMutability": "view",
      "type": "function"
    },
    {
      "constant": false,
      "inputs": [
        {
          "internalType": "string",
          "name": "uri",
          "type": "string"
        }
      ],
      "name": "setURI",
      "outputs": [],
      "payable": false,
      "stateMutability": "nonpayable",
      "type": "function"
    },
    {
      "constant": true,
      "inputs": [
        {
          "internalType": "address",
          "name": "",
          "type": "address"
        },
        {
          "internalType": "address",
          "name": "from",
          "type": "address"
        },
        {
          "internalType": "bytes",
          "name": "encodedFunction",
          "type": "bytes"
        },
        {
          "internalType": "uint256",
          "name": "",
          "type": "uint256"
        },
        {
          "internalType": "uint256",
          "name": "",
          "type": "uint256"
        },
        {
          "internalType": "uint256",
          "name": "",
          "type": "uint256"
        },
        {
          "internalType": "uint256",
          "name": "",
          "type": "uint256"
        },
        {
          "internalType": "bytes",
          "name": "",
          "type": "bytes"
        },
        {
          "internalType": "uint256",
          "name": "",
          "type": "uint256"
        }
      ],
      "name": "acceptRelayedCall",
      "outputs": [
        {
          "internalType": "uint256",
          "name": "",
          "type": "uint256"
        },
        {
          "internalType": "bytes",
          "name": "mem",
          "type": "bytes"
        }
      ],
      "payable": false,
      "stateMutability": "view",
      "type": "function"
    },
    {
      "constant": false,
      "inputs": [
        {
          "internalType": "uint256",
          "name": "amount",
          "type": "uint256"
        },
        {
          "internalType": "address payable",
          "name": "payee",
          "type": "address"
        }
      ],
      "name": "withdrawDeposits",
      "outputs": [],
      "payable": false,
      "stateMutability": "nonpayable",
      "type": "function"
    }
  ],
  "bytecode": "0x608060405260078054610100600160a81b03191674d216153c06e857cd7f72665e0af1d7d82172f494001790553480156200003957600080fd5b506040516200258438038062002584833981810160405260c08110156200005f57600080fd5b815160208301516040808501805191519395929483019291846401000000008211156200008b57600080fd5b908301906020820185811115620000a157600080fd5b8251640100000000811182820188101715620000bc57600080fd5b82525081516020918201929091019080838360005b83811015620000eb578181015183820152602001620000d1565b50505050905090810190601f168015620001195780820380516001836020036101000a031916815260200191505b50604052602001805160405193929190846401000000008211156200013d57600080fd5b9083019060208201858111156200015357600080fd5b82516401000000008111828201881017156200016e57600080fd5b82525081516020918201929091019080838360005b838110156200019d57818101518382015260200162000183565b50505050905090810190601f168015620001cb5780820380516001836020036101000a031916815260200191505b5060405260200180516040519392919084640100000000821115620001ef57600080fd5b9083019060208201858111156200020557600080fd5b82516401000000008111828201881017156200022057600080fd5b82525081516020918201929091019080838360005b838110156200024f57818101518382015260200162000235565b50505050905090810190601f1680156200027d5780820380516001836020036101000a031916815260200191505b5060405260200151915084905083600087620002b4620002a56001600160e01b036200040416565b6001600160e01b036200044016565b600081116200030a576040805162461bcd60e51b815260206004820152601560248201527f45524332304361707065643a2063617020697320300000000000000000000000604482015290519081900360640190fd5b600455825162000322906005906020860190620005d5565b50815162000338906006906020850190620005d5565b506007805460ff191660ff9290921691909117905550600090506200035c62000404565b600880546001600160a01b0319166001600160a01b038316908117909155604051919250906000907f8be0079c531659141344cd1fd0a4f28419497f9722a3daafe3b4186f6b6457e0908290a3506001600160a01b038116620003be57600080fd5b8151620003d3906009906020850190620005d5565b50600a80546001600160a01b0319166001600160a01b0392909216919091179055505050600b919091555062000677565b60075460009061010090046001600160a01b03163314620004275750336200043d565b6200043a6001600160e01b036200049216565b90505b90565b6200045b816003620004df60201b620019f11790919060201c565b6040516001600160a01b038216907f6ae172837ea30b801fbfcdd4108aa1d5bf8ff775444fd70256b44e6bf3dfc3f690600090a250565b600060606000368080601f0160208091040260200160405190810160405280939291908181526020018383808284376000920191909152505050503601516001600160a01b031692915050565b620004f482826001600160e01b036200056c16565b1562000547576040805162461bcd60e51b815260206004820152601f60248201527f526f6c65733a206163636f756e7420616c72656164792068617320726f6c6500604482015290519081900360640190fd5b6001600160a01b0316600090815260209190915260409020805460ff19166001179055565b60006001600160a01b038216620005b55760405162461bcd60e51b8152600401808060200182810382526022815260200180620025626022913960400191505060405180910390fd5b506001600160a01b03166000908152602091909152604090205460ff1690565b828054600181600116156101000203166002900490600052602060002090601f016020900481019282601f106200061857805160ff191683800117855562000648565b8280016001018555821562000648579182015b82811115620006485782518255916020019190600101906200062b565b50620006569291506200065a565b5090565b6200043d91905b8082111562000656576000815560010162000661565b611edb80620006876000396000f3fe608060405234801561001057600080fd5b50600436106101e55760003560e01c806379cc67901161010f578063a457c2d7116100a2578063c2db1abe11610071578063c2db1abe1461076d578063dd62ed3e14610799578063e06e0e22146107c7578063f2fde38b14610843576101e5565b8063a457c2d7146106e7578063a9059cbb14610713578063aa271e1a1461073f578063ad61ccd514610765576101e5565b80638f32d59b116100de5780638f32d59b146106a957806395d89b41146106b1578063983b2d56146106b957806398650275146106df576101e5565b806379cc67901461049a57806380274db7146104c657806383947ea0146105345780638da5cb5b146106a1576101e5565b806339509351116101875780634de62b84116101565780634de62b841461044057806370a0823114610448578063715018a61461046e57806374e861d614610476576101e5565b806339509351146103c35780633c130d90146103ef57806340c10f19146103f757806342966c6814610423576101e5565b806318160ddd116101c357806318160ddd1461034d57806323b872dd14610367578063313ce5671461039d578063355274ea146103bb576101e5565b806302fe5305146101ea57806306fdde0314610290578063095ea7b31461030d575b600080fd5b61028e6004803603602081101561020057600080fd5b810190602081018135600160201b81111561021a57600080fd5b82018360208201111561022c57600080fd5b803590602001918460018302840111600160201b8311171561024d57600080fd5b91908080601f016020809104026020016040519081016040528093929190818152602001838380828437600092019190915250929550610869945050505050565b005b6102986108c7565b6040805160208082528351818301528351919283929083019185019080838360005b838110156102d25781810151838201526020016102ba565b50505050905090810190601f1680156102ff5780820380516001836020036101000a031916815260200191505b509250505060405180910390f35b6103396004803603604081101561032357600080fd5b506001600160a01b03813516906020013561095e565b604080519115158252519081900360200190f35b61035561097b565b60408051918252519081900360200190f35b6103396004803603606081101561037d57600080fd5b506001600160a01b03813581169160208101359091169060400135610981565b6103a5610a0e565b6040805160ff9092168252519081900360200190f35b610355610a17565b610339600480360360408110156103d957600080fd5b506001600160a01b038135169060200135610a1d565b610298610a71565b6103396004803603604081101561040d57600080fd5b506001600160a01b038135169060200135610ad2565b61028e6004803603602081101561043957600080fd5b5035610b29565b610355610bc8565b6103556004803603602081101561045e57600080fd5b50356001600160a01b0316610bce565b61028e610be9565b61047e610c7a565b604080516001600160a01b039092168252519081900360200190f35b61028e600480360360408110156104b057600080fd5b506001600160a01b038135169060200135610c8e565b610355600480360360208110156104dc57600080fd5b810190602081018135600160201b8111156104f657600080fd5b82018360208201111561050857600080fd5b803590602001918460018302840111600160201b8311171561052957600080fd5b509092509050610d14565b610622600480360361012081101561054b57600080fd5b6001600160a01b038235811692602081013590911691810190606081016040820135600160201b81111561057e57600080fd5b82018360208201111561059057600080fd5b803590602001918460018302840111600160201b831117156105b157600080fd5b9193909282359260208101359260408201359260608301359260a081019060800135600160201b8111156105e457600080fd5b8201836020820111156105f657600080fd5b803590602001918460018302840111600160201b8311171561061757600080fd5b919350915035610db3565b6040518083815260200180602001828103825283818151815260200191508051906020019080838360005b8381101561066557818101518382015260200161064d565b50505050905090810190601f1680156106925780820380516001836020036101000a031916815260200191505b50935050505060405180910390f35b61047e610e68565b610339610e77565b610298610e9d565b61028e600480360360208110156106cf57600080fd5b50356001600160a01b0316610efe565b61028e610f50565b610339600480360360408110156106fd57600080fd5b506001600160a01b038135169060200135610f62565b6103396004803603604081101561072957600080fd5b506001600160a01b038135169060200135610fd0565b6103396004803603602081101561075557600080fd5b50356001600160a01b0316610fe4565b610298610ffd565b61028e6004803603604081101561078357600080fd5b50803590602001356001600160a01b031661101c565b610355600480360360408110156107af57600080fd5b506001600160a01b038135811691602001351661106d565b61028e600480360360808110156107dd57600080fd5b810190602081018135600160201b8111156107f757600080fd5b82018360208201111561080957600080fd5b803590602001918460018302840111600160201b8311171561082a57600080fd5b9193509150803515159060208101359060400135611098565b61028e6004803603602081101561085957600080fd5b50356001600160a01b0316611133565b610871610e77565b6108b0576040805162461bcd60e51b81526020600482018190526024820152600080516020611d8e833981519152604482015290519081900360640190fd5b80516108c3906009906020840190611bc9565b5050565b60058054604080516020601f60026000196101006001881615020190951694909404938401819004810282018101909252828152606093909290918301828280156109535780601f1061092857610100808354040283529160200191610953565b820191906000526020600020905b81548152906001019060200180831161093657829003601f168201915b505050505090505b90565b600061097261096b611183565b84846111b3565b50600192915050565b60025490565b600061098e84848461129f565b610a048461099a611183565b6109ff85604051806060016040528060288152602001611d66602891396001600160a01b038a166000908152600160205260408120906109d8611183565b6001600160a01b03168152602081019190915260400160002054919063ffffffff6113fb16565b6111b3565b5060019392505050565b60075460ff1690565b60045490565b6000610972610a2a611183565b846109ff8560016000610a3b611183565b6001600160a01b03908116825260208083019390935260409182016000908120918c16815292529020549063ffffffff61149216565b60098054604080516020601f60026000196101006001881615020190951694909404938401819004810282018101909252828152606093909290918301828280156109535780601f1061092857610100808354040283529160200191610953565b6000610ae4610adf611183565b610fe4565b610b1f5760405162461bcd60e51b8152600401808060200182810382526030815260200180611d156030913960400191505060405180910390fd5b61097283836114ec565b610b3a610b34611183565b8261155c565b600a546001600160a01b031663fbd4fcd8610b53611183565b600b54846040518463ffffffff1660e01b815260040180846001600160a01b03166001600160a01b031681526020018381526020018281526020019350505050600060405180830381600087803b158015610bad57600080fd5b505af1158015610bc1573d6000803e3d6000fd5b5050505050565b600c5481565b6001600160a01b031660009081526020819052604090205490565b610bf1610e77565b610c30576040805162461bcd60e51b81526020600482018190526024820152600080516020611d8e833981519152604482015290519081900360640190fd5b6008546040516000916001600160a01b0316907f8be0079c531659141344cd1fd0a4f28419497f9722a3daafe3b4186f6b6457e0908390a3600880546001600160a01b0319169055565b60075461010090046001600160a01b031690565b610c988282611658565b600a54600b5460408051631f7a9f9b60e31b81526001600160a01b0386811660048301526024820193909352604481018590529051919092169163fbd4fcd891606480830192600092919082900301818387803b158015610cf857600080fd5b505af1158015610d0c573d6000803e3d6000fd5b505050505050565b6000610d1e610c7a565b6001600160a01b0316336001600160a01b031614610d6d5760405162461bcd60e51b8152600401808060200182810382526024815260200180611e3a6024913960400191505060405180910390fd5b610dac83838080601f0160208091040260200160405190810160405280939291908181526020018383808284376000920191909152506116ac92505050565b9392505050565b600060606000808c8c8080601f01602080910402602001604051908101604052809392919081815260200183838082843760009201919091525050505060208101516024820151919450925090506001600160e01b03198216630852cd8d60e31b14610e2f57610e2460005b6116b2565b935093505050610e58565b80610e398f610bce565b1015610e4957610e246001610e1f565b610e516116ca565b9350935050505b9b509b9950505050505050505050565b6008546001600160a01b031690565b6008546000906001600160a01b0316610e8e611183565b6001600160a01b031614905090565b60068054604080516020601f60026000196101006001881615020190951694909404938401819004810282018101909252828152606093909290918301828280156109535780601f1061092857610100808354040283529160200191610953565b610f09610adf611183565b610f445760405162461bcd60e51b8152600401808060200182810382526030815260200180611d156030913960400191505060405180910390fd5b610f4d816116ee565b50565b610f60610f5b611183565b611736565b565b6000610972610f6f611183565b846109ff85604051806060016040528060258152602001611e826025913960016000610f99611183565b6001600160a01b03908116825260208083019390935260409182016000908120918d1681529252902054919063ffffffff6113fb16565b6000610972610fdd611183565b848461129f565b6000610ff760038363ffffffff61177e16565b92915050565b6040805180820190915260058152640312e302e360dc1b602082015290565b611024610e77565b611063576040805162461bcd60e51b81526020600482018190526024820152600080516020611d8e833981519152604482015290519081900360640190fd5b6108c382826117e5565b6001600160a01b03918216600090815260016020908152604080832093909416825291909152205490565b6110a0610c7a565b6001600160a01b0316336001600160a01b0316146110ef5760405162461bcd60e51b8152600401808060200182810382526024815260200180611e3a6024913960400191505060405180910390fd5b610bc185858080601f01602080910402602001604051908101604052809392919081815260200183838082843760009201919091525087925086915085905061183e565b61113b610e77565b61117a576040805162461bcd60e51b81526020600482018190526024820152600080516020611d8e833981519152604482015290519081900360640190fd5b610f4d81611844565b60075460009061010090046001600160a01b031633146111a457503361095b565b6111ac6118e5565b905061095b565b6001600160a01b0383166111f85760405162461bcd60e51b8152600401808060200182810382526024815260200180611e5e6024913960400191505060405180910390fd5b6001600160a01b03821661123d5760405162461bcd60e51b8152600401808060200182810382526022815260200180611ccd6022913960400191505060405180910390fd5b6001600160a01b03808416600081815260016020908152604080832094871680845294825291829020859055815185815291517f8c5be1e5ebec7d5bd14f71427d1e84f3dd0314c0f7b2291e5b200ac8c7c3b9259281900390910190a3505050565b6001600160a01b0383166112e45760405162461bcd60e51b8152600401808060200182810382526025815260200180611e156025913960400191505060405180910390fd5b6001600160a01b0382166113295760405162461bcd60e51b8152600401808060200182810382526023815260200180611c626023913960400191505060405180910390fd5b61136c81604051806060016040528060268152602001611cef602691396001600160a01b038616600090815260208190526040902054919063ffffffff6113fb16565b6001600160a01b0380851660009081526020819052604080822093909355908416815220546113a1908263ffffffff61149216565b6001600160a01b038084166000818152602081815260409182902094909455805185815290519193928716927fddf252ad1be2c89b69c2b068fc378daa952ba7f163c4a11628f55a4df523b3ef92918290030190a3505050565b6000818484111561148a5760405162461bcd60e51b81526004018080602001828103825283818151815260200191508051906020019080838360005b8381101561144f578181015183820152602001611437565b50505050905090810190601f16801561147c5780820380516001836020036101000a031916815260200191505b509250505060405180910390fd5b505050900390565b600082820183811015610dac576040805162461bcd60e51b815260206004820152601b60248201527f536166654d6174683a206164646974696f6e206f766572666c6f770000000000604482015290519081900360640190fd5b600c8054820190556114fc610a17565b600c541115611552576040805162461bcd60e51b815260206004820152601960248201527f6372617465734973737565642065786365656465642063617000000000000000604482015290519081900360640190fd5b6108c38282611932565b6001600160a01b0382166115a15760405162461bcd60e51b8152600401808060200182810382526021815260200180611df46021913960400191505060405180910390fd5b6115e481604051806060016040528060228152602001611c85602291396001600160a01b038516600090815260208190526040902054919063ffffffff6113fb16565b6001600160a01b038316600090815260208190526040902055600254611610908263ffffffff6119aa16565b6002556040805182815290516000916001600160a01b038516917fddf252ad1be2c89b69c2b068fc378daa952ba7f163c4a11628f55a4df523b3ef9181900360200190a35050565b611662828261155c565b6108c38261166e611183565b6109ff84604051806060016040528060248152602001611dd0602491396001600160a01b0388166000908152600160205260408120906109d8611183565b50600090565b604080516020810190915260008152600b9190910191565b600060606116e6604051806020016040528060008152506119ec565b915091509091565b6116ff60038263ffffffff6119f116565b6040516001600160a01b038216907f6ae172837ea30b801fbfcdd4108aa1d5bf8ff775444fd70256b44e6bf3dfc3f690600090a250565b61174760038263ffffffff611a7216565b6040516001600160a01b038216907fe94479a9f7e1952cc78f2d6baab678adc1b772d936c6583def489e524cb6669290600090a250565b60006001600160a01b0382166117c55760405162461bcd60e51b8152600401808060200182810382526022815260200180611dae6022913960400191505060405180910390fd5b506001600160a01b03166000908152602091909152604090205460ff1690565b60075460408051627b8a6760e11b8152600481018590526001600160a01b03848116602483015291516101009093049091169162f714ce9160448082019260009290919082900301818387803b158015610cf857600080fd5b50505050565b6001600160a01b0381166118895760405162461bcd60e51b8152600401808060200182810382526026815260200180611ca76026913960400191505060405180910390fd5b6008546040516001600160a01b038084169216907f8be0079c531659141344cd1fd0a4f28419497f9722a3daafe3b4186f6b6457e090600090a3600880546001600160a01b0319166001600160a01b0392909216919091179055565b600060606000368080601f0160208091040260200160405190810160405280939291908181526020018383808284376000920191909152505050503601516001600160a01b031692915050565b60045461194d8261194161097b565b9063ffffffff61149216565b11156119a0576040805162461bcd60e51b815260206004820152601960248201527f45524332304361707065643a2063617020657863656564656400000000000000604482015290519081900360640190fd5b6108c38282611ad9565b6000610dac83836040518060400160405280601e81526020017f536166654d6174683a207375627472616374696f6e206f766572666c6f7700008152506113fb565b600091565b6119fb828261177e565b15611a4d576040805162461bcd60e51b815260206004820152601f60248201527f526f6c65733a206163636f756e7420616c72656164792068617320726f6c6500604482015290519081900360640190fd5b6001600160a01b0316600090815260209190915260409020805460ff19166001179055565b611a7c828261177e565b611ab75760405162461bcd60e51b8152600401808060200182810382526021815260200180611d456021913960400191505060405180910390fd5b6001600160a01b0316600090815260209190915260409020805460ff19169055565b6001600160a01b038216611b34576040805162461bcd60e51b815260206004820152601f60248201527f45524332303a206d696e7420746f20746865207a65726f206164647265737300604482015290519081900360640190fd5b600254611b47908263ffffffff61149216565b6002556001600160a01b038216600090815260208190526040902054611b73908263ffffffff61149216565b6001600160a01b0383166000818152602081815260408083209490945583518581529351929391927fddf252ad1be2c89b69c2b068fc378daa952ba7f163c4a11628f55a4df523b3ef9281900390910190a35050565b828054600181600116156101000203166002900490600052602060002090601f016020900481019282601f10611c0a57805160ff1916838001178555611c37565b82800160010185558215611c37579182015b82811115611c37578251825591602001919060010190611c1c565b50611c43929150611c47565b5090565b61095b91905b80821115611c435760008155600101611c4d56fe45524332303a207472616e7366657220746f20746865207a65726f206164647265737345524332303a206275726e20616d6f756e7420657863656564732062616c616e63654f776e61626c653a206e6577206f776e657220697320746865207a65726f206164647265737345524332303a20617070726f766520746f20746865207a65726f206164647265737345524332303a207472616e7366657220616d6f756e7420657863656564732062616c616e63654d696e746572526f6c653a2063616c6c657220646f6573206e6f74206861766520746865204d696e74657220726f6c65526f6c65733a206163636f756e7420646f6573206e6f74206861766520726f6c6545524332303a207472616e7366657220616d6f756e74206578636565647320616c6c6f77616e63654f776e61626c653a2063616c6c6572206973206e6f7420746865206f776e6572526f6c65733a206163636f756e7420697320746865207a65726f206164647265737345524332303a206275726e20616d6f756e74206578636565647320616c6c6f77616e636545524332303a206275726e2066726f6d20746865207a65726f206164647265737345524332303a207472616e736665722066726f6d20746865207a65726f206164647265737347534e526563697069656e743a2063616c6c6572206973206e6f742052656c617948756245524332303a20617070726f76652066726f6d20746865207a65726f206164647265737345524332303a2064656372656173656420616c6c6f77616e63652062656c6f77207a65726fa265627a7a72315820a1998f68ab2c82d9b6a2b86d169be72cefe1d5857bbfd64a079770660a2b9fc464736f6c63430005100032526f6c65733a206163636f756e7420697320746865207a65726f2061646472657373",
  "source": "pragma solidity = 0.5.16;\n\nimport \"@openzeppelin/contracts/token/ERC20/ERC20Capped.sol\";\nimport \"@openzeppelin/contracts/token/ERC20/ERC20Detailed.sol\";\nimport \"@openzeppelin/contracts/GSN/GSNRecipient.sol\";\nimport \"@openzeppelin/contracts/ownership/Ownable.sol\";\nimport \"./ICrateOpenEmitter.sol\";\n\n// crate token. 0 decimals - crates can't be fractional\ncontract F1DeltaCrate is ERC20Capped, ERC20Detailed, GSNRecipient, Ownable {\n    enum ErrorCodes {\n        RESTRICTED_METHOD,\n        INSUFFICIENT_BALANCE\n    }\n\n    struct AcceptRelayedCallVars {\n        bytes4 methodId;\n        bytes ef;\n    }\n\n    string _uri;\n    address _crateOpener;\n    uint256 _lotId;\n    uint256 public _cratesIssued;\n\n    constructor(\n        uint256 lotId, \n        uint256 cap,\n        string memory name, \n        string memory symbol,\n        string memory uri,\n        address crateOpener\n    ) ERC20Capped(cap) ERC20Detailed(name, symbol, 0) public {\n        require(crateOpener != address(0));\n\n        _uri = uri;\n        _crateOpener = crateOpener;\n        _lotId = lotId;\n    }\n\n    function burn(uint256 amount) public {\n        _burn(_msgSender(), amount);\n        ICrateOpenEmitter(_crateOpener).openCrate(_msgSender(), _lotId, amount);\n    }\n\n    function burnFrom(address account, uint256 amount) public {\n        _burnFrom(account, amount);\n        ICrateOpenEmitter(_crateOpener).openCrate(account, _lotId, amount);\n    }\n\n    function _mint(address account, uint256 amount) internal {\n        _cratesIssued = _cratesIssued + amount; // not enough money in the world to cover 2 ^ 256 - 1 increments\n        require(_cratesIssued <= cap(), \"cratesIssued exceeded cap\");\n        super._mint(account, amount);\n    }\n\n    function tokenURI() public view returns (string memory) {\n        return _uri;\n    }\n\n    function setURI(string memory uri) public onlyOwner {\n        _uri = uri;\n    }\n\n    /////////////////////////////////////////// GSNRecipient implementation ///////////////////////////////////\n    /**\n     * @dev Ensures that only users with enough gas payment token balance can have transactions relayed through the GSN.\n     */\n    function acceptRelayedCall(\n        address /*relay*/,\n        address from,\n        bytes calldata encodedFunction,\n        uint256 /*transactionFee*/,\n        uint256 /*gasPrice*/,\n        uint256 /*gasLimit*/,\n        uint256 /*nonce*/,\n        bytes calldata /*approvalData*/,\n        uint256 /*maxPossibleCharge*/\n    )\n        external\n        view\n        returns (uint256, bytes memory mem)\n    {\n        // restrict to burn function only\n        // load methodId stored in first 4 bytes https://solidity.readthedocs.io/en/v0.5.16/abi-spec.html#function-selector-and-argument-encoding\n        // load amount stored in the next 32 bytes https://solidity.readthedocs.io/en/v0.5.16/abi-spec.html#function-selector-and-argument-encoding\n        // 32 bytes offset is required to skip array length\n        bytes4 methodId;\n        uint256 amountParam;\n        mem = encodedFunction;\n        assembly {\n            let dest := add(mem, 32)\n            methodId := mload(dest)\n            dest := add(dest, 4)\n            amountParam := mload(dest)\n        }\n\n        // bytes4(keccak256(\"burn(uint256)\")) == 0x42966c68\n        if (methodId != 0x42966c68) {\n            return _rejectRelayedCall(uint256(ErrorCodes.RESTRICTED_METHOD));\n        }\n\n        // Check that user has enough crates to burn\n        if (balanceOf(from) < amountParam) {\n            return _rejectRelayedCall(uint256(ErrorCodes.INSUFFICIENT_BALANCE));\n        }\n\n        return _approveRelayedCall();\n    }\n\n    function _preRelayedCall(bytes memory) internal returns (bytes32) {\n        // solhint-disable-previous-line no-empty-blocks\n    }\n\n    function _postRelayedCall(bytes memory, bool, uint256, bytes32) internal {\n        // solhint-disable-previous-line no-empty-blocks\n    }\n\n    /**\n     * @dev Withdraws the recipient's deposits in `RelayHub`.\n     */\n    function withdrawDeposits(uint256 amount, address payable payee) external onlyOwner {\n        _withdrawDeposits(amount, payee);\n    }\n}",
  "compiler": {
    "name": "solc",
    "version": "0.5.16+commit.9c3226ce.Emscripten.clang"
  },
  "schemaVersion": "3.0.23",
  "updatedAt": "2020-07-01T10:29:36.358Z",
  "devdoc": {
    "methods": {
      "acceptRelayedCall(address,address,bytes,uint256,uint256,uint256,uint256,bytes,uint256)": {
        "details": "Ensures that only users with enough gas payment token balance can have transactions relayed through the GSN."
      },
      "allowance(address,address)": {
        "details": "See {IERC20-allowance}."
      },
      "approve(address,uint256)": {
        "details": "See {IERC20-approve}.     * Requirements:     * - `spender` cannot be the zero address."
      },
      "balanceOf(address)": {
        "details": "See {IERC20-balanceOf}."
      },
      "cap()": {
        "details": "Returns the cap on the token's total supply."
      },
      "decimals()": {
        "details": "Returns the number of decimals used to get its user representation. For example, if `decimals` equals `2`, a balance of `505` tokens should be displayed to a user as `5,05` (`505 / 10 ** 2`).     * Tokens usually opt for a value of 18, imitating the relationship between Ether and Wei.     * NOTE: This information is only used for _display_ purposes: it in no way affects any of the arithmetic of the contract, including {IERC20-balanceOf} and {IERC20-transfer}."
      },
      "decreaseAllowance(address,uint256)": {
        "details": "Atomically decreases the allowance granted to `spender` by the caller.     * This is an alternative to {approve} that can be used as a mitigation for problems described in {IERC20-approve}.     * Emits an {Approval} event indicating the updated allowance.     * Requirements:     * - `spender` cannot be the zero address. - `spender` must have allowance for the caller of at least `subtractedValue`."
      },
      "getHubAddr()": {
        "details": "Returns the address of the {IRelayHub} contract for this recipient."
      },
      "increaseAllowance(address,uint256)": {
        "details": "Atomically increases the allowance granted to `spender` by the caller.     * This is an alternative to {approve} that can be used as a mitigation for problems described in {IERC20-approve}.     * Emits an {Approval} event indicating the updated allowance.     * Requirements:     * - `spender` cannot be the zero address."
      },
      "isOwner()": {
        "details": "Returns true if the caller is the current owner."
      },
      "mint(address,uint256)": {
        "details": "See {ERC20-_mint}.     * Requirements:     * - the caller must have the {MinterRole}."
      },
      "name()": {
        "details": "Returns the name of the token."
      },
      "owner()": {
        "details": "Returns the address of the current owner."
      },
      "postRelayedCall(bytes,bool,uint256,bytes32)": {
        "details": "See `IRelayRecipient.postRelayedCall`.     * This function should not be overriden directly, use `_postRelayedCall` instead.     * * Requirements:     * - the caller must be the `RelayHub` contract."
      },
      "preRelayedCall(bytes)": {
        "details": "See `IRelayRecipient.preRelayedCall`.     * This function should not be overriden directly, use `_preRelayedCall` instead.     * * Requirements:     * - the caller must be the `RelayHub` contract."
      },
      "relayHubVersion()": {
        "details": "Returns the version string of the {IRelayHub} for which this recipient implementation was built. If {_upgradeRelayHub} is used, the new {IRelayHub} instance should be compatible with this version."
      },
      "renounceOwnership()": {
        "details": "Leaves the contract without owner. It will not be possible to call `onlyOwner` functions anymore. Can only be called by the current owner.     * NOTE: Renouncing ownership will leave the contract without an owner, thereby removing any functionality that is only available to the owner."
      },
      "symbol()": {
        "details": "Returns the symbol of the token, usually a shorter version of the name."
      },
      "totalSupply()": {
        "details": "See {IERC20-totalSupply}."
      },
      "transfer(address,uint256)": {
        "details": "See {IERC20-transfer}.     * Requirements:     * - `recipient` cannot be the zero address. - the caller must have a balance of at least `amount`."
      },
      "transferFrom(address,address,uint256)": {
        "details": "See {IERC20-transferFrom}.     * Emits an {Approval} event indicating the updated allowance. This is not required by the EIP. See the note at the beginning of {ERC20};     * Requirements: - `sender` and `recipient` cannot be the zero address. - `sender` must have a balance of at least `amount`. - the caller must have allowance for `sender`'s tokens of at least `amount`."
      },
      "transferOwnership(address)": {
        "details": "Transfers ownership of the contract to a new account (`newOwner`). Can only be called by the current owner."
      },
      "withdrawDeposits(uint256,address)": {
        "details": "Withdraws the recipient's deposits in `RelayHub`."
      }
    }
  },
  "userdoc": {
    "methods": {}
  }
}