{
  "contractName": "FixedSupplyCratesSale",
  "abi": [
    {
      "inputs": [
        {
          "internalType": "address payable",
          "name": "payoutWallet",
          "type": "address"
        },
        {
          "internalType": "address",
          "name": "kyberProxy",
          "type": "address"
        },
        {
          "internalType": "contract ERC20",
          "name": "stableCoinAddress",
          "type": "address"
        }
      ],
      "payable": false,
      "stateMutability": "nonpayable",
      "type": "constructor"
    },
    {
      "anonymous": false,
      "inputs": [
        {
          "indexed": true,
          "internalType": "address",
          "name": "from",
          "type": "address"
        },
        {
          "indexed": false,
          "internalType": "uint256",
          "name": "lotId",
          "type": "uint256"
        },
        {
          "indexed": false,
          "internalType": "uint256",
          "name": "amount",
          "type": "uint256"
        }
      ],
      "name": "CrateOpened",
      "type": "event"
    },
    {
      "anonymous": false,
      "inputs": [
        {
          "indexed": true,
          "internalType": "address",
          "name": "referrer",
          "type": "address"
        },
        {
          "indexed": false,
          "internalType": "uint256",
          "name": "percentage",
          "type": "uint256"
        }
      ],
      "name": "CustomReferralSet",
      "type": "event"
    },
    {
      "anonymous": false,
      "inputs": [
        {
          "indexed": false,
          "internalType": "uint256",
          "name": "percentage",
          "type": "uint256"
        }
      ],
      "name": "DefaultReferralSet",
      "type": "event"
    },
    {
      "anonymous": false,
      "inputs": [
        {
          "indexed": false,
          "internalType": "uint256",
          "name": "lotId",
          "type": "uint256"
        },
        {
          "indexed": false,
          "internalType": "uint256",
          "name": "supply",
          "type": "uint256"
        },
        {
          "indexed": false,
          "internalType": "uint256",
          "name": "price",
          "type": "uint256"
        },
        {
          "indexed": false,
          "internalType": "string",
          "name": "uri",
          "type": "string"
        },
        {
          "indexed": false,
          "internalType": "contract ERC20",
          "name": "crateToken",
          "type": "address"
        }
      ],
      "name": "LotCreated",
      "type": "event"
    },
    {
      "anonymous": false,
      "inputs": [
        {
          "indexed": false,
          "internalType": "uint256",
          "name": "lotId",
          "type": "uint256"
        },
        {
          "indexed": false,
          "internalType": "uint256",
          "name": "price",
          "type": "uint256"
        }
      ],
      "name": "LotPriceUpdated",
      "type": "event"
    },
    {
      "anonymous": false,
      "inputs": [
        {
          "indexed": true,
          "internalType": "address",
          "name": "previousOwner",
          "type": "address"
        },
        {
          "indexed": true,
          "internalType": "address",
          "name": "newOwner",
          "type": "address"
        }
      ],
      "name": "OwnershipTransferred",
      "type": "event"
    },
    {
      "anonymous": false,
      "inputs": [
        {
          "indexed": false,
          "internalType": "address",
          "name": "account",
          "type": "address"
        }
      ],
      "name": "Paused",
      "type": "event"
    },
    {
      "anonymous": false,
      "inputs": [
        {
          "indexed": true,
          "internalType": "address",
          "name": "account",
          "type": "address"
        }
      ],
      "name": "PauserAdded",
      "type": "event"
    },
    {
      "anonymous": false,
      "inputs": [
        {
          "indexed": true,
          "internalType": "address",
          "name": "account",
          "type": "address"
        }
      ],
      "name": "PauserRemoved",
      "type": "event"
    },
    {
      "anonymous": false,
      "inputs": [
        {
          "indexed": true,
          "internalType": "address",
          "name": "owner",
          "type": "address"
        },
        {
          "indexed": false,
          "internalType": "address",
          "name": "operator",
          "type": "address"
        },
        {
          "indexed": true,
          "internalType": "uint256",
          "name": "lotId",
          "type": "uint256"
        },
        {
          "indexed": true,
          "internalType": "uint256",
          "name": "quantity",
          "type": "uint256"
        },
        {
          "indexed": false,
          "internalType": "uint256",
          "name": "pricePaid",
          "type": "uint256"
        },
        {
          "indexed": false,
          "internalType": "address",
          "name": "tokenAddress",
          "type": "address"
        },
        {
          "indexed": false,
          "internalType": "uint256",
          "name": "tokensSent",
          "type": "uint256"
        },
        {
          "indexed": false,
          "internalType": "uint256",
          "name": "tokensReceived",
          "type": "uint256"
        },
        {
          "indexed": false,
          "internalType": "uint256",
          "name": "discountApplied",
          "type": "uint256"
        },
        {
          "indexed": false,
          "internalType": "address",
          "name": "referrer",
          "type": "address"
        },
        {
          "indexed": false,
          "internalType": "uint256",
          "name": "referralRewarded",
          "type": "uint256"
        }
      ],
      "name": "Purchased",
      "type": "event"
    },
    {
      "anonymous": false,
      "inputs": [
        {
          "indexed": false,
          "internalType": "address",
          "name": "account",
          "type": "address"
        }
      ],
      "name": "Unpaused",
      "type": "event"
    },
    {
      "payable": true,
      "stateMutability": "payable",
      "type": "fallback"
    },
    {
      "constant": true,
      "inputs": [],
      "name": "ETH_ADDRESS",
      "outputs": [
        {
          "internalType": "contract ERC20",
          "name": "",
          "type": "address"
        }
      ],
      "payable": false,
      "stateMutability": "view",
      "type": "function"
    },
    {
      "constant": true,
      "inputs": [
        {
          "internalType": "address",
          "name": "",
          "type": "address"
        },
        {
          "internalType": "uint256",
          "name": "",
          "type": "uint256"
        }
      ],
      "name": "_cratesPurchased",
      "outputs": [
        {
          "internalType": "uint256",
          "name": "",
          "type": "uint256"
        }
      ],
      "payable": false,
      "stateMutability": "view",
      "type": "function"
    },
    {
      "constant": true,
      "inputs": [
        {
          "internalType": "address",
          "name": "",
          "type": "address"
        }
      ],
      "name": "_customReferralPercentages",
      "outputs": [
        {
          "internalType": "uint256",
          "name": "",
          "type": "uint256"
        }
      ],
      "payable": false,
      "stateMutability": "view",
      "type": "function"
    },
    {
      "constant": true,
      "inputs": [],
      "name": "_defaultReferralPercentage",
      "outputs": [
        {
          "internalType": "uint256",
          "name": "",
          "type": "uint256"
        }
      ],
      "payable": false,
      "stateMutability": "view",
      "type": "function"
    },
    {
      "constant": true,
      "inputs": [],
      "name": "_initialDiscountPercentage",
      "outputs": [
        {
          "internalType": "uint256",
          "name": "",
          "type": "uint256"
        }
      ],
      "payable": false,
      "stateMutability": "view",
      "type": "function"
    },
    {
      "constant": true,
      "inputs": [],
      "name": "_initialDiscountPeriod",
      "outputs": [
        {
          "internalType": "uint256",
          "name": "",
          "type": "uint256"
        }
      ],
      "payable": false,
      "stateMutability": "view",
      "type": "function"
    },
    {
      "constant": true,
      "inputs": [
        {
          "internalType": "uint256",
          "name": "",
          "type": "uint256"
        }
      ],
      "name": "_lots",
      "outputs": [
        {
          "internalType": "contract F1DeltaCrate",
          "name": "crateToken",
          "type": "address"
        },
        {
          "internalType": "uint256",
          "name": "price",
          "type": "uint256"
        }
      ],
      "payable": false,
      "stateMutability": "view",
      "type": "function"
    },
    {
      "constant": true,
      "inputs": [],
      "name": "_multiPurchaseDiscount",
      "outputs": [
        {
          "internalType": "uint256",
          "name": "",
          "type": "uint256"
        }
      ],
      "payable": false,
      "stateMutability": "view",
      "type": "function"
    },
    {
      "constant": true,
      "inputs": [],
      "name": "_payoutWallet",
      "outputs": [
        {
          "internalType": "address payable",
          "name": "",
          "type": "address"
        }
      ],
      "payable": false,
      "stateMutability": "view",
      "type": "function"
    },
    {
      "constant": true,
      "inputs": [
        {
          "internalType": "uint256",
          "name": "",
          "type": "uint256"
        },
        {
          "internalType": "address",
          "name": "",
          "type": "address"
        }
      ],
      "name": "_referrersByLot",
      "outputs": [
        {
          "internalType": "address",
          "name": "",
          "type": "address"
        }
      ],
      "payable": false,
      "stateMutability": "view",
      "type": "function"
    },
    {
      "constant": true,
      "inputs": [],
      "name": "_stableCoinAddress",
      "outputs": [
        {
          "internalType": "contract ERC20",
          "name": "",
          "type": "address"
        }
      ],
      "payable": false,
      "stateMutability": "view",
      "type": "function"
    },
    {
      "constant": true,
      "inputs": [],
      "name": "_startedAt",
      "outputs": [
        {
          "internalType": "uint256",
          "name": "",
          "type": "uint256"
        }
      ],
      "payable": false,
      "stateMutability": "view",
      "type": "function"
    },
    {
      "constant": false,
      "inputs": [
        {
          "internalType": "address",
          "name": "account",
          "type": "address"
        }
      ],
      "name": "addPauser",
      "outputs": [],
      "payable": false,
      "stateMutability": "nonpayable",
      "type": "function"
    },
    {
      "constant": true,
      "inputs": [],
      "name": "isOwner",
      "outputs": [
        {
          "internalType": "bool",
          "name": "",
          "type": "bool"
        }
      ],
      "payable": false,
      "stateMutability": "view",
      "type": "function"
    },
    {
      "constant": true,
      "inputs": [
        {
          "internalType": "address",
          "name": "account",
          "type": "address"
        }
      ],
      "name": "isPauser",
      "outputs": [
        {
          "internalType": "bool",
          "name": "",
          "type": "bool"
        }
      ],
      "payable": false,
      "stateMutability": "view",
      "type": "function"
    },
    {
      "constant": true,
      "inputs": [],
      "name": "kyber",
      "outputs": [
        {
          "internalType": "contract IKyber",
          "name": "",
          "type": "address"
        }
      ],
      "payable": false,
      "stateMutability": "view",
      "type": "function"
    },
    {
      "constant": true,
      "inputs": [],
      "name": "owner",
      "outputs": [
        {
          "internalType": "address",
          "name": "",
          "type": "address"
        }
      ],
      "payable": false,
      "stateMutability": "view",
      "type": "function"
    },
    {
      "constant": false,
      "inputs": [],
      "name": "pause",
      "outputs": [],
      "payable": false,
      "stateMutability": "nonpayable",
      "type": "function"
    },
    {
      "constant": true,
      "inputs": [],
      "name": "paused",
      "outputs": [
        {
          "internalType": "bool",
          "name": "",
          "type": "bool"
        }
      ],
      "payable": false,
      "stateMutability": "view",
      "type": "function"
    },
    {
      "constant": false,
      "inputs": [],
      "name": "renounceOwnership",
      "outputs": [],
      "payable": false,
      "stateMutability": "nonpayable",
      "type": "function"
    },
    {
      "constant": false,
      "inputs": [],
      "name": "renouncePauser",
      "outputs": [],
      "payable": false,
      "stateMutability": "nonpayable",
      "type": "function"
    },
    {
      "constant": false,
      "inputs": [
        {
          "internalType": "address",
          "name": "_referrer",
          "type": "address"
        },
        {
          "internalType": "uint256",
          "name": "customReferralPercentage",
          "type": "uint256"
        }
      ],
      "name": "setCustomReferral",
      "outputs": [],
      "payable": false,
      "stateMutability": "nonpayable",
      "type": "function"
    },
    {
      "constant": false,
      "inputs": [
        {
          "internalType": "uint256",
          "name": "defaultReferralPercentage",
          "type": "uint256"
        }
      ],
      "name": "setDefaultReferral",
      "outputs": [],
      "payable": false,
      "stateMutability": "nonpayable",
      "type": "function"
    },
    {
      "constant": false,
      "inputs": [
        {
          "internalType": "address",
          "name": "newOwner",
          "type": "address"
        }
      ],
      "name": "transferOwnership",
      "outputs": [],
      "payable": false,
      "stateMutability": "nonpayable",
      "type": "function"
    },
    {
      "constant": false,
      "inputs": [],
      "name": "unpause",
      "outputs": [],
      "payable": false,
      "stateMutability": "nonpayable",
      "type": "function"
    },
    {
      "constant": false,
      "inputs": [
        {
          "internalType": "address payable",
          "name": "payoutWallet",
          "type": "address"
        }
      ],
      "name": "setPayoutWallet",
      "outputs": [],
      "payable": false,
      "stateMutability": "nonpayable",
      "type": "function"
    },
    {
      "constant": false,
      "inputs": [
        {
          "internalType": "uint256",
          "name": "initialDiscountPercentage",
          "type": "uint256"
        },
        {
          "internalType": "uint256",
          "name": "initialDiscountPeriod",
          "type": "uint256"
        },
        {
          "internalType": "uint256",
          "name": "multiPurchaseDiscount",
          "type": "uint256"
        }
      ],
      "name": "start",
      "outputs": [],
      "payable": false,
      "stateMutability": "nonpayable",
      "type": "function"
    },
    {
      "constant": true,
      "inputs": [],
      "name": "initialDiscountActive",
      "outputs": [
        {
          "internalType": "bool",
          "name": "",
          "type": "bool"
        }
      ],
      "payable": false,
      "stateMutability": "view",
      "type": "function"
    },
    {
      "constant": false,
      "inputs": [
        {
          "internalType": "uint256",
          "name": "lotId",
          "type": "uint256"
        },
        {
          "internalType": "uint256",
          "name": "supply",
          "type": "uint256"
        },
        {
          "internalType": "uint256",
          "name": "price",
          "type": "uint256"
        },
        {
          "internalType": "string",
          "name": "name",
          "type": "string"
        },
        {
          "internalType": "string",
          "name": "symbol",
          "type": "string"
        },
        {
          "internalType": "string",
          "name": "uri",
          "type": "string"
        },
        {
          "internalType": "contract F1DeltaCrate",
          "name": "crateToken",
          "type": "address"
        }
      ],
      "name": "createLot",
      "outputs": [],
      "payable": false,
      "stateMutability": "nonpayable",
      "type": "function"
    },
    {
      "constant": false,
      "inputs": [
        {
          "internalType": "uint256",
          "name": "lotId",
          "type": "uint256"
        },
        {
          "internalType": "uint128",
          "name": "price",
          "type": "uint128"
        }
      ],
      "name": "updateLotPrice",
      "outputs": [],
      "payable": false,
      "stateMutability": "nonpayable",
      "type": "function"
    },
    {
      "constant": false,
      "inputs": [
        {
          "internalType": "address payable",
          "name": "destination",
          "type": "address"
        },
        {
          "internalType": "uint256",
          "name": "lotId",
          "type": "uint256"
        },
        {
          "internalType": "contract ERC20Capped",
          "name": "tokenAddress",
          "type": "address"
        },
        {
          "internalType": "uint256",
          "name": "quantity",
          "type": "uint256"
        },
        {
          "internalType": "uint256",
          "name": "maxTokenAmount",
          "type": "uint256"
        },
        {
          "internalType": "uint256",
          "name": "minConversionRate",
          "type": "uint256"
        },
        {
          "internalType": "address payable",
          "name": "referrer",
          "type": "address"
        }
      ],
      "name": "purchaseFor",
      "outputs": [],
      "payable": true,
      "stateMutability": "payable",
      "type": "function"
    },
    {
      "constant": true,
      "inputs": [
        {
          "internalType": "uint256",
          "name": "lotId",
          "type": "uint256"
        },
        {
          "internalType": "uint256",
          "name": "quantity",
          "type": "uint256"
        },
        {
          "internalType": "contract ERC20",
          "name": "tokenAddress",
          "type": "address"
        },
        {
          "internalType": "address",
          "name": "destination",
          "type": "address"
        }
      ],
      "name": "getPrice",
      "outputs": [
        {
          "internalType": "uint256",
          "name": "minConversionRate",
          "type": "uint256"
        },
        {
          "internalType": "uint256",
          "name": "lotPrice",
          "type": "uint256"
        },
        {
          "internalType": "uint256",
          "name": "lotPriceWithoutDiscount",
          "type": "uint256"
        }
      ],
      "payable": false,
      "stateMutability": "view",
      "type": "function"
    },
    {
      "constant": false,
      "inputs": [
        {
          "internalType": "address",
          "name": "from",
          "type": "address"
        },
        {
          "internalType": "uint256",
          "name": "lotId",
          "type": "uint256"
        },
        {
          "internalType": "uint256",
          "name": "amount",
          "type": "uint256"
        }
      ],
      "name": "openCrate",
      "outputs": [],
      "payable": false,
      "stateMutability": "nonpayable",
      "type": "function"
    }
  ],
  "bytecode": "0x6080604052600580546001600160a01b03191673eeeeeeeeeeeeeeeeeeeeeeeeeeeeeeeeeeeeeeee1790553480156200003757600080fd5b506040516200596638038062005966833981810160405260608110156200005d57600080fd5b5080516020820151604090920151909190816000620000846001600160e01b036200017616565b600080546001600160a01b0319166001600160a01b0383169081178255604051929350917f8be0079c531659141344cd1fd0a4f28419497f9722a3daafe3b4186f6b6457e0908290a350620000f4620000e56001600160e01b036200017616565b6001600160e01b036200017a16565b600480546001600160a81b0319166101006001600160a01b039384160217905583166200012057600080fd5b6001600160a01b0381166200013457600080fd5b62000148836001600160e01b03620001cc16565b600680546001600160a01b0319166001600160a01b0383161790556200016d6200026a565b505050620004bf565b3390565b620001958160036200037760201b62002ae01790919060201c565b6040516001600160a01b038216907f6719d08c1888103bea251a4ed56406bd0c3e69723c8a1686e017e7bbe159b6f890600090a250565b620001df6001600160e01b036200040416565b62000231576040805162461bcd60e51b815260206004820181905260248201527f4f776e61626c653a2063616c6c6572206973206e6f7420746865206f776e6572604482015290519081900360640190fd5b6001600160a01b0381163014156200024857600080fd5b600780546001600160a01b0319166001600160a01b0392909216919091179055565b62000290620002816001600160e01b036200017616565b6001600160e01b036200043316565b620002cd5760405162461bcd60e51b8152600401808060200182810382526030815260200180620059146030913960400191505060405180910390fd5b60045460ff161562000319576040805162461bcd60e51b815260206004820152601060248201526f14185d5cd8589b194e881c185d5cd95960821b604482015290519081900360640190fd5b6004805460ff191660011790557f62e78cea01bee320cd4e420270b5ea74000d11b0c9f74754ebdbfc544b05a2586200035a6001600160e01b036200017616565b604080516001600160a01b039092168252519081900360200190a1565b6200038c82826001600160e01b036200045616565b15620003df576040805162461bcd60e51b815260206004820152601f60248201527f526f6c65733a206163636f756e7420616c72656164792068617320726f6c6500604482015290519081900360640190fd5b6001600160a01b0316600090815260209190915260409020805460ff19166001179055565b600080546001600160a01b0316620004246001600160e01b036200017616565b6001600160a01b031614905090565b6000620004508260036200045660201b6200250b1790919060201c565b92915050565b60006001600160a01b0382166200049f5760405162461bcd60e51b8152600401808060200182810382526022815260200180620059446022913960400191505060405180910390fd5b506001600160a01b03166000908152602091909152604090205460ff1690565b61544580620004cf6000396000f3fe6080604052600436106200021e5760003560e01c806382dc1ec41162000127578063a734f06e11620000af578063ec9e78171162000079578063ec9e781714620008e3578063ef2bc40514620008fb578063f2fde38b1462000913578063f81007b4146200094a578063fbd4fcd81462000962576200021e565b8063a734f06e146200080d578063af7a07ad1462000825578063b1e9bfda146200083d578063b59d264c14620008a6576200021e565b80639840062011620000f1578063984006201462000778578063a2d10ba51462000790578063a427b11b14620007a8578063a5132f9614620007d6576200021e565b806382dc1ec414620006f95780638456cb5914620007305780638da5cb5b14620007485780638f32d59b1462000760576200021e565b8063545370b211620001ab5780636b8f9c4311620001755780636b8f9c4314620006555780636ef8d66d146200068c578063715018a614620006a45780638159d64414620006bc576200021e565b8063545370b214620005c15780635c975abb14620005eb5780635e66d0e41462000603578063641ccd83146200061b576200021e565b806335a10f7111620001ed57806335a10f71146200033e5780633f4ba83a146200037257806342f2d224146200038a57806346fbf68e1462000576576200021e565b80630f1ea46e1462000220578063130a3f741462000273578063205fe33914620002b05780632f3d80d51462000301575b005b6200021e600480360360e08110156200023857600080fd5b506001600160a01b038135811691602081013591604082013581169160608101359160808201359160a08101359160c09091013516620009a5565b3480156200028057600080fd5b506200021e600480360360408110156200029957600080fd5b50803590602001356001600160801b031662000ef5565b348015620002bd57600080fd5b50620002de60048036036020811015620002d657600080fd5b503562001045565b604080516001600160a01b03909316835260208301919091528051918290030190f35b3480156200030e57600080fd5b506200021e600480360360408110156200032757600080fd5b506001600160a01b0381351690602001356200106a565b3480156200034b57600080fd5b5062000356620011a4565b604080516001600160a01b039092168252519081900360200190f35b3480156200037f57600080fd5b506200021e620011b3565b3480156200039757600080fd5b506200021e600480360360e0811015620003b057600080fd5b81359160208101359160408201359190810190608081016060820135640100000000811115620003df57600080fd5b820183602082011115620003f257600080fd5b803590602001918460018302840111640100000000831117156200041557600080fd5b91908080601f01602080910402602001604051908101604052809392919081815260200183838082843760009201919091525092959493602081019350359150506401000000008111156200046957600080fd5b8201836020820111156200047c57600080fd5b803590602001918460018302840111640100000000831117156200049f57600080fd5b91908080601f0160208091040260200160405190810160405280939291908181526020018383808284376000920191909152509295949360208101935035915050640100000000811115620004f357600080fd5b8201836020820111156200050657600080fd5b803590602001918460018302840111640100000000831117156200052957600080fd5b91908080601f016020809104026020016040519081016040528093929190818152602001838380828437600092019190915250929550505090356001600160a01b03169150620012a59050565b3480156200058357600080fd5b50620005ad600480360360208110156200059c57600080fd5b50356001600160a01b0316620016fa565b604080519115158252519081900360200190f35b348015620005ce57600080fd5b50620005d962001715565b60408051918252519081900360200190f35b348015620005f857600080fd5b50620005ad6200171b565b3480156200061057600080fd5b506200035662001725565b3480156200062857600080fd5b506200021e600480360360608110156200064157600080fd5b508035906020810135906040013562001734565b3480156200066257600080fd5b506200021e600480360360208110156200067b57600080fd5b50356001600160a01b0316620017cd565b3480156200069957600080fd5b506200021e62001851565b348015620006b157600080fd5b506200021e62001867565b348015620006c957600080fd5b506200035660048036036040811015620006e257600080fd5b50803590602001356001600160a01b0316620018fc565b3480156200070657600080fd5b506200021e600480360360208110156200071f57600080fd5b50356001600160a01b031662001922565b3480156200073d57600080fd5b506200021e6200197b565b3480156200075557600080fd5b506200035662001a4a565b3480156200076d57600080fd5b50620005ad62001a59565b3480156200078557600080fd5b50620005d962001a7f565b3480156200079d57600080fd5b506200035662001a85565b348015620007b557600080fd5b506200021e60048036036020811015620007ce57600080fd5b503562001a99565b348015620007e357600080fd5b50620005d960048036036020811015620007fc57600080fd5b50356001600160a01b031662001ba4565b3480156200081a57600080fd5b506200035662001bb6565b3480156200083257600080fd5b50620005d962001bc5565b3480156200084a57600080fd5b5062000888600480360360808110156200086357600080fd5b508035906020810135906001600160a01b036040820135811691606001351662001bcb565b60408051938452602084019290925282820152519081900360600190f35b348015620008b357600080fd5b50620005d960048036036040811015620008cc57600080fd5b506001600160a01b03813516906020013562001da3565b348015620008f057600080fd5b50620005d962001dc0565b3480156200090857600080fd5b50620005ad62001dc6565b3480156200092057600080fd5b506200021e600480360360208110156200093957600080fd5b50356001600160a01b031662001e05565b3480156200095757600080fd5b50620005d962001e5b565b3480156200096f57600080fd5b506200021e600480360360608110156200098857600080fd5b506001600160a01b03813516906020810135906040013562001e61565b60045460ff1615620009f1576040805162461bcd60e51b815260206004820152601060248201526f14185d5cd8589b194e881c185d5cd95960821b604482015290519081900360640190fd5b600d54620009fe57600080fd5b6000841162000a0c57600080fd5b866001600160a01b0316816001600160a01b03161415801562000a3857506001600160a01b0381163314155b62000a4257600080fd5b62000a4c62002cf9565b600087815260086020908152604091829020825180840190935280546001600160a01b03168352600101549082019081529082525162000a8b57600080fd5b80516001600160a01b0389166000908152600a602090815260408083208b845290915290205462000abf9190879062001ee3565b60208301526040820181905260065462000aec91889187916001600160a01b039091169087333062001f60565b60a0830181905260808301919091526040820151111562000b0c57600080fd5b6001600160a01b0382161562000c9c576001600160a01b03821660009081526002602052604090205460019062000b715760008881526009602090815260408083206001600160a01b038d811685529252909120548116908416141562000b71575060005b801562000c9a576001600160a01b03831660009081526002602052604090205460015462000bcc916127109162000bbf9162000bad9162002406565b60a08601519063ffffffff6200242116565b9063ffffffff6200247f16565b606083018190521562000c9a5760008881526009602090815260408083206001600160a01b038d8116855290835281842080546001600160a01b0319168883169081179091556006546060880151845163a9059cbb60e01b8152600481019390935260248301529251929091169363a9059cbb9360448084019491939192918390030190829087803b15801562000c6257600080fd5b505af115801562000c77573d6000803e3d6000fd5b505050506040513d602081101562000c8e57600080fd5b505162000c9a57600080fd5b505b606081015160a082015162000cb79163ffffffff620024c316565b60a0820152805151604080516340c10f1960e01b81526001600160a01b038b8116600483015260248201899052915191909216916340c10f199160448083019260209291908290030181600087803b15801562000d1357600080fd5b505af115801562000d28573d6000803e3d6000fd5b505050506040513d602081101562000d3f57600080fd5b505162000d4b57600080fd5b60065460075460a08301516040805163a9059cbb60e01b81526001600160a01b039384166004820152602481019290925251919092169163a9059cbb9160448083019260209291908290030181600087803b15801562000daa57600080fd5b505af115801562000dbf573d6000803e3d6000fd5b505050506040513d602081101562000dd657600080fd5b505162000de257600080fd5b84600a60008a6001600160a01b03166001600160a01b031681526020019081526020016000206000898152602001908152602001600020600082825401925050819055508487896001600160a01b03167fef6e49b2705b38d61a56f5587be7587022e44b3ba5d9c5774926aba1c51437e73385604001518b87608001518860a0015189602001518b8b6060015160405180896001600160a01b03166001600160a01b03168152602001888152602001876001600160a01b03166001600160a01b03168152602001868152602001858152602001848152602001836001600160a01b03166001600160a01b031681526020018281526020019850505050505050505060405180910390a45050505050505050565b62000eff62001a59565b62000f40576040805162461bcd60e51b81526020600482018190526024820152600080516020620053a9833981519152604482015290519081900360640190fd5b60045460ff1662000f8f576040805162461bcd60e51b815260206004820152601460248201527314185d5cd8589b194e881b9bdd081c185d5cd95960621b604482015290519081900360640190fd5b6001600160801b03811662000fa357600080fd5b60008281526008602052604090206001015462000fbf57600080fd5b6000828152600860205260409020600101546001600160801b038216141562000fe757600080fd5b6000828152600860209081526040918290206001600160801b038416600190910181905582518581529182015281517f308309ae1e42f6780909fc0fca3307fb3968ad48c097b225a6e7c83bc67a49d8929181900390910190a15050565b600860205260009081526040902080546001909101546001600160a01b039091169082565b6200107462001a59565b620010b5576040805162461bcd60e51b81526020600482018190526024820152600080516020620053a9833981519152604482015290519081900360640190fd5b6127108110620010f75760405162461bcd60e51b8152600401808060200182810382526026815260200180620053eb6026913960400191505060405180910390fd5b6001600160a01b038216600090815260026020526040902054811415620011505760405162461bcd60e51b8152600401808060200182810382526030815260200180620053116030913960400191505060405180910390fd5b6001600160a01b038216600081815260026020908152604091829020849055815184815291517f15e1d4a46b89dcc844510d60687674a21af1bdbd734baa871c1fc38f796c5e1f9281900390910190a25050565b6006546001600160a01b031681565b620011c7620011c162002507565b620016fa565b620012045760405162461bcd60e51b8152600401808060200182810382526030815260200180620052e16030913960400191505060405180910390fd5b60045460ff1662001253576040805162461bcd60e51b815260206004820152601460248201527314185d5cd8589b194e881b9bdd081c185d5cd95960621b604482015290519081900360640190fd5b6004805460ff191690557f5db9ee0a495bf2e6ff9c91a7834c1ba4fdd244a5e8aa4e537bd38aeae4b073aa6200128862002507565b604080516001600160a01b039092168252519081900360200190a1565b620012af62001a59565b620012f0576040805162461bcd60e51b81526020600482018190526024820152600080516020620053a9833981519152604482015290519081900360640190fd5b8415801590620012ff57508515155b6200130957600080fd5b600087815260086020526040902060010154156200132657600080fd5b6200133062002d37565b602081018690526001600160a01b038216620015e2578787868686306040516200135a9062002d4e565b80878152602001868152602001806020018060200180602001856001600160a01b03166001600160a01b03168152602001848103845288818151815260200191508051906020019080838360005b83811015620013c2578181015183820152602001620013a8565b50505050905090810190601f168015620013f05780820380516001836020036101000a031916815260200191505b50848103835287518152875160209182019189019080838360005b83811015620014255781810151838201526020016200140b565b50505050905090810190601f168015620014535780820380516001836020036101000a031916815260200191505b50848103825286518152865160209182019188019080838360005b83811015620014885781810151838201526020016200146e565b50505050905090810190601f168015620014b65780820380516001836020036101000a031916815260200191505b509950505050505050505050604051809103906000f080158015620014df573d6000803e3d6000fd5b506001600160a01b031680825263f2fde38b620014fb62001a4a565b6040518263ffffffff1660e01b815260040180826001600160a01b03166001600160a01b03168152602001915050600060405180830381600087803b1580156200154457600080fd5b505af115801562001559573d6000803e3d6000fd5b5050505080600001516001600160a01b031663983b2d566200157a62001a4a565b6040518263ffffffff1660e01b815260040180826001600160a01b03166001600160a01b03168152602001915050600060405180830381600087803b158015620015c357600080fd5b505af1158015620015d8573d6000803e3d6000fd5b50505050620015ef565b6001600160a01b03821681525b6000888152600860209081526040808320845181546001600160a01b0319166001600160a01b03821690811783558685015160019093019290925582518d81528085018d90529283018b9052608083019190915260a06060830181815288519184019190915287517f1f5c82d41206c8cb3f1bb2d26bd5345591f1314936e4c48c6e8c315b01e02b88958e958e958e958c9590949193909260c0850192908701918190849084905b83811015620016b157818101518382015260200162001697565b50505050905090810190601f168015620016df5780820380516001836020036101000a031916815260200191505b50965050505050505060405180910390a15050505050505050565b60006200170f60038363ffffffff6200250b16565b92915050565b600d5481565b60045460ff165b90565b6007546001600160a01b031681565b6200173e62001a59565b6200177f576040805162461bcd60e51b81526020600482018190526024820152600080516020620053a9833981519152604482015290519081900360640190fd5b600d54156200178d57600080fd5b61271083106200179c57600080fd5b6127108110620017ab57600080fd5b600b839055600c829055600e81905542600d55620017c8620011b3565b505050565b620017d762001a59565b62001818576040805162461bcd60e51b81526020600482018190526024820152600080516020620053a9833981519152604482015290519081900360640190fd5b6001600160a01b0381163014156200182f57600080fd5b600780546001600160a01b0319166001600160a01b0392909216919091179055565b620018656200185f62002507565b62002574565b565b6200187162001a59565b620018b2576040805162461bcd60e51b81526020600482018190526024820152600080516020620053a9833981519152604482015290519081900360640190fd5b600080546040516001600160a01b03909116907f8be0079c531659141344cd1fd0a4f28419497f9722a3daafe3b4186f6b6457e0908390a3600080546001600160a01b0319169055565b60096020908152600092835260408084209091529082529020546001600160a01b031681565b62001930620011c162002507565b6200196d5760405162461bcd60e51b8152600401808060200182810382526030815260200180620052e16030913960400191505060405180910390fd5b6200197881620025be565b50565b62001989620011c162002507565b620019c65760405162461bcd60e51b8152600401808060200182810382526030815260200180620052e16030913960400191505060405180910390fd5b60045460ff161562001a12576040805162461bcd60e51b815260206004820152601060248201526f14185d5cd8589b194e881c185d5cd95960821b604482015290519081900360640190fd5b6004805460ff191660011790557f62e78cea01bee320cd4e420270b5ea74000d11b0c9f74754ebdbfc544b05a2586200128862002507565b6000546001600160a01b031690565b600080546001600160a01b031662001a7062002507565b6001600160a01b031614905090565b600e5481565b60045461010090046001600160a01b031681565b62001aa362001a59565b62001ae4576040805162461bcd60e51b81526020600482018190526024820152600080516020620053a9833981519152604482015290519081900360640190fd5b612710811062001b265760405162461bcd60e51b8152600401808060200182810382526026815260200180620053eb6026913960400191505060405180910390fd5b60015481141562001b695760405162461bcd60e51b8152600401808060200182810382526030815260200180620053116030913960400191505060405180910390fd5b60018190556040805182815290517f5c0e6b703d8594844873d744295427118a2293ca9484978d3a96052cbda0b97f9181900360200190a150565b60026020526000908152604090205481565b6005546001600160a01b031681565b600b5481565b6000848152600860205260408120600101548190819062001bf3908763ffffffff6200242116565b60008881526008602090815260408083208151808301835281546001600160a01b039081168252600190920154818501529089168452600a83528184208c8552909252822054929350909162001c4c9190899062001ee3565b5060065490915060009062001c6c906001600160a01b0316838962002608565b600480546006546040805163809a9e5560e01b81526001600160a01b038e8116958201959095529184166024830152604482018590528051949650610100909204909216935063809a9e5592606480840193829003018186803b15801562001cd357600080fd5b505afa15801562001ce8573d6000803e3d6000fd5b505050506040513d604081101562001cff57600080fd5b5060200151945062001d3262001d2b836ec097ce7bc90715b34b9f100000000063ffffffff6200242116565b86620026f4565b60065490945062001d50906001600160a01b03168886600162002740565b935062001d7762001d2b846ec097ce7bc90715b34b9f100000000063ffffffff6200242116565b60065490935062001d95906001600160a01b03168885600162002740565b925050509450945094915050565b600a60209081526000928352604080842090915290825290205481565b60015481565b6000600c546000148062001dda5750600b54155b8062001de65750600d54155b1562001df55750600062001722565b50600d54600c5442919091031090565b62001e0f62001a59565b62001e50576040805162461bcd60e51b81526020600482018190526024820152600080516020620053a9833981519152604482015290519081900360640190fd5b6200197881620027c9565b600c5481565b6000828152600860205260409020546001600160a01b0316331462001e8557600080fd5b60005b8181101562001edd57604080518481526001602082015281516001600160a01b038716927fb4886cedc51b9c3f1644f34e8f2f4d5ab4e71a107d92fb841e8b9fef97b69263928290030190a260010162001e88565b50505050565b60008062001eff8486602001516200242190919063ffffffff16565b915062001f0b62001dc6565b1562001f325762001f2f61271062000bbf600b54856200242190919063ffffffff16565b90505b62001f43856020015185856200286b565b0162001f56828263ffffffff620024c316565b9150935093915050565b600080866001600160a01b0316896001600160a01b031614156200202a578588101562001f8c57600080fd5b5050604080516323b872dd60e01b81526001600160a01b03848116600483015230602483015260448201879052915186928392908b16916323b872dd916064808201926020929091908290030181600087803b15801562001fec57600080fd5b505af115801562002001573d6000803e3d6000fd5b505050506040513d60208110156200201857600080fd5b50516200202457600080fd5b620023fa565b6005546001600160a01b038a8116911614620020485734156200204d565b873410155b6200205757600080fd5b6000620020658a30620028ba565b6005549091506001600160a01b038b8116911614620021ab57604080516323b872dd60e01b81526001600160a01b038781166004830152306024830152604482018c90529151918c16916323b872dd916064808201926020929091908290030181600087803b158015620020d857600080fd5b505af1158015620020ed573d6000803e3d6000fd5b505050506040513d60208110156200210457600080fd5b50516200211057600080fd5b600480546040805163095ea7b360e01b81526001600160a01b03610100909304831693810193909352602483018c905251908c169163095ea7b39160448083019260209291908290030181600087803b1580156200216d57600080fd5b505af115801562002182573d6000803e3d6000fd5b505050506040513d60208110156200219957600080fd5b5051620021a557600080fd5b620021c0565b620021bd818a63ffffffff620024c316565b90505b6004546005546001600160a01b0361010090920482169163cb3c28c7918d8216911614620021f0576000620021f2565b8a5b8c8c8c898d8d60006040518963ffffffff1660e01b815260040180886001600160a01b03166001600160a01b03168152602001878152602001866001600160a01b03166001600160a01b03168152602001856001600160a01b03166001600160a01b03168152602001848152602001838152602001826001600160a01b03166001600160a01b031681526020019750505050505050506020604051808303818588803b158015620022a257600080fd5b505af1158015620022b7573d6000803e3d6000fd5b50505050506040513d6020811015620022cf57600080fd5b505191506000620022e18b30620028ba565b905089935081811115620023f75781810362002304858263ffffffff620024c316565b6005549095506001600160a01b038d8116911614620023bc578b6001600160a01b031663a9059cbb88836040518363ffffffff1660e01b815260040180836001600160a01b03166001600160a01b0316815260200182815260200192505050602060405180830381600087803b1580156200237e57600080fd5b505af115801562002393573d6000803e3d6000fd5b505050506040513d6020811015620023aa57600080fd5b5051620023b657600080fd5b620023f5565b6040516001600160a01b0388169082156108fc029083906000818181858888f19350505050158015620023f3573d6000803e3d6000fd5b505b505b50505b97509795505050505050565b6000818310156200241857816200241a565b825b9392505050565b60008262002432575060006200170f565b828202828482816200244057fe5b04146200241a5760405162461bcd60e51b8152600401808060200182810382526021815260200180620053886021913960400191505060405180910390fd5b60006200241a83836040518060400160405280601a81526020017f536166654d6174683a206469766973696f6e206279207a65726f00000000000081525062002971565b60006200241a83836040518060400160405280601e81526020017f536166654d6174683a207375627472616374696f6e206f766572666c6f77000081525062002a18565b3390565b60006001600160a01b038216620025545760405162461bcd60e51b8152600401808060200182810382526022815260200180620053c96022913960400191505060405180910390fd5b506001600160a01b03166000908152602091909152604090205460ff1690565b6200258760038263ffffffff62002a7516565b6040516001600160a01b038216907fcd265ebaf09df2871cc7bd4133404a235ba12eff2041bb89d9c714a2621c7c7e90600090a250565b620025d160038263ffffffff62002ae016565b6040516001600160a01b038216907f6719d08c1888103bea251a4ed56406bd0c3e69723c8a1686e017e7bbe159b6f890600090a250565b600480546040805163809a9e5560e01b81526001600160a01b038781169482019490945284841660248201526044810186905281516000948594859485946101009092049092169263809a9e5592606480840193919291829003018186803b1580156200267457600080fd5b505afa15801562002689573d6000803e3d6000fd5b505050506040513d6040811015620026a057600080fd5b5080516020909101519092509050620026ce8786620026c6898663ffffffff6200242116565b600062002740565b620026e68887620026c68a8663ffffffff6200242116565b935093505050935093915050565b60006200241a816200270d858563ffffffff62002b6416565b116200271b5760006200271e565b60015b60ff1662002733858563ffffffff6200247f16565b9063ffffffff62002ba816565b6000806200274e8662002c03565b60120160ff1690506000620027638662002c03565b60ff16905080821115620027aa57831562002793576200278985828403600a0a620026f4565b92505050620027c1565b6200278985828403600a0a63ffffffff6200247f16565b6200278985838303600a0a63ffffffff6200242116565b949350505050565b6001600160a01b038116620028105760405162461bcd60e51b8152600401808060200182810382526026815260200180620053416026913960400191505060405180910390fd5b600080546040516001600160a01b03808516939216917f8be0079c531659141344cd1fd0a4f28419497f9722a3daafe3b4186f6b6457e091a3600080546001600160a01b0319166001600160a01b0392909216919091179055565b600080600583049050600081600585870104039050620028b061271062000bbf600e54620028a3858b6200242190919063ffffffff16565b9063ffffffff6200242116565b9695505050505050565b6005546000906001600160a01b0384811691161415620028e557816001600160a01b0316316200241a565b826001600160a01b03166370a08231836040518263ffffffff1660e01b815260040180826001600160a01b03166001600160a01b0316815260200191505060206040518083038186803b1580156200293c57600080fd5b505afa15801562002951573d6000803e3d6000fd5b505050506040513d60208110156200296857600080fd5b50519392505050565b6000818362002a015760405162461bcd60e51b81526004018080602001828103825283818151815260200191508051906020019080838360005b83811015620029c5578181015183820152602001620029ab565b50505050905090810190601f168015620029f35780820380516001836020036101000a031916815260200191505b509250505060405180910390fd5b50600083858162002a0e57fe5b0495945050505050565b6000818484111562002a6d5760405162461bcd60e51b8152602060048201818152835160248401528351909283926044909101919085019080838360008315620029c5578181015183820152602001620029ab565b505050900390565b62002a8182826200250b565b62002abe5760405162461bcd60e51b8152600401808060200182810382526021815260200180620053676021913960400191505060405180910390fd5b6001600160a01b0316600090815260209190915260409020805460ff19169055565b62002aec82826200250b565b1562002b3f576040805162461bcd60e51b815260206004820152601f60248201527f526f6c65733a206163636f756e7420616c72656164792068617320726f6c6500604482015290519081900360640190fd5b6001600160a01b0316600090815260209190915260409020805460ff19166001179055565b60006200241a83836040518060400160405280601881526020017f536166654d6174683a206d6f64756c6f206279207a65726f000000000000000081525062002c93565b6000828201838110156200241a576040805162461bcd60e51b815260206004820152601b60248201527f536166654d6174683a206164646974696f6e206f766572666c6f770000000000604482015290519081900360640190fd5b6005546000906001600160a01b038381169116141562002c255760126200170f565b816001600160a01b031663313ce5676040518163ffffffff1660e01b815260040160206040518083038186803b15801562002c5f57600080fd5b505afa15801562002c74573d6000803e3d6000fd5b505050506040513d602081101562002c8b57600080fd5b505192915050565b6000818362002ce55760405162461bcd60e51b8152602060048201818152835160248401528351909283926044909101919085019080838360008315620029c5578181015183820152602001620029ab565b5082848162002cf057fe5b06949350505050565b6040518060c0016040528062002d0e62002d37565b815260200160008152602001600081526020016000815260200160008152602001600081525090565b604080518082019091526000808252602082015290565b6125848062002d5d8339019056fe608060405260078054610100600160a81b03191674d216153c06e857cd7f72665e0af1d7d82172f494001790553480156200003957600080fd5b506040516200258438038062002584833981810160405260c08110156200005f57600080fd5b815160208301516040808501805191519395929483019291846401000000008211156200008b57600080fd5b908301906020820185811115620000a157600080fd5b8251640100000000811182820188101715620000bc57600080fd5b82525081516020918201929091019080838360005b83811015620000eb578181015183820152602001620000d1565b50505050905090810190601f168015620001195780820380516001836020036101000a031916815260200191505b50604052602001805160405193929190846401000000008211156200013d57600080fd5b9083019060208201858111156200015357600080fd5b82516401000000008111828201881017156200016e57600080fd5b82525081516020918201929091019080838360005b838110156200019d57818101518382015260200162000183565b50505050905090810190601f168015620001cb5780820380516001836020036101000a031916815260200191505b5060405260200180516040519392919084640100000000821115620001ef57600080fd5b9083019060208201858111156200020557600080fd5b82516401000000008111828201881017156200022057600080fd5b82525081516020918201929091019080838360005b838110156200024f57818101518382015260200162000235565b50505050905090810190601f1680156200027d5780820380516001836020036101000a031916815260200191505b5060405260200151915084905083600087620002b4620002a56001600160e01b036200040416565b6001600160e01b036200044016565b600081116200030a576040805162461bcd60e51b815260206004820152601560248201527f45524332304361707065643a2063617020697320300000000000000000000000604482015290519081900360640190fd5b600455825162000322906005906020860190620005d5565b50815162000338906006906020850190620005d5565b506007805460ff191660ff9290921691909117905550600090506200035c62000404565b600880546001600160a01b0319166001600160a01b038316908117909155604051919250906000907f8be0079c531659141344cd1fd0a4f28419497f9722a3daafe3b4186f6b6457e0908290a3506001600160a01b038116620003be57600080fd5b8151620003d3906009906020850190620005d5565b50600a80546001600160a01b0319166001600160a01b0392909216919091179055505050600b919091555062000677565b60075460009061010090046001600160a01b03163314620004275750336200043d565b6200043a6001600160e01b036200049216565b90505b90565b6200045b816003620004df60201b620019f11790919060201c565b6040516001600160a01b038216907f6ae172837ea30b801fbfcdd4108aa1d5bf8ff775444fd70256b44e6bf3dfc3f690600090a250565b600060606000368080601f0160208091040260200160405190810160405280939291908181526020018383808284376000920191909152505050503601516001600160a01b031692915050565b620004f482826001600160e01b036200056c16565b1562000547576040805162461bcd60e51b815260206004820152601f60248201527f526f6c65733a206163636f756e7420616c72656164792068617320726f6c6500604482015290519081900360640190fd5b6001600160a01b0316600090815260209190915260409020805460ff19166001179055565b60006001600160a01b038216620005b55760405162461bcd60e51b8152600401808060200182810382526022815260200180620025626022913960400191505060405180910390fd5b506001600160a01b03166000908152602091909152604090205460ff1690565b828054600181600116156101000203166002900490600052602060002090601f016020900481019282601f106200061857805160ff191683800117855562000648565b8280016001018555821562000648579182015b82811115620006485782518255916020019190600101906200062b565b50620006569291506200065a565b5090565b6200043d91905b8082111562000656576000815560010162000661565b611edb80620006876000396000f3fe608060405234801561001057600080fd5b50600436106101e55760003560e01c806379cc67901161010f578063a457c2d7116100a2578063c2db1abe11610071578063c2db1abe1461076d578063dd62ed3e14610799578063e06e0e22146107c7578063f2fde38b14610843576101e5565b8063a457c2d7146106e7578063a9059cbb14610713578063aa271e1a1461073f578063ad61ccd514610765576101e5565b80638f32d59b116100de5780638f32d59b146106a957806395d89b41146106b1578063983b2d56146106b957806398650275146106df576101e5565b806379cc67901461049a57806380274db7146104c657806383947ea0146105345780638da5cb5b146106a1576101e5565b806339509351116101875780634de62b84116101565780634de62b841461044057806370a0823114610448578063715018a61461046e57806374e861d614610476576101e5565b806339509351146103c35780633c130d90146103ef57806340c10f19146103f757806342966c6814610423576101e5565b806318160ddd116101c357806318160ddd1461034d57806323b872dd14610367578063313ce5671461039d578063355274ea146103bb576101e5565b806302fe5305146101ea57806306fdde0314610290578063095ea7b31461030d575b600080fd5b61028e6004803603602081101561020057600080fd5b810190602081018135600160201b81111561021a57600080fd5b82018360208201111561022c57600080fd5b803590602001918460018302840111600160201b8311171561024d57600080fd5b91908080601f016020809104026020016040519081016040528093929190818152602001838380828437600092019190915250929550610869945050505050565b005b6102986108c7565b6040805160208082528351818301528351919283929083019185019080838360005b838110156102d25781810151838201526020016102ba565b50505050905090810190601f1680156102ff5780820380516001836020036101000a031916815260200191505b509250505060405180910390f35b6103396004803603604081101561032357600080fd5b506001600160a01b03813516906020013561095e565b604080519115158252519081900360200190f35b61035561097b565b60408051918252519081900360200190f35b6103396004803603606081101561037d57600080fd5b506001600160a01b03813581169160208101359091169060400135610981565b6103a5610a0e565b6040805160ff9092168252519081900360200190f35b610355610a17565b610339600480360360408110156103d957600080fd5b506001600160a01b038135169060200135610a1d565b610298610a71565b6103396004803603604081101561040d57600080fd5b506001600160a01b038135169060200135610ad2565b61028e6004803603602081101561043957600080fd5b5035610b29565b610355610bc8565b6103556004803603602081101561045e57600080fd5b50356001600160a01b0316610bce565b61028e610be9565b61047e610c7a565b604080516001600160a01b039092168252519081900360200190f35b61028e600480360360408110156104b057600080fd5b506001600160a01b038135169060200135610c8e565b610355600480360360208110156104dc57600080fd5b810190602081018135600160201b8111156104f657600080fd5b82018360208201111561050857600080fd5b803590602001918460018302840111600160201b8311171561052957600080fd5b509092509050610d14565b610622600480360361012081101561054b57600080fd5b6001600160a01b038235811692602081013590911691810190606081016040820135600160201b81111561057e57600080fd5b82018360208201111561059057600080fd5b803590602001918460018302840111600160201b831117156105b157600080fd5b9193909282359260208101359260408201359260608301359260a081019060800135600160201b8111156105e457600080fd5b8201836020820111156105f657600080fd5b803590602001918460018302840111600160201b8311171561061757600080fd5b919350915035610db3565b6040518083815260200180602001828103825283818151815260200191508051906020019080838360005b8381101561066557818101518382015260200161064d565b50505050905090810190601f1680156106925780820380516001836020036101000a031916815260200191505b50935050505060405180910390f35b61047e610e68565b610339610e77565b610298610e9d565b61028e600480360360208110156106cf57600080fd5b50356001600160a01b0316610efe565b61028e610f50565b610339600480360360408110156106fd57600080fd5b506001600160a01b038135169060200135610f62565b6103396004803603604081101561072957600080fd5b506001600160a01b038135169060200135610fd0565b6103396004803603602081101561075557600080fd5b50356001600160a01b0316610fe4565b610298610ffd565b61028e6004803603604081101561078357600080fd5b50803590602001356001600160a01b031661101c565b610355600480360360408110156107af57600080fd5b506001600160a01b038135811691602001351661106d565b61028e600480360360808110156107dd57600080fd5b810190602081018135600160201b8111156107f757600080fd5b82018360208201111561080957600080fd5b803590602001918460018302840111600160201b8311171561082a57600080fd5b9193509150803515159060208101359060400135611098565b61028e6004803603602081101561085957600080fd5b50356001600160a01b0316611133565b610871610e77565b6108b0576040805162461bcd60e51b81526020600482018190526024820152600080516020611d8e833981519152604482015290519081900360640190fd5b80516108c3906009906020840190611bc9565b5050565b60058054604080516020601f60026000196101006001881615020190951694909404938401819004810282018101909252828152606093909290918301828280156109535780601f1061092857610100808354040283529160200191610953565b820191906000526020600020905b81548152906001019060200180831161093657829003601f168201915b505050505090505b90565b600061097261096b611183565b84846111b3565b50600192915050565b60025490565b600061098e84848461129f565b610a048461099a611183565b6109ff85604051806060016040528060288152602001611d66602891396001600160a01b038a166000908152600160205260408120906109d8611183565b6001600160a01b03168152602081019190915260400160002054919063ffffffff6113fb16565b6111b3565b5060019392505050565b60075460ff1690565b60045490565b6000610972610a2a611183565b846109ff8560016000610a3b611183565b6001600160a01b03908116825260208083019390935260409182016000908120918c16815292529020549063ffffffff61149216565b60098054604080516020601f60026000196101006001881615020190951694909404938401819004810282018101909252828152606093909290918301828280156109535780601f1061092857610100808354040283529160200191610953565b6000610ae4610adf611183565b610fe4565b610b1f5760405162461bcd60e51b8152600401808060200182810382526030815260200180611d156030913960400191505060405180910390fd5b61097283836114ec565b610b3a610b34611183565b8261155c565b600a546001600160a01b031663fbd4fcd8610b53611183565b600b54846040518463ffffffff1660e01b815260040180846001600160a01b03166001600160a01b031681526020018381526020018281526020019350505050600060405180830381600087803b158015610bad57600080fd5b505af1158015610bc1573d6000803e3d6000fd5b5050505050565b600c5481565b6001600160a01b031660009081526020819052604090205490565b610bf1610e77565b610c30576040805162461bcd60e51b81526020600482018190526024820152600080516020611d8e833981519152604482015290519081900360640190fd5b6008546040516000916001600160a01b0316907f8be0079c531659141344cd1fd0a4f28419497f9722a3daafe3b4186f6b6457e0908390a3600880546001600160a01b0319169055565b60075461010090046001600160a01b031690565b610c988282611658565b600a54600b5460408051631f7a9f9b60e31b81526001600160a01b0386811660048301526024820193909352604481018590529051919092169163fbd4fcd891606480830192600092919082900301818387803b158015610cf857600080fd5b505af1158015610d0c573d6000803e3d6000fd5b505050505050565b6000610d1e610c7a565b6001600160a01b0316336001600160a01b031614610d6d5760405162461bcd60e51b8152600401808060200182810382526024815260200180611e3a6024913960400191505060405180910390fd5b610dac83838080601f0160208091040260200160405190810160405280939291908181526020018383808284376000920191909152506116ac92505050565b9392505050565b600060606000808c8c8080601f01602080910402602001604051908101604052809392919081815260200183838082843760009201919091525050505060208101516024820151919450925090506001600160e01b03198216630852cd8d60e31b14610e2f57610e2460005b6116b2565b935093505050610e58565b80610e398f610bce565b1015610e4957610e246001610e1f565b610e516116ca565b9350935050505b9b509b9950505050505050505050565b6008546001600160a01b031690565b6008546000906001600160a01b0316610e8e611183565b6001600160a01b031614905090565b60068054604080516020601f60026000196101006001881615020190951694909404938401819004810282018101909252828152606093909290918301828280156109535780601f1061092857610100808354040283529160200191610953565b610f09610adf611183565b610f445760405162461bcd60e51b8152600401808060200182810382526030815260200180611d156030913960400191505060405180910390fd5b610f4d816116ee565b50565b610f60610f5b611183565b611736565b565b6000610972610f6f611183565b846109ff85604051806060016040528060258152602001611e826025913960016000610f99611183565b6001600160a01b03908116825260208083019390935260409182016000908120918d1681529252902054919063ffffffff6113fb16565b6000610972610fdd611183565b848461129f565b6000610ff760038363ffffffff61177e16565b92915050565b6040805180820190915260058152640312e302e360dc1b602082015290565b611024610e77565b611063576040805162461bcd60e51b81526020600482018190526024820152600080516020611d8e833981519152604482015290519081900360640190fd5b6108c382826117e5565b6001600160a01b03918216600090815260016020908152604080832093909416825291909152205490565b6110a0610c7a565b6001600160a01b0316336001600160a01b0316146110ef5760405162461bcd60e51b8152600401808060200182810382526024815260200180611e3a6024913960400191505060405180910390fd5b610bc185858080601f01602080910402602001604051908101604052809392919081815260200183838082843760009201919091525087925086915085905061183e565b61113b610e77565b61117a576040805162461bcd60e51b81526020600482018190526024820152600080516020611d8e833981519152604482015290519081900360640190fd5b610f4d81611844565b60075460009061010090046001600160a01b031633146111a457503361095b565b6111ac6118e5565b905061095b565b6001600160a01b0383166111f85760405162461bcd60e51b8152600401808060200182810382526024815260200180611e5e6024913960400191505060405180910390fd5b6001600160a01b03821661123d5760405162461bcd60e51b8152600401808060200182810382526022815260200180611ccd6022913960400191505060405180910390fd5b6001600160a01b03808416600081815260016020908152604080832094871680845294825291829020859055815185815291517f8c5be1e5ebec7d5bd14f71427d1e84f3dd0314c0f7b2291e5b200ac8c7c3b9259281900390910190a3505050565b6001600160a01b0383166112e45760405162461bcd60e51b8152600401808060200182810382526025815260200180611e156025913960400191505060405180910390fd5b6001600160a01b0382166113295760405162461bcd60e51b8152600401808060200182810382526023815260200180611c626023913960400191505060405180910390fd5b61136c81604051806060016040528060268152602001611cef602691396001600160a01b038616600090815260208190526040902054919063ffffffff6113fb16565b6001600160a01b0380851660009081526020819052604080822093909355908416815220546113a1908263ffffffff61149216565b6001600160a01b038084166000818152602081815260409182902094909455805185815290519193928716927fddf252ad1be2c89b69c2b068fc378daa952ba7f163c4a11628f55a4df523b3ef92918290030190a3505050565b6000818484111561148a5760405162461bcd60e51b81526004018080602001828103825283818151815260200191508051906020019080838360005b8381101561144f578181015183820152602001611437565b50505050905090810190601f16801561147c5780820380516001836020036101000a031916815260200191505b509250505060405180910390fd5b505050900390565b600082820183811015610dac576040805162461bcd60e51b815260206004820152601b60248201527f536166654d6174683a206164646974696f6e206f766572666c6f770000000000604482015290519081900360640190fd5b600c8054820190556114fc610a17565b600c541115611552576040805162461bcd60e51b815260206004820152601960248201527f6372617465734973737565642065786365656465642063617000000000000000604482015290519081900360640190fd5b6108c38282611932565b6001600160a01b0382166115a15760405162461bcd60e51b8152600401808060200182810382526021815260200180611df46021913960400191505060405180910390fd5b6115e481604051806060016040528060228152602001611c85602291396001600160a01b038516600090815260208190526040902054919063ffffffff6113fb16565b6001600160a01b038316600090815260208190526040902055600254611610908263ffffffff6119aa16565b6002556040805182815290516000916001600160a01b038516917fddf252ad1be2c89b69c2b068fc378daa952ba7f163c4a11628f55a4df523b3ef9181900360200190a35050565b611662828261155c565b6108c38261166e611183565b6109ff84604051806060016040528060248152602001611dd0602491396001600160a01b0388166000908152600160205260408120906109d8611183565b50600090565b604080516020810190915260008152600b9190910191565b600060606116e6604051806020016040528060008152506119ec565b915091509091565b6116ff60038263ffffffff6119f116565b6040516001600160a01b038216907f6ae172837ea30b801fbfcdd4108aa1d5bf8ff775444fd70256b44e6bf3dfc3f690600090a250565b61174760038263ffffffff611a7216565b6040516001600160a01b038216907fe94479a9f7e1952cc78f2d6baab678adc1b772d936c6583def489e524cb6669290600090a250565b60006001600160a01b0382166117c55760405162461bcd60e51b8152600401808060200182810382526022815260200180611dae6022913960400191505060405180910390fd5b506001600160a01b03166000908152602091909152604090205460ff1690565b60075460408051627b8a6760e11b8152600481018590526001600160a01b03848116602483015291516101009093049091169162f714ce9160448082019260009290919082900301818387803b158015610cf857600080fd5b50505050565b6001600160a01b0381166118895760405162461bcd60e51b8152600401808060200182810382526026815260200180611ca76026913960400191505060405180910390fd5b6008546040516001600160a01b038084169216907f8be0079c531659141344cd1fd0a4f28419497f9722a3daafe3b4186f6b6457e090600090a3600880546001600160a01b0319166001600160a01b0392909216919091179055565b600060606000368080601f0160208091040260200160405190810160405280939291908181526020018383808284376000920191909152505050503601516001600160a01b031692915050565b60045461194d8261194161097b565b9063ffffffff61149216565b11156119a0576040805162461bcd60e51b815260206004820152601960248201527f45524332304361707065643a2063617020657863656564656400000000000000604482015290519081900360640190fd5b6108c38282611ad9565b6000610dac83836040518060400160405280601e81526020017f536166654d6174683a207375627472616374696f6e206f766572666c6f7700008152506113fb565b600091565b6119fb828261177e565b15611a4d576040805162461bcd60e51b815260206004820152601f60248201527f526f6c65733a206163636f756e7420616c72656164792068617320726f6c6500604482015290519081900360640190fd5b6001600160a01b0316600090815260209190915260409020805460ff19166001179055565b611a7c828261177e565b611ab75760405162461bcd60e51b8152600401808060200182810382526021815260200180611d456021913960400191505060405180910390fd5b6001600160a01b0316600090815260209190915260409020805460ff19169055565b6001600160a01b038216611b34576040805162461bcd60e51b815260206004820152601f60248201527f45524332303a206d696e7420746f20746865207a65726f206164647265737300604482015290519081900360640190fd5b600254611b47908263ffffffff61149216565b6002556001600160a01b038216600090815260208190526040902054611b73908263ffffffff61149216565b6001600160a01b0383166000818152602081815260408083209490945583518581529351929391927fddf252ad1be2c89b69c2b068fc378daa952ba7f163c4a11628f55a4df523b3ef9281900390910190a35050565b828054600181600116156101000203166002900490600052602060002090601f016020900481019282601f10611c0a57805160ff1916838001178555611c37565b82800160010185558215611c37579182015b82811115611c37578251825591602001919060010190611c1c565b50611c43929150611c47565b5090565b61095b91905b80821115611c435760008155600101611c4d56fe45524332303a207472616e7366657220746f20746865207a65726f206164647265737345524332303a206275726e20616d6f756e7420657863656564732062616c616e63654f776e61626c653a206e6577206f776e657220697320746865207a65726f206164647265737345524332303a20617070726f766520746f20746865207a65726f206164647265737345524332303a207472616e7366657220616d6f756e7420657863656564732062616c616e63654d696e746572526f6c653a2063616c6c657220646f6573206e6f74206861766520746865204d696e74657220726f6c65526f6c65733a206163636f756e7420646f6573206e6f74206861766520726f6c6545524332303a207472616e7366657220616d6f756e74206578636565647320616c6c6f77616e63654f776e61626c653a2063616c6c6572206973206e6f7420746865206f776e6572526f6c65733a206163636f756e7420697320746865207a65726f206164647265737345524332303a206275726e20616d6f756e74206578636565647320616c6c6f77616e636545524332303a206275726e2066726f6d20746865207a65726f206164647265737345524332303a207472616e736665722066726f6d20746865207a65726f206164647265737347534e526563697069656e743a2063616c6c6572206973206e6f742052656c617948756245524332303a20617070726f76652066726f6d20746865207a65726f206164647265737345524332303a2064656372656173656420616c6c6f77616e63652062656c6f77207a65726fa265627a7a72315820a1998f68ab2c82d9b6a2b86d169be72cefe1d5857bbfd64a079770660a2b9fc464736f6c63430005100032526f6c65733a206163636f756e7420697320746865207a65726f2061646472657373506175736572526f6c653a2063616c6c657220646f6573206e6f742068617665207468652050617573657220726f6c654e657720726566657272616c206d75737420626520646966666572656e742066726f6d207468652070726576696f75734f776e61626c653a206e6577206f776e657220697320746865207a65726f2061646472657373526f6c65733a206163636f756e7420646f6573206e6f74206861766520726f6c65536166654d6174683a206d756c7469706c69636174696f6e206f766572666c6f774f776e61626c653a2063616c6c6572206973206e6f7420746865206f776e6572526f6c65733a206163636f756e7420697320746865207a65726f2061646472657373526566657272616c206d757374206265206c657373207468616e203130302070657263656e74a265627a7a72315820d2d7a237f49629f378e66856add322c100fe55a20cd623aaceb6baf3a10f8b2464736f6c63430005100032506175736572526f6c653a2063616c6c657220646f6573206e6f742068617665207468652050617573657220726f6c65526f6c65733a206163636f756e7420697320746865207a65726f2061646472657373",
  "source": "pragma solidity = 0.5.16;\n\nimport \"@openzeppelin/contracts/token/ERC20/ERC20.sol\";\nimport \"@openzeppelin/contracts/token/ERC20/ERC20Capped.sol\";\nimport \"@openzeppelin/contracts/token/ERC721/IERC721.sol\";\nimport \"@openzeppelin/contracts/lifecycle/Pausable.sol\";\nimport \"@openzeppelin/contracts/math/SafeMath.sol\";\nimport \"@openzeppelin/contracts/math/Math.sol\";\n\nimport \"./ReferrableSale.sol\";\nimport \"./F1DeltaCrate.sol\";\nimport \"./KyberAdapter.sol\";\nimport \"./ICrateOpenEmitter.sol\";\n\ncontract FixedSupplyCratesSale is ReferrableSale, Pausable, KyberAdapter, ICrateOpenEmitter {\n    using SafeMath for uint256;\n\n    struct Lot {\n        F1DeltaCrate crateToken;\n        uint256 price; // in stable coin\n    }\n\n    struct PurchaseForVars {\n        Lot lot;\n        uint256 discount;\n        uint256 price;\n        uint256 referralReward;\n        uint256 tokensSent;\n        uint256 tokensReceived;\n    }\n\n    event Purchased (\n        address indexed owner,\n        address operator,\n        uint256 indexed lotId,\n        uint256 indexed quantity,\n        uint256 pricePaid,\n        address tokenAddress,\n        uint256 tokensSent,\n        uint256 tokensReceived,\n        uint256 discountApplied,\n        address referrer,\n        uint256 referralRewarded\n    );\n\n    event LotCreated (\n        uint256 lotId,\n        uint256 supply,\n        uint256 price,\n        string uri,\n        ERC20 crateToken\n    );\n\n    event LotPriceUpdated (\n        uint256 lotId,\n        uint256 price\n    );\n\n    event CrateOpened(address indexed from, uint256 lotId, uint256 amount);\n\n    uint256 private constant PERCENT_PRECISION = 10000;\n    uint256 private constant MULTI_PURCHASE_DISCOUNT_STEP = 5;\n\n    ERC20 public _stableCoinAddress;\n    address payable public _payoutWallet;\n\n    mapping (uint256 => Lot) public _lots; // lotId => lot\n    mapping (uint256 => mapping (address => address)) public _referrersByLot; // lotId => (buyer => referrer)\n    mapping (address => mapping(uint256 => uint256)) public _cratesPurchased; // owner => (lot id => quantity)\n\n    uint256 public _initialDiscountPercentage;\n    uint256 public _initialDiscountPeriod;\n    uint256 public _startedAt;\n    uint256 public _multiPurchaseDiscount;\n\n    modifier whenStarted() {\n        require(_startedAt != 0);\n        _;\n    }\n\n    modifier whenNotStarted() {\n        require(_startedAt == 0);\n        _;\n    }\n\n    constructor(\n        address payable payoutWallet, \n        address kyberProxy, \n        ERC20 stableCoinAddress\n    ) KyberAdapter(kyberProxy) public {\n        require(payoutWallet != address(0));\n        require(stableCoinAddress != ERC20(address(0)));\n        setPayoutWallet(payoutWallet); \n\n        _stableCoinAddress = stableCoinAddress;\n        pause();\n    }\n\n    function setPayoutWallet(address payable payoutWallet) public onlyOwner {\n        require(payoutWallet != address(uint160(address(this))));\n        _payoutWallet = payoutWallet;\n    }\n\n    function start(\n        uint256 initialDiscountPercentage, \n        uint256 initialDiscountPeriod, \n        uint256 multiPurchaseDiscount\n    ) \n    public \n    onlyOwner \n    whenNotStarted\n    {\n        require(initialDiscountPercentage < PERCENT_PRECISION);\n        require(multiPurchaseDiscount < PERCENT_PRECISION);\n\n        _initialDiscountPercentage = initialDiscountPercentage;\n        _initialDiscountPeriod = initialDiscountPeriod;\n        _multiPurchaseDiscount = multiPurchaseDiscount;\n        \n        // solium-disable-next-line security/no-block-members\n        _startedAt = now;\n        unpause();\n    }\n\n    function initialDiscountActive() public view returns (bool) {\n        if (_initialDiscountPeriod == 0 || _initialDiscountPercentage == 0 || _startedAt == 0) {\n            // No discount set or sale not started\n            return false;\n        }\n\n        // solium-disable-next-line security/no-block-members\n        uint256 elapsed = (now - _startedAt);\n        return elapsed < _initialDiscountPeriod;\n    }\n\n    // owner can provide crate contract address which is compatible with F1DeltaCrate interface \n    // Make sure that crate contract has FixedSupplyCratesSale contract as minter.\n    // if crate contract isn't provided sales contract will create simple F1DeltaCrate on it's own\n    function createLot(\n        uint256 lotId,\n        uint256 supply,\n        uint256 price,\n        string memory name,\n        string memory symbol,\n        string memory uri,\n        F1DeltaCrate crateToken\n    ) \n        public \n        onlyOwner \n    {\n        require(price != 0 && supply != 0);\n        require(_lots[lotId].price == 0);\n        \n        Lot memory lot;\n        lot.price = price;\n        if (crateToken == F1DeltaCrate(address(0))) {\n            lot.crateToken = new F1DeltaCrate(lotId, supply, name, symbol, uri, address(this));\n            lot.crateToken.transferOwnership(owner());\n            lot.crateToken.addMinter(owner());\n        } else {\n            lot.crateToken = crateToken;\n        }\n        \n        _lots[lotId] = lot;\n\n        emit LotCreated(lotId, supply, price, uri, ERC20(address(lot.crateToken)));\n    }\n\n    function updateLotPrice(uint256 lotId, uint128 price) external onlyOwner whenPaused {\n        require(price != 0);\n        require(_lots[lotId].price != 0);\n        require(_lots[lotId].price != price);\n\n        _lots[lotId].price = price;\n\n        emit LotPriceUpdated(lotId, price);\n    }\n\n    function _nthPurchaseDiscount(uint lotPrice, uint quantity, uint cratesPurchased) private view returns(uint) {\n        uint discountsApplied = cratesPurchased / MULTI_PURCHASE_DISCOUNT_STEP;\n        uint discountsToApply = (cratesPurchased + quantity) / MULTI_PURCHASE_DISCOUNT_STEP - discountsApplied;\n\n        return lotPrice.mul(discountsToApply).mul(_multiPurchaseDiscount).div(PERCENT_PRECISION);\n    }\n\n    function _getPriceWithDiscounts(Lot memory lot, uint quantity, uint cratesPurchased) private view returns(uint price, uint discount) {\n        price = lot.price.mul(quantity);\n        // Discounts are additive\n\n        // apply early bird discount\n        if (initialDiscountActive()) {\n            discount = price.mul(_initialDiscountPercentage).div(PERCENT_PRECISION);\n        }\n\n        // apply multi purchase discount if any\n        discount += _nthPurchaseDiscount(lot.price, quantity, cratesPurchased);\n        price = price.sub(discount);\n    }\n\n    function purchaseFor(\n        address payable destination,\n        uint256 lotId,\n        ERC20Capped tokenAddress,\n        uint256 quantity,\n        uint256 maxTokenAmount,\n        uint256 minConversionRate,\n        address payable referrer\n    )\n        external \n        payable\n        whenNotPaused \n        whenStarted\n    {\n        require (quantity > 0);\n        require (referrer != destination && referrer != msg.sender); //Inefficient\n\n        // hack to fit as many variables on stack as required.\n        PurchaseForVars memory vars;\n\n        vars.lot = _lots[lotId];\n        require(vars.lot.price != 0);\n\n        (vars.price, vars.discount) = _getPriceWithDiscounts(vars.lot, quantity, _cratesPurchased[destination][lotId]);\n\n        (vars.tokensSent, vars.tokensReceived) = _swapTokenAndHandleChange(\n            tokenAddress,\n            maxTokenAmount,\n            _stableCoinAddress,\n            vars.price,\n            minConversionRate,\n            msg.sender,\n            address(uint160(address(this)))\n        );\n        \n        // Check if received enough tokens.\n        require(vars.tokensReceived >= vars.price);\n        \n        if (referrer != address(0)) {\n            bool sendReferral = true;\n            if (_customReferralPercentages[referrer] == 0) {\n                // not a VIP\n                if (_referrersByLot[lotId][destination] == referrer) { \n                    // buyer already used a referrer for this item before\n                    sendReferral = false;\n                }\n            }\n            \n            if (sendReferral) {\n                vars.referralReward = vars.tokensReceived\n                    .mul(Math.max(_customReferralPercentages[referrer], _defaultReferralPercentage))\n                    .div(PERCENT_PRECISION);\n\n                if (vars.referralReward > 0) {\n                    _referrersByLot[lotId][destination] = referrer;\n                    // send stable coin as reward\n                    require(_stableCoinAddress.transfer(referrer, vars.referralReward));\n                }\n            }\n        }\n\n        vars.tokensReceived = vars.tokensReceived.sub(vars.referralReward);\n\n        require(vars.lot.crateToken.mint(destination, quantity)); \n        require(_stableCoinAddress.transfer(_payoutWallet, vars.tokensReceived));\n        _cratesPurchased[destination][lotId] += quantity;\n\n        emit Purchased(\n            destination,\n            msg.sender,\n            lotId,\n            quantity,\n            vars.price,\n            address(tokenAddress),\n            vars.tokensSent,\n            vars.tokensReceived,\n            vars.discount,\n            referrer,\n            vars.referralReward\n        );\n    }\n\n    function getPrice(\n        uint256 lotId,\n        uint256 quantity,\n        ERC20 tokenAddress,\n        address destination\n    )\n    external\n    view\n    returns (\n        uint256 minConversionRate,\n        uint256 lotPrice,\n        uint256 lotPriceWithoutDiscount\n    )\n    {\n        // convert Stable Coin -> Target Token (ETH is included)\n        lotPriceWithoutDiscount = _lots[lotId].price.mul(quantity);\n        (uint totalPrice, ) = _getPriceWithDiscounts(_lots[lotId], quantity, _cratesPurchased[destination][lotId]);\n\n        (, uint tokenAmount) = _convertToken(_stableCoinAddress, totalPrice, tokenAddress);\n        (, minConversionRate) = kyber.getExpectedRate(tokenAddress, _stableCoinAddress, tokenAmount);\n        lotPrice = ceilingDiv(totalPrice.mul(10**36), minConversionRate);\n        lotPrice = _fixTokenDecimals(_stableCoinAddress, tokenAddress, lotPrice, true);\n\n        lotPriceWithoutDiscount = ceilingDiv(lotPriceWithoutDiscount.mul(10**36), minConversionRate);\n        lotPriceWithoutDiscount = _fixTokenDecimals(_stableCoinAddress, tokenAddress, lotPriceWithoutDiscount, true);\n    }\n\n    function openCrate(address from, uint256 lotId, uint256 amount) external {\n        require(address(_lots[lotId].crateToken) == msg.sender);\n        for (uint256 i = 0; i < amount; i++ ) {\n            emit CrateOpened(from, lotId, 1);\n        }\n    }\n\n    // /**\n    //  * @dev Withdraws the recipient's deposits in `RelayHub`.\n    //  */\n    // function withdrawDepositsForLot(uint256 lotId, uint256 amount, address payable payee) external onlyOwner {\n    //     lots[lotId].crateToken.withdrawDeposits(amount, payee);\n    // }\n}",
  "compiler": {
    "name": "solc",
    "version": "0.5.16+commit.9c3226ce.Emscripten.clang"
  },
  "schemaVersion": "3.0.23",
  "updatedAt": "2020-07-01T10:29:36.361Z",
  "devdoc": {
    "methods": {
      "isOwner()": {
        "details": "Returns true if the caller is the current owner."
      },
      "owner()": {
        "details": "Returns the address of the current owner."
      },
      "pause()": {
        "details": "Called by a pauser to pause, triggers stopped state."
      },
      "paused()": {
        "details": "Returns true if the contract is paused, and false otherwise."
      },
      "renounceOwnership()": {
        "details": "Leaves the contract without owner. It will not be possible to call `onlyOwner` functions anymore. Can only be called by the current owner.     * NOTE: Renouncing ownership will leave the contract without an owner, thereby removing any functionality that is only available to the owner."
      },
      "transferOwnership(address)": {
        "details": "Transfers ownership of the contract to a new account (`newOwner`). Can only be called by the current owner."
      },
      "unpause()": {
        "details": "Called by a pauser to unpause, returns to normal state."
      }
    }
  },
  "userdoc": {
    "methods": {}
  }
}